:040000006F009002FB
:100004000000000000000000A00000209E0300206B
:10001400A9BDF9F3A00000200000000000000000CA
:10002400A0000020A000002000000000000000004C
:10003400A000002000000000A0000020000000003C
:10004400A0000020A0000020A0000020A0000020AC
:10005400A0000020A0000020A0000020000000005C
:10006400A0000020A0000020A0000020A00000208C
:10007400A0000020A0000020A0000020A00000207C
:10008400A0000020A0000020A0000020A00000206C
:10009400A0000020A0000020A0000020A00000205C
:1000A40001A0B7170040984B41111367070198CB83
:1000B400982B1377E70F98AB1307800873370780E3
:1000C400137787083AC60F100000130770052380C2
:1000D400E704130780FA2380E7040F100000B847F1
:1000E400B70600069506558FB8C703C7B70413773C
:1000F400F70DA385E704B82713672701B8A71307EB
:1001040050149AA7372700408346578093F6F60E7B
:10011400A302D7808946A303D78003C7E7041377D4
:10012400C70F136717002387E70403C7F702136792
:100134002700A387E702982B1367170098AB238047
:100144000704B247F3A707800F1000004101828023
:10015400EFF03FF513058020970500009385C50A4D
:10016400170600001306466C63FAC50083220500D7
:1001740023A0550011059105E3EAC5FE171500E01B
:1001840013058593970500009385056A17060000FB
:100194001306C66963FAC5008322050023A055002F
:1001A40011059105E3EAC5FE17050000130505686E
:1001B40097050000938585676377B50023200500C4
:1001C4001105E36DB5FE93025002739002BC8D429B
:1001D400739042808542739012BC9302800873909E
:1001E4000230970200009382E2E193E232007390BE
:1001F4005230970200E09382826773901234730046
:0402040020300000A6
:10020800B7170040984B41111367070198CB982BFB
:100218001377E70F98AB13078008733707801377B6
:1002280087083AC60F100000130770052380E704FB
:10023800130780FA2380E7040F1000001307000C4F
:100248006315E5029A271367070C9AA7B7170040AA
:10025800982B1367170098AB23800704B247F3A7BE
:1002680007800F10000041018280B827937605208F
:10027800ADCA118B29E303C7E70403C6E704137764
:10028800F70F136636002387C704B02713664600A6
:10029800B0A792278E273346060893E5050C8EA74C
:1002A800A5470100FD1793F7F70FE5FFB7170040C3
:1002B80092A72387E70493770510DDC3371700401B
:1002C8003C2793E707013CA79377F50199EFB727F8
:1002D800004003C7578013670701A382E7801D47C3
:1002E8000DA013672700B8A7F9B725476366F70479
:1002F800B727004003C757801377F70EA382E7801C
:100308000547A383E78033450508B71700401367FF
:10031800050C9AA78AA7B5CE03C7570483C6570406
:10032800418B858A558F1DF3B82B418B05D3B82790
:100338001377D70FB8A719BF9377050199EBB7279C
:10034800004003C757801377F70EA382E780094759
:100358004DBFB727004003C757801377F70EB5BFC7
:100368009377850181EFB727004003C7578013773C
:10037800F70EA382E7801307100561B7B72700407F
:1003880003C757801377F70EA382E780130770051A
:100398008DBFB8271377B70F71BF4111814601464A
:1003A80081451145952213078008F337078093F795
:1003B80087083EC40F100000B717004013067005E9
:1003C8002380C704930680FA2380D7040F10000007
:1003D800FD55CEB723800704A245F3A505800F106D
:1003E800000073370780137787083AC60F1000009C
:1003F8002380C7042380D7040F10000003C76704B5
:10040800136717002383E70423800704B247F3A781
:1004180007800F10000001A09307E0043305F502E0
:1004280095473355F50201007D1575FD8280411110
:1004380022C406C62A841305803E7D14F13F334446
:10044800040875F8B24022444101828023030480E5
:1004580015472303E48001002302A48082808307D8
:100468006480E3CE07FE23030480828083076480D0
:10047800E3CE07FE03454480828083076480E3CE91
:1004880007FE2302A4808280411126C44AC24EC0BE
:1004980006C61377F50BAD47AA892E8995446306DE
:1004A800F70019456537653F8D444E854537FD5939
:1004B800FD1463983401B240A244124982494101B3
:1004C8008280135509011375F50F453F2209CDB7F1
:1004D800011126CC06CEB704080051371545BD37A3
:1004E800713769372AC6A53F32459377150089EBDE
:1004F800136515001375F50FF240E244056182801B
:10050800FD14E9FC0145CDBF3971B7F7070006DED8
:1005180026DC4ADA4ED852D656D45AD25ED062CEAB
:1005280003AB47027D57B7E700E083AA070022C65E
:1005380003AA470023A0E71823A2E718B71B004027
:10054800930770052380FB04930780FA2380FB043C
:1005580083C74B041147AA8993E7070E2382FB043C
:10056800372400401305F00F2303E4802E8C3289D2
:10057800B684E93DED35938779FF93F7F70F09477F
:10058800137BFB006362F712A14737070800630774
:10059800FB00B70707003E9C378707007955637E45
:1005A800EC02B3878401636AF702A9476398F906E6
:1005B80089E481446D3526850DA0E2850945E93534
:1005C80005090345F9FFFD14050C453D81C49377E2
:1005D800FC0FFDF7F53D69FD7D55B7170040130782
:1005E80070052380E704130780FA2380E70403C714
:1005F8004704418B2382E704F250B7E700E023A0C9
:10060800571123A24711E25432445259C259325A5F
:10061800A25A125B825B724C21618280A547639A61
:10062800F906A1478569631DFB029387F9FFB38625
:100638009700B374FC00B69493C7F7FFFD8C33FCA6
:100648008701416B856B9387F9FFB3F7870199E3BE
:1006580063FF340193D94900C147E3E637FF91BFEF
:100668009307F00FE9B78567C169FD17C9B7130587
:10067800800D6388690113050002638479011305FD
:100688001008E2851135A93521D94E9CB38434412F
:10069800C1B7E2852D45CD3BCA94E30C99F0050915
:1006A800F133A30FA9FED5BF9387F9FF93F7F70F8F
:1006B800636FF70AA1476319FB06B70708003E9C5A
:1006C80083C75B043707070093F7070299E3378767
:1006D8000700B70708003E977955E370ECF0B307B9
:1006E8009C00E36CF7EE8947639AF9048980D54941
:1006F800E38104ECE2850945413B11090327C9FF61
:1007080091472320E48003076480E34E07FE230318
:100718003481FD17EDFBFD14110C81C49377FC0F98
:10072800E9FF7D3371F54DBD83C75B0437070700CB
:1007380093F70702D5F33787070079BF8547E38426
:10074800F9F2E2852D4589339389F4FFE38304E6C2
:10075800313B93F7390091EB832604800327090086
:1007680093074900E398E6E43E89CE84F1BFB54794
:100778006396F9001305900BD13925BDB1471305D0
:10078800B00AE38BF9FE99476394F904A14763150E
:10079800FB00B70708003E9CE2852D45F5318144F2
:1007A8000D4BA149E131639664018327048023201E
:1007B800F9008504E39834FF8327048013172C017C
:1007C800635507002312F900EDB32322F900D5B3CE
:1007D8009D476399F90281451305B0047531BD44FD
:1007E8002320090023220900FD59493193F7740099
:1007F800CA9703C70700FD14398D2380A700E39625
:1008080034FF45BB91476399F900130560063D39EC
:10081800B931130590098DB7E38D09D8F15459BB47
:100828009711002093810180177101201301017D28
:100838001305400097F5FF1F9385457C1706002098
:100848001306069C63FAC5008322050023A0550001
:1008580011059105E3EAC5FE170500201305058F6C
:1008680002854111054506C622C426C24AC0212A6E
:100878001305403497000020E78080981304A00FE8
:1008880091208144A9281309A00F8504B3F7840295
:1008980091E38520252809ED054597000020E7808C
:1008A80000B9E5B71305200397000020E78020B8BA
:1008B80031286DF9630524011304A00FF1BF130457
:1008C8004006D9BF8545370540002DA8B717004019
:1008D80003A5470C13156569135565498280B71739
:1008E80000401307000423ACE70C8D4513050004F2
:1008F80011A8B71700409387870C9843134707043C
:1009080098C38280914763ECB704970700009387E8
:10091800E718B3C5F52098413E97B717004093876D
:10092800470D0287944337170040B3F6A64094C397
:100938009306070D9C42B3F7A74019A894433717AD
:100948000040B3F6A64094C39306070D9C42C98F96
:100958009CC29307070C98433377A74098C38280BB
:10096800944337170040C98ED9B798433377A740C7
:1009780098C3B71700409387070C9843498FF9BF6E
:100988009843498FF5B7797122D43714004026D29D
:100998004AD003592402063006D64ECE52CC56CA47
:1009A80033490908B3C4040839ED1379F9F793F406
:1009B800F49F33490908B3C4040893078008F3B7C0
:1009C800078093F787083EC40F100000930770054F
:1009D8002300F404930780FA2300F4040F100000A6
:1009E8002311240306B023000404A247F3A70780B9
:1009F8000F100000B250225492540259F249624A30
:100A0800D24A45618280B7F5070081463000B105BA
:100A1800194597000020E78020AF22478967F98FA2
:100A2800F1FB1369090893E4044093098008F3B7BC
:100A3800098093F787083EC00F100000930A7005DD
:100A480023005405130A80FA230044050F10000000
:100A58002311240306B0230004048247F3A7078068
:100A68000F100000294597000020E780E09AF3B9AD
:100A7800098093F989084EC20F100000230054051D
:100A8800230044050F1000001E3093E707201EB016
:100A980023000404924799BF8CFEFFFFA4FEFFFFCA
:0C0AA800C8FEFFFFD2FEFFFFE8FEFFFFCC
:00000001FF
