:040000006F10104C21
:100004000000000000000000900000208005002097
:10001400A9BDF9F5940000200000000000000000D4
:10002400960000209800002000000000000000005E
:100034009A000020000000009C0000200000000046
:100044009E000020A0000020A2000020A4000020A8
:10005400A6000020A8000020AA000020AC00002078
:10006400AE000020B0000020B2000020B400002048
:10007400D0000020B8000020BA000020BC000020FE
:10008400BE000020C0000020C2000020C4000020E8
:1000940001A001A001A001A001A001A001A001A054
:1000A40001A001A001A001A001A001A001A001A044
:1000B40001A001A001A001A001A001A001A001A034
:1000C40001A001A001A0411106C6EF003039F5BF1F
:1000D400B7170040130700032388E7028547173743
:1000E4000000232BF77C7300203041118146014628
:1000F4008145114506C65D2BB72700401147238370
:10010400E780B7F700E003A707D16D9B23A8E7D0EA
:1001140003A707D15D9B23A8E7D07300501001000B
:100124000100B2404101828041118146014681456E
:10013400114506C6A52BB727004011472383E78046
:10014400B717004003C7E70283C6E70483D78703D2
:1001540011661377F70F93E6360063E5C700719BCA
:1001640013671700B7170040930570052380B70481
:10017400130680FA2380C7040100010023820702CA
:100184002387E7022387D70403C7B704136707024B
:10019400A385E7042380070437F700E0832607D10B
:1001A40093E646002328D7D0832607D1DD9A232857
:1001B400D7D073005010010001002380B7042380BE
:1001C400C7040100010003C7B7041377F70DA38523
:1001D400E70423800704B240410182800111B7176C
:1001E400004006CE22CC26CA4AC883C6E70203C60C
:1001F400E70483D78703116793F6F60F1366360077
:1002040063E5E700F19A93E61600B7170040130878
:10021400700523800705930580FA2380B704010045
:100224000100238207022387D7022387C704238080
:10023400070437F600E0832606D193E64600232818
:10024400D6D003D7070213770760498F6575110568
:10025400498F420741830100238007052380B704A7
:100264000100010083C6F70037F40700B7F400E08B
:1002740093E60604A387D70083C6B7046104130971
:10028400F00F93E60602A385D7042390E70283A721
:1002940004D1DD9B23A8F4D07300501001000100A9
:1002A40013056004192E81463000A285194502C445
:1002B40023160100E52E8347D100E38A27FDB717F3
:1002C4000040130770052380E704130780FA238096
:1002D400E7040100010003C7B7041377F70DA385F2
:1002E400E70423800704F2406244D2444249056192
:1002F400828001114EC681460146AA898145114575
:1003040006CE22CC26CA4AC85526B716004083C753
:10031400E60203C7E60483D68603116693F7F70F54
:100324001367370063E5C600F19B93E717003714A2
:1003340000401309700523002405930480FA230068
:10034400940401000100230204022307F40223079A
:10035400E4042300040413055002AD28B7F700E0B9
:1003640003A707D11367470023A8E7D02300240578
:1003740023009404010001000347F40013670704F9
:10038400A307E4002567B3E9E9002310340303A7B6
:1003940007D15D9B23A8E7D0730050100100010032
:1003A4008146014681451145112623002405230079
:1003B4009404010001008347640493E717002303B6
:1003C400F40423000404F2406244D2444249B24992
:1003D40005618280B7170040930670052380D70417
:1003E400130780FA2380E7040100010003C6B70461
:1003F4001376F60DA385C70423800704137605023C
:1004040059CE03C6A700118A1DE22380D704238096
:10041400E7040100010003C7A70013674700238511
:10042400E7009307004B01000100FD17EDFFB7172C
:100434000040930670052380D704130780FA2380B5
:10044400E704010001007D892394A7000100010055
:1004540001000100238007042380D7042380E704DC
:10046400010001003727004093061005A303D7803D
:1004740023800704B7170040130770052380E7049F
:10048400130780FA2380E7040100010003C7B704BF
:1004940013670708A385E704238007048280137683
:1004A400050441C603C6A700418A1DE22380D70480
:1004B4002380E7040100010003C7A70013670701B5
:1004C4002385E7009307007D01000100FD17EDFF80
:1004D400B7170040930670052380D704130780FAEA
:1004E4002380E704010001001376F5011366060476
:1004F4002394C700010001000100010023800704C8
:100504002380D704130660042380E7046318C5001E
:100514000100010037270040894689BF010001001E
:10052400372700409306200591B72380D704238002
:10053400E7040100010003D787001367070C239425
:10054400E7000DBF4111814601468145114506C6AC
:10055400B12AB7170040130770052380E704130777
:1005640080FA2380E7040100010003C767041367CE
:1005740017002383E70423800704B24041018280EB
:1005840081460146814511451522B71700401307DE
:1005940070052380E704130780FA2380E704010031
:1005A40001007D572396E70203C76704136717000A
:1005B4002383E7042380070401A0BD473305F50224
:1005C40001007D1575FD8280411122C426C206C634
:1005D400AA84014463179400B24022449244410126
:1005E400828005041305803E4204C13F4180DDB78B
:1005F4002303048015472303E48001002302A4801D
:10060400828083076480E3CE07FE23030480828014
:1006140083076480E3CE07FE03454480828083071A
:100624006480E3CE07FE2302A4808280411126C4A5
:100634004AC24EC006C61377F50BAD47AA892E8968
:1006440095446306F70019456537653F8D444E852B
:100654004537FD59FD1463983401B240A244124950
:10066400824941018280135509011375F50F453FF5
:100674002209CDB7011126CC06CEB70408005137A4
:100684001545BD37713769372AC6A53F324593777B
:10069400150089EB136515001375F50FF240E2445C
:1006A40005618280FD14E9FC0145CDBF397126DC6A
:1006B4004ADA4ED852D656D45AD25ED006DE62CE2C
:1006C40066CCB7E700E07D5783AA070022C603AAD9
:1006D400470023A0E71823A2E718B7170040130721
:1006E40070052380E704130780FA2380E70483C797
:1006F4004704930B75FFB684E20793FBFB0F854613
:10070400AA892E8B328937240040E187015763FA86
:1007140076016308D5008946130700026313D500E8
:100724000157D98F93F7F70FB71C00402382FC04BD
:1007340011472303E4801305F00F5D3D094CD135C7
:10074400636D7C11B7050700DA9537870700795583
:1007540063F2E504B3879500636EF702370B080074
:10076400A94733EB65016399F90689E48144513D56
:1007740026850DA0DA850945553D05090345F9FF90
:10078400FD14050B693D81C49377FB0FFDF7DD353F
:1007940069FD7D55B7170040130770052380E704F2
:1007A400130780FA2380E70403C74704418B23829D
:1007B400E704F250B7E700E023A0571123A2471142
:1007C400E25432445259C259325AA25A125B825BE1
:1007D400724CE24C21618280A5476395F9068569D4
:1007E4001309F00FB3069900B3742B01B69413499F
:1007F400F9FFB3749900856B33796901416B938771
:10080400F9FFB3F7270199E363FC340193D9490055
:10081400C147E3E637FF99BF0569C1697D19D9B7B7
:100824001305800D6388690113050002638479014F
:1008340013051008CA85DD3B353D21DD4E99B3848F
:100844003441D9B7DA852D45D533CA94E30099F2FA
:1008540005097D3BA30FA9FED5BF9387F9FF93F745
:10086400F70F6361FC0C83C71C0413073008631F74
:10087400F70437070800636BEB04B3079B00B70664
:10088400100063F5D704334BEB0089476393F906F3
:100894008980D549E38C04ECDA850945413B11098B
:1008A4000327C9FF91472320E48003076480E34EB4
:1008B40007FE23033481FD17EDFBFD14110B81C4E6
:1008C4009377FB0FE9FF7D3371F5E1B5B71700406E
:1008D40003C75704B70708001377070219E3B7875C
:1008E40007007955E378FBEA33079B00E3FFE7F859
:1008F40055B58547E382F9F2DA852D45053B9389A1
:10090400F4FFE38504E6293393F7390091EB83265A
:1009140004800327090093074900E39AE6E43E892B
:10092400CE84F1BFB5476396F9001305900BC93126
:1009340035BDB1471305B00AE38BF9FE99476391BE
:10094400F904B7050800B365BB002D45C5318144E2
:100954008D4BA14975396396740183270480232044
:10096400F9008504E39834FF8327048013172B01CF
:10097400635507002312F900D5BB2322F900FDB308
:100984009D476399F90281451305B0044531BD447F
:100994002320090023220900FD599D3993F774008F
:1009A400CA9703C70700FD14398D2380A700E39677
:1009B40034FF6DBBA1476392F9046D398144630D23
:1009C4000B008D479304C0036308FB0093040005E8
:1009D40063048B01930440041375C507E30895D899
:1009E4001945393139390545213126850D390945EE
:1009F4003D314931E31C05D669BB91476399F90040
:100A040013056006F536F53E130590090DB7E38F1F
:100A140009D4F154A9BB19CD91CD09CE81473387AF
:100A2400F500834607003307F50085072300D70048
:100A3400E397C7FE828019C991C909CA910583A7A2
:100A4400C5FF11057D16232EF5FEC5BF828001C9A1
:100A540019C62A960505A30FB5FEE31DA6FE8280DE
:100A640081473307F5000307070019E33E858280B9
:100A74008507C5BF01112E8626CAAA84131506014F
:100A84009305F004418122CC06CE32C6EF00F07902
:100A94002A8401C53246A685BD3F2285F2406244C0
:100AA400D24405618280854715C18DC105C2814745
:100AB400B306F5003387F50083C606000347070035
:100AC4006398E6008507E315F6FE85473E85828038
:100AD4008147EDBF9307F6FFBE952A966313C500C1
:100AE4008280FD1583C715000505A30FF5FEFDB72C
:100AF400AA87014581CF09CE3E96850703C7F7FF34
:100B04006317B700E31BF6FE05458280828001452A
:100B140082807971973700009387C7DF22D480439E
:100B240006D626D24AD04ECE52CC56CA5AC85EC633
:100B340062C45DCC37C9C901814B173A0000130A5E
:100B4400EAE197340000938424DD1309F937973AD6
:100B54000000938AEAD6B709C0A8370B40578357D9
:100B6400240095E35C44639D0B00173700002323A6
:100B7400F7DA032CC4002285EF005078628499A828
:100B840023A6FB00FDB783270A00829783866401AE
:100B94001C4463DB06063307F5406367E9089737AF
:100BA400000023A707D2835524000345040097308F
:100BB40000E0E78080875C405844A9CF1444B6978E
:100BC4008386640163C5060063E33701DA971CC4B6
:100BD400A28B3A8449F497370000938767CE9C4BE5
:100BE40009476378F706F917173700002322F7CE71
:100BF400B250225492540259F249624AD24A424BA8
:100C0400B24B224C45618280E377F5F83387F94093
:100C14002A9761B763970B009737000023ACE7CEA0
:100C240089BF23A6EB00B1B7D85009CF63DF060014
:100C34003385A74083A70A016376F5009737000040
:100C440023A8A7C8A28B404471B7E3F3A7FECE97AD
:100C5400C5B79737000023AD07C659BF411122C459
:100C6400173400001304C4C81C4006C626C24AC078
:100C740091C782979737000023AC07C65C4091C3A5
:100C840082971C406390071C9737000083C757E284
:100C9400858B95C797370000A38C07E017370000B2
:100CA400034737E1914763FCE700BD2B973700000A
:100CB40083C737E0F9178A07A2979C4382971739AD
:100CC40000001309A9E28347C900918B99C3EF007F
:100CD40030491C4491C3829797340000938444C3E1
:100CE4009840173600000346B6BD9737000083C707
:100CF40027BD93961700BA9683D60600D5CA9737B0
:100D0400000083C7E7BB63EFC70A97370000238956
:100D140007BA1C40639807129737000083C797D916
:100D240091CF9737000083C7D7D889EB9737000056
:100D3400A38207D8970001E0E780809797370000E7
:100D44009387C7C19C43638F070EB707C0A81737A3
:100D54000000232FF7B6753B973700009387C7BB76
:100D6400DC53EDC317370000130787B5184B9737CB
:100D7400000083C7B7BB6367F70C1737000003474E
:100D840057D3914763E0E70C8347C900918BDDEBB0
:100D940090409736000083C6B6B263CBD70A22448C
:100DA400B240924402494101172300E06700E34145
:100DB400850793F7F70F973600002383F6B0E3E631
:100DC400C7F235BF86073E978355070023100700F7
:100DD40097370000239C07B297370000938707B129
:100DE4009C43173500000345A5AD13172500BA979A
:100DF4009C4382979737000083D747B11737000089
:100E0400034707AC93C7F7FF7D8D931717009840EE
:100E14003E97835707005D8D2310A7009737000086
:100E240083C707AA91C7850717370000230AF7A8C5
:100E3400173700000347C7A89737000083C757A890
:100E4400E375F7ECB24022449244024941018280A6
:100E5400139717003297035707006DF7850735BFBF
:100E6400AD6737C70040BD072326F7200F100000E9
:100E7400973700009387C7A4C84F83278726BD668A
:100E8400BD0693C7F7FF99836A052326D7205D8D96
:100E940082804111B7170040985F3AC6945F324789
:100EA400E39CE6FE3245410182808280011197373E
:100EB40000009387A7CB22CC03A4070B26CA06CE37
:100EC4002AC42EC6854419E40145F2406244D24442
:100ED400056182808347910003471400858B630476
:100EE400F7000044CDB719469305A100130524006B
:100EF4005D3EE31895FE0545C9BF011122CC1734A8
:100F04000000130464BC18402AC62EC432C206CEA4
:100F14003C4B93F7F7F73CCB97F000E0E780007683
:100F24001840973600009386A6B73C4B93E7070812
:100F34003CCB9C423245A24523A007000347150041
:100F440003482500220742084297034805004297B8
:100F5400034835006208429798D703475500034871
:100F64006500220742084297034845004297034818
:100F7400750062084297D8D7034795000348A50037
:100F84002207420842970348850042970348B50068
:100F94006208429798DB0347D5000348E50022071F
:100FA400420842970348C5000345F500429762058D
:100FB4002A97D8DB03C7150003C52500220742057D
:100FC4002A9703C505002A9703C5350062052A97A9
:100FD40098CF03C7550003C56500220742052A9729
:100FE40003C545002A9703C5750062052A97D8CF23
:100FF40003C7950003C5A500220742052A9703C528
:1010040085002A9703C5B50062052A9798D303C7BC
:10101400D50003C5E500220742052A9703C5C5008C
:1010240083C5F5002A97E2052E97D8D3D843759B3C
:10103400D8C3D84313671700D8C39843136717005E
:1010440098C3124698425C43858BD1E71C4F0145F7
:101054002300F6009C429C4FA183A300F6009C420F
:101064009C4FC1832301F6009C429C4FE183A30162
:10107400F6009C42D84F2302E600D84F2183A302F6
:10108400E600D84F41832303E600D84F6183A303CE
:10109400E60098532304E60098532183A304E60052
:1010A400985341832305E60098536183A305E60022
:1010B400D8532306E600D8532183A306E600D85369
:1010C40041832307E600DC53E183A307F600F240E3
:1010D4006244056182800100B5B75D713AD2173769
:1010E40000001307279C36D414433ED022DE9C5EB6
:1010F4004ACA86C6998396C49AC29EC026DC2ADA56
:101104002ED832D642CE46CC72C876C67AC47EC2B7
:10111400858B3A841739000013098998D1CB9C5EDA
:10112400973400009384849893F7F7F99CDE17377B
:1011340000000347079893070008631BF700832701
:1011440009009C4393F70704173700002303F7961D
:1011540083C7040093F707049DC397270000938770
:10116400E77F9C4382979737000023A9A79483C7FE
:10117400040093F7F70B173700002309F79283C78E
:10118400440093F707048DE7854717370000A30150
:10119400F79297370000938727939C43096798C772
:1011A400130700FC973600002384E690D844F8D354
:1011B4001C40985F1183058B09CB985F3D9B98DF9A
:1011C4000547973600002385E68E985F1D83058BBF
:1011D40011CB985F1377F7F798DF8547173700002F
:1011E4002308F78C83270900D8430583058B19C787
:1011F400D843759BD8C3D843799BD8C37254B6409F
:10120400A64216438643E2545255C2553256A2565C
:10121400125782577248E2485249424EB24E224F08
:10122400924F616173002030973700009387C7891C
:101234009443973700009387678703C70700058B9C
:1012440011CB973700002385078697370000A381C9
:101254000786828003C71700058B65F7F85271FF74
:1012640083C75700DDB7173800001308A883032786
:1012740008001C5F9583858BD5EB1DC6973700004E
:101284009387C78E83986704030306001C5BBD83A2
:10129400630B030893F7F71FB38717419A9709471E
:1012A400B3C7E7022300F60085CA83270800985BCA
:1012B4004607935767016356070093E707C0C207C1
:1012C400C18303970600C207C18709C7BA970947B4
:1012D400B3C7E7022390F6009DC98347150085CB69
:1012E4009726000083C6E67C93F6060413879700CE
:1012F400914785CA3A950347050085461376F70654
:101304006311D60262076187B147634C07008327E4
:1013140008009C5FED838D8B17270000A30DF778E1
:1013240081473E858280B3871741ADBF8947D5BFCA
:10133400411122C406C6172400001304E47818409F
:1013440049E9AE877453FDFE3E85B28597270000B8
:10135400238F077497F000E0E780800F9727000041
:10136400938747749C43B70680009843558F98C36E
:10137400D857719BD8D797270000A38B077297275C
:101384000000A38507721C40094798C3B7F700E023
:1013940003A707D16D9B23A8E7D003A707D15D9BC3
:1013A40023A8E7D073005010144017270000130738
:1013B400E76F83472700858B89EB83473700858B4D
:1013C400D9C7972700002385076EB2402244410104
:1013D40082808D476310F502972700009387876CFE
:1013E4009C43B70680009843558F98C3D857719B88
:1013F400D8D75DBF8547E319F5FAB567BD075CC764
:101404000F1000001C400967094698C7130700F82D
:1014140097260000238EE6681727000013078768C5
:101424001443984231830D8B6319C7001307E043BB
:10143400F8D33D673D07D8C785BF984231830D8BEC
:1014440001E713076019EDB71307E01BD5B7FC528A
:10145400ADF3A5BF5D714EDE9729000093898964C1
:1014640003A7090086C6A2C4A6C2CAC052DC1C4394
:101474001729000013098969172A0000130ACA648E
:1014840093F7F7E793E707081CC383260900370798
:10149400CEFF7D179C46130680022A84F98F9CC6D2
:1014A40083270A00130700082800B8CBAE849305ED
:1014B4001008EFF0CFD997F000E0E780201C97F0F8
:1014C40000E0E780202983A709009376F41FB70E74
:1014D400FCFF23A40700984B130510F8CE8513676F
:1014E400F70398CBF84F4A88B70F0400137707E047
:1014F400558FF8CF9843F576FD16758F98C39843AA
:10150400B706330091421377F7E798C39843FD1E5B
:1015140085431377F7E71367071098C30327090078
:10152400130F80021C47D58F1CC783270A0013079B
:10153400900D3400B8CB014793583700A69883C761
:10154400080013767700B3D7C740858BDDC79C416D
:10155400032E0800239C0704239007060323CE02CE
:101564001373D3FF23266E0203AE07001373F7072A
:10157400137E0EF833636E0023A0670003A34702B3
:101584003363F30123A26702014303DE0706630703
:10159400C30303A30703038E06001353F30062037C
:1015A4001353834163586E0003A307031353F300DB
:1015B4002380660003D307061373F30F03DE870546
:1015C400E3F5C2FD03A347023373D30123A26702E9
:1015D40083870600635CF40003C308003396C300EA
:1015E4001346F6FF337666002380C8003E8663D335
:1015F400A7002A8613158601618505071377F70F5F
:101604008506E31BE7F3B640264496440649F2599F
:10161400625A61618280011136C897260000938660
:10162400A64A3EC49C423AC632CAD8472ACE2ECCD9
:1016340013161701635506029847131617016350D2
:1016440006027D57B8D71727000013076727584F9E
:101654000507172600002323E628116798C7984733
:101664000D83058B1DC317270000034747441367E9
:10167400170017260000230CE642130700F817266C
:1016840000002307E642214798C79847058B09CFF6
:101694001727000003479741136717001726000018
:1016A400A306E640054798C798470983058B09E7D1
:1016B40098470583058B39CF9847172600001306F2
:1016C400E63E172500001305E53D0983058B630CF1
:1016D40007101841184331830D8B63130710AC4B6B
:1016E400184E93F5050203471700E9C57DE7130774
:1016F4007006D8CF034706001367170017260000AB
:101704002306E63A114798C718415C57F19B93E7C3
:1017140017005CD79C4298479316370163D606029C
:101724009726000083C6864BC18A1727000013073B
:10173400E743E1C60347070713670702972600003C
:10174400238EE648056798C798479316270163D107
:101754000602172700000347A7356207618763570E
:1017640007000547972600002384E634096798C7D5
:1017740098479316070163D606029726000083C68E
:10178400F645858A172700001307473EC9C6034755
:1017940017071367270097260000A381E6442167F3
:1017A40098C77245E2455246C2463247A247056190
:1017B400730020300DDF85456315B7001307B006AD
:1017C4000DBF89456315B7001307F0061DB78D4596
:1017D4006315B7001307300729BF1307500711BF5C
:1017E4001307600739B70347360013671700172636
:1017F4000000A30EE62A094739B7834607070946BE
:10180400BD8A6388C600034707078D463D8BE31BEB
:10181400D7F2114725B783461707918AC9D20347E0
:1018240017071367870085BF172700001307072AC8
:101834008346B7019727000083C7172CB69793F701
:10184400F70FFD4663EAF6044C4B97260000A38F7E
:10185400F6269727000083C7772705473317F70035
:1018640097260000A38AF6286D8F1DEF97260000A7
:1018740083C6D628B3F6D70213050002814733D6B0
:10188400F500058A13F8F70F09CE6399E600972748
:101894000000A38D0723828081177DB70507137786
:1018A400F70F8507E39DA7FC8280972700009387A5
:1018B400E70A9C43011122CC4EC606CE26CA4AC86A
:1018C40052C456C2829797270000938727228047E5
:1018D40081496305A406BE84972700009387C70344
:1018E400038767013E8963550706018D135455002C
:1018F4009727000083C7271F9379F501636DF402CE
:10190400370AC0A8B70A405705379C4497260000F9
:1019140083C6661D139756003E9783076901158C8D
:1019240063C507006363470156979727000023A305
:10193400E71CE37BD4FC1604B3693401F24062442F
:101944004E85D2444249B249224A924A0561828074
:10195400E37D85F8B707C0A833848740229579B71B
:1019640097270000938787FF9C43411122C406C632
:1019740026C28297972700009387471780476309F9
:10198400A406BE8497270000938707F9838767011D
:1019940063D80704018D135455009727000083C7AB
:1019A40087146367F404493598449727000083C774
:1019B40087139396570036971D8C9726000023AB08
:1019C400E612E372F4FE2244B2409244172500006A
:1019D4000345D50F8145410117F300E06700A31BC0
:1019E400E37A85FAB707C0A833848740229565B7A0
:1019F400B240224492444101828097270000938799
:101A0400E7109843B75702009387079F8326070977
:101A1400139656006358060083260709139666003A
:101A240063440600FD17FDF3828071C5AA87014552
:101A3400E9C58D07C207C183F19BC207C1831307A0
:101A44004003636FF702172700001307E7110843E9
:101A5400172700001307C71014436398A60217271B
:101A64000000130767EB185B014541CB4111C20726
:101A740006C60545DD8D0297B240014541018280CD
:101A8400172700001307070ED9B70357650035E37E
:101A940003574500636FF704B306F7402146637CA0
:101AA400D60203280500938687001D8FAA96611726
:101AB40017260000035626E12392E60023A0060120
:101AC4002393060014C12312F500130786FF9726FB
:101AD4000000239AE6DE2313B5009725000083D582
:101AE40085DEB387F54017270000231EF7DC2105A8
:101AF400828008419DB70145828082800DC197276D
:101B040000009387670603A30700972700009387C5
:101B1400270583A8070081469A8763E3170182801B
:101B240003A80700636DF50A636BA80A138787008F
:101B3400E367E5FE03D66700216705076317E60040
:101B440003C7818B0507238CE18A972500009385C1
:101B540025D703D6470003D76500239307003297A0
:101B64004207418317250000231FE5D4638A6702D7
:101B740017250000130505FF08416303F50203D58B
:101B8400660019ED83D7460023A0060121073E967F
:101B940021062392C600972700002396E7D2B68732
:101BA4009843E30E17F7972600009386A6FB94420A
:101BB400E307D7F683566700BDF283D64700035682
:101BC40047001843A106B2962392D70098C383D73F
:101BD4006500A107172700002317F7CE8280BE8671
:101BE400C28725BF011197270000938727F822CCCD
:101BF40003A4870B26CA4AC84EC606CEAA84130974
:101C04002500854915C083C7140003473400858B1C
:101C14006304F700405CFDB71946930544004A8508
:101C2400EFE07FE8E31835FF2285F2406244D244B6
:101C34004249B24905618280411197270000938788
:101C4400E7F222C403A4870B26C24AC006C6930443
:101C54002500054901E82285B24022449244024904
:101C640041018280A6851305A402979001E0E780D4
:101C740080B4E30225FF405CF1BF411197270000C7
:101C84009387C7EE22C403A4870B26C24AC006C6A4
:101C940093042500054901E82285B2402244924478
:101CA400024941018280A6851305A401979001E0B1
:0C1CB400E78060B0E30225FF405CF1BF58
:101CC000971100209381019A17610020130181333D
:101CD0001305400097E5FF1F9385C53217060020C6
:101CE000130606FE63FAC5008322050023A05500F3
:101CF00011059105E3EAC5FE17B50100130505922C
:101D0000970500209385C5FB1386018463FAC500FF
:101D10008322050023A0550011059105E3EAC5FEC5
:101D20001385018497250020938505F66377B50018
:101D3000232005001105E36DB5FEFD42739002BC42
:101D40008D42739042809302800873A0023097E224
:101D5000FF1F9382222B93E232007390523097023E
:101D600000009382420E73901234730020303D4382
:101D70002A876373C3029377F700BDEFADE59376CF
:101D800006FF3D8ABA960CC34CC30CC74CC741072B
:101D9000E36BD7FE11E28280B306C3408A06970246
:101DA000000096966780A6002307B700A306B70039
:101DB0002306B700A305B7002305B700A304B700A7
:101DC0002304B700A303B7002303B700A302B7009F
:101DD0002302B700A301B7002301B700A300B70097
:101DE0002300B700828093F5F50F93968500D58D7B
:101DF00093960501D58D61B7939627009702000051
:101E000096968682E78086FA9680C1171D8F3E9649
:101E1000E374C3F8A5B7058905C5411117A50100ED
:101E20001305451D06C6EF90410381453D45A1249C
:101E3000B2409306803E794689450545410131AC63
:101E4000828041111305800406C697E0FF1FE780DA
:101E5000A05885457D55EF00906385457D55EF0081
:101E6000706D371700408327870A8D4513050020C2
:101E700093E707202324F70AEF007061EF10200397
:101E800017A5010013050542EF80317D9123852DB3
:101E900017050000130565F83D28EF30116FEF00BE
:101EA000D01797E0FF1FE78040222380018423A200
:101EB0000184B717004003A7070CB706C0FFFD1643
:101EC000758F23A0E70C03A7070DB7064000558FB9
:101ED00023A8E70C828023A2A1841306400689452B
:101EE000172500200345059D6F102065B71700409A
:101EF00083A7470C3707400083C60184F98F13B7C7
:101F00001700638DE6002380E18489EB9387418489
:101F100003A30700630403000545028382807971EF
:101F200022D426D24AD04ECE52CC56CA06D61379E7
:101F3000F50013844194854493899184138A8184A4
:101F4000914A631209022254B25092540259F24942
:101F5000624AD24A172500200345C59501468545AA
:101F600045616F10805DB3779900A9C783470A0068
:101F700003C7090023000400E58FD98FA384F184EF
:101F80002312D4002301C400A300B40099E123006C
:101F9000540136C632C42EC2EF10C0458347040038
:101FA000B2462246924593E7270008C42300F40076
:101FB00033499900860493F4F40F310459B79377A9
:101FC00015001387818485CB8547B7160040639E33
:101FD000F50083A7860A93F7F7EF23A4F60A834751
:101FE00007005D8D2384A184828083A7860A93E7FE
:101FF000071023A4F60AE5F5834707001345F5FF0C
:102000007D8DCDB7011122CC26CA4AC84EC652C416
:1020100006CEAE899374F500138941940544214A94
:1020200089E8F2406244D2444249B249224A0561F9
:102030008280B3F7840089CFCE85639649018345BA
:10204000090093C5150022852300B900A18C853FA6
:1020500006041374F40F3109E1B7AA8711C909CA3C
:1020600081CA9307300663E3C70055BD854559BF54
:1020700081453E85EDBFA14763EFB70297A60100FA
:10208000938646F81397250036971C43411106C6E0
:10209000B69782879306803E154685457D3FB240C0
:1020A0000145410182809306803E15469305200339
:1020B000F5B7893FEDB70145828037170040832788
:1020C000070A411106C693E707102320F70A814546
:1020D0003D450D3F8566938606FA7946A945054537
:1020E0003D3DB240238A01964101828083C74197DA
:1020F0006395071679714ECEC16922D426D24AD093
:1021000052CC56CA5AC85EC662C406D666C26AC0F7
:1021100013844194014C3D498544138A9184930A68
:102120004006FD19130B4006930BF00FB3F7240183
:10213000E1C783470400898BD5CFEF10A02B1C4447
:102140002A8D6368F50E83460400834C240093F7C0
:102150001600BDCB33079B41F99A81452685937CB8
:10216000F70F2300D400A13D0346040093774600F7
:1021700099EF83461400638C7601FD1693F6F60FF3
:10218000A300D40089E6134626002300C400834739
:102190000400898BB1C303574400330797033357B7
:1021A000570393170701337737016A97C18318C420
:1021B00063050C08A1C33E876373FC006287131C90
:1021C0000701135C0C013DA093E6160085452685AA
:1021D0002300D400ED3365BF83450A002685E58DD5
:1021E000B335B000493D03470A0093C7F4FFF98FA8
:1021F000A384F18433C92401860493F4F40F3104D9
:10220000E31609F2630D0C022254B25092540259A3
:10221000F249624AD24A424BB24B924C024D62861C
:10222000224C171500200345E568854545616F1070
:10223000C030898FC207C183A5BF3E8C65BFB25035
:10224000225492540259F249624AD24A424BB24B4A
:10225000224C924C024D45618280828041119396BE
:102260002500AA852D4506C697E0FF1FE78040445C
:10227000B240014541018280411126C2939425005C
:1022800022C44AC02A843289A686AA8501462545E9
:1022900006C697E0FF1FE780A041A6864A86A28572
:1022A000294597E0FF1FE780A040B24022449244B6
:1022B0000249014541018280011122CC06CE37142A
:1022C000004026CA4AC84EC652C483447405034A15
:1022D000B4058349840503499405E92B8347A40584
:1022E00093F4F40F137AFA0F93E71700230DF40415
:1022F00093F9F90F1379F90FB717004003C7A70532
:10230000058B6DFF03D5C705A38D4705238C3705C6
:10231000A38C2705A38B9704F2406244D244424920
:10232000B249224A0561828041119397050122C476
:1023300006C6C1872E8463DA0700EF00704319C117
:10234000EF00F03B2165218D39A093F7150081CB7B
:10235000713B13451400B24022444101828093F73F
:10236000250091CF61361306000A89451715002014
:1023700003454554EF10601C13452400E9BF9397B3
:10238000250163D10702EFE0006837F6020013066B
:1023900006E08965171500200345C551EF10E019C7
:1023A000096555B7939715010145E3D607FA17A5B7
:1023B00001001305E5CBEF80512A130600649165F7
:1023C000171500200345054FEF1020171165A5BF15
:1023D0001D71494697A50100938505C517A5010004
:1023E000130545EC86CE97E0FF1FE780006C01E9FE
:1023F00017A50100130585C4EF80312601A0B7F6AB
:1024000000E0795798CAFD57DCCA0567B7E700E0D6
:1024100023A0E7101306F00290C223A0E7180100E2
:1024200001001306C0038145480897E0FF1FE780BD
:10243000406297070020938767C13ECA89679387E8
:102440000780231CF100ED472312F1029547A301F9
:10245000F10285472303F102A167938707E03ECE8F
:10246000970700009387C7DFBEC4970700009387D4
:10247000E7E0BEC6B547A305F102971700009387B2
:10248000279D3EDA97070000938747E33EDE8D677E
:102490009387D7D0B7F507002314F1028146970739
:1024A0000000938707167000E10519453EDC97E0B0
:1024B000FF1FE780E01F58088147994670003E964D
:1024C0000346060085070507A30CC700E398D7FE5F
:1024D000D24791C70357810185676373F70001A055
:1024E0004808EF100049AA8501C917A50100130586
:1024F00025B6EF80F10401A0F640256182804111EC
:1025000017050000130585E206C622C4EF10A0429D
:10251000171400201304043A2300A40091208D2AEC
:10252000693E6132034504002244B24037F602009E
:10253000130606E0896541016F102000B7170040BF
:10254000130770052380E704130780FA2380E7044C
:1025500001000100C8DB9717002023AF07348280F9
:102560004111054506C622C426C24AC0C52E3714ED
:1025700000400D45130970055D2E930480FA230079
:10258000240523009404010001008347F40213058D
:10259000800C93F7D70FA307F4028347F40293E765
:1025A0001700A307F4022300040497E0FF1FE7804D
:1025B000E0010545AD2E230024052300940401000D
:1025C00001008347F4021305000293E74700A307C5
:1025D000F4022300040497E0FF1FE78040FE130588
:1025E000607E8147014781466546A14545262244D4
:1025F000B24092440249014541016F10406501110A
:1026000022CC2A84680006CE26CAEF003001A52518
:102610006367A4003305A440F54763EBA700324588
:10262000EF0090010945F2406244D2440561828086
:10263000228529373245EF00300037370040834785
:10264000574093F70704B9C3971400209384C42616
:102650009C400D45E9FB694597E0FF1FE78040B8C6
:102660009C408DC31305D402B707C0A863F7A70029
:10267000370540571305D5022295C93597E0FF1F4E
:10268000E780E0A60545AD2C014571BF010045BFBF
:10269000B7170040130770052380E704130780FA7B
:1026A0002380E7040100010003C7E70013678700E8
:1026B0002387E70003C7170313670702A388E7020E
:1026C0002380070437070010B7E700E023A0E710D6
:1026D000828089476305F50263E6A7008547630AA0
:1026E000F50082808D476301F50299476303F50287
:1026F000828017A501001305E5996F80017617A563
:1027000001001305259AD5BF17A501001305859A69
:10271000EDB717A501001305A59BC5B70111939748
:10272000050122CC06CE26CAC1872E8463D00702BB
:1027300003C5A184EF00D00319C1EF00407C2165DF
:10274000218DF2406244D2440561828093F71500E6
:1027500091CB17F5FF1F1305E570EF10F10313453B
:102760001400C5B793F785000145E1DFB136BD22FE
:10277000930485DAA68517A501001305A58FEF80C0
:10278000215C9307E10078009306A10030009305D7
:102790006100480059260357A1000358E100835700
:1027A000C10083568100035661008355410017A57F
:1027B00001001305E58CEF80A15893D7844017F7EB
:1027C000FF1FA30DF75097F7FF1F238A97508357DA
:1027D000A10097F6FF1F93862650614617F7FF1F4B
:1027E000A30FF74E8357C100854503C5A18417F792
:1027F000FF1F2307F74E8357E10017F7FF1FA301C1
:10280000F74EEF40902613060064A14503C5A1844E
:10281000EF00B052134584002DB7011117050000D9
:10282000130505F006CE22CCEF10E0101384A1842E
:1028300085472300A4002307F1001306E1008D471C
:10284000854513055030A307F100EF3081281306AA
:10285000F100854513058030EF30A12717F6FF1FE3
:1028600013060649C14513057030EF30812617F66F
:10287000FF1F1306E644D54513056030EF30612590
:102880009305000A0D45EF20F0539305000A11450A
:10289000EF205053034504008545EF00D038034531
:1028A000040013060064A145EF003049F240624481
:1028B00005618280B717004003C777051377E70FDC
:1028C000A38BE704130700F8A38DE7043D47238C8F
:1028D000E70413075003A38CE7048280B7F70700CF
:1028E000DC4B13D7070111E36547C207C1831D8D78
:1028F000A9473305F502ED473345F5023A95828045
:10290000B717004003C7E704930670052380D70478
:102910000D89930680FA1377C70F498F2380D70458
:10292000010001002387E704238007048280B71792
:10293000004003C7E702930670052380D7040D8982
:10294000930680FA1377C70F498F2380D7040100BD
:1029500001002387E70223800704828037170040A5
:102960008347E702120593067005BD8B2300D70449
:10297000C98F930680FA93F7F70F2300D70401005D
:1029800001002307F70223000704828041112A83F4
:10299000014E930E407E130F0019930F400663E41F
:1029A0006E0E9308001913034006B3781503854E85
:1029B0000D4FA14F337365020D891335150063EE7A
:1029C000BE0E1308F6FF79467298420813580801A4
:1029D0003307C70213D61700BE0732976146B3F616
:1029E000C60213068070B386C6023697A166F58FBD
:1029F00042075D8FB716004083C7F60293F70708BA
:102A0000A307F1000346F10083C7F60293F7070816
:102A1000E394C7FE8347F100B716004093F7F70F22
:102A2000FDC7B7170040930670052380D7049306AF
:102A300080FA2380D7040100010023AA070383C67C
:102A4000170311667D1693E60608A388D702D45BA8
:102A5000C85F93854703A98EF18EF5FA930670053A
:102A60002380D704930680FA2380D7040100010055
:102A700098C103C7170313670704A388E7022380DD
:102A80000704410182807D133368E3039308E01655
:102A9000630E08003368F3039308D0166308080038
:102AA0009378330093B818009388D81633081E0122
:102AB000131E0801135E0E01DDB56393E50305489F
:102AC000638608000148630303002A88710872982E
:102AD000FD15131E0801C205135E0E01C181C5B5A7
:102AE00013F8150063F4BF007908D5B71338180040
:102AF000E5BF83C7F60293F70708A307F100034673
:102B0000F10083C7F60293F70708E394C7FE8347F3
:102B1000F10093F7F70FF1DF29B7B718004003A8CA
:102B2000C80303D3A80383D888034111060393D8AD
:102B3000F8004A08B30E13019308407E22C626C44B
:102B40004AC21358280123101501930F001993024C
:102B5000D01693034006130FC01603530500B37835
:102B6000F30363800810B3787302638108109378CD
:102B7000330013BE1800130EDE166350C8092390ED
:102B8000050005449944F94FF542130900199303D0
:102B9000400683D80500138F18006394880A0353F6
:102BA0000500337E2303630C0E08B378730263863B
:102BB00008009378330063840808F148635C1805C3
:102BC0002390E5010508231006010566130606E1BA
:102BD000B3D5CE023244A244124933F6CE0223903A
:102BE000B6009306C0033356D602B3F6DE022310B6
:102BF000C7002390D7004101828093B818009388C2
:102C0000D816330818414208050313580801231049
:102C10006500A1B78548630B0E00337E73028148BF
:102C200063060E009378330093B81800F108330858
:102C300018414208135808012390E50199BFF5484F
:102C4000B5BF13F3180063F8140163180300E3D948
:102C500002F7F948E9BFE31C03FEE3D30FF7FD4891
:102C6000F9B7E3DE02F19308E01661BFE3590FF113
:102C70009308D01679B74111B7170040985F3AC64C
:102C8000945F3247E39CE6FE3245410182809147E2
:102C900063EEB70217970100130747448A05BA95F8
:102CA0009C41BA978287B717004003A7470B13458B
:102CB000F5FF698F23AAE70A03A7070B698F23A8EB
:102CC000E70A03A7070A798D23A0A70A8280B7170E
:102CD000004083A6470B1347F5FFF98E23AAD70AB6
:102CE00083A6070B558D23A8A70A83A6070A758F0D
:102CF00023A0E70A8280B717004003A7470B498F3C
:102D000023AAE70A03A7070B1345F5FF45BFB7172B
:102D1000004083A6470B1347F5FF758F23AAE70AE8
:102D200003A7070A598D4DB7B717004003A7470BF4
:102D3000498FEDB7914763EEB7021797010013076C
:102D4000273B8A05BA959C41BA978287B7170040FE
:102D500003A7470D1345F5FF698F23AAE70C03A7C7
:102D6000070D698F23A8E70C03A7070C798D23A013
:102D7000A70C8280B717004083A6470D1347F5FFC5
:102D8000F98E23AAD70C83A6070D558D23A8A70C6F
:102D900083A6070C758F23A0E70C8280B71700402D
:102DA00003A7470D498F23AAE70C03A7070D134577
:102DB000F5FF45BFB717004083A6470D1347F5FF42
:102DC000758F23AAE70C03A7070C598D4DB7B717CA
:102DD000004003A7470D498FEDB7B717004003D553
:102DE0008700420541819377050491EB9377F501C4
:102DF0003755E801130505803345F5028280937746
:102E0000050C130700046397E7009377F501374536
:102E10009C1CCDB72165130505D0828037E700E003
:102E20001C435443A183E206D58F1CC1FD572320C8
:102E3000F7182322F718828013178500B7E700E000
:102E400023A0E710618123A2A7108280B7F700E0DA
:102E50008847CC478280814737370040A14663C40A
:102E6000C700328582800345B740E38EA6FE3385D6
:102E7000F5000345050085072304A740CDB74111A0
:102E800022C406C62A84913F2947B307E502B2400F
:102E90008D83B3D7870222449507B3D7E70237372C
:102EA0000040C207C1832316F7404101828071654B
:102EB00041111305052006C6D937B737004013075F
:102EC00070F82381E7400D47A381E7401307000412
:102ED000A380E74005472387E740B2404101828055
:102EE00023AC05FE1C4191E7010001000CC182806A
:102EF000BA8703A787FF6DFF23ACB7FE82801DC191
:102F00008346E5FF1307F00F9147639EE6004111EA
:102F100006C697F0FF1FE780A0BEB24081473E85FE
:102F20004101828095473E85828001E9014582808A
:102F30000145B2402244410182809565411193854B
:102F400005D022C4C98D2A842105C2054205C1814C
:102F5000418106C697F0FF1FE78060AD71D9FD572C
:102F600023200500231285002303F5002105D1B796
:102F700017170020130787941C43411122C426C24F
:102F80004AC006C601440149BA8489E7A165B5274C
:102F90001DC401A803C7E7FF631AA7020DCCA165F2
:102FA00059219840832784FF6319E40217170020F2
:102FB0002326F790FD57232C04FE230FF4FE2285D1
:102FC000B2402244924402494101828011E03E898C
:102FD00083A787FF5DBF3E84E5BF232CF9FED9BFE1
:102FE000B1CD411122C406C62A849717002083C799
:102FF000378D2E856375F400894763E887000137B4
:103000000D45B24022444101828083A785FF99E7A4
:1030100003C7E5FF9307F00F6305F700CD351545AE
:10302000CDB7238F85FE17150020130525894D3D4B
:1030300022852244B240A1654101F5A61545828052
:103040009717002023AC078682809717002093876C
:10305000678C9C4399E33E85828003D727006316E3
:10306000B70003C70700E308A7FEDC47E5B7C9C1FF
:10307000797122D406D626D24AD04ECE0144414799
:10308000B3D78540858BA5C31205314722953305FB
:10309000E502971700209387E78B03A90700854473
:1030A000B3948400C204C180BE892A990327090011
:1030B00011C7032549002EC60297B2453147330494
:1030C000E40283A709003E941C4489E723200900F9
:1030D00023220900B2502254A58D02599254F2497C
:1030E0002E85456182800504E31CE4F88144DDB748
:1030F0002E85828041111397050122C406C626C27F
:103100004AC041872E84635E07009D3511C1C53BCF
:10311000A1673D8C2285B24022449244024941017C
:103120008280EDD9AA8701474146B356E440858A9B
:103130008DCE9207BA97B146B387D7029716002073
:103140009386468103A906008544B394E400C20433
:10315000C1803E99832709000325490082972320D7
:10316000090023220900258C75B70507E31FC7FA5C
:103170008144D5BF970700209387077A9C5341115C
:1031800022C406C61384818099C782971C403E954D
:1031900023A4A18039A0970700209387277C9C4314
:1031A000EDF70840B74703009387D73F3305F50293
:1031B000B7A72600938737ECB24022443E9523A45C
:1031C000A180410182800111680006CE22CC26CA6E
:1031D000EFB05060FD576300F50E324797060020B0
:1031E000938686739707002083C75774B68463F964
:1031F000E70A170400201304A46C18483706C0A877
:10320000630EC70297070020938747759C438297F8
:1032100032471C486373F700BA871707002003473B
:10322000F770998F3E958387640163CE0700B707D7
:10323000C0A8636AF500B7074057A5A88386660152
:1032400063D506061D8D17140020130424861C4C1C
:1032500081CF971700209387678B94433707CDFF63
:103260007D179C46F98F9CC619E13705C0A89707C2
:1032700000209387676ADC53829719E51C4C8DC345
:10328000EFD0B00BEFD020041C4C99CB9717002047
:103290009387C7879843B70633001C47D58F1CC751
:1032A000F2406244D24405618280E37DF5F8B307C1
:1032B000F7403E9549BF97040020938464609C4882
:1032C0003704C0A8E38E87FC97070020938707691F
:1032D0009C4382979C481707002003473765998FC6
:1032E0003E95970700209387276383876701E3CC88
:1032F00007F4E36A85F481B77DC93748F6A6130859
:1033000008C889476366C80E7971970700209387BC
:10331000676422D45AC803A807003E8B06D626D27B
:103320004AD04ECE52CC56CA5EC662C40144B148A1
:10333000C147B30B1403137CF40F33037801032349
:1033400003006311030AAE8AC165AA84938505F060
:1033500041453A8AB689328997E0FF1FE780206DA0
:103360000DE9970700209387275B9C5B99EF8147C6
:10337000B250225492540259F249624AD24A424B04
:10338000B24B224C3E854561828081451145829732
:10339000F9BF970700209387E757984321E39707E2
:1033A000002023A9A7562300050083270B0005470B
:1033B00033148700232605002324250123118500CB
:1033C00023224501DE9784C323A2570123A447018A
:1033D000E38F09F82380890159BF36875447F5FEEA
:1033E00048C7D1B70504E316F4F4A14751B789479C
:1033F0003E85828097070020938707569C434111A2
:1034000022C406C6170400201304844B81CB829784
:103410005C483E959707002023AEA74A4848B24033
:103420002244410182809707002083C77749637156
:10343000F502170700201307A74D9317150008433F
:103440003E9583570500DD8D2310B5000145828030
:103450000D4582809707002083C797466373F50266
:10346000170700201307C74A93171500084393C591
:10347000F5FF3E9583570500FD8D2310B5000145EE
:1034800082800D4582809307F00263E5A70A3146EA
:103490003306C502970700209387C74B94432A87BA
:1034A0000945B2969C42C9CB011122CC4EC60544B7
:1034B000935947003D8B3317E400131407014180F3
:1034C00026CA4E85AE84A2854AC806CEBD3E2A894C
:1034D0000145630A0904A2854E85AD3F9707002088
:1034E0009387C7479C4382979707002083D7C73F9E
:1034F000B38797021307006493870732B3D7E702B5
:103500003E9597070020938727418387670163C90A
:103510000700B707C0A86365F500B70740573E9599
:103520002324A9000145F2406244D2444249B249F1
:10353000056182800945828082809707002083C7C9
:1035400037386364F5000145828097070020938730
:10355000E7409C43EDDB011122CC26CA4AC84EC687
:1035600006CEB2892E89AA848297170400200354BC
:10357000A437330434039307006413040432335430
:10358000F402970700209387273903876701BE89D4
:103590002A9463490700B707C0A86365F400B7071A
:1035A00040573E94CA8526854D3401C500C5054562
:1035B00015A093E504F0C205C181414597E0FF1FC6
:1035C000E780E04619ED83A7090381C7A685114569
:1035D00082970145F2406244D2444249B2490561B2
:1035E0008280970700209387E7329C439DE39707EB
:1035F000002023A1A73285472326050000C52311FB
:10360000250123009500A300F5002322050045B7FE
:10361000BA87D84775FFC8C7F9BF51C9797122D495
:1036200026D24AD04ECE52CC56CA5AC85EC662C4C2
:1036300006D6B689B28A2E8A2A899304000C4144A0
:10364000170B0020130B0B31054C930B0003832742
:103650000B00A6979C43A1E79375F400B315BC003B
:10366000C2055686C18113554400C13D0DC983274B
:103670000B000145BE9423A0240123A244016384CE
:10368000090023808900B250225492540259F24911
:10369000624AD24A424BB24B224C456182800504B9
:1036A0001374F40FB104E31474FB2145E9BF094519
:1036B0008280411122C426C24AC006C6AA842E892D
:1036C0003284A53DCA852685EFF03F980DC51706C3
:1036D0000020035666213306860293070064130612
:1036E00006323356F60250C10145B240224492449C
:1036F0000249410182802145CDBF411122C426C229
:103700004AC006C62A892E84EFF03F94AA8419C1C4
:1037100023110500A2854A85353B9707002083C702
:10372000271A639B27019707002083D7271E5D8CEC
:1037300097070020239C871C014591E01945B24062
:10374000224492440249410182809307F00263E8D7
:10375000A7044111B14722C43304F50226C29704DD
:1037600000209384241F9C4006C6A2979843894753
:103770000DC39377F5008545B395F500C205C1816A
:103780001181A53F9C40A29723A0070023A2070018
:103790008147B240224492443E854101828089475C
:1037A0003E858280411106C622C4EFF01F8A11E5D2
:1037B0000145B2402244410182809707002093874F
:1037C000E7199C4300458297970700209387C71409
:1037D0008387670163D50702B747F6A63305A44080
:1037E0009387F7C7E3E6A7FC930700643305F50268
:1037F0009707002083D7470F3355F5025DBFE37D60
:10380000A4FCB707C0A83E94C1BF411106C69707E4
:10381000002023A3A7140295B2409707002023ADF0
:10382000A70A014541018280994763E9B7008A05EB
:10383000970700209387C70BBE9588C182804111EE
:1038400071468145170500201305850A06C622C466
:1038500026C297D0FF1FE780C01F1306C002814514
:10386000170500201305C50597D0FF1FE780601ED0
:10387000EF20615B9707002023AE07089707002021
:1038800023AC070C9707002083C7770A13D52700BE
:103890008D8B3E958D473305F502170400201304E8
:1038A0002402994785459704002093842404390510
:1038B0001375F50F2301A4003305F5021305052444
:1038C00097E0FF1FE780A0169707002023A4A70812
:1038D000834724001305052488C08A073E9597076F
:1038E000002023A7A702EFF0AFF53521834714008E
:1038F000944017F6FFFF1306C677139727003697F5
:1039000010C3138717001377F70F0A07369717F6B8
:10391000FFFF1306667E10C313873700890793F7EE
:10392000F70FA300E400B24022448A07B69790C381
:103930009244410182809707002083C777F81707D8
:103940000020034707F863F3E70217070020130777
:10395000E7F918439386170017060020A302D6F64E
:1039600093962700369708C33E8582809307F00F11
:10397000E5BF1C416387071641777D8FB70600209E
:1039800089476311D71603574500630D071441118A
:1039900026C21946AA849305F00F690506C622C4FB
:1039A00097D0FF1FE780001505478D476305E51297
:1039B00017040020130444F61C4481CB585899473F
:1039C000631B0710185C631807101306C0038145BA
:1039D00017050020130545F497D0FF1FE780600707
:1039E0001306C003A685170500201305E5F297D03E
:1039F000FF1FE78080029707002083D7A7F299E78F
:103A00009307001017070020231EF7F097070020E8
:103A100083C767F191E78547170700202305F7F073
:103A20009707002083D747F091E7ED47170700205D
:103A3000231CF7EE9707002083C7F7EE91E7954721
:103A400017070020A301F7EE9707002083C7E7EDD3
:103A500091E78547170700202309F7EC9707002017
:103A600083C7B7EC99E78347F40017070020A30E3C
:103A7000F7EA9707002083C767EB91E7B547170779
:103A800000202305F7EA9707002083C777EA99E724
:103A90009307800217070020A30CF7E89707002080
:103AA00083C7D7E899E79307D00217070020A30F31
:103AB000F7E683C7840199E79307C003170700203F
:103AC0002308F7E61C5491C7829797070020239D8F
:103AD000A7DEB5338147B240224492443E8541017E
:103AE000828089473E85828097070020938707E779
:103AF0009C43411106C6829793070064B307F50201
:103B00009706002083D646DE17070020130747DB01
:103B1000184F0145B3D7D7026300F7023385E7405A
:103B20006368F700370500B03355D502198D3E950F
:103B3000170700202322F7DAB2404101828097075D
:103B4000002083D787DA51471D45637CF702794708
:103B500019456378F7021307200315456373F702CD
:103B60001307B0041145637EF700130740060D45A7
:103B70006379F7001307600909456374F70013B50B
:103B8000B70F8280011122CC06CE2A842EC6EFF018
:103B90006FDEB245F240818D33A5A50222956244C5
:103BA0001375F50F05618280011122CC06CE2A849F
:103BB0002EC6EFF02FDCB245F240818D33A5A50271
:103BC000229562444205418105618280011122CC27
:103BD00006CE2A842EC6EFF0EFD9B245F240818D91
:103BE00033B5A502229562440561828097070020C3
:103BF000938787D2985739CB411122C426C206C673
:103C0000BE84029717070020035707CC2A8415CBE0
:103C1000BA876373A700AA87C207C183BA86637392
:103C2000E400A286C206C182958F5147635BF7000C
:103C3000DC5491C38297EFC0105D97070020239555
:103C400087C8B24022449244410182808280970713
:103C50000020938767CCDC57011106CE81C72AC6A6
:103C60008297324515C5B7873200938727A117077A
:103C70000020232BF7C69707002023A1A7CE170506
:103C800000001305A5E65136F2400145056182802A
:103C90009707002083C7A7C9139787016187635CD3
:103CA00007029707002023AB07C2B787320093872C
:103CB00027A1170700202329F7C27D57B7C7004067
:103CC00023A4E72697D7FF1F9387C719170700205C
:103CD0002326F7C86DB713F7170011CFB787200356
:103CE000938707D0170700202320F7C097D7FF1F1F
:103CF0009387671AE1BF6177970600202396E6BE97
:103D000081CB93070032170700202310F7BEF9BFBD
:103D100093072003CDBF011122CC17040020130408
:103D2000A4BF084406CE26CA4AC801E90545F240A8
:103D30006244D2444249056182805C58E5DB185CEC
:103D400075D77000854582971844B247E300F7FEA7
:103D50009305E004170500200355C5BC97E0FF1F3D
:103D6000E780E0CC17070020232CA7B661D1170607
:103D70000020035626BB9305F00F97D0FF1FE78066
:103D800040CD814417090020130989B3970700200B
:103D900083C767B90326090263C1F402328597E03D
:103DA000FF1FE780E0D501459707002023AA07B24F
:103DB0009707002023A807B29DBF9705002083D551
:103DC00065B6B38795020844185C898185043E95E1
:103DD00008C2029765BF411122C4170400201304D2
:103DE000A4B31C4426C206C64AC09704002093848C
:103DF00024AD91EB885025EDB24022449244024913
:103E00000145410182801C5CF5D79C5099EF9305D8
:103E1000E004170500200355E5B097E0FF1FE78099
:103E200000C19707002023ADA7AA885061D51706C7
:103E30000020035626AF9305F00F97D0FF1FE780B1
:103E400040C101499707002083C7E7AD9050E35375
:103E5000F9FA9705002083D5E5AC338525031C448A
:103E6000898105093E951C5C08C28297E1BF97E0F5
:103E7000FF1FE780E0C89707002023A307A6970746
:103E8000002023A107A68DBF011156C2970A00206A
:103E9000938A8AA883A78A0022CC4AC84EC606CE37
:103EA00026CA52C45AC0AA892E8432896385072241
:103EB00003A74A03630707147D476366A7149704A3
:103EC00000209384E49F03AA040263170A0A9565FD
:103ED000938515E0170500200355C5A497E0FF1F43
:103EE000E780E0B49707002023ACA79E2A86630AE8
:103EF000051083A74A0303A58A009705002083D5F0
:103F000065A28981829783A78A0003AA0402170702
:103F100000202329F79C8947639CF908C147631255
:103F2000F40E9705002083D5E59F938505FC914706
:103F3000B3C5F5028A05D29503C705009307A0050E
:103F4000631DF70A83C715006399370B4A852286DC
:103F5000910597D0FF1FE78040AC9C50528563933A
:103F600047150145F2406244D2444249B249224ACF
:103F7000924A024B05618280D850E38EE7F895653E
:103F8000938525E0170500200355C59997E0FF1F8D
:103F9000E780E0A92A8A35C52A8683A74A0303A5B4
:103FA0008A009705002083D5E59789818297A5B778
:103FB0008D47639DF900C1476315F4049705002000
:103FC00083D54596938545FDF199B5B79147639A99
:103FD000F900631834039705002083D5A594A11533
:103FE000E5B7C147639FF900A14763EC87009705D8
:103FF000002083D52593C115C1BF9C50528563977E
:10400000470D294585B71307F006568B6361A70A4C
:10401000130A05FE1947334AEA021707002003571F
:104020006790970A0020938AAA89330AEA023E9A87
:1040300083A74A026395470183A40A029DE493057E
:10404000E004170500200355E58D97E0FF1FE7808A
:10405000009EAA845DD583274B039705002083D556
:10406000658C2A8689815285829791451307A00520
:10407000898193972500A69783C607006393E6047A
:1040800083C61700639C360385058A052286A6959C
:104090004A8597D0FF1FE780409883A70A02E382F2
:1040A00097EC268597E0FF1FE78080A55DBD13078D
:1040B000E007E368A7F4130A05F985B783D527005D
:1040C00045BF83A70A02E38E97F2268597E0FF1F7C
:1040D000E78000A33DB797F7FF1F9387677E8C5358
:1040E0008DD191479306A0058983139727002E97BA
:1040F00003460700E317D6F003461700631C36019A
:1041000085078A072286BE954A8597D0FF1FE780DC
:10411000C09081BD83572700C1BF97F7FF1F9387CA
:10412000A77F984739C79C5FA9C705476313E50474
:10413000411122C417F4FF1F13048478105006C6DF
:104140000DC6485097F5FF1F83D5C57D898182979D
:10415000085097E0FF1FE780A09A97F7FF1F23A161
:10416000077897F7FF1F23AF0776B240224441013B
:1041700082808280011117F7FF1F1307E7794EC66F
:104180008329870022CC26CA4AC806CE52C456C20A
:10419000AA842E843289638A09201C5FBA8A99EB2B
:1041A0002945F2406244D2444249B249224A924AE5
:1041B000056182805C5BEDD7FD4763E9A70E97F947
:1041C000FF1F9389E96F83A70902B1CB03A58A007A
:1041D00083A749026395A70689476393F408C147FB
:1041E000E310F4FC17F5FF1F0355C5739147130542
:1041F00005FC3345F5029317250003A50902228625
:10420000CA853E959307A0052300F500A3009500FD
:10421000110597D0FF1FE7804080014559B79305EE
:10422000E00417F5FF1F0355E56F97E0FF1FE780D8
:10423000008097F7FF1F23A5A76A49F995B783A7C1
:104240004A0303A6090297F5FF1F83D5A56D89814F
:10425000829783A78A0017F7FF1F2325F768ADBF52
:104260008D47639EF400C147E31CF4F217F5FF1F6E
:104270000355456B130545FD9377C5FFBDBF9147BA
:10428000639AF400E31E94F017F5FF1F0355856948
:104290002115DDB7C147E395F4F0A147E3E287F0CC
:1042A00017F5FF1F035505684115F9B79307F00689
:1042B00063EAA706930705FE1947B3C7E70217F796
:1042C000FF1F0357276617FAFF1F130A6A5FB3879A
:1042D000E702BE9983270A02A9CF83274A02639A7D
:1042E000370703250A0291461308A005FD5593D709
:1042F0002600C207C183139727002A9703460700A9
:10430000631D060783481700035627006395980628
:10431000B306D64063CF860485078A072286CA85FE
:104320003E95C5BD9307E007E3ECA7E6930705F9C3
:1043300079B79305E00417F5FF1F0355A55E97D0E5
:10434000FF1FE780C06E97F7FF1F23ABA75851F5FB
:1043500081BD83A74A0303260A0297F5FF1F83D571
:10436000655C89814E85829797F7FF1F23AC37578D
:104370008DBFA300B700B2869DBFB385860017F638
:10438000FF1F0356265A9105130606FCE3FAC5E003
:10439000130634001376C60F1106B29623000701E8
:1043A000A30097002311D70085BF97F7FF1F9387BE
:1043B00027519453BE89A1C203A50902914613084F
:1043C000A005FD5593D72600C207C1831397270088
:1043D0002A9703460700631606058348170003560D
:1043E000270063989800B306D640E3D786F2A3006F
:1043F000B700B286C1BF8357C70017F5FF1F03453B
:1044000085529305E0043305F5024205418197D0BA
:10441000FF1FE780C06197F7FF1F23A3A74C49FD4B
:1044200041B317F6FF1F0356E64F97F5FF1F83C5ED
:10443000854FB385C502338686001106E3E2C5D6F3
:1044400081BF01458280011106CE2EC6EF70E03695
:1044500001C9B245F2400355250005616FA09016D1
:10446000F240494505618280A38A0186238A01863C
:1044700023AE018423A0018623A2018623A4018602
:1044800023AC018423AA018497F7FF1F9387474F2A
:10449000130640382391C70271761307400B1306A9
:1044A00006B82391E7002392C70211671D469306C1
:1044B00000059305000A1305007D2392E70023936E
:1044C000C70241470546130810F82395E7002396D5
:1044D000E7002399E700239AE700239BE700239C4A
:1044E000E7002394E7022396070323900700239312
:1044F000B7002394B7002397D7002398D700239DB4
:10450000A700239E0700239F0700239007022395FF
:10451000C702239707021308F00723980702239284
:10452000E7042393E704239FE7042390E7062391FE
:10453000E7062392E706239907031307C01C239A73
:10454000C702239BC702239C0702239D0702239EC9
:104550000702239F0702239007042391C704239493
:104560000704239507042396C7042397D7042398A9
:10457000D7042399A704239A0704239B0704239CA9
:104580000704239DD704239ED7042393A7062394CF
:10459000070623950706239607062397B706239851
:1045A000B70623990706239AE7067D57239B07063C
:1045B000239CE7068280011126CAAA84214522CCC9
:1045C00006CE2E8432C636C43AC2EFE01F961DC90D
:1045D000A24612473246930700FD2300F500994793
:1045E000A30095002301F5002303D500A303E500F4
:1045F0002312C500AA8522856244F240D244056197
:104600006FE01F9EF2406244D2440561828023AE77
:10461000A184828023A0A186828023A2A186828099
:1046200023A4A1868280011122CC4AC806CE26CAC4
:104630002A890144B30489006368B400F2406244EB
:10464000D2444249056182802EC6EFE0BFB2931783
:104650000501C183A183B2452380F40093071400B0
:1046600093F7F70F850463F9B700CA97090423800D
:10467000A7001374F40F7DBF3E847DBFC16717F59B
:10468000FF1F0355452EFD176304F502411117F670
:10469000FF1F0346663F9385C18606C6EF605072D2
:1046A000B240FD5717F7FF1F231FF72A41018280F1
:1046B000828009C925151375F50F1335850E13452D
:1046C000150082800145828023900500C9C679715A
:1046D00022D426D24ECE52CC5AC806D64AD056CA7A
:1046E0005EC63684328AAE892A8B814463F34407DE
:1046F000B307940083C70700138914004209939AF3
:10470000070193DA0A011359090163840A04CA975D
:104710006341FA04B307240183CB07005E85513F50
:104720000DC99387FAFF2390F90063906B0313057B
:1047300019002295B250225492540259F249624A09
:10474000D24A424BB24B45618280D694C204C180AA
:1047500071BF0145C5B701458280411126C2AE84B3
:1047600022C497F7FF1F23A7C72097F7FF1F23A196
:10477000B72097F7FF1F23ABA71E2A844146930556
:10478000F00F26854AC006C6054997C0FF1FE7807F
:1047900060366310250597F7FF1F9387671C884BCA
:1047A000C145513541469305F00F228597C0FF1F43
:1047B000E7804034854463189502224497F7FF1F31
:1047C0009387071AB24092440249C847C145410144
:1047D00099BD41468145268597C0FF1FE7808031FE
:1047E000E31225FD4DBF41468145228597C0FF1F3D
:1047F000E7804030E30395FCB240224492440249F2
:1048000041018280411122C426C22E84AA8413064B
:104810000002814517F5FF1F1305851406C697C0D2
:10482000FF1FE780002397F7FF1FA38C971297F7CE
:10483000FF1F238D8724EFA0E05A854719C18147C8
:104840004945B240224417F7FF1F230BF71092444B
:1048500041018280814781CD19C98547631BF500DD
:1048600083C7550093E707FCA382F50085473E8583
:10487000828089476317F50083C7550093F7F703D4
:10488000E5B70D478547E314E5FE03C755001377E9
:10489000F70313670704A382E500D1BF81478DC1E9
:1048A00005C103C755009306000C85471377070C15
:1048B0006308D700930600048D476303D700894738
:1048C0003E858280411122C4005D06C626C21DC8F5
:1048D000AA84085009C597D0FF1FE780602248507E
:1048E00009C597D0FF1FE780A021085409C597D0BC
:1048F000FF1FE780E020228597D0FF1FE780402040
:1049000023AC0402B240224492444101828009ED6A
:1049100097F7FF1F83C7E70417F5FF1F1305C505AA
:1049200081CB1385C184828017F5FF1F1305C50451
:10493000828017F5FF1F0345C502828097F7FF1F8E
:1049400093870702C847828097F7FF1F9387470125
:10495000884B828097F7FF1F93878700DC4B884343
:10496000828097F7FF1F9387A7FFD84B1C438507CB
:104970001CC317F5FF1F0345D5FE9307F00F630512
:10498000F50091656FE03FAA8280011122CC06CE2E
:104990002E8432C6EF6030739147B245631FF50035
:1049A000938781869C438DC303A30700630E030096
:1049B00022856244F24005610283938701869C430D
:1049C00081C703A34700DDB7F24062440545056196
:1049D0008280011122CC2A840355450006CE26CAC6
:1049E0004AC84EC6EF60504C35C52A89834405003D
:1049F0008349C500C13D4A85EF7010480355440006
:104A0000EF60B06783C74187B1CB6399970483C5D3
:104A100051872685EFF03FA319E1238A01860355CC
:104A20004400EF60506A9147631FF500035744004C
:104A300097F7FF1F83D727F36317F700FD5717F783
:104A4000FF1F2312F7F2F2406244D2444249B249B6
:104A50000561828081499304F00F6DB79307F00FD1
:104A6000E38FF4FA834664000356440003452400B0
:104A70004E87A685893665B779715EC6AA8B2E8565
:104A800052CC56CA5AC806D622D426D24AD04ECEC6
:104A9000AE8A328B368AEF6030417DC1045D2A894F
:104AA000E5C09C50614599C3130540039C5481C7E0
:104AB00051054205418163050A00710542054181A6
:104AC000DC5081C7590542054181EFE00FC62A84B9
:104AD00045C96146814597C0FF1FE78080F797F978
:104AE000FF1F83C9E9EC6394090083490900930718
:104AF00000FD2300F400A947A30074012301F40082
:104B0000230364018C50231254011305840191C9BD
:104B100008C47146930A440397C0FF1FE780E0EF83
:104B200056858C5491C948C45146930A450197C093
:104B3000FF1FE78080EE5685630C0A0008C87146A7
:104B4000D285930AC50197C0FF1FE78000ED568507
:104B5000CC5099C548C8594697C0FF1FE780E0EB85
:104B6000A2854E85EFE0CFC72254B2509254F2494D
:104B7000624AD24A424BB24B4A850259456199B3C7
:104B8000B250225492540259F249624AD24A424BDC
:104B9000B24B4561828001114EC6AA892E854AC852
:104BA00006CE22CC26CA2E89EF60103021C997F498
:104BB000FF1F83C4E4DF99E0834405001945EFE05B
:104BC000CFB62A8405CD8145194697C0FF1FE780DF
:104BD00040E8930700FD2300F400B947A300340127
:104BE0002301F40023122401A2856244F2404249C9
:104BF000B2492685D24405616FE08FBEF24062441F
:104C0000D2444249B2490561828039715ECEAA8B95
:104C10002E8526DA4ED652D456D25AD006DE22DC63
:104C20004AD8AE84328BB68A3A8ABE8942C6EF60D1
:104C3000B02721CD2A894145EFE02FAF2A8431C525
:104C40004146814597C0FF1FE780A0E017F5FF1F91
:104C5000034505D619E103450900930700FD23002C
:104C6000F400BD472301F400B247A30074012312EE
:104C7000940023046401A304540123054401A30503
:104C800034015CC4A285EFE0AFB5F2506254D25457
:104C90004259B259225A925A025BF24B21618280E8
:104CA000797126D2AA8439454AD04ECE06D622D46E
:104CB0002EC6B2893689EFE04FA721C1B2459307CE
:104CC000000D2310F500B1472A842312B5002301FB
:104CD000F500CE851905194697C0FF1FE780E0D380
:104CE00023062401A2852254B2500259F24913F539
:104CF000F40F925445616FE0AFAEB250225492541B
:104D00000259F2494561828017F7FF1F034777C5B3
:104D10009307F00F630DF706411126C2AA843945A7
:104D200022C406C64AC0EFE04FA02A8439C99307BF
:104D300000FD2300F500A30095002301050097F571
:104D4000FF1F938565C30D05194697C0FF1FE780B8
:104D5000C0CC17F9FF1F1309A9C083578900A2858A
:104D600017F5FF1F0345F5BF2315F400834719000E
:104D70002306F4002244B2409244024941016FE00C
:104D80002FA6B2402244924402494101828082808F
:104D900001115AC02A8B314526CA4EC652C456C28A
:104DA00006CE22CC4AC8AE84B28A368ABA89EFE0EF
:104DB000CF9735CD2A842685EF60100F11C50347A4
:104DC000C500A1476314F70417F9FF1F034979B918
:104DD000930700FD2300F4009D47A3006401230115
:104DE000F4002312940023135401231444012315C7
:104DF0003401A2856244F240D244B249224A924A26
:104E0000024B4A85424905616FE08F9D17F9FF1FEC
:104E10000349D9C7E31E0BFA938781909C439C47B3
:104E2000C5DBCE865286D6852685829755B7F24059
:104E30006244D2444249B249224A924A024B056135
:104E40008280011122CC2A84214506CE2EC6EFE0B5
:104E5000CF8D21C1B245930700FD2300F500C54762
:104E60002301F50083C73500A301F50083D7450072
:104E70002312F50083C765002303F50083C775007F
:104E8000AA85A303F50022856244F24005616FE024
:104E90002F95F240624405618280397162CC2A8C80
:104EA000594526DA4AD84ED652D456D25AD05ECE7A
:104EB00006DE22DCAE8432C636C4BA8B3E8BC28A92
:104EC000468A8359010403494104EFE00F8625C94E
:104ED0003246930700FDA2462300F5009547A30143
:104EE000C500A30085012301F5002A841946110598
:104EF000A9C2B68597C0FF1FE78020B223066401D0
:104F0000230A240123157401231754012318440193
:104F100023193401A2856254F2504259B259225ADF
:104F2000925A025BF24B624C2685D25421616FE0AB
:104F30002F8B814597C0FF1FE780A0B1C1B7F2500A
:104F40006254D2544259B259225A925A025BF24BDD
:104F5000624C2161828097F7FF1F83C787A08DCBAA
:104F60004111AA8519461385C18406C697C0FF1F43
:104F7000E780A0AA9385C18417F5FF1F0345659EAE
:104F8000EFF05F8DB2401385C18441016F901066D0
:104F90000145828017F7FF1F0347B79C9307F00F67
:104FA0006305F708411126C2AA84294522C406C612
:104FB000EFD0BFF72A8429C1930700FD2300F50035
:104FC000A1472301F500A300950097F7FF1F9387E2
:104FD000279983C727009385C1841105A30FF5FE88
:104FE000194697C0FF1FE78040A3A28517F5FF1F52
:104FF00003453597EFD0DFFE17F7FF1F034767968E
:105000008D47631FF700938741869C4391CB03A391
:105010008700630703002244B240924441010283A7
:10502000B240224492444101828017F7FF1F034798
:1050300047938D47631AF700938741869C4389C73E
:1050400003A38700E31D03FC8280797122D406D676
:1050500026D24AD04ECE52CC094455CD2A8903558A
:1050600005002E8A5144EF602064AA844DC597F74D
:10507000FF1F83C7A7A1FD1793F7F70F0547494403
:10508000637BF7080347C500A1476314F700631467
:105090000A089C5C4544C1E39165938545711305FD
:1050A000C00297D0FF1FE780809888DCAA894D4412
:1050B0003DC11306C002814597C0FF1FE78060997C
:1050C000835709009386490036852391F90071467C
:1050D0009305490036C697C0FF1FE78000948947B3
:1050E0002380F90003C5C400B246035609006115C8
:1050F00097F5FF1F83C5459913351500EF80307F65
:105100002A8463060A00D2852685EF70500201C406
:105110002685EFF02FFB2285B2502254925402597B
:10512000F249624A4561828097F7FF1F83C707965D
:10513000FD1793F7F70F0547637AF708894741CAC8
:10514000011122CC26CA4AC84EC652C406CEAA892C
:10515000368AB2842E89EF6020552A84D14739C916
:10516000485509C597D0FF1FE7808099F1452685EE
:1051700097C0FF1FE780409048D4CD4705CD8346B8
:10518000C40021478147639FE600630D0A0003477F
:10519000A5010356050193062501AA854E85EF60FA
:1051A000706EAA8703474400630F09001367670006
:1051B0002302E400F2406244D2444249B249224A06
:1051C0003E850561828013674700DDB7C9473E858C
:1051D00082809307B00363EBA70097E7FF1F9387D5
:1051E000277A06053E9503550500828041657D15A9
:1051F0008280011122CC2A842E8526CA06CEAE8456
:10520000EF60804A1DCDB7470F009387F72309450C
:1052100063E4870281450A85414697C0FF1FE78006
:105220004083A685231081000A85418023018100E7
:10523000A3010100EF80104DF2406244D2440561A9
:1052400082804945D5BF97F7FF1F2380A7848280BE
:105250006F803062797152CC2A8A328522D426D26C
:105260004AD04ECE56CA5AC85EC606D662C4AE8B67
:10527000B28A368BBA843E89C2894684EF60C042C6
:1052800015C92A8C63140A0213774B008347450023
:1052900015CF93E727012302FC008DEC631C090264
:1052A000639A090205E8ED9B2302FC00832B8C0323
:1052B00063910B08B250225492540259F249624A47
:1052C000D24A424BB24B224C45618280F59B93E718
:1052D0000701D1B793E747002302FC0001CC1C482B
:1052E0004146A2852324FC0213058C0197B0FF1FC1
:1052F000E780A07263930B02D5D80325CC0209C5C1
:1053000097C0FF1FE780C07FF145268597B0FF1F3C
:10531000E78080762326AC0251BFE30909F8032514
:10532000CC0209C597C0FF1FE780807DF1454A8503
:10533000F1BF9DC483A70B0299EB916593853571ED
:10534000714597C0FF1FE780806E23A0AB0203A5C5
:105350000B0219C57146A68597B0FF1FE780E06B69
:105360006388090283A74B0299EB916593852571A8
:10537000594597C0FF1FE780806B23A2AB0203A5AE
:105380004B0219C55946CE8597B0FF1FE780E068EC
:105390001DC483A78B0299EB9165938515715145C7
:1053A00097C0FF1FE780A06823A4AB0203A58B0270
:1053B00019C55146A28597B0FF1FE78000662254A9
:1053C000B2509254F249B24B224CCA865A860259C4
:1053D000424BD6855285D24A624A45616FF0CFE989
:1053E000011126CA52C406CE22CC4AC84EC62A8A09
:1053F000AE84EF60602B25C5AA893945EFD0FFB296
:105400002A8431CD17E9FF1F0349895A6314090023
:1054100003C909009307000D2310F400AD472301D1
:10542000F4009385690013053400194697B0FF1FF7
:10543000E780A05E93F71400858085882306F4003A
:10544000A306940023154401A2856244F240D2448D
:10545000B249224A4A85424905616FD07FB8F2407D
:105460006244D2444249B249224A0561828093870C
:105470004185884301CD411106C697C0FF1FE780D3
:105480002068B24023AA01844101828082800111F8
:1054900006CE22CC26CA4AC82EC6EF60E02039CDFF
:1054A000B24517E9FF1F0349A950AA840CD563141C
:1054B0000900034905004145EFD03FA72A841DCDCF
:1054C0009307000D2310F500A5472301F50083C7BE
:1054D0005400938564001105A30FF5FE194697B09B
:1054E000FF1FE78080539C54A285F2405CC4624455
:1054F000D2444A85424905616FD09FAEF240624472
:10550000D244424905618280797122D406D62A8428
:105510002EC6EF60601901CDB2452285230EB10081
:105520006C08EF70403DB250225445618280514575
:10553000DDBF6F60002EC1671387E7FF6394E5024C
:10554000938701869C4391EB494582804945B2404F
:105550002244924402494101828003A30700E305EB
:1055600003FE0283411122C426C24AC006C6FD17AB
:105570002A892E84B2846395F502938701869C4321
:1055800091CB9C4381CB829711E5238A2187A38A03
:10559000918675BFA6854A85EFE0FFEA4DF9F5B71C
:1055A0002E85EF6060105DD1834705000D45E390C7
:1055B00027FB22852244B2400249A685924441013C
:1055C0006F9050001307B0036360A7064111C167D5
:1055D00022C406C626C2FD172A8409456382F50245
:1055E000C547AE846313F4022E85EF90B00417E52F
:1055F000FF1F1305E53806042A9423109400014583
:10560000B24022449244410182809307A003631672
:10561000F4002E85EF90807BD9BFE31AE4FC13F5EC
:10562000F50FEF90E07AE1B709458280011106CECF
:105630002AC6EFE07FE3EF20000EEF104059EF00A5
:10564000012F324597E7FF1F93878731130700F03B
:105650002391E700238207007D5797E7FF1F938779
:10566000A7422381E7002380A700F240954505610A
:105670006F40301F1D7193970501CAC886CEA2CC1A
:10568000A6CACEC6D2C4D6C2DAC05EDE62DC66DA94
:105690006AD86ED6C1872E8963DE075817E5FF1FCB
:1056A0000345853EEFD0DF8C8964416A856A797B4A
:1056B0002A84938BD4007D1AA50A130CABFF1DE03E
:1056C00021653345A900F6406644D6444649B649AB
:1056D000264A964A064BF25B625CD25C425DB25D42
:1056E00025618280834704001307200A639DE70039
:1056F0000355240097E9FF1F83C9B9262286D28566
:10570000EFF0AFA859A21307100997E9FF1F83C94B
:10571000C9376398E7188347140015476390E70279
:105720002285EFF00FAB2285EFD06FFD17E5FF1F4D
:1057300003458535EFD0DF832A8451B73947639B12
:10574000E71803554400631B55050C4483CC050042
:10575000639D0C00850591C9194617E5FF1F1305C8
:10576000A52197B0FF1FE780402B17E7FF1F0347D6
:10577000271F85476317F712638A0C0097E7FF1FFF
:105780002380071E6685EFF02FD871BF894717E782
:10579000FF1F2307F71CEF90206571B79387240044
:1057A000631AF506832C8400638D0C0E83C70C00EE
:1057B0008DE383C72C0003C71C00A207D98F17E70E
:1057C000FF1F2313F71A83C73C0017E7FF1FA30926
:1057D000F71817E7FF1F0347A71889476313F70C4C
:1057E00083C70C0081CB97E7FF1F238B071603C5E8
:1057F0000C0051BF8D4797E5FF1F83C5751617E550
:10580000FF1F0355651617E7FF1F230BF714EF4023
:105810005008F1BF938754006318F5001C4403C57A
:105820000700EFF02FF701B7B3078501C207C18367
:1058300011476372F7049307ABFCAA97139707010C
:105840004183F14763F1E7029387B4006312F504E3
:105850009387C1859C43E38807EC9C43A285E3843E
:1058600007EC82971DA0B70700189387F770B3D78E
:10587000E700858BB9CB938741869C43E38507EA94
:105880009C43E38207EA22858297E31E05E811A87C
:105890009387C4006310F5021C4483C70700E384A8
:1058A00007E89307F00FE380F9E8A2854E85EFD073
:1058B0002FF3ADBD9387E4006319F500938701864C
:1058C0009C43E38207E6DC4351BF93871404E30162
:1058D000F5F8C1BF3D476397E70403554400E30F64
:1058E00075FD93879401E30BF5FC93873401E31A6C
:1058F000F5FA97E7FF1F83D70707639E4701938752
:1059000001869C43E38107E2DC43E38E07E0A28546
:1059100013853401B9B7938781869C43E38507E0FB
:105920009C43E5B71307E003E39DE7F683472400B4
:1059300005476397E70E83476400938D4185F1E344
:1059400083A70D00D5CB83CC0700A1490345740084
:10595000130D8400EA85EFE07FF483474401A3033D
:10596000A400835804010358E400035744002A8626
:10597000034534003EC283572401EA86E6853EC0D3
:10598000CE87EFF08FD18347340095E7DD4783580A
:1059900004010358E40083467400835544003EC26A
:1059A000835724016A8705463EC06685CE87EF602F
:1059B0002004A301A40083A70D0081C71145EFF0C7
:1059C0001FAB03C54187E30005D683C55187EFE0D0
:1059D0009FA7E30A05D48346340093071003638A24
:1059E000F600035644004E8783C541873685EFE0B5
:1059F0009FBC238A018605BB97ECFF1F83CC7CF6F6
:105A0000A9B7938741869C4397ECFF1F83CC7CF515
:105A100091498DDFDC439DDB8145014582973DB790
:105A20002947639EE70A83476400138D4185C9EBCC
:105A300083270D00C9C383CC0700A1490345740027
:105A4000930D8400937725001376150089E7EE8582
:105A5000EFE0DFE42A8683470402A303C4008358EF
:105A6000C4010358A40103574400034534003EC257
:105A70008357E401EE86E6853EC0CE87EFF0EFC1A6
:105A80008347340095E7DD478358C4010358A401D8
:105A900083467400835544003EC28357E4016E87F9
:105AA00005463EC06685CE87EF509074A301A400E2
:105AB00083270D0019B797ECFF1F83CC9CEAB5BF75
:105AC000938741869C4397ECFF1F83CC9CE99149C7
:105AD000B5D7DC43A5D781450145829785B70947EE
