:020000021000EC
:100000006FD091320000000000180118002801286C
:100010000228032800290129022903290429052986
:10002000062907290829002A012A022A032A042A64
:10003000052AA62AA0E10200EE0E0100DA10010056
:100040001A1101008A100100781001006A3900209D
:100050003E110100221201004A120100A413010006
:100060003C140100FE0D01002E0D0100980D010051
:100070005A0D010020180100A63900203811010096
:100080009815010090A702004EA90200C0A9020025
:10009000026602001266020052020200A6F501008A
:1000A000C69D0200C6150100486C0200AEB20100F8
:1000B00034B301008CB3010062200100AE200100C6
:1000C000241F0100367201000C6D01002C7B010021
:1000D000F87E0100A08201008A5F0100285F010014
:1000E00006630100D65F0100FE5E0100825F010031
:1000F000B05E010052600100AA6001005A60010078
:100100005E600100FA600100B2600100E46001007D
:10011000FE650100066601004E60010056600100A8
:10012000F660010002660100A26101003A67010069
:10013000909001000A9101003891010016740100AD
:100140002E7401006A7401006C590100345A0100D8
:100150008C5A0100583C0100CE3701001C530100AD
:1001600040380100705201006AC20200F2BF020072
:100170009EC802007AD60200AED50200ECD802007A
:10018000E8D8020032B3020080D90200A4B0020015
:1001900010D9020022CF02003CCF020060CF020043
:1001A000F0D90200E6D302007CD3020060DA02003C
:1001B000B2B202003AB302005EB3020000B3020022
:1001C00060830200487202007C78020028730200FB
:1001D000727D0200669E02005C9D0200D4B00200A7
:1001E000A2190100A26702002C6C0200FE6C020042
:1001F0002A99020064990200DC990200FC77010050
:1002000020830200EA7D020082750200168002004F
:1002100004720200B014010060680200C085020090
:10022000268802006E880200D48602007613010040
:100230006475010050F50100DCC8020000000000F8
:100240006373B60082801C419105110523AEF5FE53
:10025000C5BF938781B4138701FF6373F700828062
:0802600023A007009107D5BFA0
:1002680049C5AA870145C1C58D07C207C183F19B4E
:10027800C207C183130740036366F70203A501B5EC
:1002880083A681B46393A60203A781D3014525C33E
:100298004111C20706C60545DD8D0297B2400145EA
:1002A8004101828003A5C1B4E1BF0357650005EF92
:1002B800035745006369F702B306F74021466370A8
:1002C800D6021041938687001D8FAA96611790C2A7
:1002D8002392E6002393060014C12312F50023138A
:1002E800B50021058280084171BF01458280828066
:1002F80009C903A801B583A581B40147C28763E38F
:10030800B70082809443636DF50663EBA6061386F7
:100318008700E368C5FE03D56700216605066317F5
:10032800C50003C641C10506238AC1C0239307003F
:100338006383070303A6C1B4630FF600035667007F
:1003480019EA83D7470014C383564700B697A10715
:100358002312F700BA879843E305B7FA83A6C1B416
:10036800E301D7FA83566700C9FE83D647000356D0
:1003780047001843A106B2962392D70098C38280FB
:100388003E87B687ADBF09CDB71700401307700584
:100398002380E704130780FA2380E7042396A70243
:1003A800828019C1814799E982803387F5008346A5
:1003B80007003307F50085072300D700E397C7FE3A
:1003C800E5B719C1FD5781E98280910503A7C5FFEB
:1003D8001105232EE5FE7D16E319F6FEF5B77971B2
:1003E80026D283A781D606D622D44AD04ECE52CC66
:1003F80056CA938481D681C7829723A00400DC4023
:1004080089CB03D5C1B54137DC40829703D5E1B527
:100418009D3F9C40639C0714938781F383C75700D3
:10042800138981F3858B85C303477900A3020900EB
:10043800914763FAE700052B83477900F9178A0784
:10044800A6979C43829783C781F8918B89C7973079
:1004580002E0E780C0639C4491C38297938641D4AD
:1004680003A781B503C61600138A81B5138441D446
:100478008347040093961700BA9683D60600638FC5
:10048800060C8347040063FBC70686073E9783551F
:1004980007002310070003D5C1B5938941B62EC6BE
:1004A80023900900CD350345040083A701B713172E
:1004B8002500B245BA979C438297AA8A03D5E1B52D
:1004C800D9358347040003D50900139717008327FC
:1004D8000A001345F5FF33755501BA9703D707008E
:1004E800598D2390A700834704000347140085070C
:1004F80093F7F70F2300F40063E4E70023000400F8
:100508009C40ADE703A781B6938481B625C3834792
:10051800B90081CB8347790089E7973002E0E7800B
:1005280020EE9C408297AA8431C11C48AA971CC817
:1005380083A7C1B685CF03D5C1B5B135268597D078
:1005480000E0E780C0652254B25092540259F24943
:10055800624AD24A03D5E1B5456135B5850793F7B7
:10056800F70F2300F400E3E5C7F021BFB25022548F
:1005780092540259F249624AD24A4561828091678F
:10058800B7C600409387373023A6F6200F10000027
:10059800938741D4884F83A781C6316713073730C3
:1005A800F053B7071000FD17918F99833A0523A6DA
:1005B800E6205D8D82804111B7170040985F3AC6EA
:1005C800945F3247E39CE6FE324541018280411147
:1005D80006C6D53703C6C1D1058A15CA9307303375
:1005E8003307F502B337F5023983CA07938541D437
:1005F800D98FD849938641D401456307F7006370C2
:10060800F7023385E740DCC9B24041018280E54703
:100618003307F502B337F5022583DE07C1BF376517
:100628003D0809C637856F0813050590198D3E9555
:10063800DCCAD9BF0327C50F8346B50083A701F5D8
:1006480058439386160295829043FD1693F6F60F4B
:1006580010C3D04350C3904710C7D04750C7904BE2
:1006680010CBD04B50CB904F10CFD04F50CF91C61E
:100678001307070293870702C1BF82808347E501FA
:1006880093F7E70FE1EB2A870345F50161E5034698
:1006980007018346870019C68345A70283C7D1D1BE
:1006A80063E7F50093F70601C5CB814709CA83477D
:1006B80007150346F714C18AA207D18F81CA83465A
:1006C8003715034747152207558FBA97D1C703A790
:1006D80041ED411122C406C67D548326070863F301
:1006E80086003684184375FB938681D083C64601FD
:1006F800138781D013968601618663560602938715
:10070800C71395830347E701BA97635F06021D8CF9
:1007180083A741B782973335A400B24022441345DA
:10072800150041018280858A9387C71289CA8A0782
:100738009387F7031305D007B3D7A702E1B7860756
:10074800FD071305D003CDBFE373F4FC3705C0A83C
:100758002A9475BF0145828082805D7126DC3AD279
:1007680003A781C53ED04EC81C5F86C696C4998330
:100778009AC29EC022DE2ADA2ED832D636D442CE8B
:1007880046CC4ACA72C676C47AC27EC0858B938428
:1007980081C5B9CF1C5F138481F393F7F7F91CDF88
:1007A80083C781F393F7070499CB83A741B782974F
:1007B80008C883C781F393F7F70B238CF1F28547B9
:1007C800A302F4008347440093F7070489EB83A747
:1007D80081C65844B8D3930700FC2302F40083076A
:1007E800640063D7070083A741C59C432303F40033
:1007F80098401C5F8583858BC1CBF5571CDF0100B2
:1008080001000100010001000100010001000100D8
:1008180001000100010001000100010001000100C8
:1008280001000100010001000100010001000100B8
:1008380001000100010001000100010001000100A8
:100848000100010001000100010001000100010098
:100858000100010001000100010001000100010088
:100868000100010001000100010001000100010078
:10087800010001000100010001000100010083A73F
:1008880081C613075004B8CB98401C5F9183858BB1
:1008980081CFBD571CDF83A781C6054723A807045E
:1008A800938781F32382E70083A741C5D843058353
:1008B800058B19C7D843759BD8C3D843799BD8C330
:1008C8007254B640A64216438643E2545255C25566
:1008D8003256A256125782577248E2485249C249C4
:1008E800324EA24E124F824F61617300203083A6B0
:1008F80081C6938781F3B85219CB03C72700058BAC
:1009080019E703C73700058B7DD72382070082804C
:1009180083A741C699CB944BD04B9842518F98C22C
:1009280094439C479842D98F9CC283A781C6B7C677
:100938000040A8CB9305C00313062003138781F357
:1009480083A78620C18393F7F70363E9F50083A79C
:100958008620C18393F7F7036366F6008347470051
:10096800858BF9DF828083A681C6938781F3B8528D
:1009780019C703C70700058B11C723820700A38285
:100988000700828003C71700058B75D3FDB783A7BF
:1009980041C699CB944BD04B9842518F98C29443FF
:1009A8009C479842D98F9CC283A681C637C700400E
:1009B800C145A8CA654683278720C18393F7F703F3
:1009C80063FBF50083278720C18393F7F7036364EC
:1009D800F600BC52EDF3828003A781C5AA87185F91
:1009E8001583058B25EF0345150015051377C51FDE
:1009F80019C6B386E70083C626002300D60085C53E
:100A080083C6E1F3094593F60604B1CAB386E70045
:100A180083C63600054693F5F6066392C504E206DA
:100A2800E18663CE06023385E70083471500034756
:100A38000500A20793F70770D98F93960701C18223
:100A480013F60640138701C619C693E606802310DD
:100A5800D700014582802310F700E5BF0545828055
:100A680001113EC42ECC83A581C636C83AC694452A
:100A78002ACE32CA1397060142C246C0418393F870
:100A88001620138881C63A86938781F3638F0802FC
:100A980093F60620DDCE83C62700B708001093E63C
:100AA80016002381D70093060019B4D1930600F8E5
:100AB8002382D70083A581C5D455F19A93E62600F1
:100AC800D4D59441B3E6160194C19376261081CE0D
:100AD8001376061051CA83C681F393E61600238C59
:100AE800D1F22394070003C647001347F7FF4207D4
:100AF80062066186418383260800635F0600131639
:100B08001701635A0606AC520D466367B6000546E0
:100B18002382C700BC52FDFF8387C1D163DD070074
:100B280093170701C18763DC0704F052894763E420
:100B3800C700FC52FDFF9C467245E2457D8F98C672
:100B48005246C2463247A24712488248056173009E
:100B5800203083C617002394070093E61600A3806D
:100B6800D7002382070095B783C6370093E616009F
:100B7800A381D700BDB705462382C70071BFDC46F5
:100B880013960701635C0600B7071000FD17FCD237
:100B9800938741D4904F050690CF71BFA1675D8FB1
:100BA80059BF938741F7138641F50346B60183C7BA
:100BB8005701938641F7138741F5B29793F7F70FDB
:100BC8007D466361F604A300F70083471700484B8E
:100BD80005463316F600A38AF600698E05EE03C6AD
:100BE800960113080002814633F6C7028147B355C0
:100BF800F500858993F8F70F99C96317D600A30004
:100C0800170182808117C1B7850693F6F60F85070D
:100C1800E39F07FD828003A701C7B75702009387A8
:100C2800279F8326070913965600635806008326D4
:100C380007091396660063440600FD17FDF38280DA
:100C480083A581D0938781D01386052223A8C1B4B8
:100C580003D74700938785FFBA97056523A4F1B4A6
:100C68001D05930600206364E5009356370033079B
:100C7800D60023A6E1B423A0E522E1162312D6006C
:100C8800231306001CC3998FE1172312F7002313BF
:100C98000700828083A701B503A781B401456313C8
:100CA800F700828083D6670081E683D647003695B1
:100CB8009C43F5B783A701B583A681B40145639327
:100CC800F600828003D7670011E703D747006373F4
:100CD800E5003A859C43E5B783A701B503A681B42F
:100CE8002A87B305B5406314F6003A8529A8938688
:100CF80087009C43E369D7FEE377F7FE2E85E3E49C
:100D0800D5FEE3F2F5FE828023AC05FE1C4191E797
:100D1800010001000CC18280BA8703A787FF6DFF1D
:100D280023ACB7FE82801DC18346E5FF1307F00F91
:100D38009147639EE600411106C69730FF1FE78082
:100D480060B7B24081473E854101828095473E8524
:100D5800828001E9014582800145B2402244410177
:100D68008280411122C42A84210542059305D004BA
:100D7800418106C69730FF1FE780C0AA71DDFD5785
:100D880023200500231285002303F5002105F1B770
:100D9800411126C222C44AC083A741B506C60144F0
:100DA8000149938441B589E7A165CD2B05C401A804
:100DB80003C7E7FF6317A70215C8A165AD2E9840C2
:100DC800832784FF6316E4029CC0FD57232C04FE8E
:100DD800230FF4FE2285B240224492440249410185
:100DE800828011E03E8983A787FF75BF3E84E5BFF7
:100DF800232CF9FED9BFB9C583C751D4411122C4E8
:100E080006C62A842E856368F400313F0D45B2403A
:100E180022444101828083A785FF99E703C7E5FF44
:100E28009307F00F6305F700FD3D1545CDB7238FF8
:100E380085FE138541B5C93D22852244B240A1658E
:100E48004101D5AC1545828023AA01B4828083A7CD
:100E5800C1B699E33E85828003D727006316B700A1
:100E680003C70700E308A7FEDC47E5B741119397DE
:100E780005014AC006C622C426C2C1872E8963DE80
:100E88000700393711C1453521653345A900B240FE
:100E980022449244024941018280AA860145E5D94B
:100EA80001443D47B3578940858B8DCB83A401B658
:100EB800BD4791E28147A2978E070545BE94331539
:100EC8008500131405019C40C8404180829723A0E7
:100ED800040023A204003345240155BF0504E3138D
:100EE800E4FC0144CDBF83A781D2411122C406C6C8
:100EF800138481B085C7829708C00840B7470300AC
:100F08009387D73F3305F502B7A72600938737ECB9
:100F1800B2403E9508C0224441018280184083A710
:100F280041D5BA971CC0D1BF011122CC938741D4B7
:100F380006CE26CA4AC883C6170003A681B51384FD
:100F480041D4814713F7F70F6362D708938781F37A
:100F580003C777009147138981F363E0E70883C7E4
:100F680081F8918BBDEB6800EFF0601CFD566300C3
:100F7800D50C938781D083C737013247938481D0BA
:100F880063FDE704404403C744016304D406058BAA
:100F980039CB51473304E40263F187049730FF1FCC
:100FA800E780A0BDB2476373F400A28703C734018A
:100FB800998F3E958387440163C20704B707C0A889
:100FC800636EF502B70740573E950DA8850713973E
:100FD800170032970357E7FF35D7F2406244D244EF
:100FE800424905618280130790023304E4020580B8
:100FF80065B762076187635707001D8D19E93705D3
:10100800C0A801A8E37BF5FE3707C0A8B307F740DF
:101018003E9583A7C1D2829769F183278901D5DFDD
:10102800EF508178EF50115FEF50A16B7DB75C44B2
:10103800E385A7FA138781D003474701938481D0BA
:10104800058B0DC351443384870283C73401E3F60B
:1010580087F89730FF1FE78040B283C734011D8CA3
:10106800229589BF13049002338487020580F1BF5B
:101078002A9609E582800505A30FB5FEE31DC5FE86
:10108800D5BF81473307F5000307070019E33E85FD
:1010980082808507C5BF01112E8626CAAA8413152A
:1010A80006019305F004418122CC06CE32C6972072
:1010B800FF1FE78020772A8419C53246A685973016
:1010C800FF1FE780408A2285F2406244D2440561CE
:1010D800828081476314F600054582803307F50056
:1010E8008507B386F5000347070083C6F6FFE38349
:1010F800E6FE014582809307F6FFBE952A966313A4
:10110800C5008280FD1583C715000505A30FF5FEF0
:10111800FDB7814711E9014582803307F500034790
:101128000700E31AB7FE8507E319F6FE0545828036
:1011380003A541D5828083C751D4637EF5009317F8
:10114800150003A581B53E9583570500DD8D231055
:10115800B500014582800D458280011126CA93871A
:1011680041D422CC4AC84EC652C456C206CE5AC032
:101178007D57D8C703A4C1B62A8A8149938441D42C
:10118800938AC1B6138981D0184481476374EA00F1
:10119800B3074741032749021CC409C7D84463F36E
:1011A800E700DCC4A9E78355240085ED5C44639916
:1011B800090423A0FA00032BC40022859720FF1FEF
:1011C800E780406F5A8469F0832749028DCF6244D3
:1011D800F240D2444249B249224A924A024B05613E
:1011E800A1B303450400813F5C4081CB1CC48357F5
:1011F8002400CDDFA2894044F9B71C44C5DBC5BF34
:1012080023A6F9004DBFF2406244D2444249B24994
:10121800224A924A024B0561828083C751D4637087
:10122800F5029317150003A581B593C5F5FF3E9503
:1012380083570500FD8D2310B500014582800D45BB
:10124800828083C751D46364F500014582804111CF
:1012580022C426C24AC006C62A842E89B284C53E44
:1012680001C504C5054515A0936504F0C205C181F3
:1012780041459720FF1FE780E05A11ED83A781D3EE
:1012880081C7A285114582970145B2402244924404
:101298000249410182801387C1B61C4385E308C314
:1012A80085472326050004C5231125012300850051
:1012B800A300F5002322050075B7BA87D84775FF44
:1012C800C8C7F9BF5DC1397122DC26DA4AD84ED6C3
:1012D80052D45AD05ECE66CA6AC806DE56D262CCEE
:1012E8006EC63689328AAE89AA840144394D854B47
:1012F800F94C03A701B6131C3400937AF40F6297D4
:101308001C43938D01B6A9EF13B5FA0013451500D8
:10131800B3978B0063765D01930714FFB397FB00C7
:1013280093950701C1815286293F1DC983A70D00E6
:101338000145E29784C323A237016304090023000F
:101348005901F2506254D2544259B259225A925A0F
:10135800025BF24B624CD24C424DB24D216182800D
:101368000504E31894F92145E9BF09458280411134
:1013780022C426C24AC006C6AA842E893284D13520
:10138800CA852685E93409C940C10145B2402244CD
:1013980092440249410182802145CDBF411122C4B6
:1013A80026C24AC006C6AA842E8955342A8419C181
:1013B8002311050083C741D463949700239221B772
:1013C800CA852685993D014511E01945B240224458
:1013D80092440249410182807547636BA70483A642
:1013E80001B6411126C293143500A696944222C430
:1013F80006C6AA87138401B6094595C613B5F70032
:101408003947134515006373F700C5178545B3952C
:10141800F500C205C18159371C400145A69723A094
:10142800070023A20700B24022449244410182806F
:1014380009458280411106C6193C09C50845B240D4
:10144800410182800145E5BFF54763ECA70483A706
:1014580001B613173500BA979843894721C7011178
:1014680026CA06CE9334F50022CCB94793C414009B
:1014780063F3A700451505443314A40042044180D2
:101488002EC62685A2857D378947324609C5A2859D
:101498002685453B8147F2406244D2443E8505613A
:1014A800828089473E858280239EA1B4239FB1B460
:1014B8008280411106C623A4A1B60295B24023AC8E
:1014C800A1D4014541018280994763E8B700939709
:1014D8002500938581D6BE9588C18280411106C6B4
:1014E80022C426C2EFF0CFF571468145138581D617
:1014F8004136138441D4130640028145138541D4F3
:10150800853E23A601B623A401B683C741D293051D
:10151800101013D527008D8B3E958D473305F502A6
:101528009947938401B735051375F50F2301A40076
:101538003305F5021305050F9720FF1FE780802E5E
:1015480023A0A1B6834724001305050F88C08A0786
:101558003E9523ACA1B4EFF03F8F212E83471400B2
:101568009840B7160100139627003A96938646E7E7
:1015780014C213862700850793F7F70FA300C4004A
:10158800B24022448A07BA9794C3924441018280A8
:10159800138741D4834717008346270063FED7008B
:1015A80083A601B713861700A300C7001397270067
:1015B800369708C33E8582809307F00FE5BF1C412C
:1015C800638E071241777D8FB7060020894763181D
:1015D800D7120357450063040712411126C2194662
:1015E800AA849305F00F590506C622C44AC01536C9
:1015F80005478D47630DE50E938781D09C4713847B
:1016080081D091C7585899477DE3185C6DE313065C
:10161800C0038145138581D0A13C1306C003A6856C
:10162800138581D09720FF1FE780E0338357C400DC
:1016380089E7930700102316F4008347E40081E745
:1016480085472307F4008347F40081E7ED47A307A4
:10165800F4008347040181E795472308F400834792
:10166800140181E78547A308F4008347540189E7FB
:1016780083470401A30AF4008347240181E7D14783
:101688002309F4008347E40195E3034744019307E2
:10169800C00293168701E18663C806009377170096
:1016A80093B717009387D702230FF40083473401B9
:1016B80095E3034744019307C00293168701E18627
:1016C80063C806009377170093B717009387D7026C
:1016D800A309F40083C7D40181E78947A30EF40066
:1016E8001C5481C782972395A1D4CD3B8147B24032
:1016F8002244924402493E854101828089473E85C1
:101708008280011122CC06CE2A842EC6EFF0AFFDCE
:10171800B245F240818D33A5A50222956244137526
:10172800F50F05618280011122CC06CE2A842EC6CF
:10173800EFF06FFBB245F240818D33A5A5022295EB
:1017480062444205418105618280011122CC06CEA6
:101758002A842EC6EFF02FF9B245F240818D33B5B9
:10176800A5022295624405618280138781D01857AB
:10177800011122CC06CE26CA4AC84EC6138481F36C
:1017880031CF138981D00297138741D4035767005B
:10179800AA84938941D42DCFBA876373A700AA87F7
:1017A800C207C183BA8663F3E400A686C206C18273
:1017B800958F5147635EF7048327C90291C38297C7
:1017C80085472304F400EF50015323939900F24016
:1017D8006244D2444249B249056182808347840009
:1017E8008DE783479400850793F7F70FA304F40068
:1017F800A18BF1DF85472314F4006244F240D24400
:101808004249B24905616F508154A3040400F5B7F9
:1018180083478400CDDFD5B7138781D0585701118E
:1018280022CC06CE138481D001C72AC6029732453E
:10183800938741B701CD88C337450020130565B9A3
:101848008D39F240624401450561828003074401F5
:10185800635C0700138741D4232C07003747002017
:10186800130767B498C3C9BF374700201307E7B702
:10187800D5BF011122CC938781D0884706CE26CACE
:101888004AC801E90545F2406244D244424905612B
:101898008280138481D05C58F5D7185C65D77000B6
:1018A800854582971844B247E30EF7FC0355C400F8
:1018B8009305E0049720FF1FE780C0F6138741D403
:1018C80048CF938441D45DDD0356C4009305F00FDF
:1018D8000149EFF0EFF98347E400D04C634DF9007C
:1018E80032859720FF1FE780E0FC014523AE040006
:1018F80023A0040249BF8355C4000844185CB38779
:101908002503898105093E9508C20297E9B7411167
:1019180022C4938781D09C4726C206C64AC09384B6
:1019280041D491EBC84C2DE1B24022449244024983
:10193800014541018280138481D01C5CE5D7DC4CD1
:1019480091EB0355C4009305E0049720FF1FE7803F
:1019580060EDC8CCC84C79D50356C4009305F00F88
:101968000149EFF0EFF08347E400D04CE35CF9FA6B
:101978008355C4001C4433852503898105093E9598
:101988001C5C08C28297C5B79720FF1FE78080F2CA
:1019980023AE040023A0040241BF01114EC6938761
:1019A80081D09C4726CA4AC852C406CE22CC56C209
:1019B8005AC02A8AAE8432896388071E938981D0E7
:1019C80003A74903630007127D47636FA7101387B6
:1019D80041D4832AC701138441D4639A0A0803D5E2
:1019E800C9009565938515E09720FF1FE78080E380
:1019F80048CC2A8665C983D5C90083A7490303A5AE
:101A080089008981829783A78900832AC4011CD011
:101A180089476316FA08C1476396F40C83D5C90051
:101A28009147938505FCB3C5F5028A05D69503C78A
:101A380005009307A0056313F70A83C71500639F82
:101A480047094A85268691059720FF1FE780A0F160
:101A58005C4C5685639157130145F2406244D24469
:101A68004249B249224A924A024B05618280185083
:101A7800E380E7FA03D5C9009565938525E09720AB
:101A8800FF1FE78020DAAA8A31CD83D5C9002A86CC
:101A980083A7490303A589008981829795BF8D474C
:101AA800631BFA00C147639FF40283D5C90093857D
:101AB80045FDF199A5BF91476318FA006394440363
:101AC80083D5C900A115F5B7C147631DFA00A14721
:101AD80063EA970083D5C900C115E1BF5C4C568500
:101AE800639F570B294595BF1307F006636AA7083C
:101AF800930A05FE1947B3CAEA0203D7C900B38A95
:101B0800EA02BE9A938741D49C53138B41D46395C0
:101B180057010324CB011DE003D5C9009305E00458
:101B28009720FF1FE78000D02A844DDD83D5C900A8
:101B380083A749032A868981568582979145130789
:101B4800A005898193972500A29783C60700639310
:101B5800E60483C61700639C460385058A05268626
:101B6800A2954A859720FF1FE780E0DF8327CB01F6
:101B7800E38487EE22859720FF1FE780A0D3E9BD85
:101B88001307E007E360A7F6930A05F9BDB783D505
:101B9800270045BF8327CB01E38687F4228597205A
:101BA800FF1FE78020D13DBF83A501D685DD914782
:101BB8009306A0058983139727002E9703460700ED
:101BC800E312D6F203461700631C460185078A070D
:101BD8002686BE954A859720FF1FE780C0D8ADBDF1
:101BE80083572700C1BF938781D098471DCF985F3F
:101BF8000DCF8546631BD502411122C4138441D4FD
:101C0800504C06C619CE83D5C70008508981029763
:101C1800484C9720FF1FE780E0C9232E04002320AB
:101C28000402B2402244410182808280011122CC08
:101C3800938781D056C283AA870026CA4AC84EC64F
:101C480006CE52C42A89AE84B289138481D06387B0
:101C58000A1C1C5C99EB2945F2406244D244424973
:101C6800B249224A924A056182805C58EDD7FD4705
:101C780063E5A70C938741D4DC4F138A41D4B9C7D5
:101C8800084483270A02639FA70489476317F90654
:101C9800C147E392F4FC0355C4009147130505FCC2
:101CA8003345F502931725000325CA012686CE85FC
:101CB8003E959307A0052300F500A3002501110513
:101CC8009720FF1FE78020CA014579B70355C40054
:101CD8009305E0049720FF1FE780C0B4232EAA00D5
:101CE80045F195BF8355C4005C580326CA01898114
:101CF80082971C442320FA0249BF8D47631CF900D0
:101D0800C147E39AF4F40355C400130545FD9377DE
:101D1800C5FF59BF91476318F900E39E24F30355A3
:101D2800C4002115EDB7C147E317F9F2A147E3E471
:101D380097F20355C4004115D9BF9307F00663E72E
:101D4800A706930705FE1947B3C7E7020357C40060
:101D5800B387E702BE9A938741D4DC4F138A41D4F4
:101D6800A9CF83270A02639657070325CA0191461C
:101D78001308A005FD5593D72600C207C183139702
:101D880027002A97034607006314060783481700AD
:101D980003562700639C2805B306D64063C69604FD
:101DA80085078A072686CE853E9519BF9307E007E3
:101DB800E3E3A7EA930705F951BF0355C400930568
:101DC800E0049720FF1FE780E0A5232EAA0051F921
:101DD80059B58355C4005C580326CA0189815685C4
:101DE800829723205A0351B7A300B700B28661B780
:101DF8000356C400B38596009105130606FCE3FC60
:101E0800C5E4138634001376C60F1106B296230074
:101E18000701A30027012311D70059B7938741D49D
:101E2800DC4F138A41D4A1C30325CA019146130884
:101E3800A005FD5593D72600C207C1831397270035
:101E48002A970346070063120605834817000356BE
:101E5800270063982801B306D640E3D396F4A3007D
:101E6800B700B286C1BF0345E4008357C400930599
:101E7800E0043305F502420541819720FF1FE78002
:101E8800609A232EAA004DF1F9B30356C400834586
:101E9800E400B385C502338696001106E3EDC5DA82
:101EA8008DB70145828083C705002300F50083D7DD
:101EB8002500A300F50083D72500A1832301F500A1
:101EC80083C74500A301F5001145828023AE01B602
:101ED80023AC01B6828029C1411126C206C622C49C
:101EE800AA8401458DC52E84B7E5020022854146A6
:101EF800938585FE9720FF1FE780E0A683C704002F
:101F080005452306F40083C71400A306F400B24075
:101F1800224492444101828001458280011122CCF1
:101F280026CA06CE0947AA8432846381E50441465D
:101F38008147639BC500638FE6006397B6000DA8D1
:101F480041478147638EE600F2406244D2443E85B1
:101F5800056182808A852285BD3F41468A8519A808
:101F68008A85953F41468A85228531A0E39AB6FC49
:101F78002E86A2852685EFF0CF95AA87F1B723ACE8
:101F8800A1B6828023AEA1B68280011122CC03546F
:101F9800650006CE26CA4AC84EC641C083298500B8
:101FA800AE842A8803C9090081471317890161870C
:101FB80063550702B147054563FA87045114420483
:101FC80003552800418033878900A2864E868545BF
:101FD800EFB0D034B337A00085077D1413556900DE
:101FE800420405891379F90341802380F400A38012
:101FF800A4002381240123928400014719C0138778
:10200800190098C409476383E7000145F240624418
:10201800D2444249B249056182800545C5BFC167BE
:10202800F917630AF502D94763F7B702011122CC01
:102038002EC606CE2A84EF70B026B2456368B50076
:1020480022856244F24005616F904031F24062445B
:1020580005450561828005458280C167F9176314CB
:10206800F5006F70F023411106C6EF90201F11E1B3
:102078005D45B2404101828091476394F5028347F0
:1020880005002300F6008347250003471500A20733
:10209800D98F2311F6008347350001452302F60046
:1020A8008280114582804111814522C426C206C61C
:1020B800AA84392D2A8419E583A781B781C7F945F0
:1020C800268582972285B24022449244410182802B
:1020D80039714ED656D25AD006DE22DC26DA4AD8D4
:1020E80052D4AA8A2E8BB28941EF36C6BD379145A4
:1020F800EF70502BAA844D492DC9B246054A23805A
:1021080034010544630A0B00B68513851400029B4D
:102118000505131405014180E20993D9894163D368
:102128000902C1455685EF906020654905E9338667
:102138008400A2852685EFB0E0622A8905E1310492
:102148004204418091472C085685231CF10026CE75
:10215800231D8100EF8050302A8901C963070A00D6
:1021680026859710FF1FE780E074F25062544A8575
:10217800D2544259B259225A925A025B2161828042
:10218800BA84014AADBF011122CC26CA4AC84EC63C
:1021980006CE2A893284B689253FAA8419ED83A7F9
:1021A800C1B781CF05476317E40003C409000504DC
:1021B8001374F40FA2854A858297F24062442685FB
:1021C8004249D244B24905618280AE86B7250100F2
:1021D800014705469385E5EA7DB783D705002300C7
:1021E800F50083D70500A183A300F5000945828087
:1021F80083D705002300F50083D70500A183A3003A
:10220800F50083D725002301F50083D72500A18396
:10221800A301F5001145828083D705002300F5004E
:1022280083D70500A183A300F50083D725002301E8
:10223800F50083D72500A183A301F50083C75500C6
:102248002302F50083C76500A302F50003D58500C6
:10225800190542054181828083D705002300F500D6
:1022680083D70500A183A300F5000945828083D7A1
:1022780005002300F50083D70500A183A300F5001E
:1022880083D725002301F50083D72500A183A30167
:10229800F5001145828003D54500060542054181B8
:1022A800828083D705002300F50083D70500A1832A
:1022B800A300F50003D52500090542054181828068
:1022C80083D705002300F50083D70500A183A30069
:1022D800F50083D725002301F50083D72500A183C6
:1022E800A301F50003D5450011054205418182800F
:1022F80083C705002300F5000545828083D70500C4
:10230800411122C406C62300F50083D705002E8498
:102318001105A183A30EF5FE83D725009505230F8C
:10232800F5FE83D7D5FFA183A30FF5FE03C6F5FFFE
:102338009710FF1FE780206303454400B240224402
:102348001105410182808947639CF5008347150088
:10235800034705000145A207D98F2310F6008280A4
:102368001145828003D70500D94763FEE7020111B2
:1023780022CC06CE2EC62A84EF708072B24683D74E
:102388000600636DF50022856244F240B72501001E
:10239800014709469385251E05611DBBF24062442D
:1023A8000945056182800945828091479DC583461C
:1023B8000500FD15C2058547C1816392F60213D752
:1023C80025008D89914791E9914701CB05052301A6
:1023D800D6002310E60048C281473E85828009471F
:1023E8009147E39CE6FEC94733D7F502B3F5F502FA
:1023F800D1BFAE86B7250100014711469385851FD9
:10240800C1B993F7350091EB8981914789C52310AC
:10241800B60048C281473E8582809147EDBF03C719
:1024280045008947631AF702011122CC2A84C8455E
:1024380006CEAE86014719C52EC69D45EFE0DF8959
:10244800B2462A8722856244F240B7250100194620
:10245800938505220561ADB90945828099E1114549
:1024680082808347050005472311F600E379F7FECC
:10247800FD1593F5F50F33D7F502B387E702E3901F
:10248800F5FE050548C22310E6000145828083C792
:1024980045000947AE866385E70041476399E70031
:1024A800B7250100014721469385453015B10945F7
:1024B80082802310B60091E1014548C2014582801F
:1024C800AE86B7250100014729469385052609B13F
:1024D8002310B60091E1014548C201458280AE86CD
:1024E800B72501000147314693856527D5B62310E6
:1024F800B60091E1014548C20145828003D74500F5
:10250800854763FDE702011122CC2A84884106CE63
:102518000DC12EC68545EFE02FFC2A87228562442F
:10252800B246F240B725010039469385E529056191
:1025380045B6F240624409450561828009458280BA
:1025480091479DC5034705008D46914763F2E60212
:10255800FD15C205C181B3C6E5023308D7026399E8
:10256800050105052310D6002311E60048C281475E
:102578003E85828083C745000947AE866385E700AC
:1025880041476399E700B725010001474146938514
:1025980045303DBE09458280B335B000139525000E
:1025A8008280011122CC26CA06CE03C78500854742
:1025B800AA842E8449466311F702EFF01FAA8357B5
:1025C800240049151306200963C8A700F240624495
:1025D800D244094505618280034794008547631406
:1025E800F70013660604484011C58D4532C6EFE072
:1025F800AFEE3246A2866244F2402A872685D2444C
:10260800B72501009385A52A0561D9B48D4763FFD5
:10261800B7028347150003470500F115A207D98FB4
:102628002310F6008347350003472500C205A2079B
:10263800C181D98F2311F6002312B60089C511056F
:1026480008C60145828023240600E5BF1145828023
:10265800011122CC2A84884506CEAE8611C52EC625
:102668009545EFE06FE7B2462A8722856244F2403B
:10267800B725010059469385852C05616FF05FA544
:10268800B335B000139525008280AE86B7250100CA
:10269800014761469385852F6FF09FA385471145B4
:1026A80063F4D7028347160083450600A207CD8F3F
:1026B8002310F7009387E6FF2311F7008947638605
:1026C800F600090650C30145828023220700E5BFB2
:1026D80001478146794681456FF09F9F83D7050062
:1026E8002300F50083D70500A183A300F500094561
:1026F800828083C7250005472300F50003D5050020
:102708006397E7000A050505420541818280C947AC
:102718003305F502CDBF03D505000A054205418101
:10272800828083D725002300F50003D5050083D7D1
:1027380025003305F502050542054181828003D550
:102748000500828003D50500828003D505008280BC
:1027580083D725002300F50003D5050083D725007E
:102768003305F502050542054181828083D70500BE
:102778002300F50083D70500A183A300F50083D7C4
:1027880025002301F50083D72500A183A301F500C7
:1027980003D54500110542054181828083D7050094
:1027A8002300F50083D70500A183A300F50003D516
:1027B8002500090542054181828089471145639BAF
:1027C800F60083471600834606000145A207D58F09
:1027D8002310F700828003D70500D947AE8663FA35
:1027E800E700B725010001470D469385456E6FF058
:1027F8009F990945828011456393A6028347160075
:10280800834606000145A207D58F2310F7008347AA
:10281800360083462600A207D58F2311F700828051
:1028280083C725000547FD1793F7F70F6361F70482
:1028380083D705008DCF011122CC2A84C84106CE4A
:1028480015C12EC68945EFE02FC92A872285624423
:10285800B246F240B725010015469385A56F05617C
:102868006FF07F92F2406244094505618280094514
:1028780082809547114563F9D706411122C426C2C3
:102888004AC006C683471600BA8403470600A20753
:102898003284D98F2390F4008347360003472600FB
:1028A80093054400A207D98F2391F4008947238216
:1028B800F40009461385540036899710FF1FE780F6
:1028C800800A9307A9FF2394F4009947631BF90032
:1028D80023A60400B2402244924402490145410122
:1028E80082801904C0C4FDB7828083D705008DCFCC
:1028F800011122CC2A84C84106CE15C12EC68545B1
:10290800EFE08FBD2A8722856244B246F240B725A0
:1029180001001D469385E57105616FF0DF86F24081
:10292800624409450561828009458280994763951B
:10293800F6048947411106C62302F70083471600AB
:1029480083460600B285A207D58F2310F700834778
:1029580036008346260003464700A207D58F130595
:1029680057002311F70091059710FF1FE780A0FF7C
:10297800B240014541018280D14711456394F60078
:10298800C1474DBF828083D705008DCF011122CC6E
:102998002A84C84106CE15C12EC68945EFE0CFB3BB
:1029A8002A8722856244B246F240B72501002546AF
:1029B8009385A57205616FF00FFDF24062440945E9
:1029C800056182800945828089471145639BF6002D
:1029D80083471600834606000145A207D58F2310BA
:1029E800F7008280011122CC2A84C84106CEAE8627
:1029F800014719C52EC68545EFE00FAEB2462A87B6
:102A080022856244F240B72501002D4693856574FE
:102A180005616FF04FF711456393A60283471600CF
:102A2800834606000145A207D58F2310F700834788
:102A3800360083462600A207D58F2311F70082802F
:102A4800011122CC2A84C84106CEAE8611C52EC6F5
:102A58008545EFE06FA8B2462A8722856244F24096
:102A6800B725010035469385C57405616FF0AFF150
:102A780093F71600114589EB89476387F60085822D
:102A88002312D70010C301458280011122CC2A8469
:102A9800C84106CE15C12EC68545EFE0EFA32A87AB
:102AA80022856244B246F240B72501003D4693852F
:102AB800257505616FF02FEDF24062440945056107
:102AC800828083D705008DCF011122CC2A84C8418A
:102AD80006CE15C12EC68945EFE00FA02A872285AC
:102AE8006244B246F240B725010045469385857594
:102AF80005616FF04FE9F240624409450561828043
:102B080009458280854763FCD7022304A700A304F4
:102B1800B7008347160083450600A207CD8F231010
:102B2800F7009387E6FF2311F70089476386F600CD
:102B3800090650C30145828023220700E5BF1145DD
:102B48008280014781464D4681456FF0CFE38D472E
:102B5800114563FBD7028347160083450600A20789
:102B6800CD8F2310F7008347360083452600A20740
:102B7800CD8F2311F7009387C6FF2312F7006386D2
:102B8800A600110610C70145828023240700E5BF6F
:102B9800011122CC2A84884506CEAE8611C52EC6E0
:102BA8009545EFE06F93B2462A8722856244F2404A
:102BB800B72501005D469385457705616FF0AFDC69
:102BC800854711456397F6008347060001452300B2
:102BD800F700828001478146654681456FF0AFDA8C
:102BE800011122CC2A84C84106CEAE86014719C5F8
:102BF8002EC68D45EFE04F8EB2462A872285624465
:102C0800F240B72501006D469385457A05616FF05E
:102C18002FCC011122CC2A84C84106CEAE860147AA
:102C280019C52EC68D45EFE02F8BB2462A8722851F
:102C38006244F240B725010075469385457A0561DF
:102C48006FF00FC9011106CE2EC6EF80C05D01C915
:102C5800B245F2400355250005616FB07015F2408A
:102C6800494505618280A38401BA238401BA23A857
:102C780001B823AA01B823AC01B823AE01B823A632
:102C880001B823A401B8938741D83707B40098C383
:102C98003747A000D8C3370710009306070A94C720
:102CA800B7065000C106D4C7930607054107D8CB1D
:102CB8003707D007410798CF3707840398D337C71A
:102CC8000700130707B8D8D3416794CB93060701C9
:102CD800130717F8D8D7417723AE070094D798DBA6
:102CE8008280011126CAAA84214522CC06CE2E84D0
:102CF80032C636C43AC2EFE0CF851DC9A246124794
:102D08003246930700FD2300F5009947A30095007C
:102D18002301F5002303D500A303E5002312C50012
:102D2800AA8522856244F240D24405616FE0AF8CE7
:102D3800F2406244D2440561828023A8A1B882800F
:102D480023AAA1B8828023ACA1B8828023AEA1B8FF
:102D58008280011122CC4AC806CE26CA2A8901449B
:102D6800B30489006368B400F2406244D244424923
:102D7800056182802EC6EFE00F9793170501C18386
:102D8800A183B2452380F4009307140093F7F70F4B
:102D9800850463F9B700CA9709042380A700137450
:102DA800F40F7DBF3E847DBF411122C4138481DBB3
:102DB80003556400C16706C6FD17630BF50003C61B
:102DC800C1C3938501BAEF806029FD572313F4002E
:102DD800B24022444101828009C925151375F50FB7
:102DE8001335850E134515008280014582802380A6
:102DF8000500F94763E2C708797122D426D24ECE7E
:102E080056CA5AC806D64AD052CC5EC63684B2894B
:102E1800AE8A2A8B814463FF3405B307940003CA42
:102E28000700138914001379F90F63050A04B3071F
:102E38002A0163C1F904B307240183CB07005E8527
:102E4800613F0DC99307FAFF2380FA0063906B0373
:102E5800130519002295B250225492540259F2498E
:102E6800624AD24A424BB24B45618280D29493F473
:102E7800F40F55B70145C5B701458280011122CC31
:102E880026CA4AC84EC6938781DB06CE2E89D0CB88
:102E98008CCBC8C7AA8441469305F00F4A85EFE05A
:102EA8004FA78549138481DB631735030848C1455B
:102EB8004D3541469305F00F2685EFE08FA505496E
:102EC8006313250348446244F240D2444249B2495C
:102ED800C1450561BDBD414681454A85EFE06FA307
:102EE800E31935FDE1B7414681452685EFE06FA23C
:102EF800E30A25FDF2406244D2444249B2490561E1
:102F08008280011122CC26CA4EC6AE84AA89130635
:102F18000002138581DB814506CE4AC8EFE04F9554
:102F2800138981DBA38F91C2A3013901EFB0006A35
:102F3800138481DB854719C1814749452300F40083
:102F4800F2406244D2444249B249056182808147D5
:102F580081CD19C98547631BF50083C7550093E7E1
:102F680007FCA382F50085473E8582808947631761
:102F7800F50083C7550093F7F703E5B70D47854775
:102F8800E314E5FE03C755001377F7031367070437
:102F9800A382E500D1BF81478DC105C103C7550094
:102FA8009306000C85471377070C6308D700930630
:102FB80000048D476303D70089473E85828041110D
:102FC80022C4005D06C626C21DC8AA84085009C5C9
:102FD8009710FF1FE780008E485009C59710FF1F04
:102FE800E780408D085409C59710FF1FE780808C43
:102FF80022859710FF1FE780E08B23AC0402B240C4
:103008002244924441018280938781DB09E903C706
:1030180027001385870111C7138501B8828013859E
:103028008701828003C5A1DB828003A541DC828001
:1030380003A581DC828083A7C1DC884382809387D3
:1030480081DBD44B9842050798C203C53700930724
:10305800F00F6305F50091656FE0EF8D8280011137
:1030680022CC06CE2E8432C6EF80C02A9147B245C4
:10307800631EF50083A7C1B985C303A30700630DC9
:10308800030022856244F2400561028383A741B9A7
:1030980081C703A34700E5B7F240624405450561CF
:1030A8008280011122CC2A840355450006CE26CA07
:1030B8004AC84EC6EF80600735C52A898344050093
:1030C8008349C500ED3D4A85EF80107D03554400D6
:1030D800EF80C01F138981BA83470900A1CB63978A
:1030E800970483C591BA2685EFF0DFB519E123006F
:1030F800090003554400EF80E0219147631DF50066
:10310800938781DB8356440003D767006395E60005
:103118007D572393E700F2406244D2444249B249C2
:103128000561828081499304F00F6DB79307F00F12
:10313800E381F4FC834664000356440003452400FD
:103148004E87A685EFF0FFB96DB779715EC6AA8B79
:103158002E8552CC56CA5AC806D622D426D24AD070
:103168004ECEAE8A328B368AEF70307C79CD045DD4
:103178002A89E1CC9C50614599C3130540039C54AE
:1031880081C751054205418163050A007105420561
:103198004181DC5081C7590542054181EFD07FBB91
:1031A8002A8445C561468145EFD09FEC83C941DB40
:1031B8006394090083490900930700FD2300F40084
:1031C800A947A30074012301F400230364018C5070
:1031D800231254011305840191C908C47146930A46
:1031E80044039700FF1FE780007856858C5491C9E7
:1031F80048C45146930A45019700FF1FE780A0760F
:103208005685630C0A0008C87146D285930AC50121
:103218009700FF1FE78020755685CC5099C548C890
:1032280059469700FF1FE7800074A2854E85EFD0AE
:103238009FBC2254B2509254F249624AD24A424B3D
:10324800B24B4A85025945619DBBB25022549254F3
:103258000259F249624AD24A424BB24B45618280D6
:1032680001114EC6AA892E854AC806CE22CC26CA86
:103278002E89EF70906B21C583C441DB99E08344AC
:1032880005001945EFD0FFAC2A8415C981451946B8
:10329800EFD01FDE930700FD2300F400B947A30019
:1032A80034012301F40023122401A2856244F24070
:1032B8004249B2492685D24405616FD0DFB3F24056
:1032C8006244D2444249B2490561828039715ECE76
:1032D800AA8B2E8526DA4ED652D456D25AD006DE7E
:1032E80022DC4AD8AE84328BB68A3A8ABE8942C674
:1032F800EF70B06321C92A894145EFD09FA52A8480
:1033080031C141468145EFD0BFD603C541DB19E144
:1033180003450900930700FD2300F400BD4723017E
:10332800F400B247A300740123129400230464013B
:10333800A304540123054401A30534015CC4A285F8
:10334800EFD07FABF2506254D2544259B259225A4C
:10335800925A025BF24B21618280797126D2AA844B
:1033680039454AD04ECE06D622D42EC6B2893689E1
:10337800EFD03F9E21C1B2459307000D2310F50001
:10338800B1472A842312B5002301F500CE8519051B
:1033980019469700FF1FE780005D23062401A285D8
:1033A8002254B2500259F24913F5F40F9254456170
:1033B8006FD07FA4B250225492540259F249456109
:1033C8008280411126C2938481DB03C7340006C67C
:1033D80022C44AC09307F00F630AF7042A893945C3
:1033E800EFD03F972A8439C1930700FD2300F500E9
:1033F800A300250123010500938584010D051946C5
:103408009700FF1FE780205683D78400A28503C555
:1034180034002315F40083C714002306F400224463
:10342800B2409244024941016FD0FF9CB24022440D
:103438009244024941018280011156C2AA8A31454B
:1034480026CA4AC84EC652C406CE22CCAE84328A98
:10345800B6893A89EFD0FF8F39C52A842685EF705F
:10346800D04C1DCD03450500930700FD2300F40053
:103478009D47A30054012301F40023129400231351
:1034880044012314340123152401A2856244F24027
:10349800D2444249B249224A924A05616FD0BF9547
:1034A80003C5B1DBD1B7F2406244D2444249B249C4
:1034B800224A924A05618280397162CC2A8C594528
:1034C80026DA4AD84ED652D456D25AD05ECE06DE26
:1034D80022DCAE8432C636C4BA8B3E8BC28A468A98
:1034E8008359010403494104EFD0BF8635C53246EC
:1034F800930700FDA2462300F5009547A301C500E8
:10350800A30085012301F5002A8419461105A9C2E3
:10351800B6859700FF1FE780004523066401230A4C
:103528002401231574012317540123184401231976
:103538003401A2856254F2504259B259225A925A21
:10354800025BF24B624C2685D25421616FD0BF8A50
:103558008145EFD0FFB1D1B7F2506254D2544259ED
:10356800B259225A925A025BF24B624C2161828014
:10357800411122C4138481DB8347240006C626C276
:103588009DC7AA851946138501B89700FF1FE780D4
:10359800803D03452400938501B8EFF05F9B2244EA
:1035A800B240138501B8924441016FB0E002B240C5
:1035B80022449244014541018280411126C29387E9
:1035C80081DB06C622C44AC003C737009307F00F41
:1035D800938481DB6302F7042A892945EFD06FF7CA
:1035E8002A841DC9930700FD2300F500A147A30005
:1035F80025012301F50083C72400938501B8A301A1
:10360800F500194611059700FF1FE780C03503C56F
:103618003400A285EFD02FFE03C724008D47631F17
:10362800F70083A781B999CB03A387006308030038
:103638002244B2409244024941010283B2402244EA
:103648009244024941018280797122D406D626D259
:103658004AD04ECE52CC56CA09445DC92A89035570
:103668000500AE895144EF70502CAA8455C1938748
:10367800C1C383C737008546BA8AFD1793F7F70F8A
:10368800494463F7F6080347C500A1476314F700E8
:10369800639009089C5C4544A5EF91659385457145
:1036A8001305C0029700FF1FE780C01788DC2A8A2D
:1036B8004D4439CD1306C0028145EFD07F9B835717
:1036C800090093064A0036852311FA0071469305CE
:1036D800490036C69700FF1FE780E0288947230086
:1036E800FA0003C5C400B2460356090083C5C1C326
:1036F800611513351500EFA0A0352A8463860900EB
:10370800CE852685EF80304401C42685EFF03F8BB7
:103718002285B250225492540259F249624AD24A3E
:103728004561828083C7F1C30547FD1793F7F70FFB
:103738006378F708894751C6011122CC26CA4AC8BE
:103748004EC652C406CEAA89368AB2842E89EF7034
:10375800D01D2A84D14729C9485509C59700FF1F9C
:10376800E7804015F1452685EFD0FF9248D4CD4734
:1037780005CD8346C40021478147639FE600630D5A
:103788000A000347A5010356050193062501AA85EA
:103798004E85EF80A033AA8703474400630F0900D2
:1037A800136767002302E400F2406244D2444249AE
:1037B800B249224A3E850561828013674700DDB71A
:1037C800C9473E858280E14763EAA7009317150041
:1037D800138541D83E9503550500828041657D15C6
:1037E8008280011122CC2A842E8526CA06CEAE8478
:1037F800EF70B0130DCDB7470F009387F723094536
:1038080063E2870281450A854146EFD07F86A68517
:10381800231081000A85418023018100A301010052
:10382800EFA08005F2406244D24405618280494598
:10383800D5BFA38EA1C282806FA0A01A797152CC85
:103848002A8A328522D426D24AD04ECE56CA5AC89F
:103858005EC606D662C4AE8BB28A368BBA843E89FF
:10386800C2894684EF70700C15C92A8C63140A0249
:1038780013774B008347450015CF93E727012302B1
:10388800FC008DEC631C0902639A090205E8ED9BB4
:103898002302FC00832B8C03639F0B06B250225437
:1038A80092540259F249624AD24A424BB24B224CD4
:1038B80045618280F59B93E70701D1B793E74700FD
:1038C8002302FC0001CC1C484146A2852324FC02AB
:1038D80013058C019700FF1FE780E00863910B0236
:1038E800D5D80325CC0209C59700FF1FE78080FCC7
:1038F800F1452685EFD02FFA2326AC0261BFE30BF2
:1039080009F80325CC0209C59700FF1FE78080FA54
:10391800F1454A85C5B79DC483A70B0299EB91650C
:103928009385357171459700FF1FE780A0EF23A0AD
:10393800AB0203A50B0219C57146A6859700FF1FA8
:10394800E78060026388090283A74B0299EB9165BF
:103958009385257159459700FF1FE780A0EC23A2A6
:10396800AB0203A54B0219C55946CE859700FF1F28
:10397800E78060FF1DC483A78B0299EB916593854F
:10398800157151459700FF1FE780C0E923A4AB02DA
:1039980003A58B0219C55146A2859700FF1FE78032
:1039A80080FC2254B2509254F249B24B224CCA863F
:1039B8005A860259424BD6855285D24A624A456197
:1039C8006FF0AFF8011126CA52C406CE22CC4AC8FD
:1039D8004EC62A8AAE84EF70407535C1AA8939452A
:1039E800EFD02FB72A8421CD03C941DB6314090026
:1039F80003C909009307000D2310F400AD47230104
:103A0800F400938569001305340019469700FF1FD9
:103A1800E78060F593F71400858085882306F40015
:103A2800A306940023154401A2856244F240D244BF
:103A3800B249224A4A85424905616FD0CFBBF2405C
:103A48006244D2444249B249224A05618280411106
:103A580022C4138481B8084006C619C59700FF1F01
:103A6800E78040E523200400B240224441018280DF
:103A7800011106CE22CC26CA4AC82EC6EF70E06ACB
:103A880029CDB24503C941DB0CD5AA8463140900CA
:103A9800034905004145EFD0CFAB2A841DCD9307DC
:103AA800000D2310F500A5472301F50083C7540036
:103AB800938564001105A30FF5FE19469700FF1FB3
:103AC800E78060EA9C54A285F2405CC46244D24418
:103AD8004A85424905616FD00FB2F2406244D24430
:103AE800424905618280797122D406D62A842EC67D
:103AF800EF70A0630DCD8346C5001147AA874945DD
:103B08006393E6029C5FB24599C383C567010808C1
:103B1800EF80500CB7D60100938666C5100889451A
:103B28002285EF70507FB250225445618280514502
:103B3800DDBF83C7F1C30547FD1793F7F70F637A16
:103B4800F704894721CA411122C426C24AC006C6C1
:103B5800B2842E89EF70605D2A84D14705C5630859
:103B680009008347450093E727002302F5004146F3
:103B7800A685130584019700FF1FE780C0DE9C48D7
:103B88001CD48147B2402244924402493E854101F7
:103B98008280C9473E858280797122D406D62A84DC
:103BA8002EC6EF70805801CDB2452285230EB10094
:103BB8006C08EF80C075B25022544561828051452F
:103BC800DDBF6F70206BC1671387E7FF6393E50262
:103BD80083A741B991EB494582804945B2402244C7
:103BE800924402494101828003A30700E30503FED2
:103BF8000283411122C426C24AC006C6FD172A897B
:103C08002E84B2846394F50283A741B991CB9C4377
:103C180081CB829711E5238421BBA38491BA7DBF10
:103C2800A6854A85EFF00F8255F9F5B72E85EF7016
:103C3800C04F45D5834705000D45E39127FB2285F5
:103C48002244B2400249A685924441016FA0501611
:103C580061476360A7044111416722C406C626C2B2
:103C68007D172A8409456381E502C547AE8463153B
:103C7800F4002E85EFA0D01D93171400138441D8AB
:103C8800A297239097000145B240224492444101F3
:103C9800828009458280011106CE2AC6EFE0BFFC6A
:103CA800EF10401BD12DEF905105938781DB13074F
:103CB80000F02391E7002382070032451387C1C330
:103CC800FD56A300D700F240238EA1C29545056199
:103CD8006F50B0681D7193970501A6CA86CEA2CC15
:103CE800CAC8CEC6D2C4D6C2DAC05EDE62DC66DA24
:103CF8006AD86ED6C187AE8463D0074603C5C1C3F0
:103D0800EFD00F892A8D138481DB63130D0221659F
:103D1800258DF6406644D6444649B649264A964A11
:103D2800064BF25B625CD25C425DB25D25618280CB
:103D380083470D001307200A639CE70003493400FA
:103D480003552D00C1656A86FD15EFF04FB105A238
:103D58001387C1C303491700130710096396E714B3
:103D680083471D001547639EE7006A85EFF06FB330
:103D78006A85EFC05FFB03C5C1C3EFD06F812A8D91
:103D880069B739476396E71403554D008567A5075A
:103D98006314F50483258D0003CA0500631B0A001C
:103DA800850581C91946138501DD9700FF1FE78046
:103DB80080BB0347040085476318F70E63080A00B1
:103DC800230004005285EFF0CFDF5DB78947230059
:103DD800F400EFA0300069BF096793072700631C50
:103DE800F504032A8D0063010A0C83470A0089EF52
:103DF80083472A0003471A00A207D98F2314F40027
:103E080083473A00A300F400034704008947631D71
:103E1800F70883470A0091C72300040003450A00F6
:103E28005DB783451400035584008D472300F400D3
:103E3800EF507055E5B7930757006319F5008327CE
:103E48008D0003C50700EFF04FF71DB7F977E917A5
:103E5800AA97C207C183914663EEF60083A781B98A
:103E6800E38807F09C43E38507F06A858297E311AE
:103E780005F01DA82D07631EE50083A701B9E38996
:103E880007EE9C43E38607EE0965EA852D058297D0
:103E9800F9BF89671387C7006311E50283278D007F
:103EA80083C70700E38607EC9307F00FE302F9ECFA
:103EB800EA854A85EFC03FF47DBDB907E316F5FEF4
:103EC80083A741B9E38607EADC43EA85E9F34DB500
:103ED8003D476397E70403554D0089671387D7006B
:103EE800E300E5FE13879701E30CE5FCCD07E31D2E
:103EF800F5FA03576400C167FD17631DF70083A730
:103F080041B9E38707E6DC43E38407E60965EA8508
:103F18004D05B5BF83A7C1B9E38C07E49C43EDB752
:103F28001307E003E392E7F883472D0005476393FF
:103F3800E70E83476D00938D81B8F1E383A70D00E9
:103F4800C5CF03CA0700214903457D00130C8D0026
:103F5800E285EFF04F8483474D01A303AD008358FA
:103F68000D010358ED0003574D002A8603453D0017
:103F78003EC283572D01E286D2853EC0CA87EFF044
:103F8800AFD383473D0095E7DD4783580D010358BC
:103F9800ED0083467D0083554D003EC283572D01B9
:103FA8003EC06287CA8705465285EF70E04BA30181
:103FB800AD0083A70D0081C71145EFF05FA9138AF3
:103FC80081BA03450A00E30505DA83C591BAEFE033
:103FD8007FC7E30F05D883463D0093071003638A24
:103FE800F60003564D0083450A004A873685EFE000
:103FF8005FCF238401BAADBB034A3400A9B783A7B6
:1040080081B9034A34001149A1D3DC4395DF014546
:1040180082971DBF2947639DE70883476D00938DED
:1040280081B8A5EF83A70D00B5C703CA07002149CA
:1040380003457D00130C8D0093772500137615003A
:1040480089E7E285EFE03FF52A8683470D02A3035F
:10405800CD008358CD010358AD0103574D000345EA
:104068003D003EC28357ED01E286D2853EC0CA8735
:10407800EFF08FC483473D008DFFDD478358CD01A6
:104088000358AD0183467D0083554D003EC28357DA
:10409800ED0139B7034A340059BF83A781B9034AF0
:1040A80034001149D1D7DC43C1D70145829749B7BC
:1040B8000947639CE70083A701B9E38B07CADC4380
:1040C800E38807CA6A85829765B12D476398E70038
:1040D80083A701B9E38E07C89C47DDB70D476397EF
:1040E800E7006A868D4503554D0085B11947E39D64
:1040F800E7DA9305610113051031EF90C14A2C08E6
:1041080013052031EF90214A03566D008357810132
:1041180003554D0063E8C70083568D0003576101BE
:1041280063F7E60093050002EFA0805191B1637434
:10413800E6002313ED0063F4D7002314FD000357B2
:10414800CD008356AD0003568D0083556D000148A0
:104158008147EFA0A04E29B993F7150099CB83A703
:1041680001B989C7DC4399C30145829713C5140077
:104178004DB693F7250099CB83A781B989C7DC434E
:1041880099C30545829713C5240061B693F7450086
:104198000145E38007B883A7C1B8138481DB99CBB5
:1041A80085472302F40083A781B989C7DC4399C3F3
:1041B8000545829748442C08EF9080552808EFF071
:1041C8002FBB83D761DA91CB130600643386C7020D
:1041D80003C5C1C39145EFD0CF8613C5440015BEB2
:1041E800411122C42A84554506C6EFF0CFDDB33508
:1041F800A00022852244B24041016FA0603F79713E
:1042080022D406D68D472E84631FF50003D7A50058
:1042180083D6850003D665000345340083D5450061
:10422800EFF08FA109A889671387D700631FE502FC
:1042380003C5250019E58547B25022543E854561DE
:10424800828083A681B8E5DA03C6360083C50600F6
:10425800814802C202C00148814701479106EFF038
:10426800AFA50545EFF0AFFEF9B71387E700E30404
:10427800E5FC13873701631AE50003C5250045DD12
:10428800014781460146814561BFE507E305F5FA27
:1042980041677D178147E311E5FA03C75500C94710
:1042A800E31BF7F883D6E50003D6C5000355840061
:1042B80083D5A500EFA0403A51C15D45EFF0AFD0DE
:1042C8003335A000231CA100834544000355240076
:1042D8003008EF60105A83578101B1FF6C0813054D
:1042E8001031EF90412C9305E10113052031EF9037
:1042F800812B8357C101035784006374F70023148B
:10430800F4008357E1010357A40063F4E700231581
:10431800F400835584008357A40063F4B700231581
:10432800B4000357E4008356C4000356A4000355A1
:10433800240001488147EFA0602EF5BD8547231C66
:10434800F10059B7C1671387E7FF639CE50083A7AE
:1043580081B88DC383C707000D47639BA7006FA073
:10436800202BFD1749476395F50083A781B8E5FB26
:104378003A8582804947EDBF238A01BA23AE01BA44
:1043880023AC01BA37570100938781DD1307878172
:1043980098C33757010013070785D8C3375701005B
:1043A8001307479698C7374701009387C1BA130781
:1043B800C73498C33747010013076720D8C38280E2
:1043C80039714AD883A7C1BB06DE22DC26DA4ED66D
:1043D80052D456D25AD05ECE89EF0545F250625477
:1043E800D2544259B259225A925A025BF24B216175
:1043F80082800347050085471389C1BB2A8463006F
:10440800F70403468500930695009305F1000545DA
:10441800EFE0FF9D814719C18347050083460400EB
:1044280011476386E60203A781BB8D460347170041
:10443800630FD70089CF01CF11E5014545B7814703
:104448000145E9BF8546631AD7088D8BFDD703451B
:104458001400130B2400DA85EFE0FFB3A300A400D7
:10446800832709002A8A8149A1C3930BF00F83C7C8
:1044780041BB63FBF90203250900939A490056954D
:10448800834705006380770783471500639C4705CA
:104498001946DA850905EFC0DFC329C58324090059
:1044A80003470400D694A9E4834604009147E386B1
:1044B800F6F883270900D1D303C641BB9305F00F53
:1044C8000147E30CE6F6BE84C10703C507FF630591
:1044D800B50C05071377F70FEDB78946E31FD7F437
:1044E800858BADB7850993F9F90F51B788C4E5A055
:1044F8009147631AF706C84405C5834784000346F5
:1045080005006304F606034704009147631BF7069A
:10451800C84419C597F0FE1FE780C03923A60400D8
:104528000345840091659385E571050597F0FE1FA5
:10453800E780402F05C5034704009147631CF70433
:10454800C8C483478400930594000505A30FF5FEAE
:104558000346840097F0FE1FE780E040034584008F
:104568003335A000A5BD884441BF930594000505D7
:10457800EFC03FB68547E318F5F85545EFF0AFA40F
:10458800BDA8884451DD97F0FE1FE780A03223A420
:10459800040079B788C475B72380D4008347140012
:1045A800DA8513852400A380F400194697F0FE1FCE
:1045B800E780603B0345840091659385F5710505A7
:1045C80097F0FE1FE780002605C5034704009147C2
:1045D800E31EF7F0C8C483478400930594000505DB
:1045E800A30FF5FE0346840097F0FE1FE780A0376F
:1045F80083478400E39307DE034504007D151335E4
:104608001500E9BB011122CC83A7C1BB06CE26CA7F
:104618004AC84EC652C48DC31384C1BB2E8AAA840D
:104628000149084063129902630C0A0497F0FE1FBF
:10463800E780402823200400F2406244D2444249E3
:10464800B249224A0561828093194900B3073501AE
:10465800884709C997F0FE1FE780C0251C40CE9700
:1046680023A407001C40CE97C84709C997F0FE1F2E
:10467800E78040241C40BE9923A60900050955B7C8
:1046880045DD139644008145EFC09F9E1440814745
:104698007D5613F7F70FE37197FA1397470036978C
:1046A8002300C7008507F5B779714AD083A781BB76
:1046B80006D622D426D24ECE52CC56CA5AC85EC688
:1046C800D1CFAA89138981BB938A41BB014411EDDB
:1046D80083A6C1BB99CA03C60A002A8481479305E9
:1046E800F00F13F7F70F6366C70813153400210599
:1046F800EFC02FE6AA8401E92145EFC08FE5AA841F
:1047080031C10144CD49930700FD2380F40085475A
:10471800A38034012381F400A381840055C49389C4
:10472800840023A23401014A930BF00F83C70A00C7
:104738006373FA0039E883270900A68503C50700D3
:10474800EFC06FEB03C50A0081456D3D03250900E5
:1047580097F0FE1FE780001623200900B25022546C
:1047680092540259F249624AD24A424BB24B4561CD
:104778008280139747003697034707006305B70001
:1047880005041374F40F8507A9BF83A7C1BB93154C
:104798004A00BE9583C70500638477032380F90028
:1047A80083C71500138529007D14A380F9001946D5
:1047B80089051374F40F97F0FE1FE780C01AA1094A
:1047C800050A137AFA0F9DB723A20400ADB7411169
:1047D80022C406C62A8405E10945EFE0DFFE2A86E1
:1047E80011C503C5C1C38545EFC0BFA50545EFF099
:1047F8003F9F2A8409C903C5C1C38545EFC01FBAB5
:104808002285EFF07FEAB2402244054541018280CB
:1048180089671387B7006319E50083A781BB95C330
:104828009C4503C5070065B71387C7008147631B0D
:10483800E5009C4503C50700854709C583A781BBDB
:10484800FDF381473E858280797106D622D426D22F
:104858004AD04ECE52CC56CA5AC85EC662C461CD42
:1048680083473500AA8995C3404105C05945EFE003
:104878009FF5931A850193DA8A410149130B000DBC
:10488800B54B83C73900636EF900B2502254925475
:104898000259F249624AD24A424BB24B224C456114
:1048A80082808307840263CF570783A781BB138C59
:1048B80081BBADCB2285EFF0BFB02DC50345840089
:1048C8005105EFC00FC9AA8431CD2310650123011A
:1048D800750183470400194693052400A301F500D8
:1048E8008307840215052303F50083471400A30FEB
:1048F800F5FE97F0FE1FE780000703468400238635
:10490800C4001DC61385440188C89305940097F018
:10491800FE1FE780400583270C00A68503C5070016
:10492800EFC06FCD0509130494021379F90F91BFF5
:1049380023A80400CDB783A781BBA1DBEFF0DFD6A6
:104948002254B25092540259F249624AD24A424B16
:10495800B24B224C014545616FF09F88797106D6AC
:1049680022D426D24AD04ECE52CC56CA5AC85EC697
:1049780062C479C183473500AA8995C3444185C07B
:104988005945EFE05FE4931A850193DA8A410149BA
:10499800930B00FD414C83C73900636EF900B25098
:1049A800225492540259F249624AD24A424BB24BBB
:1049B800224C456182808387F40063CA5707138AB3
:1049C80081BB83270A00A5C75145EFC08FB82A8449
:1049D80039CD23007501A30005002301850183C794
:1049E8000400194693852400A301F5008387F40089
:1049F8001505A306F50083C71400A30FF5FE97F06D
:104A0800FE1FE78040F683C7840093859400130552
:104A1800C400A305F400194697F0FE1FE780A0F430
:104A280083270A00A28503C50700EFC0CFBC05098C
:104A3800C1041379F90F85B783A781BBADD3EFF014
:104A4800BFC62254B25092540259F249624AD24A1D
:104A5800424BB24B224C014545616FF06FF883A77A
:104A680081BB95C703C707008D476313A70203C51A
:104A7800C1C34111854506C6EFC05F921305000307
:104A8800EFF09FC2B240014541016FF06FF5C94791
:104A98003E858280797126D2938481BB9C4006D65C
:104AA80022D4BDEF03C7F1C3C947298B25C7916538
:104AB8002A849385D571114597F0FE1FE78080D62B
:104AC80088C0CD4721C91146A28597F0FE1FE7800F
:104AD80080E91545EFE03FCFAA841945EFE0BFCE46
:104AE8002AC69305F1011305F041EF700150938731
:104AF80081DB83C627000347F1013246B336D00075
:104B080011C389060347340003452400A685EF90A6
:104B1800F02DAA87B250225492543E854561828076
:104B2800C547CDBF83C7F1C35D71A2C486C6A6C2FF
:104B3800CAC04EDE52DC56DA5AD8A18B4944638A81
:104B4800070E83A781BB41446395070E2A89EFF0BE
:104B58004F8783C781C25544637DF50C83A781B80D
:104B680045446398070C91659385C571294597F06D
:104B7800FE1FE78020CB23A4A1B84D445DC9294678
:104B8800CA8597F0FE1FE78000DE83A781B883C738
:104B98001700DDCB2D45EFE01FC32A843145EFE038
:104BA8009FC22A899305F1021305F041EF70E14392
:104BB800938781DB83C727000347F102B337F000EF
:104BC80011C3890741453ECEEFE0FFBF2A8B3D4523
:104BD800EFE07FBFAA8A3545EFE0FFBE2A8A394554
:104BE800EFE07FBEAA892145EFE0FFBD2ACC1D4535
:104BF800EFE07FBD03A781B82ACA034537009305B4
:104C08004700EFE0CFB403A781B8E2485248034613
:104C18002700F247AA865AC6228556C452C24EC0F9
:104C28001107CA85EF90101D2A8401C50D45EFE0D4
:104C38001FE22285B640264496440649F259625A34
:104C4800D25A425B616182802545EFE0DFB72A8452
:104C58002945B1B783C7F1C30145A18B99C3138512
:104C6800C1BA6FE0EF8D411122C4138441BB26C243
:104C7800AA8403450400854506C6EFF0BF9883C79C
:104C8800F1C3A98BB5C723009400138581DDEFE03C
:104C9800CF8A9384C1BB9C4099C74D45B2402244FA
:104CA8009244410182800345040019E10145FDB7A2
:104CB80091659385B571120597F0FE1FE78080B660
:104CC80088C061DD0346040081451206EFC04FBA73
:104CD8008346040090408147FD5513F7F70FE377AB
:104CE800D7FC1397470032972300B7008507F5B71D
:104CF800014523000400EFE04F844DBF411122C459
:104D080003A5C1B806C619C597F0FE1FE78080BA8B
:104D180023A601B8B240224441018280011122CC6D
:104D280006CE26CA8D472E846313F50603C73500C1
:104D3800E94703D54500938481DB6316F70083D7E1
:104D480064006382A706EF60403E09C5835764008C
:104D58002317F5000357A400835684000356640004
:104D68008355440003453400EFE00FED035744003A
:104D780083D764006309F7008547F2406244D24450
:104D88003E8505618280FD572393F400F5B7896756
:104D9800CD07631DF50083C7250031476385E7000C
:104DA8004547E39BE7FCEFE02F80F9B741677D17A4
:104DB8008147E314E5FC83C655004947E39FE6FABB
:104DC80083C5450003552400300023140100EF601B
:104DD80020255DB7797122D483A7C1B806D626D21B
:104DE8004AD00545B5C30D45EFE0FF9DAA8411459E
:104DF800EFE07F9D2A899305F1011305F041EF70DB
:104E0800C11E938781DB83C627000347F101B336B0
:104E1800D00011C3890683A7C1B836C603C53700B9
:104E280093854700EFE0AF9203A6C1B8B2462A8740
:104E38008348B6000348A6009307460003462600A9
:104E4800CA852685EF908079B2502254925402592F
:104E5800456182807D572386E1B0239001BC23A45D
:104E680001BC23A601BC23A801BC375701009387C6
:104E780041DE130727EF98C3375701001307071DB3
:104E8800D8C3375701001307C7DD98C7B7570100C4
:104E9800938747D223A2F1BC8280411126C283A7FF
:104EA800C1B806C622C48DCF2A840D45EFB07FEA6B
:104EB800AA8505C1930700FD2300F5008D47A300CF
:104EC80085002301F50083A7C1B803C50700EFB02B
:104ED8009FF219C42244B240924441016FF01FE28C
:104EE800B2402244924441018280797126D283548F
:104EF8004500896706D622D44AD04ECE52CC56CA2F
:104F080013876700639EE40283A7C1B8014481CF79
:104F180018450345070015E10547A380E700054547
:104F2800EF90806C05442285B25022549254025965
:104F3800F249624AD24A45618280EFF01FF6DDB736
:104F480013879700636797041384C1B0034704006D
:104F58009307F00FE308F7FC1C45114503C9070048
:104F6800EFB03FDFAA855DDD930700FD2300F50064
:104F780089472301F500F977E117BE9493B414002B
:104F8800A3002501A301950003450400EFB0BFE687
:104F980051BFA9070144E398F4F883A7C1B8CE8AA2
:104FA800D9D3184503C417008547034A0700138956
:104FB80081DB630CF40283474900ADF70D45EFB080
:104FC8005FD9AA8505C1930700FD2300F500914725
:104FD800A30045012301F50083A7C1B803C5070055
:104FE800EFB07FE1EFF09FD135BF83A781BC91EF90
:104FF8000145EFE04FFD2A8611C603C5C1C38945A7
:10500800EFC02FA483A7C1B8A9A003C60700938641
:1050180017009305F1000545EFD07FDD71D983476F
:105028000500858BF1D70545EFE0EFF99307B0034D
:10503800AA8463F9A70203C5C1C35D661306067097
:105048008945EFC0CFB2938444FC239091BC83A7D9
:10505800C1B80947A380E7008347490089CB2302E9
:105068000900D1B5130600643306C50271B752852D
:10507800EFF0BFE24DBD79714ECE83A7C1B822D4FF
:1050880006D626D24AD052CC454489EB9387C1C371
:1050980083C7370013F7570019EB49442285B250EC
:1050A800225492540259F249624A4561828003A708
:1050B80081BC414465D7034707006DD3858B2E8992
:1050C8002A8AC9C7834709000547F91793F7F70FD5
:1050D800E365F7FC916593857571314597E0FE1F8F
:1050E800E780407423A6A1B84D444DD9230045015B
:1050F800A30005002946CA85090597F0FE1FE78029
:105108008086930571001305F041EF60116E8347A7
:105118007100A9E703C7A1DB8D476311F704EFD03E
:10512800DFF02C00EF80C05E2800EFE06FC445453B
:10513800EFE06FE901443DD1130600643306C50270
:1051480003C5C1C39145EFC0CF8F89BFEFE07FA7EB
:105158002A84EF60E014E377A4F6ADBFEFF09FC7B1
:105168002A840DDDEFF09FB915BF411126C283A730
:10517800C1B806C622C44AC0A1C383C707000D44EC
:10518800639DA70203C5C1C38945EFC02FA103C50D
:10519800C1C39145239001BCEFC04FA0A38E01DA93
:1051A80083A7C1B80145A38087002244B240924436
:1051B800024941016F90404349442285B24022444C
:1051C8009244024941018280411106C622C426C286
:1051D80085476315F506138401BC83570400A1C7EE
:1051E80003C7C1DB29E31307B0036369F70203C5EB
:1051F800C1C38945EFC08F9A035604009307006422
:1052080003C5C1C33306F6028945EFC08F83231057
:105218000400B2402244924441018280938747FCB3
:105228002310F400FDB783A7C1B8E5D72244B240E4
:10523800924403C5070041016FF03FF383A7C1B84B
:10524800E9DB9387C1C383C73700918BF9D303C5C3
:10525800C1C38945EFC08F942244B2409244239041
:1052680001BC41016FF09FA983C7F1C3958BD9CFCA
:10527800B9CD83A781BCD9CBFD4763EBC70811C261
:10528800C1CA411122C44AC006C626C22386A1B09B
:1052980036893284A1C1938481BC88407D4681458A
:1052A8000505EFB0FFDC8840CA852286050597E032
:1052B800FE1FE780406B8C402285238085002244B6
:1052C800B24092440249850541016F90603183A73D
:1052D80001BD55B7938401BD88407D4681450505CC
:1052E800EFB01FD98840CA852286050597E0FE1FC2
:1052F800E78060678C402285238085002244B24085
:1053080092440249850541016F90C02D494582802C
:1053180009458280797106D622D426D24AD04ECE4B
:1053280052CC8D4763FCA70009442285B250225411
:1053380092540259F249624A4561828003C781DB6F
:105348004144E314F7FE938781DB83C92700930761
:10535800F5FF93F7F70F85462E842A89938481DB1E
:1053680063E4F60695E199452800EFD09F9E03C5B2
:10537800C1C3914523812401EFC04F82A382040059
:1053880029CC2381340155B7194681452800EFB04F
:105398003FCE19462C002285EFB0BFD351F51946F0
:1053A8009305F00F2800EFB0BFCC19462C002285DA
:1053B800EFB03FD235F9A2851946280097E0FE1FC5
:1053C800E780605A014465B70144E312E5FAC8442E
:1053D8002C00EF80E0332A8459BF6314090001448C
:1053E800A9B72800EFE0CF982A8441FD8D47E3183C
:1053F800F9FE4545EFE02FBD1375F50FA382A40014
:1054080079DD03C5C1C35D66130606709145EFB02B
:105418001FF621BF83C7F1C3918B89CF4111138533
:1054280041BC06C6EFD09F92B2407D57239FE1DA78
:105438004101828001456FD07F91411122C403A5AB
:1054480081BC06C626C24AC0138481BC19C597E030
:10545800FE1FE78020462320040003A501BD938496
:1054680001BD19C597E0FE1FE780C04423A00400D2
:105478001389C1C383473900958BADCB138541DEB2
:10548800EFD07F8C83473900958B81EB4D45B24037
:10549800224492440249410182801169930569714D
:1054A8001305000297E0FE1FE780C03708C079DDCA
:1054B800130600028145EFB0BFBB93055971130570
:1054C800000297E0FE1FE780E03588C001C9130697
:1054D80000028145EFB0DFB9014555BF084097E0AC
:1054E800FE1FE780203D232004004DB70145EFD083
:1054F8009F85DDB703C70500937625009377D70FFF
:1055080099C293672700131885011358884113F728
:10551800F7076354080013E7070893768500937725
:10552800770F99C2936787001377050293F6F70DF3
:1055380019C393E607022380D500634508009377D3
:10554800A50281CB8347060093E7C7002300F60036
:1055580082807DFD83470600CD9BCDBF2D45631717
:10556800071403C805000947631EE812C84103472A
:105578001500034505002207498F42070D6541873D
:10558800930825A06309170B011122CC26CA4AC823
:105598004EC606CEBE89B68432842E8963CEE80014
:1055A800930705A0630DF702130515A0630EA70462
:1055B800239004000545A5A0930745A06307F708B5
:1055C8006346F706130565AAE314A7FE85472390EB
:1055D800F600DC4583C707002300F60081A0C84514
:1055E800EFB03FAA420541814E86637335012A8692
:1055F8002390C400420641828325C900228597E092
:10560800FE1FE780403619A8DC4583D707002390A2
:1056180006012300F600A183A300F6000145F2402D
:105628006244D2444249B249056182809947239035
:10563800F6001946D1B785472390F600DC450145A9
:1056480083C707002300F6008280DC45A9CB2147E9
:105658002390E60003D707002300E60003D70700DE
:105668002183A300E60003D727002301E60003D720
:1056780027002183A301E60003D747002302E600A1
:1056880003D747002183A302E60003D7670023035B
:10569800E60083D76700A183A303F60041B72390F0
:1056A8000600ADBF2390060005458280828083C82E
:1056B800050089476391F814DC41797122D406D634
:1056C80026D24AD04ECE52CC03C8170083C7070053
:1056D8002E8422083368F80042088D671358084161
:1056E800138327A0630A680E2A8A3A89B684B2858A
:1056F800634C0301138707A0630AE802938717A086
:105708006303F808854711A8138737A06303E80ADD
:10571800138767AA8D47E317E8FEB25022549254C4
:105728000259F249624A3E8545618280484432C640
:10573800EFB03F95420541819D47E36025FFB309DE
:105748009900D547B24563D43701B547F9B74844FE
:105758002686C2094A9597E0FE1FE780C020484484
:1057680093D9090159463306364181454E95EFB024
:105778003F9083A781BD99E3814745B79C43814505
:10578800E5DF52852DA0AD47E31909F8E39F16FB25
:1057980083471600834606005844A207D58F231076
:1057A800F70083A781BDE9DB9C438545F1D7829744
:1057B800E1B7AD47E31309F69947E398F6F848448B
:1057C800194697E0FE1FE780001A83A781BDCDD751
:1057D8009C43DDD38D4575B7AD4721F38547E396E7
:1057E800F6F60347060093070008E3E8E6F2DC450F
:1057F8002380E70051B785473E85828023AC01BCF2
:1058080089472388F1B0138F01B18147938E01DF57
:105818005947B386FE00238006008507E39BE7FE11
:10582800B707A000938541B1938707059CC1B707C7
:10583800E803DCC1238B01BC37E60200938781A013
:105848001306464CD0C337E602000947138ED1B081
:10585800130686492300EE00D0C723AEE70123AE26
:10586800C70337E6020037EF020037EE020085462D
:105878001306864A938811B1138341BD1388F1B08A
:105888001385E1B0130F0F4B130E0E4A2380E80067
:105898002380E7002388E7002380E7022388E702C4
:1058A8002380E7042300E8002384D700239507001A
:1058B800D0CB238CD700239D070023A2E7032384A2
:1058C800D7022395070223A6D703D0DB238CD70260
:1058D800239D070223A2C7052384D7042395070421
:1058E800231003002300D50023A667042388E704B8
:1058F80023AE17052380E7062388E7062380E708F9
:10590800B7E8020037E702001307474A9388084CB4
:1059180023A2E708F0CB238CD704239D070423A2F6
:1059280017072384D70623950706ECD7F0DB238CCB
:10593800D706239D070623AE07072384D708239598
:10594800070823A6A70837570100938781A91307DB
:10595800475698C3375701001307676BD8C323A46A
:1059680007008280A54763E1A70CB7E70200938789
:1059780087FF0A053E951C41411122C426C206C66E
:105988004AC0B2842E848287D547614563E1B70255
:1059980059468145138501DFEFB08FED2286A68534
:1059A800138501DF97E0FE1FE780E0FB0145B24069
:1059B8002244924402494101828089476145E39823
:1059C800F5FE03570600239AE1BCCDB7A147614510
:1059D800E39FF5FC2146A685138541B1EF80C154AC
:1059E800F1B785476145E394F5FC938581A0D04DD7
:1059F8009385850203C50400EFF0DFAF45BF8547F7
:105A08006145E396F5FA938581A0D05D9385850479
:105A1800D5B785476145E39CF5F80347060023871A
:105A2800E1B069B7094561B7094582800547630A4E
:105A3800E5024111AA8706C62E8599CB11476388CE
:105A4800E7022547638BE7020945B240410182809E
:105A58005546938501DF97E0FE1FE780C0F00145BA
:105A6800EDB783D741BD01452390F50082802146DB
:105A7800938541B1EF80414BDDB783C7E1B0238007
:105A8800F500F1BF938761BD03C7070011EF054714
:105A98002380E700058909C9938681A94146A54560
:105AA800138581A06F30405E014582800111138803
:105AB800F5FF06CE22CC26CA4AC84EC652C4137871
:105AC800F80FAD4563ED050BB7E502000A089385AD
