:040000006F10407BC2
:10000400000000000000000090000020F203002027
:10001400A9BDF9F5940000200000000000000000D4
:100024009400002090000020000000000000000068
:10003400900000200000000090000020000000005C
:1000440090000020900000209000002090000020EC
:1000540090000020E0160020900000200000000026
:1000640090000020900000209000002090000020CC
:10007400FA00002090000020900000209000002052
:1000840090000020900000209000002090000020AC
:1000940001A000009305000273A04580824573907F
:1000A400153492402242B2424243D2436244F24463
:1000B400025592552256B2564257D2576258F258B8
:1000C40006499649264AB64A464BD64B664CF64CE8
:1000D400065D965D265EB65E465FD65F0961730077
:1000E40020304111B7170040985F3AC6945F3247F9
:1000F400E39CE6FE324541018280B71700401307B6
:1001040000032388E702854723A6F1847300203087
:10011400411106C6EF003034F5BF73270080218BF0
:100124009387418509CB7327008023AAE1849843F0
:100134005D9B731007800100010037170040930690
:1001440070052300D704930680FA2300D704010026
:1001540001008346B70493F6F60DA305D7042300E4
:100164000704F32600809843218B558F7310078072
:1001740023AA01840100010013770502630F07100D
:1001840073270080218B09CB7327008023AAE18485
:1001940098435D9B731007800100010037170040EE
:1001A400930670052300D704930680FA2300D7042E
:1001B40001000100B70614007D89558D08C70100B0
:1001C40001000100010023000704F3260080984386
:1001D400218B558F7310078023AA0184010001002D
:1001E40073270080218B09CB7327008023AAE18425
:1001F40098435D9B7310078001000100371700408E
:10020400930670052300D704930680FA2300D704CD
:100214000100010001000100B7260040130610058B
:10022400A383C68023000704F32600809843218B10
:10023400558F7310078023AA0184010001007327DE
:100244000080218B09CB7327008023AAE184984383
:100254005D9B73100780010001003717004093066F
:1002640070052300D704930680FA2300D704010005
:1002740001008346B70493E60608A305D7042300C8
:100284000704732700809C43A18BD98F7390078048
:1002940023AA01840100010082801377050455C359
:1002A40073270080218B09CB7327008023AAE18464
:1002B40098435D9B731007800100010037170040CD
:1002C400930670052300D704930680FA2300D7040D
:1002D40001000100B7061400938606047D89558D3C
:1002E40008C7010001000100010023000704F326F0
:1002F40000809843218B558F7310078023AA0184B3
:100304000100010073270080218B09CB7327008033
:1003140023AAE18498435D9B7310078001000100C8
:1003240037170040930670052300D704930680FA1C
:100334002300D70401000100B7260040130620055E
:10034400C5B573270080218B09CB7327008023AAAE
:10035400E18498435D9B7310078001000100371707
:100364000040930670052300D704930680FA230007
:10037400D70401000100144793E6060C14C75DB5C9
:100384004111814601468145114506C6192CF327C2
:100394000080A18B9386418589CBF327008023AA13
:1003A400F1849C42DD9B7390078001000100B71724
:1003B4000040130770052380E704130780FA2380A5
:1003C400E7040100010003C76704136717002383D0
:1003D400E70423800704732700809C42A18BD98FF4
:1003E4007390078023AA018401000100B2404101F7
:1003F400828081460146814511456522F3270080AC
:10040400A18B1387418589CBF327008023AAF1842C
:100414001C43DD9B7390078001000100B717004067
:10042400930670052380D704930680FA2380D704AB
:1004340001000100FD562396D70223800704F3260A
:1004440000801C43A18BD58F7390078023AA01845D
:1004540001000100F3270080A18B89CBF3270080E2
:1004640023AAF1841C43DD9B7390078001000100E3
:10047400B7170040930670052380D704930680FACB
:100484002380D7040100010083C6670493E61600A5
:100494002383D70423800704F32600801C43A18B05
:1004A400D58F7390078023AA01840100010001A065
:1004B400BD473305F50201007D1575FD82804111AC
:1004C40022C426C206C6AA84014463179400B2401B
:1004D400224492444101828005041305803E420473
:1004E400C13F4180DDB72303048015472303E48023
:1004F40001002302A480828083076480E3CE07FE88
:1005040023030480828083076480E3CE07FE0345CF
:100514004480828083076480E3CE07FE2302A480A4
:100524008280411126C44AC24EC006C61377F50B19
:10053400AD47AA892E8995446306F70019456537A6
:10054400653F8D444E854537FD59FD14639834014C
:10055400B240A244124982494101828013550901E3
:100564001375F50F453F2209CDB7011126CC06CEF0
:10057400B704080051371545BD37713769372AC6A6
:10058400A53F32459377150089EB13651500137564
:10059400F50FF240E24405618280FD14E9FC014557
:1005A400CDBF397126DC4ADA4ED852D656D45AD247
:1005B4005ED006DE62CE66CCB7E700E07D5783AA44
:1005C400070022C603AA470023A0E71823A2E718BE
:1005D400B7170040130770052380E704130780FA58
:1005E4002380E70483C74704930B75FFB684E207AF
:1005F40093FBFB0F8546AA892E8B32893724004052
:10060400E187015763FA76016308D5008946130729
:1006140000026313D5000157D98F93F7F70FB71C66
:1006240000402382FC0411472303E4801305F00FE8
:100634005D3D094CD135636D7C11B7050700DA9532
:1006440037870700795563F2E504B3879500636E35
:10065400F702370B0800A94733EB65016399F906E4
:1006640089E48144513D26850DA0DA850945553D2F
:1006740005090345F9FFFD14050B693D81C4937712
:10068400FB0FFDF7DD3569FD7D55B71700401307F6
:1006940070052380E704130780FA2380E70403C767
:1006A4004704418B2382E704F250B7E700E023A01C
:1006B400571123A24711E25432445259C259325AB3
:1006C400A25A125B825B724CE24C21618280A54784
:1006D4006395F90685691309F00FB3069900B3749D
:1006E4002B01B6941349F9FFB3749900856B3379E0
:1006F4006901416B9387F9FFB3F7270199E363FC21
:10070400340193D94900C147E3E637FF99BF05692E
:10071400C1697D19D9B71305800D63886901130573
:1007240000026384790113051008CA85DD3B353D59
:1007340021DD4E99B3843441D9B7DA852D45D533BB
:10074400CA94E30099F205097D3BA30FA9FED5BF26
:100754009387F9FF93F7F70F6361FC0C83C71C04BD
:1007640013073008631FF70437070800636BEB04B3
:10077400B3079B00B706100063F5D704334BEB00B7
:1007840089476393F9068980D549E38C04ECDA85BB
:100794000945413B11090327C9FF91472320E48000
:1007A40003076480E34E07FE23033481FD17EDFB4A
:1007B400FD14110B81C49377FB0FE9FF7D3371F5B1
:1007C400E1B5B717004003C75704B707080013770C
:1007D400070219E3B78707007955E378FBEA330783
:1007E4009B00E3FFE7F855B58547E382F9F2DA8524
:1007F4002D45053B9389F4FFE38504E6293393F7FC
:10080400390091EB832604800327090093074900EC
:10081400E39AE6E43E89CE84F1BFB5476396F900D6
:100824001305900BC93135BDB1471305B00AE38BED
:10083400F9FE99476391F904B7050800B365BB0055
:100844002D45C53181448D4BA14975396396740199
:10085400832704802320F9008504E39834FF832749
:10086400048013172B01635507002312F900D5BB2D
:100874002322F900FDB39D476399F90281451305CD
:10088400B0044531BD442320090023220900FD5949
:100894009D3993F77400CA9703C70700FD14398D77
:1008A4002380A700E39634FF6DBBA1476392F9044C
:1008B4006D398144630D0B008D479304C0036308B5
:1008C400FB009304000563048B0193044004137537
:1008D400C507E30895D8194539313939054521311A
:1008E40026850D3909453D314931E31C05D669BBDF
:1008F40091476399F90013056006F536F53E130533
:1009040090090DB7E38F09D4F154A9BBB7C70040D0
:1009140003A7C72023A607200F10000001C599C113
:10092400814711E6B7C7004023A6E7208280B3863B
:10093400F50003C80600B306F50085072380060109
:10094400E317F6FEC5B737C700408327C720232621
:1009540007200F10000019C191C111E637C70040EC
:100964002326F7208280910503A7C5FF11057D1674
:10097400232EE5FEDDB737C700408327C720232693
:1009840007200F10000001C53307C50011E637C763
:1009940000402326F72082800505A30FB5FEE31D42
:1009A400E5FEF5B7B7C7004083A6C72023A60720F6
:1009B4000F10000081473307F5000307070019E70C
:1009C40037C700402326D7203E8582808507E5B7B8
:1009D400011126CA4AC8B7C7004006CE22CC83A458
:1009E400C7202A892E8623A607200F10000013157E
:1009F40006019305F004418132C6EF0010222A84D7
:100A040001C53246CA8519372285F2406244B7C708
:100A1400004023A697204249D24405618280B7C78B
:100A2400004003A7C72023A607200F10000001C51C
:100A340099C1814711EAB7C7004023A6E7200545BD
:100A440082808507E309F6FE3308F500B386F500D6
:100A54000348080083C60600E305D8FEB7C7004074
:100A640023A6E72001458280B7C7004003A7C7201B
:100A740023A607200F1000009307F6FFBE952A96C1
:100A84006317C500B7C7004023A6E7208280FD1581
:100A940083C715000505A30FF5FEDDB737C7004072
:100AA4008327C720232607200F10000001C5330722
:100AB400C50019E637C700402326F7200145828088
:100AC40005058346F5FFE397B6FEE31BE5FE37C74E
:100AD40000402326F720054582807971973700006E
:100AE4009387C78722D4804306D626D24AD04ECED7
:100AF40052CC56CA5AC85EC65DCCB7C4C901014BB4
:100B040097390000938909859384F437173A0000D4
:100B1400130A0A85972A0000938A8A7F17390000EE
:100B2400130989888357240095E35C44631D0B00F3
:100B3400173700002324F782832BC4002285EF009B
:100B4400B01C5E8499A82326FB00FDB783A7090087
:100B540082971C443307F5406376F5000327490068
:100B64001D8F2A9763EEE4069727000023AA077ACD
:100B74008355240003450400972000E0E780C03932
:100B84005C405844A1C71444B6978326490063E3E4
:100B9400D700958F1CC4228B3A8449F49727000010
:100BA400938707779C4B05476372F706FD17172752
:100BB40000002327F776B250225492540259F24986
:100BC400624AD24A424BB24B4561828063170B00A2
:100BD4009727000023A4E77885B72326EB00A9BF55
:100BE40003274A0209CF63EFA7003385A74083A7F1
:100BF4000A016376F5009727000023A3A772228BCE
:100C0400404461BF03274900BA97C5B7972700003E
:100C140023A807704DB797270000938767789C43F4
:100C240085C3411106C682979727000083C7677260
:100C340089E79727000023A50776B2404101828007
:100C44009727000083C7E77091E79727000023A93F
:100C5400077482808280411122C417240000130487
:100C6400E46D1C4006C626C24AC091C782979727E6
:100C7400000023A5076C5C4091C382971C40639CD1
:100C8400071C173700000347178C9547973400005B
:100C94009384048B6301F71C9727000083C7877133
:100CA4008DE383C75400858B89CF83C774001947AC
:100CB400631CF70E97370000A386078899265C44C7
:100CC40082971C4491C38297172900001309C968AD
:100CD40003270900172600000346966397270000A0
:100CE40083C7076393961700BA9683D60600E9CAAA
:100CF4009727000083C7C76163EEC70C97270000DE
:100D0400238807601C406398071483C77400154741
:100D14006303F7149737000083C7178391CF83C702
:100D2400740093F7F70F89EB97370000A38E0780C1
:100D3400971001E0E780E08197270000938787619F
:100D44009C43638A0710972700009387E765DC4379
:100D5400172700002326F75C493397270000938761
:100D64002760DC53EDCB83C7740015476365F70E2A
:100D74009737000083C78781918BF1EF9727000095
:100D840083C7275DE9EB032609009726000083C685
:100D9400365863C8D70C2244B240924402494101F8
:100DA400172300E06700636C83C774001D47E31AD0
:100DB400F7F097270000A3870778A1241C4809B7F8
:100DC400850793F7F70F972600002383F654E3E78C
:100DD400C7F039BF86073E978355070023100700E5
:100DE4009727000023960756972700009387C75438
:100DF4009C43172500000345A55113172500BA97F6
:100E04009C4382979727000083D7875417270000B5
:100E14000347075093C7F7FF7D8D931717000327E8
:100E240009003E97835707005D8D2310A70097277D
:100E3400000083C7E74D91C78507172700002309E2
:100E4400F74C172700000347A74C9727000083C7D8
:100E5400374CE375F7EAB240224492440249410117
:100E64008280139717003297035707006DF78507A1
:100E74000DB737C700408326C720B707FCFFFD170F
:100E8400F58F2326F7200F10000097270000938783
:100E94002748C84F832787262326D7206A0593C768
:100EA400F7FF99835D8D8280011197270000938756
:100EB400E77622CC03A4870B26CA06CE2AC42EC604
:100EC400854419E40145F2406244D24405618280BC
:100ED4008347910003471400858B6304F7000044A3
:100EE400CDB719469305A100130524000D3EE31860
:100EF40095FE0545C9BF172700001307A7631443D0
:100F0400411122C49C5E4AC006C6998326C2858BC1
:100F14003A84172900001309A961D1CB930700066D
:100F24009CDE1727000003470762930700089724F5
:100F340000009384E460631BF700832709009C434B
:100F440093F7070417270000230FF75E83C70400F5
:100F540093F707049DC3972700009387A73F9C43FB
:100F640082979727000023A5A75E83C7040093F701
:100F7400F70B172700002305F75C83C7440093F79A
:100F8400070495E7854717270000A30DF75A97270D
:100F940000009387A75C9C433707020098C7130798
:100FA40000FC97260000238FE658D844F8D3184055
:100FB4001C5F9183858B8DC31C5F93E707011CDF46
:100FC40097270000938787599C4323A207068547E8
:100FD400172700002308F75683270900D843058301
:100FE400058B19C7D843759BD8C3D843799BD8C3FD
:100FF400B24022449244024941018280ED3D730093
:101004002030972700009387675594439727000063
:101014009387075303C70700058B11CB972700005D
:101024002382075297270000A38E0750828003C7AC
:101034001700058B65F7F85271FF83C75700DDB7BA
:10104400172700001307074F032807008327880387
:101054009583858BADEF11C683270803BD832300D9
:10106400F6009DC61C43985B460793576701635679
:10107400070093E707C0C207C18303970600C207AE
:10108400C18709C7BA970947B3C7E7022390F60097
:101094008DCD8345150095C99727000083C7A74ABE
:1010A40093F7070413879500894585C33A958347C9
:1010B40005000547994593F6F7066398E600E207AD
:1010C400E187814563D30700B9452E858280854534
:1010D400EDBF411122C406C61724000013040448BE
:1010E400184049E9AE877453FDFE3E85B2859727C3
:1010F400000023880744970001E0E780602C9727CD
:101104000000938727439C43B70680009843558F7C
:1011140098C3D857719BD8D797270000A384074258
:1011240097270000A38E07401C40094798C3B7F7D0
:1011340000E003A707D16D9B23A8E7D003A707D13D
:101144005D9B23A8E7D073005010144017270000BC
:101154001307073F83472700858B89EB83473700B5
:10116400858BC1C397270000238E073CB2402244DD
:10117400410182808D476310F50297270000938711
:10118400673B9C43B70680009843558F98C3D85754
:10119400719BD8D75DBF8547E319F5FA544781772A
:1011A400FD17F58F5CC70F1000001840B707020049
:1011B4001CC7930700F8172600002305F638972765
:1011C4000000938727379C439C439D83858B6397BB
:1011D400A700930760197CD354C785BF9307E01B0E
:1011E400DDBFFC52A5FB59B7411122C417240000EE
:1011F4001304C4361C4006C6D8479316D70063D6DA
:10120400060298479316D70063D106027D57B8D7D4
:10121400172700001307C70F584F0507972600002C
:1012240023A6E6103707040098C798470D83058B5B
:101234001DC3172700000347C730136717009726FD
:1012440000002380E630130700F897260000238B64
:10125400E62E214798C79847058B09CF172700002A
:101264000347172E1367170097260000A38AE62C5E
:10127400054798C798470983058B09E7984705836D
:10128400058B31C317270000A30E072A984797261A
:1012940000009386E62A0983058B6302071003C7BF
:1012A40006001367170097260000238BE6281147D2
:1012B40098C7172700001307E7271443D856719BD4
:1012C40013671700D8D698479316F70063D606021B
:1012D4009726000083C6C63BC18A17270000130760
:1012E400E733E1CA0347470713670702972600005D
:1012F4002380E63A416798C798479316E70063D27C
:101304000602172700000347E72362076187635734
:1013140007000547972600002386E62237070200C8
:1013240098C798479316C70063D70602972600000C
:1013340083C61636858A172700001307272EC1CACD
:10134400034757071367270097260000A382E63454
:101354003707080098C798479316B70063DD06025D
:101364003707100098C79727000083C7A70485C7CD
:10137400172700000347371D9547630EF70097278B
:1013840000009387671A9C4391C382971840B7075C
:101394001F00BD075CC7B24022444101828003C7DD
:1013A40036001367170097260000A38CE618094738
:1013B40001B7834647070946BD8A6388C6000347C9
:1013C40047078D463D8BE317D7F2114705B7834690
:1013D4005707918AB5DE0347570713678700ADB7F0
:1013E400972700009387871798438967938707F4A3
:1013F4007CD3972700009387A71B9C4383A60709E8
:10140400139656006358060083A6070913966600D0
:10141400634406007453FDF28280411122C4B7C7AD
:10142400004006C603A4C72023A607200F1000000F
:1014340011C199E5B7C7004023A6872001457DA8BF
:1014440093073500C207C183F19BC207C183130709
:1014540040036369F702172700001307E71B0843DB
:10146400172700001307C71A14436392A60217270D
:1014740000001307E7EE185B55DFC207DD8D054555
:1014840002974DBF172700001307C718C9BF03579A
:1014940065002DEB035745006366F706B306F74076
:1014A4002146637CD60203280500938687001D8F9E
:1014B400AA966117172600000356E6E52392E60074
:1014C40023A006012393060014C12312F500130779
:1014D40086FF972600002390E6E42313B5009725A2
:1014E400000083D545E3B387F54017270000231494
:1014F400F7E2B7C7004023A687202105B240224463
:1015040041018280084195B7B7C7004003A8C720AE
:1015140023A607200F10000001E523A607218280DF
:10152400972700009387470F03AE07009727000013
:101534009387070E03A307008146F28763F0670CC5
:1015440083A80700636FF50A63EDA80A1387870071
:101554006366E50A03D66700216705076317E6009B
:1015640003C7C18C05072386E18C9725000093856A
:1015740025DA03D6470003D7650023930700329783
:1015840042074183172500002317E5D8638AC70360
:10159400172500001305050808416303F50203D568
:1015A400660019ED83D7460023A0160121073E9655
:1015B40021062392C60097270000239EE7D4B6870E
:1015C4009843630D6702972600009386A60494420D
:1015D4006306D7028356670095E283D64700035615
:1015E40047001843A106B2962392D70098C383D725
:1015F4006500A10717270000231FF7D0B7C70040D5
:1016040029BFBE86C6871DBF011197270000938797
:10161400E70022CC03A4070C26CA4AC84EC606CE4D
:10162400AA8413092500854915C083C714000347FC
:101634003400858B6304F700405CFDB719469305BD
:1016440044004A85EFF0AFBDE31835FF2285F24030
:101654006244D2444249B2490561828041119727CC
:1016640000009387A7FB22C403A4070C26C24AC028
:1016740006C693042500054901E82285B2402244A8
:101684009244024941018280A6851305A40297B0C1
:1016940001E0E78020E7E30225FF405CF1BF411150
:1016A40097270000938787F722C403A4070C26C258
:1016B4004AC006C693042500054901E82285B240C4
:1016C40022449244024941018280A6851305A40163
:1016D40097B001E0E78000E3E30225FF405CF1BF3F
:1016E400197106C212C416C61AC81ECA22CC26CE46
:1016F4002AD02ED232D436D63AD83EDA42DC46DE6E
:10170400CAC0CEC2D2C4D6C6DAC8DECAE2CCE6CEDD
:10171400EAD0EED2F2D4F6D6FAD8FEDA9385418432
:101724008841E700050092402242B2424243D2433C
:101734006244F244025592552256B2564257D25749
:101744006258F25806499649264AB64A464BD64B41
:10175400664CF64C065D965D265EB65E465FD65FC9
:101764000961730020300000EFF0EFCA730000003D
:1017740000000000972200009382A2BD03830200B0
:1017840023800200630F0300F32510342EC0970555
:1017940000009385A5FD73901534EFF0FFA473004A
:1017A400203086DCEFF05FA4E65082800000000069
:1017B400971100209381419817510020130141048F
:1017C4001305400097F5FF1F9385858317060020B6
:1017D400130606FE63FAC5008322050023A0550004
:1017E40011059105E3EAC5FE17D501001305850827
:1017F400970500209385C5FB1386818363FAC50092
:101804008322050023A0550011059105E3EAC5FED6
:1018140013858183972500209385C5F26377B500EE
:10182400232005001105E36DB5FEFD42739002BC53
:101834008D42739042809302800873A0023097E235
:10184400FF1F9382E27B93E232007390523097122F
:101854000000938222A073901234730020303D4321
:101864002A876373C3029377F700BDEFADE59376E0
:1018740006FF3D8ABA960CC34CC30CC74CC741073C
:10188400E36BD7FE11E28280B306C3408A06970257
:10189400000096966780A6002307B700A306B7004A
:1018A4002306B700A305B7002305B700A304B700B8
:1018B4002304B700A303B7002303B700A302B700B0
:1018C4002302B700A301B7002301B700A300B700A8
:1018D4002300B700828093F5F50F93968500D58D8C
:1018E40093960501D58D61B7939627009702000062
:1018F40096968682E78086FA9680C1171D8F3E965B
:10190400E374C3F8A5B7238C018223AE0182B71711
:10191400004003A7070CB706C0FFFD16758F23A070
:10192400E70C03A7070DB7064000558F23A8E70C63
:10193400828023AEA18213064006894503C58184B3
:101944006F104073B717004083A7470C3707400058
:1019540083C68183F98F13B71700638DE600238C48
:10196400E18289EB9387C18303A307006304030027
:10197400054502838280797122D426D24AD04ECE84
:1019840052CC56CA06D61379F50013848193854444
:1019940093891184138A0184914A631009022254A1
:1019A400B25092540259F249624AD24A03C5818420
:1019B4000146854545616F10E06BB3779900A9C76F
:1019C40083470A0003C7090023000400E58FD98F69
:1019D400A380F1842312D4002301C400A300B40023
:1019E40099E12300540136C632C42EC2EF10204FB1
:1019F40083470400B2462246924593E7270008C471
:101A04002300F40033499900860493F4F40F31045D
:101A140069B7937715001387018485CB8547B7167B
:101A24000040639EF50083A7860A93F7F7EF23A48B
:101A3400F60A834707005D8D2380A184828083A7F3
:101A4400860A93E7071023A4F60AE5F583470700FF
:101A54001345F5FF7D8DCDB7011122CC26CA4AC8A6
:101A64004EC652C406CEAE899374F5001389819391
:101A74000544214A89E8F2406244D2444249B249C9
:101A8400224A05618280B3F7840089CFCE856396AC
:101A940049018345090093C5150022852300B90037
:101AA400A18C853F06041374F40F3109E1B7AA87AA
:101AB40011C909CA81CA9307300663E3C70065BD2B
:101AC400854559BF81453E85EDBFA14763EFB70208
:101AD40097C60100938646601397250036971C43EA
:101AE400411106C6B69782879306803E1546854502
:101AF4007D3FB2400145410182809306803E1546F8
:101B040093052003F5B7893FEDB701458280371768
:101B140000408327070A411106C693E707102320D4
:101B2400F70A81453D450D3F8566938606FA794659
:101B3400A94505458935B240238401964101828037
:101B440083C781966393071679714ECEC16922D4F7
:101B540026D24AD052CC56CA5AC85EC662C406D6E9
:101B640066C26AC013848193014C3D498544138A3B
:101B74001184930A4006FD19130B4006930BF00FD2
:101B8400B3F72401E1C783470400898BD5CFEF1055
:101B940000351C442A8D6366F50E83460400834C8D
:101BA400240093F71600BDCB33079B41F99A814576
:101BB4002685937CF70F2300D400A13D034604003F
:101BC4009377460099EF83461400638C7601FD16E3
:101BD40093F6F60FA300D40089E6134626002300EB
:101BE400C40083470400898BB1C3035744003307FF
:101BF40097033357570393170701337737016A97CE
:101C0400C18318C463030C08A1C33E876373FC003B
:101C14006287131C0701135C0C013DA093E61600B8
:101C2400854526852300D400ED3365BF83450A002E
:101C34002685E58DB335B000493D03470A0093C7B7
:101C4400F4FFF98FA380F18433C92401860493F44B
:101C5400F40F3104E31609F2630B0C022254B25060
:101C640092540259F249624AD24A424BB24B924CC4
:101C7400024D6286224C03C58184854545616F10FF
:101C8400603F898FC207C183B5BF3E8C75BFB25018
:101C9400225492540259F249624AD24A424BB24BFC
:101CA400224C924C024D4561828082804111939670
:101CB4002500AA852D4506C697F0FF1FE780608E94
:101CC400B240014541018280411126C2939425000E
:101CD40022C44AC02A843289A686AA85014625459B
:101CE40006C697F0FF1FE780C08BA6864A86A285AA
:101CF400294597F0FF1FE780C08AB24022449244EE
:101D04000249014541018280011122CC06CE3714DB
:101D1400004026CA4AC84EC652C483447405034AC6
:101D2400B4058349840503499405BD2B8347A40561
:101D340093F4F40F137AFA0F93E71700230DF404C6
:101D440093F9F90F1379F90FB717004003C7A705E3
:101D5400058B6DFF03D5C705A38D4705238C370578
:101D6400A38C2705A38B9704F2406244D2444249D2
:101D7400B249224A0561828041119397050122C428
:101D840006C6C1872E8463DA0700EF00D05819C154
:101D9400EF00104D2165218D39A093F7150081CBFB
:101DA400453313451400B24022444101828093F725
:101DB400250081CF413E1306000A894503C581846D
:101DC400EF10402B13452400F9BF9397250163DFDF
:101DD4000700EFF0D05637F60200130606E08965D7
:101DE40003C58184EF100029096575B79397150120
:101DF4000145E3DA07FA17C501001305A534EFB06E
:101E0400E11313060064916503C58184EF108026F5
:101E1400116551B71D71494697C501009385052E7B
:101E240017C501001305C55886CE97F0FF1FE7803C
:101E340000BF01E917C501001305852DEFB001109E
:101E440001A0B7F600E0795798CAFD57DCCA0567C8
:101E5400B7E700E023A0E7101306F00290C223A026
:101E6400E71801000100970700209387A790130645
:101E7400C0038145480823A2F18497F0FF1FE7803F
:101E840080AF970700209387E7C13ECA896793878D
:101E94000780231CF100A167938707E03ECEB707B4
:101EA4000105938707103ED0ED472312F1028547C1
:101EB4002303F10297070000938787DFBEC49707C7
:101EC40000009387A7E0BEC68567938757D1231484
:101ED400F102B7F50700971700009387A7AB3EDA26
:101EE400814697070000938767E27000E105194572
:101EF4003EDE97E0FF1FE780C06A58088147994695
:101F040070003E960346060085070507A30BC7002D
:101F1400E398D7FED24791C703578101856763735E
:101F2400F70001A04808EF10C07FAA8501C917C5B2
:101F340001001305251FEFA0D16E01A0F640256115
:101F44008280411117050000130545E306C622C42B
:101F5400EF106079138481842300A4003928453E5E
:101F64005D32034504002244B24037F602001306F2
:101F740006E0896541016F10E00F0111054506CEA9
:101F840022CC26CA4AC8CD26371400400D45130971
:101F94007005BD26930480FA2300240523009404CD
:101FA400010001008347F4021305800C93F7D70F57
:101FB400A307F4028347F40293E71700A307F4028C
:101FC4002300040497E0FF1FE780604F05450D2EB2
:101FD4002300240523009404010001008347F40234
:101FE4001305000293E74700A307F4022300040447
:101FF40097E0FF1FE780C04B8147014781460546B4
:10200400A9451305707EF1260A854146814597F05E
:10201400FF1FE7804096B707C0A83EC2B7873200CB
:102024003EC40A8597E7FF1F9387A70B3EC0EF10B6
:10203400501CF2406244D24442490561828089477F
:102044006305F50263E6A7008547630AF50082800D
:102054008D476301F50299476303F502828017C532
:102064000100130565106FA0716D17C501001305FC
:10207400A510D5BF17C5010013050511EDB717C588
:10208400010013052512C5B701119397050122CC50
:1020940006CE26CAC1872E8463D0070203C50185F4
:1020A400EF00702719C1EF00B01B2165218DF240AC
:1020B4006244D2440561828093F7150091CB1705E1
:1020C400002013056587EF30910813451400C5B748
:1020D40093F785000145E1DF05390924930485DA86
:1020E400A68517C5010013052506EFA09153930794
:1020F400E10078009306A1003000930561004800D8
:10210400D9290357A1000358E1008357C10083561E
:102114008100035661008355410017C50100130572
:102124006503EFA0115093D7844017F7FF1FA30F47
:10213400F76897F7FF1F238C97688357A10097F6DA
:10214400FF1F93866668614617F7FF1FA301F768B0
:102154008357C100854503C5018517F7FF1F230970
:10216400F7668357E10017F7FF1FA303F766EF40F5
:10217400507F13060064A14503C50185EF00906FED
:10218400134584002DB7011117050000130505F050
:1021940006CE22CCEF1020551384018585472300F9
:1021A400A4002307F1001306E1008D4785451305BC
:1021B4005030A307F100EF5081461306F100854526
:1021C40013058030EF50A14517F6FF1F1306466133
:1021D400C14513057030EF50814417F6FF1F1306F5
:1021E400265DD54513056030EF5061439305000A21
:1021F4000D45EF30601A9305000A1145EF30C01900
:10220400034504008545EF00B05003450400130660
:102214000064A145EF001066F240624405618280CB
:10222400058915C5411117C50100130565F806C6D2
:10223400EFA0D15081453D45EFF03F89B240930670
:10224400803E79468945054541016FF05F8682806D
:102254004111054506C649231305800497E0FF1F75
:10226400E780A0EB371700408327870A8D451305C5
:10227400002093E707202324F70A65299D2F17C51B
:1022840001001305E512EFA0714B69365D3917059E
:102294000000130525F9EFF0CFE9EF50A169E5350A
:1022A40097E0FF1FE780C0E6B717004003C7770534
:1022B4001377E70FA38BE704130700F8A38DE70454
:1022C4003D47238CE70413075003A38CE70403C79B
:1022D400A7051377D70F238DE7048280B7F707008C
:1022E400DC4B13D7070111E36547C207C1831D8D7A
:1022F400A9473305F502ED473345F5023A95828047
:10230400B717004083C7E7020D8993F7C70FC98F3A
:1023140073270080218B9386418509CB7327008026
:1023240023AAE18498425D9B731007800100010099
:1023340037170040130670052300C704130680FAFC
:102344002300C704010001002307F7022300070448
:10235400732700809C42A18BD98F7390078023AA96
:102364000184010001008280B717004083C7E7029F
:102374001205BD8BC98F93F7F70F73270080218B4C
:102384009386418509CB7327008023AAE184984270
:102394005D9B73100780010001003717004013068E
:1023A40070052300C704130680FA2300C704010044
:1023B40001002307F70223000704732700809C42CF
:1023C400A18BD98F7390078023AA01840100010097
:1023D400828041112A83014E930E407E130F00190F
:1023E400930F400663E66E14930800191303400626
:1023F400B3781503854E0D4FA14F337365020D89D4
:102404001335150063E0BE161308F6FF794672987B
:102414004208135808013307C70213D61700BE0732
:1024240032976146B3F6C60213068070B386C602BD
:102434003697A166F58F42075D8FB716004083C7B4
:10244400F60293F70708A307F1000346F10083C7D8
:10245400F60293F70708E394C7FE8347F100B71623
:10246400004093F7F70F63890714F3270080A18BCB
:10247400938641856398071401000100B717004053
:10248400130670052380C704130680FA2380C7044B
:102494000100010023AA070303C6170313660608F5
:1024A400A388C70223800704732600809C42A18B63
:1024B400D18F7390078023AA018401000100116663
:1024C400B71500407D16DC59C85DA98FF18FE5FF73
:1024D400F3270080A18B89CBF327008023AAF18402
:1024E4009C42DD9B7390078001000100B7170040F8
:1024F400130670052380C704130680FA2380C704DB
:1025040001000100D8DB03C7170313670704A3887E
:10251400E70223800704732700809C42A18BD98F94
:102524007390078023AA0184010001004101828085
:102534007D133368E3039308E016630E08003368E1
:10254400F3039308D016630808009378330093B814
:1025540018009388D81633081E01131E0801135E51
:102564000E0149B56393E5030548638608000148F5
:10257400630303002A8871087298FD15131E08016D
:10258400C205135E0E01C181B5BD13F8150063F4D5
:10259400BF007908D5B713381800E5BF83C7F60222
:1025A40093F70708A307F1000346F10083C7F60277
:1025B40093F70708E394C7FE8347F10093F7F70FF7
:1025C400F1DF65B5F327008023AAF1849C42DD9BEB
:1025D4007390078055B5B718004003A8C80303D308
:1025E400A80383D888034111060393D8F8004A0846
:1025F400B30E13019308407E22C626C44AC2135860
:10260400280123101501930F00199302D016930388
:102614004006130FC01603530500B378F303638019
:102624000810B3787302638108109378330013BEE3
:102634001800130EDE166350C809239005000544E4
:102644009944F94FF542130900199303400683D8BE
:102654000500138F18006394880A03530500337E22
:102664002303630C0E08B37873026386080093781F
:10267400330063840808F148635C18052390E5017E
:102684000508231006010566130606E1B3D5CE023C
:102694003244A244124933F6CE022390B600930684
:1026A400C0033356D602B3F6DE022310C7002390CC
:1026B400D7004101828093B818009388D816330854
:1026C4001841420805031358080123106500A1B7F7
:1026D4008548630B0E00337E7302814863060E0047
:1026E4009378330093B81800F1083308184142086E
:1026F400135808012390E50199BFF548B5BF13F3BA
:10270400180063F8140163180300E3D902F7F948C9
:10271400E9BFE31C03FEE3D30FF7FD48F9B7E3DE9B
:1027240002F19308E01661BFE3590FF19308D01644
:1027340079B7914763EEB70217C70100130747A89B
:102744008A05BA959C41BA978287B717004003A7B8
:10275400470B1345F5FF698F23AAE70A03A7070B65
:10276400698F23A8E70A03A7070A798D23A0A70A7C
:102774008280B717004083A6470B1347F5FFF98EF5
:1027840023AAD70A83A6070B558D23A8A70A83A6D5
:10279400070A758F23A0E70A8280B717004003A7B2
:1027A400470B498F23AAE70A03A7070B1345F5FF35
:1027B40045BFB717004083A6470B1347F5FF758F36
:1027C40023AAE70A03A7070A598D4DB7B717004094
:1027D40003A7470B498FEDB70111B717004022CC6F
:1027E40026CA83D4270203D4070206CEC2044204B5
:1027F4004AC8C180418025ED93F4F4F71374F49F23
:10280400C2044204C1804180F3270080A18B138756
:10281400418589CBF327008023AAF1841C43DD9BE7
:102824007390078001000100B717004093067005FC
:102834002380D704930680FA2380D7040100010083
:10284400239197022390870223800704F3260080B4
:102854001C43A18BD58F7390078023AA01840100A8
:102864000100F2406244D244424905618280B7F5D6
:10287400070081463000B105194597E0FF1FE78046
:1028840040D2A24713972701E34D07FC93E40408C1
:1028940013640440F3270080A18B1389418591CBF5
:1028A400F327008023AAF18483270900DD9B73901A
:1028B400078001000100B71700401307700523804B
:1028C400E704130780FA2380E70401000100239141
:1028D40097022390870223800704732700808327AD
:1028E4000900A18BD98F7390078023AA018401006A
:1028F4000100294597E0FF1FE78080BBF327008094
:10290400A18B91CBF327008023AAF18483270900AC
:10291400DD9B7390078001000100B7170040130787
:1029240070052380E704130780FA2380E70401007D
:10293400010003D70702136707202390E7022380CF
:1029440007047327008083270900A18BD98F21B73F
:10295400B71700408847420541819377050491EBFE
:102964009377F5013755E801130505803345F502E2
:1029740082809377050C130700046397E70093772D
:10298400F50137459C1CCDB72165130505D0828020
:10299400B7F700E08847CC4782808147373700404B
:1029A400A14663C4C700328582800345B740E38EE5
:1029B400A6FE3385F5000345050085072304A740DB
:1029C400CDB7411122C406C62A8459372947B30713
:1029D400E502B2408D83B3D7870222449507B3D76B
:1029E400E70237370040C207C1832316F74041018D
:1029F4008280716541111305052006C6D937B737A2
:102A04000040130770F82381E7400D47A381E74096
:102A140013070004A380E74005472387E740B2403B
:102A24004101828023AC05FE1C4191E701000100B5
:102A34000CC18280BA8703A787FF6DFF23ACB7FE62
:102A44008280184183A785FF6319B7001CC1FD5715
:102A540023AC05FE238FF5FE8280232CF6FEC5BF32
:102A6400411122C426C237C4004006C68324C420B0
:102A7400232604200F10000009E92326942015457D
:102A8400B24022449244410182800347E5FF930708
:102A9400F00F6306F700232694201145D5B797F06D
:102AA400FF1FE78060A6014523269420D1BF411172
:102AB40026C24AC0B7C4004006C622C403A9C42023
:102AC40023A604200F10000009E923A62421B24004
:102AD400224492440249410182809565938505D040
:102AE400C98D2A842105C2054205C181418197F01F
:102AF400FF1FE780809201CDFD572320050023129C
:102B040085002303F50023A624212105C9B723A6A4
:102B1400242101456DBF01114AC84EC6B7C7004004
:102B240006CE22CC26CA83A9C7202A8923A6072039
:102B34000F100000970700209387077D804381448E
:102B4400014619E499E8A1654A85EF00207B05A0B8
:102B54008347E4FF6399270385CCA68517050020E6
:102B64001305857AF93D65D0A1654A855526F2405D
:102B74006244B7C7004023A6372126854249D24480
:102B8400B2490561828091E02286032484FF55BF07
:102B9400A284E5BF411126C24AC0B7C4004006C69C
:102BA40022C403A9C42023A604200F10000089E531
:102BB40023A62421154515A02A849707002083C73E
:102BC400F7742E856375F400894763EE8700493DE9
:102BD400B7C7004023A627210D45B24022449244A2
:102BE40002494101828083A785FF99E703C7E5FF76
:102BF4009307F00F6308F700A535B7C7004023A675
:102C040027214DBF238F85FE170500201305C56FAF
:102C1400113DA1652285ED2C014523A6242175BF14
:102C24009707002023A2076E8280970700209387CE
:102C3400A7729C4399E33E85828003D727006316DD
:102C4400B70003C70700E308A7FEDC47E5B7C9C11F
:102C5400797122D406D626D24AD04ECE01444147B9
:102C6400B3D78540858BA5C312053147229533051B
:102C7400E502970700209387277203A9070085447C
:102C8400B3948400C204C180BE892A990327090031
:102C940011C7032549002EC60297B24531473304B4
:102CA400E40283A709003E941C4489E72320090019
:102CB40023220900B2502254A58D02599254F2499C
:102CC4002E85456182800504E31CE4F88144DDB768
:102CD4002E85828041111397050122C406C626C29F
:102CE4004AC041872E84635E0700353511C18D3B90
:102CF400A1673D8C2285B24022449244024941019D
:102D04008280EDD9AA8701474146B356E440858ABB
:102D14008DCE9207BA97B146B387D70297060020A3
:102D24009386866703A906008544B394E400C2042D
:102D3400C1803E99832709000325490082972320F7
:102D4400090023220900258C75B70507E31FC7FA7C
:102D54008144D5BF411126C2B7C7004006C622C46C
:102D640083A4C72023A607200F1000009707002084
:102D74009387C75E9C531384818099C782971C40B4
:102D84003E9523A4A18039A0970700209387475C30
:102D94009C43EDF71C40374703001307D73FB38725
:102DA400E70237A72600130737ECB240BA9723A4EB
:102DB400F180B7C7004023A69720084022449244DC
:102DC40041018280797126D2B7C7004006D622D449
:102DD4004AD04ECE52CC56CA5AC85EC662C483A4E8
:102DE400C72023A607200F10000005E123A6972083
:102DF4000945B250225492540259F249624AD24AC5
:102E0400424BB24B224C4561828097070020938746
:102E140027549C43BA8A368AB28B2E8BAA8982970E
:102E2400970700209387475798433E890144B1464A
:102E3400C147330CD40233068701104241EAC1650D
:102E4400938505F0414597E0FF1FE780005D05E1AC
:102E540097070020938787509C5B81C78145114564
:102E64008297B7C7004023A697202D4559B79707E7
:102E740000209387674E984331E79707002023ADDE
:102E8400A74C230005008327090005473317870053
:102E940023260500232475012311E500232255016F
:102EA400E29723A0370123A2670123A457016304F7
:102EB4000A0023008A00B7C7004023A697200145D3
:102EC4000DBF3E875C47F5FF48C765BF0504E312A5
:102ED400F4F6B7C7004023A69720214519BF9707EA
:102EE40000209387E74B9C43411122C406C6170474
:102EF40000201304A44181CB82975C483E95970738
:102F0400002023AFA7404848B240224441018280B8
:102F1400B7C7004083A6C72023A607200F100000D0
:102F2400170700200347973E6373E5021706002046
:102F3400130646421317150008423A950357050035
:102F4400D98D2310B50023A6D7200145828023A65E
:102F5400D7200D458280B7C7004083A6C72023A68B
:102F640007200F100000170700200347373A637546
:102F7400E502170600201306E63D13171500084264
:102F840093C5F5FF3A9503570500F98D2310B50055
:102F940023A6D7200145828023A6D7200D45828011
:102FA400011126CA37C7004006CE22CC4AC84EC6F5
:102FB40052C48324C720232607200F1000001307C0
:102FC40005FF1377F70FFD4763E0E70AB146B30641
:102FD400D502970700209387273C984336971C43D4
:102FE400C1C7135A450005443D893315A400131481
:102FF400050141802E895285A2850539AA8921C9F6
:10300400A2855285893F97070020938767349C43A4
:1030140082979707002083D76739338727032A8449
:10302400130600648146B3B7270313050732B3358B
:10303400E500BE95EF90111A970700209387873615
:10304400DC4322956363F5001D8D23A4A900B7C753
:10305400004023A697200145F2406244D2444249ED
:10306400B249224A05618280B7C7004023A697204F
:103074000945DDB7797126D24ECEB7C4004006D6D5
:1030840022D44AD052CC56CA5AC85EC683A9C42098
:1030940023A604200F1000009707002083C71727DA
:1030A400637AF500970700209387872A83AB07008C
:1030B40063970B00B7C7004023A63721A9A0170BBD
:1030C4000020130B2B2E832A4B00B74736FE938721
:1030D40007C82E8A9705002083D5452DBE9AB3874D
:1030E400C5022A8432898146B3B5C50213850732E5
:1030F400B337F50013060064BE95EF90B10D63F08D
:10310400AA0223A634210145B250225492540259F2
:10311400F249624AD24A424BB24B45618280829B59
:103124009705002083D58528B3872503AA84130631
:1031340000648146B3B5250313850732B337F50020
:10314400BE95EF90310983274B00AA9463E3F40002
:103154009D8CD2852285D13C01C904C5B7C70040E6
:1031640023A6372105454DB7936504F0C205C181F7
:10317400414597E0FF1FE780402A19E9970700209F
:103184009387C71D9C5B9DD7A285114582971DB768
:10319400970700209387471C9C439DE397070020D3
:1031A40023ACA71A85472326050004C5231145012E
:1031B40023008500A300F5002322050045B7BA8744
:1031C400D84775FFC8C7F9BF79714ECEB7C700405D
:1031D40006D622D426D24AD052CC56CA5AC85EC683
:1031E40062C466C26AC083A9C72023A607200F1041
:1031F400000035C141443689B28A2E8AAA84B14C72
:10320400170B0020130B4B19054D130C0003B30BC4
:10321400940303270B005E971C43B9EF9375F400E6
:10322400B315BD0013554440C2055686C1811375BC
:10323400F50F893531C183270B00DE9784C323A2A0
:1032440047016304090023008900B7C7004023A68F
:103254003721014521A023A637210945B250225424
:1032640092540259F249624AD24A424BB24B224C1E
:10327400924C024D456182800504E31A84F9B7C774
:10328400004023A637212145D1BF011122CC26CAF3
:103294004AC84EC6B7C7004006CE03A9C7202A8431
:1032A400AE89B28423A607200F100000E1332285E3
:1032B400CE85EFF09F972A8405C59705002083D516
:1032C400E50EB3879502130600648146B3B59502F3
:1032D40013850732B337F500BE95EF90A16F48C050
:1032E40013351400F2406244B7C7004023A62721D7
:1032F400D2444249B2490E0505618280011122CCB3
:103304004AC84EC6B7C7004006CE26CA83A9C720FE
:103314002A892E8423A607200F100000EFF0FF90C7
:10332400AA8419C123110500A2854A852D31970766
:10333400002083C7A7FD639B27019707002083D73D
:10334400E7005D8C9707002023928700B7C70040F1
:1033540023A63721014591E01945F2406244D24445
:103364004249B24905618280011126CA4AC8B7C4DC
:10337400004006CE22CC4EC603A9C42023A60420B6
:103384000F1000009307F00263E8A704B147330469
:10339400F502970900209389290083A70900A297C1
:1033A4009C439DCB9377F5008545B395F500C20505
:1033B400C1811181A13783A709000145A29723A0E8
:1033C400070023A2070023A62421F2406244D2442A
:1033D4004249B24905618280B7C7004023A627212C
:1033E4000945E5B7411126C206C622C4B7C7004045
:1033F40083A4C72023A607200F100000EFF0FF824C
:1034040019E90145B2402244B7C7004023A69720DA
:1034140092444101828097070020938767F39C437D
:1034240000458297970700209387C7F76368A40233
:10343400D843B74636FE938606C83305A44036976C
:10344400E371E5FC13070064B335E50203D6870096
:1034540081463305E502EF90E1576DB7D8433A94BE
:10346400C1BF0111680006CE22CC26CAEFC05004A9
:10347400FD576302F504B247F9CB97070020938701
:1034840067F297040020938464E89448D8433E8408
:10349400638FE60497070020938787EB9C4382970A
:1034A40032479C486373F700BA873E955C4063607B
:1034B400F5041D8D2DA897040020938424E517049A
:1034C4000020130424EE9448584097070020938763
:1034D40027E89C436392E60882975840B74736FE34
:1034E400938707C8BA973E956363E500198D17045F
:1034F40000201304A4041C4C81CF97070020938759
:10350400E70A94433707CDFF7D179C46F98F9CC685
:1035140011E5970700209387E7E8C8439707002041
:103524009387C7E3DC53829719E51C4C8DC3EFE006
:103534000078EFD050501C4C99CB9707002093870C
:10354400E7069843B70633001C47D58F1CC7F240E3
:103554006244D2440561828082979C48B9B7411184
:1035640006C69707002023ADA7E20295B24097074D
:10357400002023A9A7DA014541018280914763E92C
:10358400B7008A0597070020938707DBBE9588C19B
:1035940082809707002023A3A7E011C5854717075A
:1035A40000202306F7DA8280411151468145170530
:1035B4000020130565D806C69707002023AE07D858
:1035C4009707002023AE07DC9707002023A207D823
:1035D40097070020238D07D69707002023A007DC38
:1035E40097D0FF1FE7802039130680028145170515
:1035F40000201305A5D197D0FF1FE780C037EF4007
:10360400213D9707002083C7B7D613D527008D8B9C
:103614003E958D473305F502854539051375F50F3C
:10362400970700202385A7CE99473305F502130594
:10363400052497E0FF1FE78040DE17070020232DB5
:10364400A7D459CD994717060020034646CC330624
:10365400F60281451306062497D0FF1FE780A031A8
:1036640097070020938747D39C4393870724170722
:1036740000202321F7CC17070020034747C90A0776
:10368400BA97170700202327F7CCEFF06FD98129C9
:1036940097070020938707CA94439707002083C79E
:1036A400F7C613972700369717F6FFFF1306665AD7
:1036B40010C3138717001377F70F0A07369717F607
:1036C400FFFF1306666110C313873700890793F75A
:1036D400F70F8A0797050020A38AE5C2B69790C31F
:1036E400B240410182809707002083C737C2170781
:1036F40000200347C7C163F3E7021707002013073D
:1037040067C318439386170017060020A300D6C08A
:1037140093962700369708C33E8582809307F00F5F
:10372400E5BF1C41638D071241777D8FB7060020EA
:1037340089476317D71203574500630307124111E2
:1037440022C419462A849305F00F610506C697D052
:10375400FF1FE780A03405478D47630DE50E1C4429
:1037640091C7585899477DC7185C6DC71306C003A5
:10377400814517050020130565BE97D0FF1FE7801C
:10378400801F1306C003A28517050020130505BD7D
:1037940097D0FF1FE7808017170700200357C7BC87
:1037A40097070020938787BB19E713070010970634
:1037B4000020239BE6BA17070020034707BB11E745
:1037C4000547970600202382E6BA1707002003570F
:1037D400E7B911E76D47970600202399E6B8170764
:1037E4000020034797B811E7154797060020A38EDA
:1037F400E6B617070020034787B711E70547970682
:1038040000202386E6B617070020034757B619E7BA
:1038140003C7F70097060020A38BE6B41707002020
:10382400034707B511E75547970600202382E6B4FE
:103834000347640119E71307C00397060020238A8E
:10384400E6B29C5791C78297970700202394A7ACB0
:10385400A13B8147B24022443E8541018280894791
:103864003E85828001114EC697090020938989B351
:1038740083A7090006CE22CC26CA4AC852C482971E
:1038840013090064B335250303DA8900814652869F
:1038940033052503EF90011497070020938707A7AA
:1038A400804FAA8401456306940233858440636E85
:1038B400940003A5490052868146B335A902330515
:1038C400A902EF902111018D26959707002023ABC3
:1038D40097A4F2406244D2444249B249224A056163
:1038E40082809707002083D787AC51471D45637CAE
:1038F400F702794719456378F70213072003154542
:103904006373F7021307B0041145637EF7001307CE
:1039140040060D456379F700130760090945637490
:10392400F70013B5B70F8280011122CC06CE2A848A
:103934002EC6EFF02FC2B245F240818D33A5A50209
:10394400229562441375F50F05618280011122CC22
:1039540006CE2A842EC6EFF0EFBFB245F240818D29
:1039640033A5A50222956244420541810561828006
:10397400011122CC06CE2A842EC6EFF0AFBDB2458B
:10398400F240818D33B5A50222956244056182809F
:10399400970700209387879C985739CB411122C4FD
:1039A40026C206C6BE8402971707002003578796CF
:1039B4002A8415CBBA876373A700AA87C207C18379
:1039C400BA866373E400A286C206C182958F51470A
:1039D400635BF700DC5491C38297EFE040169707CE
:1039E400002023998792B24022449244410182806C
:1039F40082809707002083C7A79B99C705458280CB
:103A04000545F2400561828097070020938707955A
:103A1400DC57011106CEAA8581C72AC68297B24512
:103A2400ADCD9C41F1DFDC41E1DF83D78500E9DBEB
:103A340083D7A500F1D741461705002013058596C5
:103A440097D0FF1FE78080EC970700209387879526
:103A54009C4317070020232DF78E9707002083C768
:103A640057918DE793078057170500200355059458
:103A74003305F50237460F001306062481468145B7
:103A8400EF80517597070020A385A78E17050000C6
:103A9400130585DDE9340145ADB79707002023A55B
:103AA400078897D7FF1F9387C73C17070020232B4E
:103AB400F78E7D579707002023A8E78EB78732003B
:103AC400938727A19706002023A2F68E970700204C
:103AD4002380078EB7C7004023A4E726B5B701119A
:103AE40022CC1704002013046487084406CE26CA97
:103AF4004AC801E90545F2406244D244424905619D
:103B040082805C58E5DB185C75D770008545829728
:103B14001844B247E300F7FE9305E00417050020BC
:103B24000355858497E0FF1FE780208F17F7FF1F59
:103B3400232EA77E61D1170600200356E682930543
:103B4400F00F97D0FF1FE78000E3814417F9FF1FB0
:103B54001309C97B9707002083C72781032609021D
:103B640063C1F402328597E0FF1FE780E0990145C5
:103B740097F7FF1F23AC077A97F7FF1F23AA077A4B
:103B84009DBF97F5FF1F83D5257EB3879502084413
:103B9400185C898185043E9508C2029765BF0111AE
:103BA40056C297FAFF1F938A6A7B83A78A0022CCA6
:103BB4004AC84EC606CE26CA52C45AC0AA892E8402
:103BC40032896386072203A74A036309071413078C
:103BD400F01F6367A71497F4FF1F9384247303AA49
:103BE400040263170A0A9565938515E017F5FF1F0C
:103BF4000355857797E0FF1FE780208297F7FF1F23
:103C040023A6A7722A86630B051083A74A0303A57C
:103C14008A0097F5FF1F83D525758981829783A72D
:103C24008A0003AA040217F7FF1F2323F7708947AA
:103C3400639CF908C1476313F40E97F5FF1F83D5FE
:103C4400A572938505FC9147B3C5F5028A05D29503
:103C540003C725009307A005631EF70A83D7050051
:103C6400639A370B4A852286910597D0FF1FE78018
:103C7400E0C99C505285639347150145F240624464
:103C8400D2444249B249224A924A024B0561828097
:103C9400D850E38EE7F89565938525E017F5FF1F67
:103CA4000355856C97D0FF1FE78020772A8A3DC58E
:103CB4002A8683A74A0303A58A0097F5FF1F83D5A5
:103CC400A56A89818297A5B78D47639DF900C1478D
:103CD4006316F40497F5FF1F83D50569938545FDA5
:103CE400F199B5B79147639AF9006319340397F5CD
:103CF400FF1F83D56567A115E5B793070010639F80
:103D0400F900A14763EC870097F5FF1F83D5C565CC
:103D1400C115F9B79C5052856396470D2945B9BF23
:103D24001D6A568B6371450B130A05E01947334A24
:103D3400EA0217F7FF1F0357276397FAFF1F938AB7
:103D4400EA5C330AEA023E9A83A74A026395470172
:103D540083A40A029DE49305E00417F5FF1F0355AD
:103D6400A56097D0FF1FE780406BAA8445D98327BD
:103D74004B0397F5FF1F83D5255F2A8689815285DA
:103D8400829791451307A005898193972500A697EB
:103D940083C627006393E60483D60700639C360337
:103DA40085058A052286A6954A8597D0FF1FE78058
:103DB400E0B583A70A02E38297EC268597D0FF1F1C
:103DC400E78080745DBD21677917E369A7F4330A3E
:103DD400454185B783C5370045BF83A70A02E38FF2
:103DE40097F2268597D0FF1FE780007205BF97F7EB
:103DF400FF1F9387A7518C5395D191479306A00534
:103E04008983139727002E9703462700E318D6F0DB
:103E140003560700631C360185078A072286BE9570
:103E24004A8597D0FF1FE78060AE81BD8347370086
:103E3400C1BF97F7FF1F93876752984739C79C5FA5
:103E4400A9C705476313E504411122C417F4FF1FF2
:103E54001304C44B105006C60DC6485097F5FF1FF7
:103E640083D5855089818297085097D0FF1FE780BA
:103E7400A06997F7FF1F23AB074A97F7FF1F23A9F2
:103E8400074AB2402244410182808280011117F71F
:103E9400FF1F1307A74C4EC68329870022CC26CACE
:103EA4004AC806CE52C456C2AA842E843289638B71
:103EB40009201C5FBA8A99EB2945F2406244D24436
:103EC4004249B249224A924A056182805C5BEDD73D
:103ED4009307F01F63EAA70E97F9FF1F938909431D
:103EE40083A70902B1CB03A58A0083A7490263957E
:103EF400A70689476393F408C147E31FF4FA17F54B
:103F0400FF1F035565469147130505FC3345F5022C
:103F14009317250003A509022286CA853E959307B7
:103F2400A0052301F50023109500110597D0FF1F6C
:103F3400E780C09D014551B79305E00417F5FF1FC5
:103F44000355854297D0FF1FE780204D97F7FF1F49
:103F540023AEA73C49F98DB783A74A0303A60902F8
:103F640097F5FF1F83D545408981829783A78A00EF
:103F740017F7FF1F232EF73AADBF8D47639EF4005A
:103F8400C147E31BF4F217F5FF1F0355E53D130585
:103F940045FD9377C5FFBDBF9147639AF400E31DC8
:103FA40094F017F5FF1F0355253C2115DDB7930742
:103FB4000010E393F4F0A147E3E087F017F5FF1F47
:103FC4000355853A4115F1B79D676379F506930763
:103FD40005E01947B3C7E70217F7FF1F0357C738B0
:103FE40017FAFF1F130A8A32B387E702BE998327A1
:103FF4000A02A1CF83274A026399370703250A02DD
:1040040091461308A0059305F00F93D72600139744
:1040140027002A9703462700631F060783580700D3
:104024000346370063959806B306D64063CF8604EB
:1040340085078A072286CA853E95CDBD21677917F3
:10404400E36CA7E6B307F54041BF9305E00417F519
:10405400FF1F0355653197D0FF1FE780003C97F79A
:10406400FF1F23A5A72C59F581BD83A74A03032667
:104074000A0297F5FF1F83D5252F89814E858297E4
:1040840097F7FF1F23A6372B95BF2310B70093166E
:104094000601C1829DBFB385860017F6FF1F035634
:1040A400A62C9105130606FCE3F8C5E013063400BC
:1040B400719A1106B2962301070123109700A301F8
:1040C400D700BDB797F7FF1F938747249453BE8942
:1040D400A9C203A5090291461308A0059305F00F90
:1040E40093D72600139727002A97034627006318BF
:1040F4000605835807000346370063989800B30603
:10410400D640E3D786F22310B70093160601C18286
:10411400C1BF8357C70017F5FF1F03450525930546
:10412400E0043305F5024205418197D0FF1FE78083
:10413400C02E97F7FF1F23ABA71E41FDB5BB17F693
:10414400FF1F0356662297F5FF1F83C50522B3851B
:10415400C502338686001106E3E0C5D681BF01455A
:104164008280011106CE2EC6EF70C07B01C9B24514
:10417400F2400355250005616FB01011F240494526
:1041840005618280A38001882380018823A401869D
:1041940023A6018623A8018623AA018623A20186D9
:1041A40023A0018697F7FF1F9387C7229306403801
:1041B4002391D702F1761307400B938606B8239117
:1041C400E7002392D70211679D4613060005930565
:1041D400000A1305007D2392E7002393D702414789
:1041E4008546130810F82395E7002396E7002399E2
:1041F400E700239AE700239BE700239CE70023942E
:10420400E70223960703239007002393B700239420
:10421400B7002397C7002398C700239DA700239EB8
:104224000700239F0700239007022395D7022397B3
:1042340007021308F007239807022392E704239345
:10424400E704239FE7042390E7062391E7062392DC
:10425400E706239907031307C01C239AD702239B5D
:10426400D702239C0702239D0702239E0702239F54
:104274000702239007042391D7042394070423956A
:1042840007042396D7042397C7042398C7042399C4
:10429400A704239A0704239B0704239C0704239D54
:1042A400C704239EC7042393A706239407062395D4
:1042B4000706239607062397B7062398B70623997C
:1042C4000706239AE7065147239DE7067D57239B5C
:1042D4000706239C0706239ED706239F07062390E1
:1042E400E7088280011126CAAA84214522CC06CE81
:1042F4002E8432C636C43AC2EFE06FFB1DC9A24613
:1043040012473246930700FD2300F5009947A300A6
:1043140095002301F5002303D500A303E500231230
:10432400C500AA8522856244F240D24405616FE04B
:104334007F86F2406244D2440561828023A4A18630
:10434400828023A6A186828023A8A186828023AAB4
:10435400A1868280011122CC4AC806CE26CA2A89A7
:104364000144B30489006368B400F2406244D24457
:104374004249056182802EC6EFE0DF9D9317050157
:10438400C183A183B2452380F4009307140093F7FB
:10439400F70F850463F9B700CA9709042380A700BF
:1043A4001374F40F7DBF3E847DBFC16717F5FF1FF3
:1043B4000355A500FD176304F502411117F6FF1F0D
:1043C400034606159385818706C6EF70A033B24075
:1043D400FD5717F7FF1F2312F7FE410182808280E9
:1043E40009C925151375F50F1335850E13451500E9
:1043F40082800145828023900500C9C6797122D448
:1044040026D24ECE52CC5AC806D64AD056CA5EC61A
:104414003684328AAE892A8B814463F34407B30716
:10442400940083C70700138914004209939A070173
:1044340093DA0A011359090163840A04CA97634190
:10444400FA04B307240183CB07005E85513F0DC9ED
:104454009387FAFF2390F90063906B031305190007
:104464002295B250225492540259F249624AD24AD5
:10447400424BB24B45618280D694C204C18071BF65
:104484000145C5B701458280411126C2AE8422C4CC
:1044940097F7FF1F23AAC7F297F7FF1F23A4B7F2CA
:1044A40097F7FF1F23AEA7F02A8441469305F00F28
:1044B40026854AC006C6054997C0FF1FE780005EEF
:1044C4006310250597F7FF1F9387C7EE884BC145F7
:1044D400513541469305F00F228597C0FF1FE780B1
:1044E400E05B854463189502224497F7FF1F938786
:1044F40067ECB24092440249C847C145410199BDA5
:1045040041468145268597C0FF1FE7802059E31265
:1045140025FD4DBF41468145228597C0FF1FE78099
:10452400E057E30395FCB24022449244024941011E
:104534008280411122C426C22E84AA84130600025A
:10454400814517F5FF1F1305E5E606C697C0FF1F53
:10455400E780604297F7FF1FA38F97E497F7FF1F49
:10456400238A87FAEFB04054854719C181474945EA
:10457400B240224417F7FF1F230EF7E29244410191
:104584008280814781CD19C98547631BF50083C7A4
:10459400550093E707FCA382F50085473E8582809A
:1045A40089476317F50083C7550093F7F703E5B709
:1045B4000D478547E314E5FE03C755001377F7035A
:1045C40013670704A382E500D1BF81478DC105C1EC
:1045D40003C755009306000C85471377070C63083F
:1045E400D700930600048D476303D70089473E85AF
:1045F4008280411122C4005D06C626C21DC8AA8459
:10460400085009C597D0FF1FE78000F0485009C53E
:1046140097D0FF1FE78040EF085409C597D0FF1FCC
:10462400E78080EE228597D0FF1FE780E0ED23AC82
:104634000402B240224492444101828009ED97F77A
:10464400FF1F83C747D717F5FF1F130525D881CB55
:1046540013858185828017F5FF1F130525D7828076
:1046640017F5FF1F034525D5828097F7FF1F938712
:1046740067D4C847828097F7FF1F9387A7D3884BD7
:10468400828097F7FF1F9387E7D2DC4B88438280B1
:1046940097F7FF1F938707D2D84B1C4385071CC38A
:1046A40017F5FF1F034535D19307F00F6305F50098
:1046B40091656FE0FF858280011122CC06CE2E84A5
:1046C40032C6EF70E0369147B245631FF500938719
:1046D40041879C438DC303A30700630E0300228517
:1046E4006244F240056102839387C1869C4381C77B
:1046F40003A34700DDB7F2406244054505618280AB
:10470400011122CC2A840355450006CE26CA4AC884
:104714004EC6EF70001035C52A89834405008349CD
:10472400C500C13D4A85EF70C06B03554400EF706E
:10473400602B83C70188B1CB6399970483C5118823
:104744002685EFF01FA219E1238001880355440058
:10475400EF70002E9147631FF5000357440097F74D
:10476400FF1F83D787C56317F700FD5717F7FF1F90
:104774002315F7C4F2406244D2444249B249056168
:10478400828081499304F00F6DB79307F00FE38F94
:10479400F4FA8346640003564400034524004E871C
:1047A400A685893665B779715EC6AA8B2E8552CCEB
:1047B40056CA5AC806D622D426D24AD04ECEAE8A7B
:1047C400328B368AEF70E0047DC1045D2A89E5C02E
:1047D4009C50614599C3130540039C5481C75105FE
:1047E4004205418163050A00710542054181DC509F
:1047F40081C7590542054181EFE06FAB2A8445C961
:104804006146814597C0FF1FE780E01697F9FF1FB7
:1048140083C949BF6394090083490900930700FDD4
:104824002300F400A947A30074012301F400230327
:1048340064018C50231254011305840191C908C4E6
:104844007146930A440397C0FF1FE780200C5685E6
:104854008C5491C948C45146930A450197C0FF1F1F
:10486400E780C00A5685630C0A0008C87146D285E1
:10487400930AC50197C0FF1FE78040095685CC50B5
:1048840099C548C8594697C0FF1FE7802008A285EC
:104894004E85EFE02FB02254B2509254F249624A4E
:1048A400D24A424BB24B4A850259456199B3B25040
:1048B400225492540259F249624AD24A424BB24BB0
:1048C4004561828001114EC6AA892E854AC806CE4A
:1048D40022CC26CA2E89EF60D07321C997F4FF1F1A
:1048E40083C444B299E0834405001945EFE02F9C4A
:1048F4002A8405CD8145194697C0FF1FE780A0078C
:10490400930700FD2300F400B947A30034012301F9
:10491400F40023122401A2856244F2404249B249C0
:104924002685D24405616FE0EFA6F2406244D2448A
:104934004249B2490561828039715ECEAA8B2E85C7
:1049440026DA4ED652D456D25AD006DE22DC4AD8C3
:10495400AE84328BB68A3A8ABE8942C6EF60706BE7
:1049640021CD2A894145EFE08F942A8431C54146FF
:10497400814597C0FF1FE780000017F5FF1F03451F
:1049840065A819E103450900930700FD2300F4001D
:10499400BD472301F400B247A3007401231294001D
:1049A40023046401A304540123054401A305340131
:1049B4005CC4A285EFE00F9EF2506254D254425977
:1049C400B259225A925A025BF24B21618280797168
:1049D40026D2AA8439454AD04ECE06D622D42EC633
:1049E400B2893689EFE0AF8C21C1B2459307000D3F
:1049F4002310F500B1472A842312B5002301F500E2
:104A0400CE851905194697C0FF1FE78020F02306BD
:104A14002401A2852254B2500259F24913F5F40F2D
:104A2400925445616FE00F97B25022549254025948
:104A3400F2494561828017F7FF1F0347D797930711
:104A4400F00F630DF706411126C2AA84394522C42A
:104A540006C64AC0EFE0AF852A8439C9930700FD32
:104A64002300F500A30095002301050097F5FF1F1F
:104A74009385C5950D05194697C0FF1FE78000E98A
:104A840017F9FF1F1309099383578900A28517F5A6
:104A9400FF1F034555922315F4008347190023068D
:104AA400F4002244B2409244024941016FE08F8EE7
:104AB400B240224492440249410182808280011121
:104AC4005AC02A8B314526CA4EC652C456C206CE97
:104AD40022CC4AC8AE84B28A368ABA89EFD03FFD66
:104AE40035CD2A842685EF60D05211C50347C50011
:104AF400A1476314F70417F9FF1F0349D98B9307E0
:104B040000FD2300F4009D47A30064012301F40089
:104B14002312940023135401231444012315340154
:104B2400A2856244F240D244B249224A924A024BDC
:104B34004A85424905616FE0EF8517F9FF1F034974
:104B4400799DE31E0BFA9387C1909C439C47C5DB78
:104B5400CE865286D6852685829755B7F240624422
:104B6400D2444249B249224A924A024B05618280A8
:104B7400011122CC2A84214506CE2EC6EFD03FF364
:104B840021C1B245930700FD2300F500C547230169
:104B9400F50083C73500A301F50083D74500231230
:104BA400F50083C765002303F50083C77500AA8554
:104BB400A303F50022856244F24005616FD09FFD96
:104BC400F240624405618280397162CC2A8C594575
:104BD40026DA4AD84ED652D456D25AD05ECE06DE03
:104BE40022DCAE8432C636C4BA8B3E8BC28A468A75
:104BF4008359010403494104EFD07FEB25C93246B0
:104C0400930700FDA2462300F5009547A301C500C4
:104C1400A30085012301F5002A8419461105A9C2C0
:104C2400B68597C0FF1FE78060CE23066401230A80
:104C34002401231574012317540123184401231953
:104C44003401A2856254F2504259B259225A925AFE
:104C5400025BF24B624C2685D25421616FD09FF3E4
:104C6400814597C0FF1FE78000D1C1B7F25062545D
:104C7400D2544259B259225A925A025BF24B624CB4
:104C84002161828097E7FF1F83C7E7728DCB4111B3
:104C9400AA8519461385818506C697C0FF1FE7803C
:104CA400E0C69385818517E5FF1F0345C570EFF0C6
:104CB4005F8DB2401385818541016FA0705F01450E
:104CC400828017E7FF1F0347176F9307F00F6305F1
:104CD400F708411126C2AA84294522C406C6EFD08A
:104CE4001FDD2A8429C1930700FD2300F500A14795
:104CF4002301F500A300950097E7FF1F9387876BB7
:104D040083C72700938581851105A30FF5FE1946F6
:104D140097C0FF1FE78080BFA28517E5FF1F0345EB
:104D24009569EFD03FE717E7FF1F0347C7688D4733
:104D3400631FF700938701879C4391CB03A38700EC
:104D4400630703002244B240924441010283B2400B
:104D5400224492444101828017E7FF1F0347A7655D
:104D64008D47631AF700938701879C4389C703A380
:104D74008700E31D03FC8280797122D406D626D2F3
:104D84004AD04ECE52CC094455CD2A89035505004C
:104D94002E8A5144EF60F027AA844DC597E7FF1F80
:104DA40083C74777FD1793F7F70F05474944637B9C
:104DB400F7080347C500A1476314F70063140A0802
:104DC4009C5C4544C1E39165938545711305C0021C
:104DD40097C0FF1FE780606488DCAA894D443DC109
:104DE4001306C002814597C0FF1FE780C0B88357F0
:104DF40009009386490036852391F900714693058D
:104E0400490036C697C0FF1FE78040B0894723801A
:104E1400F90003C5C400B24603560900611597E5BD
:104E2400FF1F83C5E56E13351500EF70D0412A844A
:104E340063060A00D2852685EF70802A01C4268580
:104E4400EFF02FFB2285B250225492540259F249BA
:104E5400624A4561828097E7FF1F83C7A76BFD17EE
:104E640093F7F70F0547637AF708894741CA011199
:104E740022CC26CA4AC84EC652C406CEAA89368A4D
:104E8400B2842E89EF60F0182A84D14739C9485575
:104E940009C597C0FF1FE7802067F145268597C0A5
:104EA400FF1FE780E0B248D4CD4705CD8346C40058
:104EB40021478147639FE600630D0A000347A5016C
:104EC4000356050193062501AA854E85EF70002936
:104ED400AA8703474400630F09001367670023028E
:104EE400E400F2406244D2444249B249224A3E8537
:104EF4000561828013674700DDB7C9473E8582801C
:104F04009307F00363EBA70097E7FF1F9387874C92
:104F140006053E9503550500828041657D15828016
:104F2400011122CC2A842E8526CA06CEAE84EF60D7
:104F3400500E1DCDB7470F009387F723094563E44F
:104F4400870281450A85414697C0FF1FE780A0A2DA
:104F5400A685231081000A85418023018100A301D5
:104F64000100EF70101AF2406244D244056182805D
:104F74004945D5BF97E7FF1F238DA75882806F70DF
:104F8400B026797152CC2A8A328522D426D24AD0CC
:104F94004ECE56CA5AC85EC606D662C4AE8BB28A14
:104FA400368BBA843E89C2894684EF60900615C95F
:104FB4002A8C63140A0213774B008347450015CFEC
:104FC40093E727012302FC008DEC631C0902639A1A
:104FD400090205E8ED9B2302FC00832B8C036391FB
:104FE4000B08B250225492540259F249624AD24AEE
:104FF400424BB24B224C45618280F59B93E70701FB
:10500400D1B793E747002302FC0001CC1C4841467A
:10501400A2852324FC0213058C0197C0FF1FE7809F
:10502400E08E63930B02D5D80325CC0209C597C043
:10503400FF1FE780604DF145268597C0FF1FE7807D
:1050440020992326AC0251BFE30909F80325CC02B9
:1050540009C597C0FF1FE780204BF1454A85F1BF82
:105064009DC483A70B0299EB9165938535717145B6
:1050740097C0FF1FE780603A23A0AB0203A50B0291
:1050840019C57146A68597C0FF1FE78020886388ED
:10509400090283A74B0299EB9165938525715945C4
:1050A40097C0FF1FE780603723A2AB0203A54B0222
:1050B40019C55946CE8597C0FF1FE78020851DC4BA
:1050C40083A78B0299EB916593851571514597C020
:1050D400FF1FE780803423A4AB0203A58B0219C50C
:1050E4005146A28597C0FF1FE78040822254B250E8
:1050F4009254F249B24B224CCA865A860259424B08
:10510400D6855285D24A624A45616FF0CFE90111D2
:1051140026CA52C406CE22CC4AC84EC62A8AAE84B7
:10512400EF60206F25C5AA893945EFD05F982A849E
:1051340031CD17E9FF1F0349E92C6314090003C9A2
:1051440009009307000D2310F400AD472301F40078
:105154009385690013053400194697B0FF1FE78053
:10516400E07A93F71400858085882306F400A3066B
:10517400940023154401A2856244F240D244B2490A
:10518400224A4A85424905616FD0DFA0F240624459
:10519400D2444249B249224A0561828001114EC675
:1051A40052C456C206CE22CC26CA4AC8AA8A2E8A1D
:1051B400B289EF6000662DCD2A891305C002EFD0B5
:1051C4001F8F2A8435C597E4FF1F83C4A42399E065
:1051D400834409009307000D2310F400E9472301D9
:1051E400F4009305690013053400194697B0FF1FB6
:1051F400E780C071D285231554011305C4004146CC
:1052040097B0FF1FE7808070CE851305C401414627
:1052140097B0FF1FE780806FA2856244F240424945
:10522400B249224A924A2685D24405616FD09F969C
:10523400F2406244D2444249B249224A924A056148
:10524400828093870186884301CD411106C697C0A9
:10525400FF1FE780602BB24023A0018641018280BA
:105264008280011106CE22CC26CA4AC82EC6EF601F
:10527400405A39CDB24517E9FF1F0349A918AA843A
:105284000CD563140900034905004145EFD03F8262
:105294002A841DCD9307000D2310F500A547230193
:1052A400F50083C75400938564001105A30FF5FE30
:1052B400194697B0FF1FE78060659C54A285F240B1
:1052C4005CC46244D2444A85424905616FD09F8CD4
:1052D400F2406244D244424905618280797122D409
:1052E40006D62A842EC6EF60C05201CDB24522856F
:1052F400230EB1006C08EF60305BB250225445615C
:1053040082805145DDBF6F606067C1671387E7FF27
:105314006394E5029387C1869C4391EB494582805F
:105324004945B2402244924402494101828003A388
:105334000700E30503FE0283411122C426C24AC0CA
:1053440006C6FD172A892E84B2846395F5029387D5
:10535400C1869C4391CB9C4381CB829711E52380EA
:105364002189A380918875BFA6854A85EFE07FDFF8
:105374004DF9F5B72E85EF60C0495DD1834705002F
:105384000D45E39027FB22852244B2400249A685BD
:10539400924441016FA0406F9307F00363E2A706B4
:1053A4004111C16722C406C626C2FD172A840945D5
:1053B4006382F502C547AE846313F4022E85EFA021
:1053C400A07317E5FF1F1305E50006042A942310B4
:1053D40094000145B24022449244410182809307E3
:1053E400A0036316F4002E85EFA0806AD9BF93074B
:1053F400B003E318F4FC13F5F50FEFA0A069D1B7DF
:1054040009458280011106CE2AC6EFE0BFD7EF20FE
:105414000021EF104060EF20A104324597E7FF1F01
:10542400938747F9130700F02391E70023820700CD
:105434007D5797E7FF1F9387A70D2381E7002380FC
:10544400A700F240954505616F4090501D719397F8
:105454000501CAC886CEA2CCA6CACEC6D2C4D6C2BC
:10546400DAC05EDE62DC66DA6AD86ED6C1872E895F
:1054740063DE075817E5FF1F03458509EFD0AFE941
:105484008964416A856A797B2A84938BD4007D1A66
:10549400A50A130CABFF1DE021653345A900F640B6
:1054A4006644D6444649B649264A964A064BF25BB8
:1054B400625CD25C425DB25D2561828083470400F8
:1054C4001307200A639DE7000355240097E9FF1F93
:1054D40083C979EE2286D285EFF00F9E59A2130775
:1054E400100997E9FF1F83C9C9026398E718834726
:1054F400140015476390E7022285EFF06FA0228520
:10550400EFD00FD617E5FF1F03458500EFD0AFE0BE
:105514002A8451B73947639BE71803554400631B3A
:1055240055050C4483CC0500639D0C00850591C989
:10553400194617E5FF1F130565E997B0FF1FE780BC
:10554400E03C17E7FF1F0347E7E685476317F712B9
:10555400638A0C0097E7FF1F238E07E46685EFF04C
:105564008FCD71BF894717E7FF1F2305F7E4EFA02D
:10557400E05371B793872400631AF506832C8400E3
:10558400638D0C0E83C70C008DE383C72C0003C707
:105594001C00A207D98F17E7FF1F2311F7E283C767
:1055A4003C0017E7FF1FA307F7E017E7FF1F0347B8
:1055B40067E089476313F70C83C70C0081CB97E737
:1055C400FF1F238907DE03C50C0051BF8D4797E5F4
:1055D400FF1F83C535DE17E5FF1F035525DE17E7DB
:1055E400FF1F2309F7DCEF40B039F1BF9387540064
:1055F4006318F5001C4403C50700EFF08FEC01B7F6
:10560400B3078501C207C18311476372F704930787
:10561400ABFCAA97139707014183F14763F1E702B3
:105624009387B4006312F504938781869C43E388CF
:1056340007EC9C43A285E38407EC82971DA0B7077F
:1056440000189387F770B3D7E700858BB9CB93879E
:1056540001879C43E38507EA9C43E38207EA2285AA
:105664008297E31E05E811A89387C4006310F5022E
:105674001C4483C70700E38407E89307F00FE38023
:10568400F9E8A2854E85EFD0EFD0ADBD9387E40055
:105694006319F5009387C1869C43E38207E6DC43E4
:1056A40051BF93871404E301F5F8C1BF3D476397E5
:1056B400E70403554400E30F75FD93879401E30B5E
:1056C400F5FC93873401E31AF5FA97E7FF1F83D7B4
:1056D400C7CE639E47019387C1869C43E38107E25B
:1056E400DC43E38E07E0A28513853401B9B79387C1
:1056F40041879C43E38507E09C43E5B71307E00338
:10570400E39DE7F68347240005476397E70E834745
:105714006400938D0186F1E383A70D00D5CB83CC80
:105724000700A14903457400130D8400EA85EFE0E6
:10573400DFE983474401A303A40083580401035809
:10574400E400035744002A86034534003EC28357CD
:105754002401EA86E6853EC0CE87EFF0EFC6834794
:10576400340095E7DD47835804010358E400834679
:105774007400835544003EC2835724016A8705465A
:105784003EC06685CE87EF60403DA301A40083A799
:105794000D0081C71145EFF0DFAA03C50188E300BE
:1057A40005D683C51188EFE0DF9BE30A05D4834661
:1057B400340093071003638AF600035644004E87AF
:1057C40083C501883685EFE0FFB12380018805BBDE
:1057D40097ECFF1F83CC3CBEA9B7938701879C43FA
:1057E40097ECFF1F83CC3CBD91498DDFDC439DDBEF
:1057F4008145014582973DB72947639EE70A834760
:105804006400138D0186C9EB83270D00C9C383CCC3
:105814000700A14903457400930D84009377250084
:105824001376150089E7EE85EFE03FDA2A86834791
:105834000402A303C4008358C4010358A4010357FA
:105844004400034534003EC28357E401EE86E685F6
:105854003EC0CE87EFF04FB78347340095E7DD476E
:105864008358C4010358A40183467400835544003B
:105874003EC28357E4016E8705463EC06685CE87E7
:10588400EF60A02DA301A40083270D0019B797ECA6
:10589400FF1F83CC5CB2B5BF938701879C4397EC11
:1058A400FF1F83CC5CB19149B5D7DC43A5D78145B3
:1058B4000145829785B70947639DE70093878186F1
:1058C4009C43E38E07C2DC43E38B07C222858297A5
:1058D4003DB12D476399E700938781869C43E3801C
:1058E40007C29C47D5B70D476397E70022868D45CD
:1058F40003554400D5B619476395E706930561013E
:1059040013051031EF10F13D2C0813052031EF1071
:10591400513D03566400835781010355440063E8F5
:10592400C700835684000357610163F7E6009305BB
:105934000002EFA0601BE1B66374E6002313E400E9
:1059440063F4D7002314F4000357C4008356A4005F
:10595400035684008355640001488147EFA08018F2
:1059640079BE1D47E38BE7D031476395E700228674
:10597400B145BDBF35476399E700938781869C4352
:10598400E38F07B6DC4789B739476396E70022857A
:10599400EF00D003ADB63D476399E7009387818656
:1059A4009C43E38E07B49C4B05B741476396E700DD
:1059B4002285EF00900CA1B645476396E7000145A8
:1059C400EF00701B2DBE4947639EE7009387018754
:1059D4009C43E38407CADC43E38107CA8145054548
:1059E400829761B94D47639DE700938701879C4384
:1059F400E38507C8DC43E38207C8A2850945CDB720
:105A04006147E39CE7C62286E145DDB593F71500BF
:105A140081CF938781869C4389C7DC4399C3014521
:105A2400829713451900A5BC93F7250089CF938766
:105A340001879C4391C7DC4381C781450545829713
:105A440013452900A9BC93F745000145E38907A440
:105A5400938741869C4399CF854717E7FF1F230D02
:105A6400F794938701879C4391C7DC4381C78145A1
:105A74000545829797E7FF1F9387C793C8472C086C
:105A8400EF6090542808EFF0EF9F97E7FF1F83D74C
:105A9400879681CF130600643386C702914517E5C4
:105AA400FF1F0345E5A6EFD0EFDC13454900C5BA57
:105AB400011122CC2A84554506CE26CAEFF04FC4E4
:105AC400AA8413054002EFF0AFC32AC6130550029F
:105AD400EFF00FC3AA86228562443246F240B33502
