:040000006F305031DC
:100004000000000000000000A0000020BA0400204E
:10001400A9BDF9F3FC01002000000000000000006D
:10002400FC010020A00000200000000000000000EF
:10003400A000002000000000A0000020000000003C
:10004400A0000020A0000020A0000020A0000020AC
:10005400A000002054020020A000002000000000A6
:10006400A0000020A0000020A0000020A00000208C
:1000740000030020A0000020A0000020A000002019
:10008400A0000020A0000020A0000020A00000206C
:10009400A0000020A0000020A0000020A00000205C
:1000A40001A0B7170040984B41111367070198CB83
:1000B400982B1377E70F98AB1307800873370780E3
:1000C400137787083AC60F100000130770052380C2
:1000D400E704130780FA2380E7040F100000B847F1
:1000E400B70600069506558FB8C703C7B70413773C
:1000F400F70DA385E704B82713672701B8A71307EB
:1001040050149AA7372700408346578093F6F60E7B
:10011400A302D7808946A303D78003C7E7041377D4
:10012400C70F136717002387E70403C7F702136792
:100134002700A387E702982B1367170098AB238047
:100144000704B247F3A707800F1000004101828023
:10015400EFF03FF513050020970500009385450A4D
:10016400174600001306069B63FAC50083220500A8
:1001740023A0550011059105E3EAC5FE17F501E03A
:100184001305859B974500009385C5981386C18503
:1001940063FAC5008322050023A0550011059105CB
:1001A400E3EAC5FE1385018697650000938505B3D0
:1001B4006377B500232005001105E36DB5FE9302B6
:1001C4005002739002BC8D427390428085427390BA
:1001D40012BC93028008739002309702000093824D
:1001E40062E293E2320073905230974200E09382CD
:0C01F400E29B7390123473002030000076
:100200009305000273A04580824573901534924097
:100210002242B2424243D2436244F24402559255D2
:100220002256B2564257D2576258F258064996495A
:10023000264AB64A464BD64B664CF64C065D965D52
:10024000265EB65E465FD65F0961730020304111BD
:1002500006C6EF00104CF5BF197106C212C416C6CF
:100260001AC81ECA22CC26CE2AD02ED232D436D6D6
:100270003AD83EDA42DC46DECAC0CEC2D2C4D6C6C6
:10028000DAC8DECAE2CCE6CEEAD0EED2F2D4F6D6B6
:10029000FAD8FEDA938581868841E700050092400E
:1002A0002242B2424243D2436244F2440255925542
:1002B0002256B2564257D2576258F25806499649CA
:1002C000264AB64A464BD64B664CF64C065D965DC2
:1002D000265EB65E465FD65F09617300203041112D
:1002E000B7170040985F3AC6945F3247E39CE6FE3A
:1002F000324541018280B7E700E03707001023A0B4
:10030000E7208280B7170040130700032388E70225
:10031000854723A8F18673002030B7F70700DC5328
:10032000411123ACF186B7170040984B13670701C2
:1003300098CB982B1377E70F98AB13078008733788
:100340000780137787083AC60F100000130770055F
:100350002380E704130780FA2380E7040F100000CE
:100360001307000C6315E5029A271367070C9AA779
:10037000B7170040982B1367170098AB238007042A
:10038000B247F3A707800F10000041018280B82711
:1003900093760520ADCA118B29E303C7E70403C692
:1003A000E7041377F70F136636002387C704B027D7
:1003B00013664600B0A792278E273346060893E5BA
:1003C000050C8EA7A5470100FD1793F7F70FE5FF72
:1003D000B717004092A72387E70493770510DDC382
:1003E000371700403C2793E707013CA79377F501B7
:1003F00099EFB727004003C7578013670701A3820F
:10040000E7801D470DA013672700B8A7F9B7254758
:100410006366F704B727004003C757801377F70ECA
:10042000A382E7800547A383E78033450508B71714
:1004300000401367050C9AA78AA7B5CE03C75704D7
:1004400083C65704418B858A558F1DF3B82B418B8A
:1004500005D3B8271377D70FB8A719BF937705012E
:1004600099EBB727004003C757801377F70EA38295
:10047000E78009474DBFB727004003C75780137770
:10048000F70EB5BF9377850181EFB727004003C70B
:1004900057801377F70EA382E7801307100561B723
:1004A000B727004003C757801377F70EA382E78072
:1004B000130770058DBFB8271377B70F71BF4111B0
:1004C0008146014681451145992213078008F3377B
:1004D000078093F787083EC40F100000B71700404D
:1004E000130670052380C704930680FA2380D7047F
:1004F0000F100000FD55CEB723800704A245F3A5D9
:1005000005800F10000073370780137787083AC6FD
:100510000F1000002380C7042380D7040F100000B1
:1005200003C76704136717002383E70423800704C6
:10053000B247F3A707800F10000001A09307E00463
:100540003305F50295473355F50201007D1575FD1C
:1005500082802303048015472303E48001002302E3
:10056000A480828083076480E3CE07FE2303048097
:10057000828083076480E3CE07FE03454480828047
:1005800083076480E3CE07FE2302A48082804111AA
:1005900026C44AC24EC006C61377F50BAD47AA89DA
:1005A0002E8995446306F70019456537653F8D44EC
:1005B0004E854537FD59FD1463983401B240A2447D
:1005C0001249824941018280135509011375F50FC3
:1005D000453F2209CDB7011126CC06CEB70408004D
:1005E00051371545BD37713769372AC6A53F3245A2
:1005F0009377150089EB136515001375F50FF2401D
:10060000E24405618280FD14E9FC0145CDBF3971EA
:10061000B7F7070006DE26DC4ADA4ED852D656D4A3
:100620005AD25ED062CE03AB47027D57B7E700E0F7
:1006300083AA070022C603AA470023A0E71823A223
:10064000E718B71B0040930770052380FB0493074E
:1006500080FA2380FB0483C74B041147AA8993E7E0
:10066000070E2382FB04372400401305F00F2303F9
:10067000E4802E8C3289B684E93DED35938779FF8D
:1006800093F7F70F0947137BFB006362F712A1474B
:10069000370708006307FB00B70707003E9C378752
:1006A00007007955637EEC02B3878401636AF70221
:1006B000A9476398F90689E481446D3526850DA024
:1006C000E2850945E93505090345F9FFFD14050CE7
:1006D000453D81C49377FC0FFDF7F53D69FD7D55E0
:1006E000B7170040130770052380E704130780FA4B
:1006F0002380E70403C74704418B2382E704F250B9
:10070000B7E700E023A0571123A24711E254324477
:100710005259C259325AA25A125B825B724C216101
:100720008280A547639AF906A1478569631DFB028C
:100730009387F9FFB3869700B374FC00B69493C710
:10074000F7FFFD8C33FC8701416B856B9387F9FFC5
:10075000B3F7870199E363FF340193D94900C14797
:10076000E3E637FF91BF9307F00FE9B78567C169EB
:10077000FD17C9B71305800D6388690113050002D1
:100780006384790113051008E2851135A93521D953
:100790004E9CB3843441C1B7E2852D45CD3BCA940C
:1007A000E30C99F00509F133A30FA9FED5BF938798
:1007B000F9FF93F7F70F636FF70AA1476319FB0679
:1007C000B70708003E9C83C75B043707070093F711
:1007D000070299E337870700B70708003E97795566
:1007E000E370ECF0B3079C00E36CF7EE8947639A83
:1007F000F9048980D549E38104ECE2850945413B50
:1008000011090327C9FF91472320E480030764806F
:10081000E34E07FE23033481FD17EDFBFD14110C9D
:1008200081C49377FC0FE9FF7D3371F54DBD83C71C
:100830005B043707070093F70702D5F337870700F4
:1008400079BF8547E384F9F2E2852D4589339389A1
:10085000F4FFE38304E6313B93F7390091EB832601
:1008600004800327090093074900E398E6E43E89E2
:10087000CE84F1BFB5476396F9001305900BD139CB
:1008800025BDB1471305B00AE38BF9FE9947639480
:10089000F904A1476315FB00B70708003E9CE285F9
:1008A0002D45F53181440D4BA149E1316396640139
:1008B000832704802320F9008504E39834FF8327ED
:1008C000048013172C01635507002312F900EDB3C0
:1008D0002322F900D5B39D476399F9028145130599
:1008E000B0047531BD442320090023220900FD59BD
:1008F000493193F77400CA9703C70700FD14398D77
:100900002380A700E39634FF45BB91476399F90024
:10091000130560063D39B931130590098DB7E38D94
:1009200009D8F15459BB23AC05FE1C4199E30CC115
:1009300082803E8783A787FFEDFF232CB7FE82804E
:10094000411126C2B7E400E04AC003A90400B7077A
:10095000200006C622C43379F90023A0F4180F1032
:10096000000009E523A02411014535A09565938574
:1009700005D0C98D2A842105B3C50508334505086E
:10098000EF10C07765D1FD572320050042A17CA15F
:1009900023A024112105B24022449244024941017E
:1009A00082804111B7E700E04AC003A9070026C2D0
:1009B0003707200006C622C4AA843379E90023A0A1
:1009C000E7180F10000083A7C1870144014685E3A3
:1009D00001C8A2851385C187974000E0E780601FAA
:1009E000A1652685974000E0E78060720DA003C7EF
:1009F000E7FF6319970205CCA2851385C18797404D
:100A000000E0E780001DA1652685EF10D05EB240B2
:100A100022852244B7E700E023A02711924402492F
:100A20004101828011E03E8683A787FF4DB73E8457
:100A3000E5BF37E700E01C43B70620002320D718A6
:100A4000F58F0F10000019C191C111E637E700E0E2
:100A50002320F71082802E960F70B650D5BF37E74F
:100A600000E01C43B70620002320D718F58F0F1095
:100A7000000019C1014785E137E700E02320F710A6
:100A80008280B386E50003A80600B306E5007D1664
:100A900023A00601110775F6C5B737E700E01C4330
:100AA000B70620002320D718F58F0F10000001C5CE
:100AB0003307C50011E637E700E02320F7108280F6
:100AC0000505A30FB5FEE31DE5FEF5B7B7E600E0AB
:100AD0009C42370620002A87F18F23A0C6180F10EA
:100AE00000000145B306A7008386060091E637E7BC
:100AF00000E02320F71082800505EDB70111B7E76C
:100B000000E026CA84434AC83707200006CE22CC1C
:100B10002A892E86F98C23A0E7180F100000930570
:100B2000F00432C633450608EF10405D2A8401C543
:100B30003246CA85FD3DF24022856244B7E700E0B7
:100B400023A097104249D2440561828037E700E034
:100B50001C43B70620002320D718F58F0F10000084
:100B600001C599C1014711EA37E700E02320F710DA
:100B7000054582800507E309E6FE3308E500B386F4
:100B8000E500034808009422E306D8FE37E700E0BA
:100B90002320F7100145828037E700E01C43B706A9
:100BA00020002320D718F58F0F1000001307F6FF41
:100BB000BA952A966317C50037E700E02320F7109F
:100BC00082809821FD150505A30FE5FEE5B737E7FF
:100BD00000E01C43B70620002320D718F58F0F1024
:100BE000000001C53307C50019E637E700E0232000
:100BF000F7100145828014210505E398B6FEE31C39
:100C0000E5FE37E700E02320F71005458280797183
:100C100026D29384418922D4804006D64AD04ECE33
:100C200052CC56CA5AC85EC662C44DC437C9C9013F
:100C3000814B138BC1881309F937175A0000130A27
:100C4000AAA8975A0000938AAAA5975900009389E9
:100C5000A9AC3E2099EF5C44639A0B009CC0032C26
:100C6000C4002285EF10E055628489A823A6FB000A
:100C7000FDB783270B0082971C443307F54063764A
:100C8000F50003A789001D8F2A976368E9062E20C7
:100C90000820EF1050365C405844A9CB0C4417563E
:100CA00000000326E6A7AE97BE8663E4B70063E4C0
:100CB000C700B386C74014C4A28B3A8459F81757AB
:100CC00000000327E79E894763E6E7009757000087
:100CD00023A0079EB250225492540259F249624A0C
:100CE000D24A424BB24B224C4561828063940B0046
:100CF00098C0B5B723A6EB009DB703274A021DCBCA
:100D000063EDA7023385A7401C2099EF03479A01A2
:100D100083A689006117B307A7003E8563E4E70057
:100D200063E4D7003385D74083A70A016374F500D5
:100D300023A8AA00A28B404451B703A78900BA9701
:100D4000D1B7011126CA06CE975400009384C49CE3
:100D500022CC4AC84EC652C49C288844D9CFB7E793
:100D600000E003A907003707200023A0E718337924
:100D7000E9000F10000003C7418819CB23A02711F9
:100D8000F2406244D2444249B249224A056182801B
:100D900017570000130747B58357C70AA1CB9C44D8
:100DA0000324870A6304F404975900009389498F48
:100DB00003A709012285630BF702138AC1888327E1
:100DC0000A0082976368A40C83270A00098C829723
:100DD00083A7090198443354F40AB307A4003E855D
:100DE00063E4870063E4E7003385E740B7E700E0AA
:100DF00023A027119C44639BA702175400001304EF
:100E0000248A184883A7C1886319A7088297944445
:100E1000374736FE130707C83697B307A7003E8546
:100E200063E4E70063E4D7003385D740175400003C
:100E3000130484CE5C5C89CB83A641989C4637071B
:100E4000CDFF7D17F98F9CC611E1884485475CD0A2
:100E50009757000083A78789829715E15C5C99CF3B
:100E60005C5089CF975001E0E780A097974001E060
:100E7000E780401B9757000023A207CC493B5C5CEE
:100E8000E38007F003A741981C47B7063300D58FCE
:100E90001CC7FDB59C443E9405BF829714489844F6
:100EA000B387A6003E8563E4D700E3E1E7F8338526
:100EB000E740ADBF23A0A18801C585472382F18803
:100EC0008280AA8799E5175700000347E78509C77D
:100ED000D5B711476369B70017570000130787821A
:100EE000B3C5E5209CC1828083A7018881CF4111D1
:100EF00006C6829783C7418899E323A00188B24040
:100F00004101828083C7418881E723A001888280D4
:100F10008280411122C426C206C64AC097540000EE
:100F2000938484BF83C73402174400001304847D74
:100F3000B9C3174400001304A476138981890327D9
:100F400009001C2014300146B3A5E7208E21B5C945
:100F500011C21CA00820636DD506974700002381AD
:100F6000077483A7C188D5E7B2402244924402495E
:100F70004101828082971C40F5FF9747000083C79C
:100F8000A77A85E3DC48858B89CFD84C9947631EC7
:100F9000F7009757000023AB07B8EF0050595C44A7
:100FA00082971C44D9D7829769B7D84C9D47E31ADA
:100FB000F7FE9757000023AB07B6EF0050571C48C9
:100FC000C5B7850793F7F70F0546E3EFD7F651B797
:100FD0003327E5200E23231007002393018883A7DE
:100FE0000189B347F5209C4382971C208326090082
:100FF00003D761883377E540B3A6D7209222518F7B
:101000009AA299C385071CA018201C30E36EF7F440
:10101000A9B79747000083A7A7701CC8CD3E83C718
:101020003402B9F383C7140299CBDC4C89EB975790
:101030000000A38307B0974001E0E780001B9747BB
:10104000000083A7A76A8DD31C4899DF1830832638
:101050000900814763C7E702D84C9147E3E6E7F010
:101060009757000083C7C786918BE39F07EE83C71E
:101070004188E39B07EE2244B24092440249410179
:10108000C9B133A6D7201222E31006EE8507D9B7DF
:10109000B7C700401387C72014431396264910C3CF
:1010A000010001009387872617450000032505618D
:1010B0009C436A0514C393C7F7FF99835D8D8280B3
:1010C00023A0A18A8280411122C417540000130476
:1010D000A4A41C4426C206C6858B9754000083A492
:1010E000E48691EBEF20100E2244B2402685924414
:1010F00041016F10D00998289757000023A207A23A
:101100008947E301F7FE0146930550020145EF00D0
:1011100050728145172501E0130565B55D33014621
:1011200081450545EF0090575C44858BC5DFB24093
:1011300022449244410182809757000083A7C784CC
:10114000639B0716011122CC2A84094506CE26CAC4
:101150004AC84EC6EF20B00E9389419703A60900F6
:1011600093078007138941967CD2238201888327C5
:10117000090093844198B7053300D8572285719BA5
:1011800013671700D8D798431377F7CF98C39843BE
:101190001377F7CF1367072098C398401447CD8E75
:1011A00014C7B70603009386862534CA5457F59AA8
:1011B00054D798433424137707F893F6F607558FDE
:1011C00098C3EF10F01383A60900370500827D1540
:1011D000DC4293E71700DCC20326090003078406FC
:1011E0005C569375F703E605E98FCD8F5CD69305C2
:1011F000A0039C4063D5E508F84FB70500074D8F65
:10120000F8CFB7C7898E938767ED1CC6B7575500CF
:10121000938757555CC28347A40683444406DD8CFC
:101220008947175700002327F7909757000023ABF3
:10123000078E7C44BCDE9747000083C7E74E99C702
:10124000FC52FDFF9757000023AC078C18289D47E0
:10125000814517250000130525CA6306F700170509
:101260000000130585E6B13910386244F240424966
:10127000B249A685D244014505616F00304293050D
:10128000200263DAE500F84FB70500F9FD156D8F10
:10129000B7050005ADB7B70500F96945FD156357FA
:1012A000E500F84F6D8FB705000391BFF84F6D8FC4
:1012B00013178729B1B78280974700009387C762C9
:1012C000E853054754256390E60203C74707914753
:1012D000631AF700011106CE2AC6EF1040673245A7
:1012E000F240056191BD828039C901116C0022CCA8
:1012F00006CE2A84EF20E03A15C9FD57630DF502AA
:10130000B2479745000083C5B53D63EBB700034581
:1013100094026244F240B385B74005616F100052F9
:10132000174700000327C73FBA97D5B76244F2407A
:1013300005616F10907BF24062440561828082807B
:10134000797152CC174A0000130A0A5A26D2832414
:101350004A0906D622D44AD04ECEDDC497470000B3
:101360009387877BD44F15476383E604DC532A8930
:1013700089CF974001E0E780C046974001E0E780D1
:1013800060CA9747000023AB077AFD596C00268599
:10139000EF20203115E517250000130545F5193E0E
:1013A00083A741973707100098C70547B8DB0D455D
:1013B000B250225492540259F249624A45618280E5
:1013C000637435013244AA898440E9F0FD5713055E
:1013D000F00FE38FF9FC914763F187029307B4FFA5
:1013E0002320F9002324FA0A99E79747000083A7EE
:1013F00027332320F900014565BF9747000083A7E5
:101400002732ED17A297E9BF09455DB7797126D25A
:1014100006D622D44AD04ECE52CC56CA5AC85EC640
:101420008347550303447513AA843E941374F40F41
:101430009307400263F687001304B4FD1374F40F9E
:1014400003A9841383A9C413A38B841222864A851B
:10145000CE8597B001E0E780A067058915E503CB4D
:10146000D412014A814A337B6403930B50025286A3
:101470004A85CE8597B001E0E780806505890DC576
:1014800063916A031374FA0F238B8412B2502254AF
:1014900092540259F249624AD24A424BB24B4561D8
:1014A0008280850A939A4A60050AE3127AFDE9BFB1
:1014B0008327850903560504797193D60701BD8EEC
:1014C000B3C60608358E93575640898B1357764816
:1014D0005D8F93573640918B5D8F93571640A18B4C
:1014E0005D8F93171600C18B5D8F9317360093F7AE
:1014F00007025D8F9317560093F707045D8F9317CC
:10150000760093F7F70F22D45D8F2A849357D60085
:101510001355B6001189898B93558600C98F1355D1
:10152000F6002582C98F218AD18F13961500418A32
:10153000D18F1396350013760602D18F139655007E
:1015400013760604D18F139675001376F60FD18F9C
:10155000A207C5455D8F3307B70226D24AD04ECECB
:10156000032984138329C4135AC806D652CC56CAF9
:1015700036973347070813565740098A93577748D9
:10158000D18F13563740118AD18F13561740218AB5
:10159000D18F13161700418AD18F13163700137697
:1015A0000602D18F1316570013760604D18F131637
:1015B00077001376F60FD18F1358B7001356D70064
:1015C00013784800098A13558700336606011358BB
:1015D000F700258333660601218B518F1316150002
:1015E000418A518F1316350013760602518F131658
:1015F000550013760604518F131675001376F60FF7
:10160000518F2207D98FB387B7025EC6B697B3C78B
:10161000070813D55740098913D77748498F13D541
:1016200037401189498F13D517402189498F139568
:1016300017004189498F1395370013750502498FAB
:101640001395570013750504498F1395770013758B
:10165000F50F598D13D8B70013D7D700137848006A
:10166000098B13D687003367070113D8F700A583CA
:1016700033670701A18BD98F13171600418BD98FC0
:101680001317360013770702D98F131756001377F5
:1016900007041E06D98F1376F60FD18FA207336782
:1016A000F5003307B702130650024A85CE853697F8
:1016B000B98EB3C4060833F6C402137BF60F97B095
:1016C00001E0E780E040058905E9834AD412014A38
:1016D000930B5002B38A9A02814493DA0A01268658
:1016E0004A85CE8597B001E0E780803E05890DC52B
:1016F00063914A0313FBF40F230B6413B25022547B
:1017000092540259F249624AD24A424BB24B456165
:101710008280050A137AFA0F8504E39274FDE9BF0B
:101720008327C50803568508797193D60701BD8EB6
:10173000B3C60608358E93575640898B13577648A3
:101740005D8F93573640918B5D8F93571640A18BD9
:101750005D8F93171600C18B5D8F9317360093F73B
:1017600007025D8F9317560093F707045D8F931759
:10177000760093F7F70F22D45D8F2A849357D60013
:101780001355B6001189898B93558600C98F13555F
:10179000F6002582C98F218AD18F13961500418AC0
:1017A000D18F1396350013760602D18F139655000C
:1017B00013760604D18F139675001376F60FD18F2A
:1017C000A207C5455D8F3307B70226D24AD04ECE59
:1017D0000329040A8329440A5AC806D652CC56CA99
:1017E00036973347070813565740098A9357774867
:1017F000D18F13563740118AD18F13561740218A43
:10180000D18F13161700418AD18F13163700137624
:101810000602D18F1316570013760604D18F1316C4
:1018200077001376F60FD18F1358B7001356D700F1
:1018300013784800098A1355870033660601135848
:10184000F700258333660601218B518F131615008F
:10185000418A518F1316350013760602518F1316E5
:10186000550013760604518F131675001376F60F84
:10187000518F2207D98FB387B7025EC6B697B3C719
:10188000070813D55740098913D77748498F13D5CF
:1018900037401189498F13D517402189498F1395F6
:1018A00017004189498F1395370013750502498F39
:1018B0001395570013750504498F13957700137519
:1018C000F50F598D13D8B70013D7D70013784800F8
:1018D000098B13D687003367070113D8F700A58358
:1018E00033670701A18BD98F13171600418BD98F4E
:1018F0001317360013770702D98F13175600137783
:1019000007041E06D98F1376F60FD18FA20733670F
:10191000F5003307B702130650024A85CE85369785
:10192000B98EB3C4060833F6C402137BF60F97B022
:1019300001E0E780E019058905E9834A1408014AB6
:10194000930B5002B38A9A02814493DA0A012686E5
:101950004A85CE8597B001E0E780801705890DC5DF
:1019600063914A0313FBF40F230F6407B250225410
:1019700092540259F249624AD24A424BB24B4561F3
:101980008280050A137AFA0F8504E39274FDE9BF99
:10199000797122D426D22E84AA84414697C501E0CB
:1019A0009385C57A0A8506D6972000E0E780201B3C
:1019B000414697C501E0938565790808972000E0C6
:1019C000E780E0193C3010088A85DC875C2026859A
:1019D0005C875C30DC86973001E0E780C0490347D4
:1019E000F1011C200145631EF7000347E1011C3093
:1019F00001456318F7000345D1013C201D8D1335C7
:101A00001500B2502254925445618280011122CCBB
:101A100026CA4AC84EC606CEAA841744000003242C
:101A2000E4F813092500854905C09C303830858BC2
:101A30006304F700405CCDBF1946930544004A8516
:101A4000EFF0CF90E31835FFF24022856244D24494
:101A50004249B24905618280411122C426C24AC06E
:101A600006C617440000032464F4930425000549C6
:101A700001E8B24022852244924402494101828019
:101A8000A6851305A4022937E30525FF405CCDB7E1
:101A9000011122CC26CA06CE2AC42EC61744000045
:101AA000032444F0854419E001450DA09C841830BE
:101AB000858B6304F7000044FDB719469305A10028
:101AC00013052400EFF08F88E31795FEF24062447F
:101AD000D244056182800000EFF00FC17300000066
:101AE00000000000938241880383020023800200EB
:101AF000630F0300F32510342EC097050000938573
:101B0000E5FD73901534EF00405B7300203086DCF8
:101B1000EF00A05AE6508280000041114AC01389AC
:101B200041960327090026C206C61C5F22C493847F
:101B3000019693D76748B5CF930700061CDF17447B
:101B40000000130464FD184C930700086317F700A6
:101B50009C409C4393F707041CCC1C4093F707045C
:101B600089CB83A7C188829748D81C4093F7F7FB9D
:101B70001CC01C4093F7070289CF1C4003A7419764
:101B8000B706080093F7F7FD1CC05C5414C786071E
:101B90007CD71C4893F7070489EF85475CC8370753
:101BA000020083A7419798C71307000C18C8185460
:101BB000F8D383270900985F1357474811CF985FE0
:101BC0001367070198DF83A7419723A2070685477C
:101BD00017470000232AF7F49C40D84313571748AF
:101BE00019C7D843759BD8C3D843799BD8C3B24093
:101BF000224492440249410182800537730020301B
:101C000097470000938747F13707040088DB698F07
:101C100001CF03A74197FD5634D79746000093861E
:101C200026A8D84E0507D8CE1377850019CF984738
:101C300083A641961367170098C71307000898CB2F
:101C4000D856719B13671700D8D61377150001CFAC
:101C5000D84383A6419613671700D8C3D856719B03
:101C600013671700D8D61377650019CF137745008F
:101C700059C398431367170098C383A64196D85653
:101C8000719B13671700D8D64167698F0DC39746BC
:101C9000000083C6A6CCC18A174700001307C7C43B
:101CA000A5C28346470793E60602230AD7063707ED
:101CB0000200698F01CF984B1377070819C30547B6
:101CC00098CB83A741973707020098C7B70708004A
:101CD0007D8D0DC117470000034757C8058B9747F7
:101CE0000000938767C01DCB03C757071367270002
:101CF000A38AE7068280D84713671700D8C7B5BF05
:101D0000834647070946BD8A6388C600834647075E
:101D10000D46BD8AE39DC6F8914641BF03C75707EC
:101D2000118B69DB03C7570713678700D1B783A6F9
:101D3000419717470000130727DE1C43858B91E767
:101D40005C43858B99E3FC52EDFB9747000023AF82
:101D500007DC8280938641962A8788421C5D93D750
:101D60005748D1E781C51C59BD839CA115C69C422B
:101D7000945BC60693D7660163D6060093E707C057
:101D8000B3C707088316060093975760B9C6BE9677
:101D90008947B3C6F60216A283A74197BC4B083306
:101DA00093D757488DCF29C59746000083A646D8BC
:101DB00093F606049307950009459DCABA979C239C
:101DC0000547194593F6F7066394E6020145939794
:101DD000476063DF0700394582801EA275BF2A97DE
:101DE00048331375F5077D153335A000828005450E
:101DF000828083A7C19699CB944BD04B9842518F48
:101E000098C294439C479842D98F9CC213864197AD
:101E10000548184283A64196974700009387C7CF8D
:101E20006312050503A806001368080823A006012D
:101E300083C62702B3C5D52054479385A50C1398B4
:101E40001649232607010F1000001842370602002A
:101E5000860510C71306000890CB6CD354C72384A3
:101E6000A196828088421375F5F788C283C627023F
:101E7000B3E5D52054479385E50E1395164948C719
:101E80000F100000184237060200860510C713061F
:101E9000000890CB6CD354C70945D1B7411122C477
:101EA000AA8706C626C22E8513844197B285DDE730
:101EB0001C40F8537DFF3707020098C79747000082
:101EC00023A007C69744000093840480DC5085C794
:101ED000B7E700E03707200023A0E728B7F700E0C6
:101EE000938707D0984B6D9B98CB984B13678703CC
:101EF00098CB73005010F53D83A741969843131774
:101F0000772998C3D857719BD8D79747000023AF3C
:101F100007C09747000023A307C01C40094798C388
:101F2000DC5099CB37F700E0832707D193E7870090
:101F30002328F7D0730050101440174700001307F0
:101F4000A7BD1C47858B91E75C47858B99E3FC52C5
:101F5000EDFBB24022449244410182800D47639ED2
:101F6000E7049747000023AD07BA9747000023AB6B
:101F700007BA9734000093842475DC5085C7B7E70F
:101F800000E03707200023A0E728B7F700E0938799
:101F900007D0984B6D9B98CB984B1367870398CBD2
:101FA00073005010B93583A74196984313177729CA
:101FB00098C3D857719BD8D7A5B70547E39EE7F6D6
:101FC0009736000093864670DC5285C7B7E700E07D
:101FD0003707200023A0E728B7F700E0938707D052
:101FE000984B6D9B98CB984B1367870398CB7300E6
:101FF00050101C40D04713171649D8C70F100000C7
:102000001C403707020098C71307000897450000D7
:1020100023ACE5B003A7419618431357774819C777
:102020001307E018F8D3D0C7DC52E5BD1307E01A58
:10203000D5BF83A7C19689CFD44303A88700984210
:102040003367070198C2D447DC4B9842D98F9CC2B2
:10205000054783A741969505631EE50298431367DC
:10206000070898C3984F137707C01367A71398CF33
:1020700013078007B8BB939735009387C7031747AB
:102080000000130767A91CD72384A19619C206066E
:1020900010D78280984309451377F7F798C3984F74
:1020A000137707C01367271398CF1307F007B8BB40
:1020B000939745009387C703D9B783A7419788476C
:1020C000D847798D11C588C783A7019791C38287A7
:1020D0008280896703A74197938707F47CD383A6FF
:1020E000419883A7060993D7A74991C783A70609F3
:1020F00093D7974999E37C53EDF782804111B7E775
:1021000000E022C480433707200006C6798C23A054
:10211000E7180F10000011C199E5B7E700E023A010
:102120008710014549A80D053345050813074003ED
:102130007199B34705086362A70203A541A183A66D
:10214000C1A0639FA600173700000327E75A71D785
:10215000C207DD8D05450297C9B703A501A1C5B723
:102160007A2131EF5A21636CF704B306F740214816
:10217000173600001306C6526375D802832805007F
:1021800003586600938687001D8FAA966117DAA20E
:1021900023A016012393060014C15EA1130788FF34
:1021A0007AA27A226EA12105B307F7407EA2B7E793
:1021B00000E023A08710B240224441018280084100
:1021C00049B7B7E700E08C433707200023A0E718A2
:1021D000F98D0F10000001E523A0B710828003A342
:1021E00041A183A8C1A09A87814663F8170903A873
:1021F00007006367F5086365A80813878700636EA7
:10220000E506F223216705076317E6001386F192BE
:102210001822050718A21735000013056548D223B8
:102220007A21239307003297334707087AA1638303
:10223000670203A301A1630FF30003D36600631BCE
:102240000300DE2223A0060121073E962106D2A22A
:102250007AA1B68798436302170383A601A1630E90
:10226000D700762399EAD62352231843A106B296C3
:10227000D6A398C37E21A1077EA1B7E700E0A9BF3E
:10228000BE86C2879DB7AA8703A741A103A6C1A0A6
:10229000B305B5406314E6003E8529A89306870080
:1022A0001843E3E9D7FEE3F7E7FE2E85E3E4D5FE26
:1022B000E3F2E5FE8280411126C206C622C44AC06E
:1022C0009734000083A4C4676383041003A4C40A82
:1022D000AA86054535C03C241307700A6390E708B9
:1022E00058301C34173900001309094303268900AC
:1022F000B387E7020357C900B387E7021307003229
:1023000093870719B3D7E70203A744093E97BA8416
:102310006364F7006364C700B304C74083A7C18840
:1023200084C28297B387A44063F5A4000327890081
:10233000BA9789EB1305F00FB24022449244024948
:102340004101828058309306204E3307D702E3F3D1
:10235000E7FE930780FA3CA40145F9BF1307800A02
:10236000E39AE7FC83A7C18882972A893545EF1055
:10237000006DAD4717370000232EF77A58301C3414
:102380001736000013064639B387E7025A2610466F
:10239000B387E7021307003293870719B3D7E70221
:1023A00003A744093E97BA866364F7006364C700D5
:1023B000B306C740E310D9F8179501E0130505608F
:1023C000EFE05FAF83A741970947F8D7A5B7054569
:1023D000A5B7397156D2973A0000938AEA7383A75A
:1023E0000A033707080026DA06DE22DC4AD84ED672
:1023F00052D45AD05ECE62CC66CA6AC86EC6F98F15
:102400009734000083A4C4536384071C83A9C40ABF
:1024100083C7990003A4C90092073E942820B147BE
:1024200005053305F5025E203E9533450508EFE0CE
:102430002FD1AA8C6305051A130DC5002324A5010D
:1024400034203146370B0300B386C6022313040041
:102450000149138A4197938B4196938D4198130BB1
:102460008B15054CEA9654C483C679009307D007B0
:1024700083250A00B386F602C1679CC5370833007E
:102480008606B4D183A60B0090421376F6CF90C295
:1024900090421376F6CF1366062090C203A50D0076
:1024A00010453366060110C503A6090023A865057B
:1024B0009305500290C672205444B2962324DD0046
:1024C00014300146CA96A301DD0003C504089736FF
:1024D000000023A50664B13E83260A00CC4613966D
:1024E0001549D0C60F10000083260A0037060200E7
:1024F00090C61306000823A8CA0003A60B001042CA
:1025000013567648631F860B1306E018F0D2CCC62C
:1025100017360000232C06601736000023200660C3
:1025200023A08601EFF0BF80EF10C04983A64A00C8
:10253000858AD9CAEA85268597A001E0E780204EE2
:102540000DE903465D0049C276204E20B29663DD58
:10255000B606B428AC4803258D00918E8906B69541
:10256000EFE02FCD23020D0003465D007620B296EA
:1025700076A003260A00310D3452FDFE34200509F1
:102580001379F90FE362D9EE9C246685A381FC00E0
:102590001C20A3820C002383DC002382FC006254F5
:1025A000F250D2544259B259225A925A025BF24B1B
:1025B000624CD24C424DB24D216117E300E06700FE
:1025C00003EC1306E01A99B7FD562302DD0055B758
:1025D00083A74197FC5781C785472382F188F25032
:1025E0006254D2544259B259225A925A025BF24B67
:1025F000624CD24C424DB24D21618280411122C4C5
:1026000006C626C24AC02E848DCD13F91500814717
:10261000414763020904131745003E97B14633074B
:10262000D70283A4C189B317F02833C90708BA9425
:102630009C40C840829723A0040023A20400334496
:102640008900B2402285224492440249410182809D
:10265000B356F448E9F28507E39CE7FECDB70111D4
:1026600026CA06CE22CC4AC84EC6AE84A1C593F770
:10267000150001444147B1CB93174500A29731475C
:10268000B387E7029389C18903A909003E9983278B
:10269000090081C703254900829731473307E402C7
:1026A00083A70900BA979C478DC733148028B34786
:1026B0000408BD8CF24062444249B2492685D244A6
:1026C00005618280B3D68448C5FA0504E31CE4FEA4
:1026D000CDB72320090023220900C1BFAA8703A583
:1026E000418911E182803A216315B7001821E30B7B
:1026F000F7FE4845FDB77971B7E700E022D4804383
:1027000052CC06D626D24AD04ECE56CA5AC85EC63B
:1027100062C43A8A37072000798C23A0E7180F108B
:10272000000005E123A087100945B25022549254BD
:102730000259F249624AD24A424BB24B224C45619D
:10274000828083A7C188B6892A89AE8A328B938B0F
:10275000C189829703A70B008144B146C147338CDE
:10276000D40233068701104235EEC165938505F02A
:102770004145EFF0BF9819ED9737000083A7C7F7E1
:1027800081C7814511458297B7E700E023A08710F4
:102790002D4561BF138741891C43A1E308C3230072
:1027A0000500B31790283EA183A70B002326050040
:1027B0002324650123224501E29723A0270123A2B8
:1027C000570123A447016384090023809900B7E7D8
:1027D00000E023A08710014589BF3E87DC47F5FF55
:1027E00048C775BF8504E39CF4F6B7E700E023A073
:1027F000871021451DBFB7E700E09843B7062000CA
:1028000023A0D718758F0F1000009736000083C6DD
:1028100036E96371D50283A681893325D520162137
:10282000D58D0EA19736000023A406E823A0E7105B
:102830000145828023A0E7100D4582800111B7E792
:1028400000E022CC80433707200006CE26CA4AC8C3
:10285000798C23A0E7180F100000BD4763E7A70499
:1028600031473307E50283A7C189BA979C4395CFC7
:102870003315A0282E89B345050801452EC6B93D5C
:10288000AA8409C9B2450145972000E0E780204E9F
:1028900023A42401B7E700E023A087100145F240FC
:1028A0006244D244424905618280B7E700E023A038
:1028B00087100945EDB79737000083C777FEAA86D2
:1028C000850703A50190014712216307D60005077C
:1028D0001905E36BF7FE014582802A8703A58190E5
:1028E00011E182801C45B227636BC7000358450085
:1028F000B306C8006355D7008146639406010841BA
:10290000C5B703D3A700938807016316E30091C1FD
:1029100092A13E8582808506C687B3C60608F1BFB0
:102920009736000083C6C6F783A741930147639497
:10293000E60001458280AE231386C7036394A50099
:102940003E85828005071377F70FB287CDB7411117
:1029500022C406C6973700002382070003A44194CF
:1029600005C06C390145B315B028B3C505089730CB
:1029700000E0E780A08A930710273305F502029450
:102980002244B2408145014541016FE08FD341119E
:1029900006C6383D19C73425631ED702B24041012F
:1029A0007DB73C2DE5DF3825E30AF7FE3CA58145E0
:1029B00017F5FFFF13058590EFE0AFD097370000C4
:1029C00083C787D689C783A741975147F8D3B240B9
:1029D000410182803C2D89C7E39AF6FC38A5C1BF2E
:1029E000D5FEEDBF41114AC0173900001309C912C5
:1029F0008327890022C426C206C697340000938428
:102A0000A4EE858BE0509DCB9737000023AA0710DA
:102A100083C74407C18B85CFEF00D07A83C74407B3
:102A200093F70702E5DF83C74407228593F7F70C86
:102A3000238AF40697F000E0E780C043EF00907827
:102A400022852244B24092440249410109B783C71A
:102A50005407858B91CBEF00F0768D47230EF4065B
:102A6000BC5822858297D9BF83C744071547BD8BC1
:102A70006395E7048347B40603453406014693058E
:102A800050025D8DEFF0EFDA014681450545EFF02C
:102A9000EFC08327C900858BD5D3228597370000E7
:102AA00023A2070897F000E0E780802441F9B240B4
:102AB0002244924402494101828083C74407194756
:102AC000BD8BE39DE7F68347B40603453406014614
:102AD000930550025D8DEFF0CFD501468145054548
:102AE000EFF0CFBB8327C900858BA9DB2285973701
:102AF000000023A9070297F000E0E780E0F87DB727
:102B0000411122C426C206C67C2578452A84BD8B85
:102B10001CA91CA31D4764456395E7340547B8A06D
:102B20008347F5058D466393D7185E2DCDE37C4929
:102B30001147B18B638DE70831476398E70003477E
:102B400015068347F5076304F7088547BCB01946A7
:102B50009305640313854400EFD0BFEDBC209907B3
:102B600093F7F70FBCA0034704061377070401CFC0
:102B7000B83013670704B8B07844BA975838B8B378
:102B8000BC208507BCA097370000238907DCBC2048
:102B900013F7F703050718B80347E4051A07D98F99
:102BA000BCA083475403858B91E7034744038947BF
:102BB0006317F70078441C2393E707041CA37C44A5
:102BC000183898B3B2402244924441018280A14710
:102BD000BCB08357C406973500009385E5D01386B3
:102BE0004197DCA08357C406034714067444A183AD
:102BF0001207BD8BD98FDCB2B4208547890693F6C6
:102C0000F60FB4A017370000034747D5631EF70639
:102C1000183C9387E6008E07231AF4069387C708AB
:102C2000B387E702794510420948238A0507C16541
:102C30000CC6938707FBB3C7070893877716B3C7FC
:102C4000A70233C70708B387A70286073CD2BC3068
:102C500093E70701BCB07C44B6978346240693E60D
:102C60000604B4B3B4207C44B697D8A3B4207C4403
:102C700021837D8BB697834634069606558FD8B34D
:102C8000BC208D07BCA021B71042F94738520583FC
:102C90003357F7023C5268528583FD8BAA977CD24A
:102CA0008D47238AF5063347070855B71946639BB6
:102CB000C7125E2DC1E393056503B8B013854400C8
:102CC000EFD03FD7BC201385A4009907BCA0BC302F
:102CD00093E72700BCB083475403898B95CF0C58EA
:102CE000BC299DCB1946D105EFD0BFD478441C2315
:102CF00093E707F81CA3BC20990793F7F70FBCA034
:102D00000347040613770704E30F07E6B43078445B
:102D100093E60604B4B095B58347D40391C77844CD
:102D20001C2393E707F81CA319469305E403EFD08F
:102D30005FD0D1B7A147BCB08357C506DCA083578D
:102D4000C506034615066C45A1831206BD8BD18FBF
:102D5000DCB1B02017350000130505B99385419704
:102D600009061376F60FB0A09737000083C707BF98
:102D70006398E704183C9307E6008E07231AF406CD
:102D80009387C708B387E70279488946230AD5069F
:102D90009441C1658CC6938707FBB3C70708938727
:102DA0007716B3C7070333C70708B3870703860738
:102DB000BCD2BC3093E70701BCB07C44B29771BD74
:102DC0008C41B851F94705833357F702BC5103A82A
:102DD00045068583FD8BC297FCD1230AD506334770
:102DE0000708C1BFA147BCB08357C506DCA0835705
:102DF000C506034615066C45A1831206BD8BD18F0F
:102E0000DCB1B02017350000130505AE09061376B6
:102E1000F60FB0A09737000083C747B483A541974A
:102E2000E391E7FA183C9307E6008E07231AF406AD
:102E30009387C708B387E702F9460948230A0507BD
:102E4000416588C5938707FBB3C707089387771643
:102E5000B3C7D70233C70708B387D7028607BCD1E9
:102E600089BF0547639EE706B1471CB983475503F1
:102E7000898BA1CB0C59BC29A9C71946D10513854B
:102E80008400EFD01FBB78441C2393E707F81CA3F2
:102E900068441946930564030905EFD09FB911678B
:102EA0009737000083A747B1F98FE38C07CE7C24C6
:102EB000B98BE39807CE78441C2393E707021CA341
:102EC000CDB18347D40389C79C2093E707F89CA022
:102ED000684419469305E4032105EFD09FB54DBF23
:102EE000522D0C559307660093F7F7031CB9138511
:102EF0008400E5B7011126CA973400009384C4C149
:102F00009C4422CC06CE173400001304E49D858B2C
:102F10006850C9C32AC69737000023A307C0EF0033
:102F2000702A03474407894732456307F700034780
:102F300044078D47631CF70283A64197BC52035791
:102F4000450785831307C71263F2E702BC528583E6
:102F5000B1C3914703474407E31EF7FE6244F240C2
:102F6000D244056117F300E06700E318382D3C3DBB
:102F700009CF34256309D7026388F60238A5624475
:102F8000F240D24405616FE02F9B99CF382509EFBD
:102F90003CA5F5B72AC6EF00F02262443245F24064
:102FA000D24405616DB2EDF7DC4CEDF70347440701
:102FB00089476307F700034744078D47E31CF7FC85
:102FC000914703474407E31EF7FE49BF630E0530F0
:102FD000011122CC06CE26CA4AC84EC652C456C2D9
:102FE000582585472A846316F72C97370000938766
:102FF000A7B2D44F1547638AE600D44F0D476386C6
:10300000E600D84FAD476312F7026C386244F240D5
:10301000D2444249B249224A924A01450561B31558
:10302000B028B3C505086FF00FFD16311307006413
:10303000973400009384448B3347D7029C20E8D018
:10304000850793F7F70F9CA063CAE700972000E07D
:10305000E780605C973700002388078878249D47C5
:10306000631FF70483479406B1C38356040763ECD8
:10307000F6020C24930730041CAC1305300493F6BD
:10308000F60F0146975001E0E780E0EE22856244AA
:10309000F240D2444249B249224A924A056117039A
:1030A00001E06700C3B385062318D40693053002F8
:1030B0000545972000E0E780E04E2301A40605497E
:1030C000238A2407183C8D47631CF70E972000E0E5
:1030D000E78020C10D89630F051463162517930738
:1030E00060023CA4930750023CAC93077002782422
:1030F0003CBC85476302F70889659385F570130525
:103100001027172A0000130A2A61834974019720A7
:1031100000E0E780A04B0E30835ACA002A891306CC
:103120000064B3855503814613850532B335B50078
:1031300097A001E0E780209CAA84B3355903374665
:103140000F001306062481463305590397A001E0BA
:10315000E780609A83270A00AA948297B3079500B4
:1031600003278A00BE8563E4A70063E4E700B38514
:10317000E7404E85EFF08FEC83475403898BE9CB12
:103180008347C403F1C70C58E1C5BC25F1C3894787
:10319000230AF4021946B10513056403EFD07F89B1
:1031A0000347C407894763E9E70A22856244F2407E
:1031B000D2444249B249224A924A05616FD0DFF7B0
:1031C00089467C346315D70213F7170019CB898B16
:1031D0001307500291EB9307700238A43CAC81476F
:1031E00039B713076002C5BF93076002FDB799CFD7
:1031F00093F617001307500291E6898B13B7170057
:103200001307670238A4230D0400D1BF3C2C130719
:1032100040026368F700930750023CAC3C2C3CA48E
:103220007DBF850793F7F70F3CAC13077002E3648B
:10323000F7FEEDB713077002930750023CAC38A4B9
:10324000930760026DB51307500293077002FDB734
:103250008547230AF402A9B70327C40A83A6C188B5
:103260003C27ADC31C375833972400009384C44ACD
:103270009044B387E702DA24B387E70213070032EA
:1032800093870719B3D7E702032744093E973A8982
:103290006364F7006364C7003309C7408296B307CD
:1032A000A9406374A9009844BA9703576407E3FEE2
:1032B000E7EEF2406244D2444249B249224A924A7D
:1032C0000561828083248409829663E9A400835780
:1032D00064073385A440E37AF5ECE1BF972700004B
:1032E00083A70744BE94E5B7828001114EC6972993
:1032F00000009389695F22CC03A4C9094AC8172931
:103300000000130969410357C90026CA83546408A1
:103310008327040906CEB384E40237470F009306DF
:10332000F7231307072452C456C25AC0B694B3D425
:10333000E40263EE9702138AC188B384974083271F
:103340000A00829763E9A4023385A4406349050219
:1033500083570404A30F040085072310F404834754
:103360000414639E07102285EFE04F8A21AA0327E9
:103370008900BA97C9B783278900BE94F1B783271C
:103380000A008297032784086366E50A198D7E3C4C
:103390000357C9008E07B387E702130700329387EC
:1033A0000719B3D7E70263ECA708B74A0F00138BDE
:1033B000FA23938A0A248357040485072310F4040C
:1033C0008347041481E72285EFE04F84228597002C
:1033D00001E0E780200A631305240326040903277C
:1033E000C408832689003297BA876364C700636480
:1033F000D700B307D740783C0356C9002328F40808
:10340000050778BC035764083307C7025A97335738
:103410005703B384E74063F5E700998EB384F60061
:1034200083270A00829763E6A4043385A440E3441B
:1034300005F839BF83278900998F3E9589BFA1453B
:103440002285970001E0E78000FBA305A4029727EF
:10345000000083A7672A6383071C6244F240D244BA
:103460004249B249224A924A024B894515450561B3
:10347000828783278900A6973385A7404DBF228581
:10348000EFE00F832285970001E0E780A0FE63173D
:1034900005180355C90083576408B7460F00138603
:1034A000F623B387A7029386062403270409230B78
:1034B0000402832A8900B297B3D7D702636AF7164A
:1034C000B307F7408326C4082324F408014BB387CD
:1034D000E600BE8463E4D70063E45701B384574138
:1034E0001E3023289408A1CB835604045A30374653
:1034F0000F0056B03387E640B387E7023A30130631
:10350000062481468145BA97B3C707083385A702C9
:103510003EB0979001E0E780005E11CD2695B33470
:103520009500A695AA876314BB0063645501B30791
:1035300055412328F40883270A008297AA84832709
:103540000A008297E30D95FE83270A0083248408EE
:10355000829763E4A40E3385A440630B050E035ADF
:10356000C90083576408B7440F001387F423B38757
:10357000470393840424BA97B3D797021727000010
:1035800003471716BA9763E5A70CB3359502835A1C
:1035900024025286814633059502979001E0E78028
:1035A00080553389AA0033854A0337460F00130636
:1035B000062481468145979001E0E780C05315C1FC
:1035C000B337950252868146B385B4023385A4028F
:1035D000BE95979001E0E7800052B38AAA4023117C
:1035E00054033545A92923AE890838348547631A21
:1035F000F704930700FD7CA4814503A5C195EFD096
:103600005F8C9547172700002326F75237071000D5
:1036100083A7419798C7060923A82707F240624469
:10362000D2444249B249224A924A024B0561828001
:10363000B3065701B387F64071B583278900BE945E
:1036400019BF930710FC7CA4814503A5419545BF94
:103650009727000023A80732834709018DC303A5DC
:103660008194EFD0FFA5624483274900F240D24401
:103670004249B249224A924A024B056182878345F8
:1036800094026244F240D2444249B249224A924AE8
:10369000024B01450561B315B028B3C505086FF0AD
:1036A0008F95011122CC26CA4EC606CE4AC852C4F6
:1036B00056C25AC038358547832405092A84AE8905
:1036C0006314F70C83570508835AC503172A0000B3
:1036D000130A8A04035BCA0063FC5719142963990F
:1036E000E61803278511631507180327450A631198
:1036F000071874351D47639DE6162A3DB38AFA40C4
:103700009307204E330555030329440937460F001C
:103710001306062481463305F5029727000083C768
:1037200027FC33592503B335AB023E9933490908C9
:10373000231324093305AB02979001E0E780A03BF7
:10374000B307950033B5A7002E9503278A00BE84E2
:1037500019E163E4E700B384E740B307690337473F
:103760000F009306F7231307072423A09900B697A9
:10377000B3D7E702D69763E4F4009D8C31A003270A
:103780008A00B307F740BE941389C18883270900D4
:1037900023A09900829763E2A4103385A440635D5F
:1037A000050A83270900172B0000130BEBF68297FD
:1037B00003A709006369E50E198D7E3C0357CB0012
:1037C0008E07B387E7021307003293870719B3D731
:1037D000E70263EFA70C374A0F00930AFA23130A94
:1037E0000A248357040485072310F4048347041430
:1037F00081E72285EFD09FC12285970001E0E78015
:1038000060C761E5832604098327C40803278B006A
:10381000B697BE8463E4D70063E4E700B384E7406F
:103820007C3C8356CB002328940885077CBC8357B7
:103830006408B387D702D697B3D7470363E6F40A81
:103840009D8C8327090023A09900829763E1A40A35
:103850003385A440E34705F89727000083C757E85E
:1038600063E6A7069727000023AE87100145B9A895
:103870008357640837470F009306F723B38767031E
:1038800013070724B697B3D7E702E3F8F4EE03274C
:103890008A002697B304F740C5BD9727000083A789
:1038A00027E8BE94DDBD83278B00998F3E9531B705
:1038B000A1452285970001E0E780E0B3A305A402BB
:1038C0009727000083A747E381EF7D55F2406244CC
:1038D000D2444249B249224A924A024B056182804F
:1038E000894515458297D5B71D8FBA9499BF83270F
:1038F0008B00BE94B1BF83A7419698433706CEFF95
:103900007D161377F7CF1367071098C303A7419865
:103910001447370803001375F51FF18E14C783A6EB
:10392000419723A8060523A40700904B93F5F507BC
:10393000130888151366F60390CB904313660608A8
:1039400090C3F04F137606E0498EF0CF23AC070406
:1039500023A007065057759A50D79043137606F860
:103960004D8E90C31306401FF0D217260000232F60
:10397000061A172600002323061A054690C2904314
:10398000B70533001376F6CF90C390431376F6CF86
:103990001366062090C310474D8E10C723A8060556
:1039A000D8531317F728D8D32547F05201C6B04F84
:1039B000E37DC7FED8531317F748D8D3A853133560
:1039C00045008280138741971443BC4ABD9BBCCA03
:1039D00001000100010001001C43B44B93F6F68F77
:1039E000B4CB944393E6860094C301000100010028
:1039F000010083A641969C4293F7F7CF93E7071007
:103A00009CC203A641981C46B706CEFFFD16F58F53
:103A10001CC61C4337070300B8CB83A7C19699CBBC
:103A2000D44390479842518F98C2944BDC4B9842B4
:103A3000D98F9CC29727000023AE070E828083A7F0
:103A400041979C438D8BE9C74111B7E700E04AC01D
:103A500003A9070026C23707200006C622C4AA848D
:103A60003379E90023A0E7180F10000017240000A5
:103A70001304840A584C8D47631AF70097270000F7
:103A800083A747E3014681454545829719476391DE
:103A9000E4048347140289CB8347040263969700AA
:103AA00097270000A38A0708584CA1476315F70021
:103AB000930780101EB0238201882937B240224428
:103AC000B7E700E023A02711924402494101828018
:103AD0009D47639BF40083471402F9D70347040210
:103AE0008D47E313F7FC6DBF544C6389E600584CD7
:103AF0006306F700584CA147E31FF7FA8347140207
:103B0000DDFB5C4C2300F4028547A300F40265B79B
:043B100082800000AF
:103B1400971100209381418F17C101201301414E59
:103B24001305400097C5FF1F9385854D17C6FF1FDA
:103B34001306C66C63FAC5008322050023A0550052
:103B440011059105E3EAC5FE17C5FF1F130545607E
:103B540002852A8309CA83830500230073007D1626
:103B6400050385056DFA82802A8311C62300B300FC
:103B74007D16050365FE8280058905C5411117A5DB
:103B840001001305255E06C6EF90A14381453D451E
:103B9400D922B2409306803E7946894505454101C4
:103BA400A1A482804111054506C6EF00305F01459E
:103BB400EF00501E1305503497C0FF1FE780A07517
:103BC400B7170040116723ACE70AC1450545EF006C
:103BD400305B85452165EF0090528D451165EF00FE
:103BE4001052EF00B07B17B501001305E5A1EF906B
:103BF400413D69234D2517050000130525F82528A7
:103C0400EF60E149EF00300A97C0FF1FE780E063EF
:103C14002382018623A00186B71700409386070CF0
:103C240098429387070D1317674998C2984313174F
:103C3400672998C3828023A0A1861306400689457C
:103C440003C5C1866F104023B717004083A7470CF4
:103C54003706400093864186F18F982289EB854789
:103C6400630DF7009CA283A7018691E7828011C7A8
:103C7400238201868280054582878280797152CCB5
:103C840013BA150022D426D24AD04ECE56CA5AC8E8
:103C94005EC662C406D6AE89B28A368B1379F50045
:103CA4000A0A172400201304E49B8544938B51864D
:103CB400138C6186631309022254B2509254025940
:103CC400F249624AD24A424BB24B224C03C5C186E6
:103CD4000146854545616F10201AB377990095CB4D
:103CE40083470C0003C70B0023126401E58FD98FAF
:103CF40023015401A3003401230044012380FB0069
:103D0400EF10C0031C2008C43349990093E727002F
:103D14001CA0860493F4F40F310469BF9377150053
:103D2400138761869DC3B717004085469387870C28
:103D34006399D500944393F6F6FB94C31C23C98F6F
:103D440009A8944393E6060494C31C23B3F7A7403D
:103D5400F5F51CA38280011106CE22CC26CA4AC8DE
:103D64004EC652C49147638BF506AA842E8463E140
:103D7400B702854763F1B7028947638BF504F240C4
:103D84006244D2444249B249224A014505618280D3
:103D9400A147E396F5FEBD88972900209389898C75
:103DA4000549214AE9DCB3F7240191CFA2856316C2
:103DB400440183C5090093C515002380B9004A85D1
:103DC400B13FB3C4240106091379F90FB109D9BF6E
:103DD4009306803E15468545012855B79306803ED7
:103DE400154693052003CDBFAA8711C909CA81CA04
:103DF4009307300663E3C70051B58545A9BF8145E4
:103E04003E85EDBFB71700409387070C98434111D7
:103E140006C61367070498C381453D452D3F856653
:103E2400938606FA7946A9450545893DB240972708
:103E340000202381078641018280011122CC06CE15
:103E440026CA4AC84EC652C456C2172400201304B8
:103E54006481834704036394071081493D49854481
:103E6400B3F7240181EB860493F4F40F31044E86F6
:103E7400B289FDB71C20898BDDC7EF00306C10447C
:103E84002A8A636CC50A1C20834A240013F717008E
:103E94002DC7F99B1CA081452685493518209377A9
:103EA400470095CF93074006B38A574193FAFA0F18
:103EB4001C20898BB1CB5E2013074006B3875703C0
:103EC400B3D7E70233C607083305460108C4638D38
:103ED400090431CA3356360B33460608B1A01C30E8
:103EE4009306F00FE380D7FCFD1793F7F70F1CB090
:103EF400D5FB1347270018A075B793E717001CA03C
:103F040085452685213D6DB7138A518683450A0070
:103F14002685E58DB335B0003D3D83470A00B3F7F0
:103F240097402300FA004E86638D240133C924018F
:103F3400860493F4F40F310425BF098E3346060832
:103F440079B711CE6244F240D2444249B249224A7E
:103F5400924A03C5C186854505616F00F071F24040
:103F64006244D2444249B249224A924A056182805B
:103F7400411193962500AA852D4506C697C0FF1FBB
:103F8400E780A068B240014541018280011122CC42
:103F940006CE3714004026CA4AC84EC652C48344CB
:103FA4007405034AB40583498405034994056923C8
:103FB4008347A40593F4F40F137AFA0F93E71700D9
:103FC400230DF40493F9F90F1379F90FB71700408F
:103FD40003C7A705058B6DFF03D5C705A38D47054B
:103FE400238C3705A38C2705A38B9704F2406244E6
:103FF400D2444249B249224A05618280411122C415
:1040040006C62E849397556063DF070097D0FF1F81
:10401400E780E09819C1EF00F03C1315F468B24052
:1040240022444101828093F7150089C7393513452D
:104034001400F5B793F7250081CF39311306000A30
:10404400894503C5C186EF00306313452400C1BF11
:104054008967ED8F99CFEF10216037F602001306C0
:1040640006E0896503C5C186EF0010611315D468A5
:104074007DB711656D8D45D517A501001305850F15
:10408400EF80317413060064916503C5C186EF00A7
:10409400B05E1315E46861B72D71232A9110FD7485
:1040A400E98C232C811023282111232631112A8401
:1040B400AE893289930600100A86A6852D45232EE3
:1040C400111097C0FF1FE780405413154401498124
:1040D40013962900CA850A9597D0FF1FE78020957B
:1040E400A68585660146254597C0FF1FE780E051F8
:1040F4000A86A68593060010294597C0FF1FE7800E
:10410400C0508320C1110324811183244111032948
:1041140001118329C11015618280011183A7818750
:1041240006CE22CC26CABD8B21476399E700AD3762
:10413400F2406244D244014505618280B7F707002A
:10414400DC532A84B284BD8B939625006397E700E1
:104154008567FD17F58F91C301A0A285014625450A
:1041640036C697C0FF1FE780404AB2462686A2851E
:10417400294597C0FF1FE78040495DBF1D7149462F
:1041840097A50100938545FF17A501001305C547B1
:1041940086CEA2CC97D0FF1FE780009B01E917A52C
:1041A40001001305A5FEEF80D16101A0B7F700E07F
:1041B40023A40700795798CB3D4798C30564B7E714
:1041C40000E023A087180F10000017E7FF1F130754
:1041D400279123A4E186130700F8A38AE740130676
:1041E400C0038145480897D0FF1FE780C08A97071E
:1041F4000020938727C73ECA896793870780FC847A
:104204009D673ECEB7070105938707103ED0ED4763
:104214002312F10285472303F102970700009387D5
:1042240067D5BEC497070000938767EFBEC69307A0
:1042340054D12314F102B7F50700971700009387B0
:10424400278E3EDA814697070000938767D4700073
:10425400E10519453EDE97C0FF1FE780003B194684
:104264006C001305E102EFF0DF8ED24781C7BC84F6
:1042740063F3870001A04808EF106016AA8501C9FE
:1042840017A501001305C5F1EF80D13F01A0F64049
:10429400664425618280411117050000130545D647
:1042A40006C622C4EF1000111384C18608A0212879
:1042B400913EB93A08202244B2401306003289657F
:1042C40041016F00703B397106DE13078008F33734
:1042D400078093F787083EC20F100000B71700400D
:1042E400930570052380B704130680FA2380C7045E
:1042F4000F10000083C6F70293F6D60FA387D702E8
:10430400238007049246F3A606800F10000073373B
:104314000780137787083AC40F1000002380B7047E
:104324002380C7040F10000003C7F7021367570068
:10433400A387E70223800704A247F3A707800F108F
:104344000000814701478146054685451305A07E47
:10435400512C680013064002814597C0FF1FE78077
:104364008073B707C0A83ECAB78732003ECC97C750
:10437400FF1F938787F63EC6680097C7FF1F938782
:1043840047F73EC8EF10202EF250216182800111C0
:1043940022CC06CE26CA2E849397556063D2070298
:1043A40003C5418797C0FF1FE780605F19C1EF0015
:1043B40070031315F468F2406244D24405618280AC
:1043C40093F7150091CB170500201305E583EF3013
:1043D400916613451400C5B713F5850069DD7D3674
:1043E4007122AA84AA8517A50100130565DDEF8053
:1043F40071299307E10078009306A100300093052A
:10440400610048004D260358E10038853C86348419
:1044140030832C8217A50100130545DBEF8091261C
:1044240097F6FF1F9386C66E93D78440DCB23C8513
:10443400E4A293844187FCB23C86882061469CA612
:104444003C8785459CB6EF40806488201306006451
:10445400A145EF00702213458400B1BF8D47630A64
:10446400F50263E9A7008547630AF5008947630DF0
:10447400F500828099476303F502828017A5010045
:10448400130505D66F80F13317A50100130545D632
:10449400D5BF17A501001305A5D6EDB717A50100D3
:1044A4001305C5D7C5B7011117050000130565EE3F
:1044B40006CE22CCEF00107013844187854708A0F4
:1044C4005C871306E1008D47854513055030DC8772
:1044D400EF5091141306F100854513058030EF5019
:1044E400B11317F6FF1F1306A665C14513057030F7
:1044F400EF50911217F6FF1F13060663D5451305F7
:104504006030EF5071119305000A0D45EF20301B08
:104514009305000A1145EF20901A0820854597E07D
:10452400FF1FE780002D08206244F2401306006458
:10453400A14505616F005014B717004003C7770504
:104544001377E70FA38BE704130700F8A38DE704A1
:104554003D47238CE70413075003A38CE70403C7E8
:10456400A7051377D70F238DE7048280B7F70700D9
:10457400DC4B13D7070111E36547B3C707081D8D4B
:10458400930740063305F5029307B0113345F5024E
:104594003A958280371700408347E704120541119A
:1045A400BD8BC98F93F7F70F93068008F3B6068087
:1045B40093F6860836C60F10000093067005230094
:1045C400D704930680FA2300D7040F1000002307B2
:1045D400F70423000704B247F3A707800F10000075
:1045E4004101828041112A830148930E407E130FBA
:1045F4000019930F4006B348030863EF1E01130329
:104604000019337365028542FD4363F6B2088D4F8A
:10461400214F930E4006A1A07D13336EE30393084C
:10462400E016630E0E00336EF3039308D01663088E
:104634000E009378330093B818009388D816C29864
:1046440033C808084DBF93F81500138EF5FF637C3B
:10465400BF02F908C29833C80808B3450E08E394AA
:10466400F5FF8545630B0300B378D5038145638665
:1046740008009375350093B51500F105C29533C84C
:1046840005088945E9BFB3881341C29833C80808AF
:10469400B3450E089DBF7D16329879463307C7028D
:1046A40013D61700BE073348080832976146B3F69D
:1046B400C60213068070B386C6023697A166F58FCC
:1046C4004207D98FB716004003C7F60213770708CD
:1046D400D883908303C7F60213770708E316E6FE30
:1046E4009883B71600404DCF1307800873370780AF
:1046F400137787083AC40F10000037170040930659
:1047040070052300D704930680FA2300D7040F1002
:104714000000232A07038346170393E60608A30829
:10472400D702230007042247732707800F100000D5
:104734001166371700407D16545B4C5FAD8EF18EC9
:10474400E5FE93068008F3B6068093F6860836C61F
:104754000F100000930670052300D704930680FA17
:104764002300D7040F1000005CDB8347170393E793
:104774000704A308F70223000704B247F3A707803E
:104784000F1000004101828003C7F6021377070867
:10479400D883908303C7F60213770708E316E6FE6F
:1047A40098837DD391B7B718004003A8C80383DE6C
:1047B400A80383D8880341114A0893D8F800B3AEFC
:1047C4001E2122C626C44AC24EC01358280193088B
:1047D400407E930F0019130ED01693024006130F58
:1047E400C01633F3F803630B030833F3580263135F
:1047F400030863470F07231015018542814893037B
:10480400001913044006F14409499949F54F794FB9
:10481400239015016395580A03530500337E7302F0
:1048240063150E0663C10407850823901501050866
:10483400231006010566130606E1B3D5CE02324401
:10484400A2441249824933F6CE028EA29306C003D3
:104854003356D60212A333F7DE029AA341018280B3
:104864001303D01633036840850833480308B3C8DC
:10487400080885BF13F33800E31D03F6E35D0EF764
:104884001303E016C5B705431DA0337E83026317E7
:104894000E006D43E35A03F9014311A81373330067
:1048A400133E1300710EE341C8F91333130071036F
:1048B400330368402390250189483348030813FED5
:1048C40018001383180063FE1901630E0E00E35DE4
:1048D4000FF50518B3480308334808082390150159
:1048E400F9BF63060E00E3D10FF50918E5B7E35DE0
:1048F4000FF3051833480808B348030811BF91475C
:1049040063ECB70497A7010093870792B3C5F5201A
:1049140098413E97B71700409387470B028794430B
:1049240037170040B3F6A64094C39306070B9C4286
:10493400B3F7A74019A8944337170040B3F6A6402D
:1049440094C39306070B9C42C98F9CC29307070A22
:1049540098433377A74098C3828094433717004025
:10496400C98ED9B798433377A74098C3B717004087
:104974009387070A9843498FF9BF9843498FF5B73E
:1049840019C5371700401E2FCD8F1EAF8280B71771
:1049940000409A2FB375B7408EAF8280797122D4CC
:1049A4003714004026D24AD003592402063006D6D2
:1049B4004ECE52CC56CA33490908B3C4040839ED63
:1049C4001379F9F793F4F49F33490908B3C404083D
:1049D40093078008F3B7078093F787083EC40F1046
:1049E4000000930770052300F404930780FA230062
:1049F400F4040F1000002311240306B02300040460
:104A0400A247F3A707800F100000B250225492541B
:104A14000259F249624AD24A45618280B7F50700D9
:104A240081463000B105194597C0FF1FE780E0BDFE
:104A340022478967F98FF1FB1369090893E404405D
:104A440093098008F3B7098093F787083EC00F10D5
:104A54000000930A700523005405130A80FA23000A
:104A640044050F1000002311240306B0230004049E
:104A74008247F3A707800F100000294597C0FF1F46
:104A8400E78080ABF3B9098093F989084EC20F100F
:104A9400000023005405230044050F1000001E30BD
:104AA40093E707201EB023000404924799BFB71769
:104AB40000409A279306000C21651377070C630EB8
:104AC400D7049A27137707100DC79A279E277D8B43
:104AD40009EB93F7072095CF3755E80113050580B7
:104AE400828037C59812FD8B130505E03345F50226
:104AF40082809A279E2713770720FD8B11C737558D
:104B0400E80113050580DDB73725F40013050540DA
:104B1400F1BF3725F400130505408280B7F700E0A4
:104B2400884782803285814737370040A14663C376
:104B3400A70082803037E30FD6FE3386F5001022BB
:104B4400850710A7EDB793868180AA878842171737
:104B5400002013076718AA9763E9E7000A87130779
:104B640007FC6364F7009CC282807D5582804111FA
:104B740022C406C62A84253F2947B307E502B2406A
:104B84008D83B3D7870222449507B3D7E70237371B
:104B94000040B3C707085EA74101828071654111D7
:104BA4001305052006C6E137B7370040130770F830
:104BB400B8A30D47B8B31307000498B30547F8A783
:104BC400B24041018280184183A785FF6319B70071
:104BD4001CC1FD5723AC05FE238FF5FE8280232CD8
:104BE400F6FEC5BF411122C437E400E026C20440EA
:104BF4003707200006C6F98C2320E4180F100000A4
:104C040009E9232094101545B240224492444101FD
:104C140082800347E5FF9307F00F6306F700232024
:104C240094101145D5B797D0FF1FE780405901452F
:104C340023209410D1BF41114AC037E900E022C4B7
:104C440003240900B707200006C626C27D8C232052
:104C5400F9180F10000089E523208910154515A0C7
:104C6400AA849717002083C737A32E8563F5F40021
:104C7400894763EE9700BD37B7E700E023A08710AC
:104C84000D45B2402244924402494101828083A7E7
:104C940085FF99E703C7E5FF9307F00F6308F70063
:104CA4009137B7E700E023A087104DBF238F95FE0F
:104CB4001385C18797C0FF1FE780A0C6A16526851D
:104CC40097E0FF1FE780E0B201452320891055BF1C
:104CD40023AE018682804111B7E700E026C28443F7
:104CE4003707200006C622C4F98C23A0E7180F104A
:104CF40000009717002083A7A79E1384C18091C743
:104D040082971C40AA971CC021A083A7C188EDFBF1
:104D14000840B74703009387D73F3305F502B7A789
:104D24002600938737ECB2403E9508C02244B7E78B
:104D340000E023A09710924441018280411122C4D3
:104D440006C683A78188171400201304E49489C736
:104D540082975C48AA975CC84848B2402244410103
:104D64008280B7E700E09843B706200023A0D71855
:104D7400758F0F1000009716002083C6F691637E8E
:104D8400D50083A681893325D5201621B3F5B640F5
:104D94000EA123A0E7100145828023A0E7100D4552
:104DA40082807971B7E700E026D284433707200078
:104DB40006D622D44AD04ECE52CCF98C23A0E71882
:104DC4000F100000930705FF93F7F70F7D47636FFC
:104DD400F70831473307E50283A7C189BA979C4393
:104DE400D1C7135445003D893315A028AE89B34576
:104DF400050822852EC697E0FF1FE780E08D2A89EB
:104E040029C9B2452285171A0020130A6A90913FD6
:104E140083A7C18882978357CA002A84814633872F
:104E2400370313060064B3B7370313050732B335EA
:104E3400E500BE95EF70714BB307850083268A00A9
:104E44003E8763E4A70063E4D7003387D740232475
:104E5400E900B7E700E023A097100145B2502254BF
:104E640092540259F249624A45618280B7E700E0F0
:104E740023A097100945DDB7797122D437E400E007
:104E84004AD003290400B707200006D626D24ECE06
:104E940052CC56CA5AC85EC63379F9002320F41896
:104EA4000F1000009707002083C7177F6376F50073
:104EB40083ABC18863970B00B7E700E023A02711F9
:104EC40099A0971A0020938AAA8403AB8A00B74753
:104ED40036FE938707C83E9B83D7CA002E8AAA84CE
:104EE400B385C702B2898146B3B7C70213850532B9
:104EF400B335B50013060064BE95EF70113F6370BF
:104F0400AB02232024110145B25022549254025979
:104F1400F249624AD24A424BB24B45618280829B3B
:104F240083D7CA002A8413060064B38537038146F5
:104F3400B3B7370313850532B335B500BE95EF70AB
:104F4400D13AB307850003A78A003E8463E4A7002F
:104F540063E4E7003384E740D285268597D0FF1FBA
:104F6400E780807701C900C5B7E700E023A02711D7
:104F7400054559BF93E504F04145B3C5050897D0ED
:104F8400FF1FE780601711E99707002083A7477682
:104F940085D7A6851145829705B7138741891C4398
:104FA40089EF08C385472326050000C52311450161
:104FB40004A11CB12322050045BF3E87DC47F5FF51
:104FC40048C7CDB77971B7E700E026D284433707E5
:104FD400200006D622D44AD04ECE52CC56CA5AC845
:104FE4005EC662C466C2F98C23A0E7180F100000E5
:104FF40025C12A892E8AB28AB6894144B14C138BC1
:10500400C189130C0003B30B940383270B00DE97B1
:105014009C43B9EF135544409375F40056861375B9
:10502400F50FB315B028B3C50508B93531C18327C9
:105034000B00DE9723A0270123A247016384090004
:1050440023808900B7E700E023A09710014521A041
:1050540023A097100945B250225492540259F249A0
:10506400624AD24A424BB24B224C924C45618280F6
:105074000504E31A84F9B7E700E023A0971021455B
:10508400D9BF011122CC37E400E026CA04404AC843
:105094004EC652C406CEB70720002A892E8AB2898A
:1050A400FD8C2320F4180F100000F933D2854A85B3
:1050B40097D0FF1FE780406201ED23209410214523
:1050C400F2406244D2444249B249224A0561828094
:1050D4009707002083D78764B38537032A8913068B
:1050E40000648146B3B7370313850532B335B50081
:1050F400BE95EF70911F2322A9002320941001452F
:10510400C1B7011126CAB7E400E04AC803A90400E4
:1051140022CC4EC6B707200006CE52C4AA892E84DC
:105124003379F90023A0F4180F10000097D0FF1F63
:10513400E780805A170A0020130A0A561DE1A28547
:105144004E85053183470A006380370523A0241167
:105154001945F2406244D2444249B249224A0561A7
:10516400828023110500A2854E85E53E83470A000F
:105174006386370123A024110145E1BF13876188A9
:105184001E23C18F1EA3FDB7938761889A23598C70
:1051940082A36DBF01114AC837E900E022CC032481
:1051A4000900B707200006CE26CA4EC67D8C2320F0
:1051B400F9180F1000009307F00263E5A704B14447
:1051C400B30495029389C18983A70900A6979C43D8
:1051D40095CB9375F5001181B315B028B3C50508B7
:1051E4000D3783A709000145A69723A0070023A232
:1051F400070023208910F2406244D2444249B24954
:1052040005618280B7E700E023A087100945E5B770
:105214004111B7E700E026C2844306C622C437071B
:105224002000F98C23A0E7180F10000097D0FF1F6F
:10523400E780804A19E90145B2402244B7E700E01B
:1052440023A09710924441018280004583A7C1881E
:105254008297970700209387A74B6367A402984718
:10526400B74636FE938606C83305A4403697E374E2
:10527400E5FC13070064B335E502D2278146330504
:10528400E502EF7091064DBF98473A94C9BF4111AA
:1052940006C623A4A1880295B2409707002023A93B
:1052A400A7400145410182804111514681451705BE
:1052B40000201305A54406C622C426C223AA0188D9
:1052C40023A4018823A601882382018823A00188BE
:1052D40097B0FF1FE780207C1306800281451705E5
:1052E40000201305653B97B0FF1FE780C07AEF40AD
:1052F400D163970700209387A73CE82BFC3B170456
:1053040000201304643985453E958D473305F50225
:10531400930700049384C18939051375F50F337518
:10532400F50A994728A03305F502130505243345EA
:10533400050897D0FF1FE78020DC88C03DC53020DA
:10534400994781453306F6021306062497B0FF1FDA
:10535400E78060749C4038209384018993870724F4
:105364009CC0B347F72023ACF188EFF07F96E12E81
:105374001C30944017D6FF1F1306262E33C7D720A0
:1053840010C3138717001377F70F17D6FF1F1306E1
:10539400A6263347D72010C313873700890718B0D0
:1053A40093F7F70FB3C7D72090C3B2402244924477
:1053B40041018280970600209386062E2A87BC220C
:1053C4008832637BF5001306150083A7018990B228
:1053D400B347F52098C382801305F00F82801C41E7
:1053E400F5C7370700F07D8FB706002089476310A3
:1053F400D70E5A21411122C406C62A8479C31946FC
:105404009305F00F690597B0FF1FE780007C0547FF
:105414008D476308E50A1C4491C75858994755C3FA
:10542400185C45C31306C003814517050020130506
:10543400252997B0FF1FE78000661306C003A285E5
:10544400170500201305C52797B0FF1FE780205ECE
:10545400970700209387C726DA2701E71307001070
:10546400DAA7F82719E30547F8A79A2B19E36D473C
:105474009AABF83719E31547F8B7B82B19E3054782
:10548400B8ABB83B19E3F837B8BBD83B11C7937630
:1054940037000983F4ABF8BBD82B19E35547D8ABD5
:1054A400182C01E71307C00398AF9C5791C7829744
:1054B400970700202396A71EFD572384F1A0ED3300
:1054C4008147B24022443E854101828089473E851E
:1054D400828079714ECE970900209389692383A72E
:1054E400090006D622D426D24AD052CC8297130978
:1054F4000064B335250303D6C9008146170A00208A
:10550400130A8A1932C633052503EF70015E83241A
:105514008A012A8401456386840232463305944015
:1055240063EF840003A589008146B335A9023305DE
:10553400A902EF70815BB307954033858700232C64
:105544008A00B250225492540259F249624A456187
:1055540082809707002083D7871C51471D45637CB1
:10556400F702794719456378F702130720031545B5
:105574006373F7021307B0041145637EF700130742
:1055840040060D456379F700130760090945637404
:10559400F70013B5B70F8280411122C426C22E84AE
:1055A400AA8406C6058CEFF00FF3B327A402B24019
:1055B4002244338597001375F50F9244410182808C
:1055C400411122C426C22E84AA8406C6058CEFF09B
:1055D4008FF0B327A402B2402244338597003345A9
:1055E4000508924441018280411122C426C22E84BE
:1055F400AA8406C6058CEFF00FEE3335A402B24040
:105604002244269592444101828041114AC01709DF
:1056140000201309E90A8327890206C622C426C288
:105624008DCF829797040020938404079E242A84B4
:105634008DC733F7A70A33470708B3D7A70AB3C7F9
:105644000708B307F74051476359F7008327C90296
:1056540091C38297EF00410082A4B2402244924455
:10566400024941018280011122CC23A0018A17043E
:1056740000201304E4045C5406CEAA8581C72AC61C
:105684008297B245C1C59C410545ADCF9C45BDCB74
:10569400DE25ADCBFE25BDC79C2981CB7C2878387F
:1056A400BA976341F506DC41B1CF130640021705F2
:1056B40000201305E50597B0FF1FE78040379707E3
:1056C40000209387E704984323A6E188183C19EF48
:1056D400CA279307805737460F003305F502130690
:1056E400062481468145EF70414008BC183C9D4723
:1056F40063E4E700A1471CBC170500001305A5DD02
:1057040079360145F24062440561828097070020A2
:1057140023A207FA97070020938787FF17C7FF1F65
:105724001307C79698C337873200FD56130727A17E
:1057340094C7D8C797070020238407FEB7C7004043
:1057440023A4D726ADBF011122CC170400201304D3
:1057540024F7084406CE26CA4AC801E90545F240A2
:105764006244D2444249056182805C58E5DB185C9E
:1057740075D77000854582971844B247E300F7FE59
:105784004A249305E004170900201309E9F097D08F
:10579400FF1FE78060962320A90269D15224930554
:1057A400F00F814497B0FF1FE780E02E7C2403268E
:1057B400090263C1F402328597D0FF1FE78020A05D
:1057C40001459707002023A907EE9707002023A788
:1057D40007EE71B74E241844B38795028981850476
:1057E4003385E7001C5C08C28297C9B7011122CC3B
:1057F400170400201304C4EC1C4426CA4EC656C227
:1058040006CE4AC852C45AC0AA84AE89B28A6388F2
:10581400071A585839CB1307F01F6366A710170AE5
:105824000020130A6AE703290A02631209044A24BE
:105834009565938515E097D0FF1FE780E08B2320C3
:10584400AA022A861DC14E245C5808448981829785
:105854001C4403290A022322FA028947639EF402A4
:10586400C1479305090C6381F9042945BDA00327A9
:105874004A02E384E7FE4A249565938525E097D0A0
:10588400FF1FE78060872A896DD14E242A865C58E1
:10589400084489818297D1B78D47639AF404C1473C
:1058A4009305490DE393F9FCB8219307A00563120E
:1058B400F7069E21639F97044E869105568597B0FF
:1058C400FF1FE780C01683270A02638727014A85E2
:1058D40097D0FF1FE780A08E0145F2406244D24476
:1058E4004249B249224A924A024B05618280914759
:1058F4006397F4009305890EE39999F675B79307B6
:105904000010E394F4F6A147E3E137F79305090F98
:1059140061BF83270A02E38A27F54A8597D0FF1FD0
:10592400E780E08999B71D67637FE506130705E003
:1059340099463347D7025624170B0020130BCBD5B7
:105944003307D702330AF70083274B0263964701D4
:1059540003290B02631109024A249305E00497C04A
:10596400FF1FE78060792A8909D14E245C582A8672
:1059740089815285829791451307A00593F5C50F38
:10598400B307B900B4236399E6029623639496029D
:1059940091054E86CA95568597B0FF1FE78020096A
:1059A40083270B021DB7A166F916E3E0A6EC3307C3
:1059B400E54051B7AC33D9B783270B02A9BF97058C
:1059C400002083A565CFE38205EA91479306A005ED
:1059D40093F7C70F3387F5003023E318D6E8122373
:1059E400631B960091074E86BE95568597B0FF1FA0
:1059F400E780E003D5B53C33E1BF970700209387E8
:105A040027CC984721C7985F31C385466310D504D6
:105A1400411122C417040020130404C8105006C600
:105A240015C2CE27485089810297085097C0FF1F9E
:105A3400E780E0789707002023A007C89707002095
:105A440023AE07C6B2402244410182808280011104
:105A54004AC8170900201309A9C64EC6832989001C
:105A640022CC26CA52C406CE56C2AA842E84328AB6
:105A7400638D091A8327890399EB2945F24062440F
:105A8400D2444249B249224A924A0561828083271C
:105A94004903E5D79307F01F63E0A70C970900209B
:105AA400938989BF83A7090295CF0325890083A71A
:105AB40049026395A7048947639FF404C147E31E21
:105AC400F4FA03A509021305050C9307A0053CA1EC
