:040000006F00D00DB0
:10000400000000000000000090000020AA0300206F
:10001400A9BDF9F5900000200000000000000000D8
:10002400900000209000002000000000000000006C
:10003400900000200000000090000020000000005C
:1000440090000020900000209000002090000020EC
:10005400900000209000002090000020000000008C
:1000640090000020900000209000002090000020CC
:1000740090000020900000209000002090000020BC
:1000840090000020900000209000002090000020AC
:1000940001A073270080218B9717000093870784A2
:1000A40019CB732700809716000023A9E682984392
:1000B4005D9B731007800100010037170040930611
:1000C40070052300D704930680FA2300D7040100A7
:1000D40001008346B70493F6F60DA305D704230065
:1000E4000704F32600809843218B558F73100780F3
:1000F400170700002324077E01000100137705027F
:10010400630B071273270080218B19CB73270080A0
:100114009706000023A4E67C98435D9B7310078038
:100124000100010037170040930670052300D7042F
:10013400930680FA2300D70401000100B7061400D7
:100144007D89558D08C701000100010001002300CD
:100154000704F32600809843218B558F7310078082
:1001640017070000232C0776010001007327008085
:10017400218B19CB732700809706000023A0E67615
:1001840098435D9B731007800100010037170040FE
:10019400930670052300D704930680FA2300D7043E
:1001A4000100010001000100B726004013061005FC
:1001B400A383C68023000704F32600809843218B81
:1001C400558F73100780170700002329077001005B
:1001D400010073270080218B19CB732700809706B9
:1001E400000023ADE66E98435D9B73100780010009
:1001F400010037170040930670052300D7049306C7
:1002040080FA2300D704010001008346B70493E673
:100214000608A305D70423000704732700809C4322
:10022400A18BD98F739007809707000023A8076AD2
:100234000100010082801377050445CB73270080F9
:10024400218B19CB732700809706000023A8E6684A
:1002540098435D9B7310078001000100371700402D
:10026400930670052300D704930680FA2300D7046D
:1002740001000100B7061400938606047D89558D9C
:1002840008C7010001000100010023000704F32650
:1002940000809843218B558F731007801707000047
:1002A400232E07620100010073270080218B19CBE4
:1002B400732700809706000023A2E66298435D9BA3
:1002C4007310078001000100371700409306700582
:1002D4002300D704930680FA2300D7040100010009
:1002E400B726004013062005E1B573270080218B53
:1002F40019CB732700809706000023A1E65E98437C
:100304005D9B7310078001000100371700409306BE
:1003140070052300D704930680FA2300D704010054
:100324000100144793E6060C14C769B541118146D0
:1003340001468145114506C61D2CF3270080A18B7B
:10034400970600009386865999CBF32700801707F8
:1003540000002325F7589C42DD9B73900780010021
:100364000100B7170040130770052380E704130743
:1003740080FA2380E7040100010003C767041367C0
:1003840017002383E70423800704732700809C421B
:10039400A18BD98F739007809707000023A007547F
:1003A40001000100B240410182808146014681453D
:1003B4001145752AF3270080A18B17070000130746
:1003C400E75199CBF32700809706000023A8F65045
:1003D4001C43DD9B7390078001000100B7170040A8
:1003E400930670052380D704930680FA2380D704EC
:1003F40001000100FD562396D70223800704F3264B
:1004040000801C43A18BD58F739007809707000051
:1004140023A6074C01000100F3270080A18B99CB90
:10042400F32700809706000023AAF64A1C43DD9BAD
:100434007390078001000100B71700409306700510
:100444002380D704930680FA2380D7040100010097
:1004540083C6670493E616002383D7042380070426
:10046400F32600801C43A18BD58F739007809707D8
:10047400000023A507460100010001A0BD47330584
:10048400F50201007D1575FD8280411122C426C24A
:1004940006C6AA84014463179400B24022449244DD
:1004A4004101828005041305803E4204C13F41801E
:1004B400DDB72303048015472303E48001002302EE
:1004C400A480828083076480E3CE07FE2303048034
:1004D400828083076480E3CE07FE034544808280E4
:1004E40083076480E3CE07FE2302A4808280411147
:1004F40026C44AC24EC006C61377F50BAD47AA8977
:100504002E8995446306F70019456537653F8D4488
:100514004E854537FD59FD1463983401B240A24419
:100524001249824941018280135509011375F50F5F
:10053400453F2209CDB7011126CC06CEB7040800E9
:1005440051371545BD37713769372AC6A53F32453E
:100554009377150089EB136515001375F50FF240B9
:10056400E24405618280FD14E9FC0145CDBF397187
:1005740026DC4ADA4ED852D656D45AD25ED006DE9B
:1005840062CE66CCB7E700E07D5783AA070022C697
:1005940003AA470023A0E71823A2E718B7170040CF
:1005A400130770052380E704130780FA2380E70408
:1005B40083C74704930B75FFB684E20793FBFB0FD5
:1005C4008546AA892E8B328937240040E18701575A
:1005D40063FA76016308D5008946130700026313A2
:1005E400D5000157D98F93F7F70FB71C004023822A
:1005F400FC0411472303E4801305F00F5D3D094C0F
:10060400D135636D7C11B7050700DA95378707008C
:10061400795563F2E504B3879500636EF702370BEF
:100624000800A94733EB65016399F90689E481441D
:10063400513D26850DA0DA850945553D050903453B
:10064400F9FFFD14050B693D81C49377FB0FFDF79A
:10065400DD3569FD7D55B71700401307700523800C
:10066400E704130780FA2380E70403C74704418B98
:100674002382E704F250B7E700E023A0571123A236
:100684004711E25432445259C259325AA25A125BA7
:10069400825B724CE24C21618280A5476395F90626
:1006A40085691309F00FB3069900B3742B01B6944E
:1006B4001349F9FFB3749900856B33796901416B70
:1006C4009387F9FFB3F7270199E363FC340193D9C6
:1006D4004900C147E3E637FF99BF0569C1697D1940
:1006E400D9B71305800D638869011305000263847B
:1006F400790113051008CA85DD3B353D21DD4E998E
:10070400B3843441D9B7DA852D45D533CA94E3008F
:1007140099F205097D3BA30FA9FED5BF9387F9FF85
:1007240093F7F70F6361FC0C83C71C0413073008AD
:10073400631FF70437070800636BEB04B3079B00E0
:10074400B706100063F5D704334BEB008947639376
:10075400F9068980D549E38C04ECDA850945413BE7
:1007640011090327C9FF91472320E480030764800C
:10077400E34E07FE23033481FD17EDFBFD14110B3B
:1007840081C49377FB0FE9FF7D3371F5E1B5B717AA
:10079400004003C75704B70708001377070219E39B
:1007A400B78707007955E378FBEA33079B00E3FF3B
:1007B400E7F855B58547E382F9F2DA852D45053B1F
:1007C4009389F4FFE38504E6293393F7390091EB29
:1007D400832604800327090093074900E39AE6E48B
:1007E4003E89CE84F1BFB5476396F9001305900B9B
:1007F400C93135BDB1471305B00AE38BF9FE9947FA
:100804006391F904B7050800B365BB002D45C531F4
:1008140081448D4BA1497539639674018327048003
:100824002320F9008504E39834FF832704801317F9
:100834002B01635507002312F900D5BB2322F900CD
:10084400FDB39D476399F90281451305B004453111
:10085400BD442320090023220900FD599D3993F743
:100864007400CA9703C70700FD14398D2380A700BD
:10087400E39634FF6DBBA1476392F9046D3981445B
:10088400630D0B008D479304C0036308FB009304BE
:10089400000563048B01930440041375C507E30842
:1008A40095D81945393139390545213126850D3910
:1008B40009453D314931E31C05D669BB914763992C
:1008C400F90013056006F536F53E130590090DB7DA
:0808D400E38F09D4F154A9BB24
:1008DC00970100209381C17F176100201301C1F1A2
:1008EC001305400097F5FF1F93850571170600202F
:1008FC00130606FE63FAC5008322050023A05500EB
:10090C0011059105E3EAC5FE170500001305C54264
:10091C00970500209385C5FB17060020130646FBA0
:10092C0063FAC5008322050023A05500110591052B
:10093C00E3EAC5FE17050020130585F9970500208D
:10094C00938545F96377B500232005001105E36D08
:10095C00B5FEFD42739002BC8D42739042809302AF
:10096C00800873A0023097F2FF1F9382E26893E233
:10097C003200739052309702000093820201739000
:10098C001234730020304111054506C622C426C21C
:10099C004AC0DD221305800497F0FF1FE780E06E4C
:1009AC001304A00F91208144A9281309A00F8504DA
:1009BC00B3F7840291E39520252809ED05459700AE
:1009CC000020E78000ACE5B713052003970000205A
:1009DC00E78020AB31286DF9630524011304A00FC7
:1009EC00F1BF13044006D9BF854537054000D5A09B
:1009FC00B717004003A5470C59811345150005890D
:100A0C008280371700408327870A8D451305001015
:100A1C0093E707102324F70A11A837170040832700
:100A2C00870A93C707102324F70A8280914763EE45
:100A3C00B702170700001307A72D8A05BA959C412A
:100A4C00BA978287B717004003A7470B1345F5FFEA
:100A5C00698F23AAE70A03A7070B698F23A8E70A64
:100A6C0003A7070A798D23A0A70A8280B717004035
:100A7C0083A6470B1347F5FFF98E23AAD70A83A643
:100A8C00070B558D23A8A70A83A6070A758F23A0E9
:100A9C00E70A8280B717004003A7470B498F23AAA8
:100AAC00E70A03A7070B1345F5FF45BFB71700402F
:100ABC0083A6470B1347F5FF758F23AAE70A03A7F5
:100ACC00070A598D4DB7B717004003A7470B498F3D
:100ADC00EDB7914763EEB7021707000013078724A1
:100AEC008A05BA959C41BA978287B717004003A72D
:100AFC00470D1345F5FF698F23AAE70C03A7070DD4
:100B0C00698F23A8E70C03A7070C798D23A0A70CEA
:100B1C008280B717004083A6470D1347F5FFF98E67
:100B2C0023AAD70C83A6070D558D23A8A70C83A643
:100B3C00070C758F23A0E70C8280B717004003A722
:100B4C00470D498F23AAE70C03A7070D1345F5FFA3
:100B5C0045BFB717004083A6470D1347F5FF758FA8
:100B6C0023AAE70C03A7070C598D4DB7B717004004
:100B7C0003A7470D498FEDB70111B717004022CCE1
:100B8C0026CA83D4270203D4070206CEC204420429
:100B9C004AC8C180418051E193F4F4F71374F49F77
:100BAC00C2044204C1804180F3270080A18B170747
:100BBC0000201307E7D199CBF3270080970600207C
:100BCC0023A8F6D01C43DD9B739007800100010025
:100BDC00B7170040930670052380D704930680FA5C
:100BEC002380D704010001002391970223908702F0
:100BFC0023800704F32600801C43A18BD58F7390B0
:100C0C0007809707002023A507CC01000100F240C4
:100C1C006244D244424905618280B7F5070081469F
:100C2C003000B105194597000020E780C093A2471A
:100C3C0013972701E34D07FC93E404081364044065
:100C4C00F3270080A18B17090020130969C881CFF5
:100C5C00F327008017070020232CF7C683270900F1
:100C6C00DD9B7390078001000100B717004013074C
:100C7C0070052380E704130780FA2380E704010042
:100C8C000100239197022390870223800704732786
:100C9C00008083270900A18BD98F73900780970759
:100CAC00002023A707C201000100294597F0FF1F70
:100CBC00E780407CF3270080A18B81CFF327008055
:100CCC00170700202326F7C083270900DD9B7390AC
:100CDC00078001000100B71700401307700523803F
:100CEC00E704130780FA2380E7040100010003D70F
:100CFC000702136707202390E7022380070473275A
:100D0C00008083270900A18BD98FD5BD38FDFFFF4B
:100D1C0060FDFFFF88FDFFFFA0FDFFFFBAFDFFFF99
:100D2C00CAFDFFFFF2FDFFFF1AFEFFFF32FEFFFFC1
:040D3C004CFEFFFF6B
:00000001FF
