:040000006F10402914
:1000040000000000000000006F0080086F0020481E
:1000140000000000000000000000000000000000DC
:1000240000000000000000000000000000000000CC
:100034006F004006000000006F00E00500000000B3
:100044006F0080056F0060056F0040056F0020059C
:100054006F0000056F00E0046F00C00400000000A2
:100064006F0060046F0040046F0020046F00000400
:100074006F0060056F00C003000000006F006003A4
:100084006F0040036F0020036F0000036F00E00265
:1000940001A001A001A001A001A001A001A001A054
:1000A40001A001A001A001A001A001A001A001A044
:1000B40001A001A001A001A001A001A0411106C658
:1000C400EF001008F5BFB71700401307000323889B
:1000D400E702854723AEF184730020304111814645
:1000E40001468145114506C6F921B727004011474D
:1000F4002383E780B7F700E003A707D16D9B23A80C
:10010400E7D003A707D15D9B23A8E7D07300501065
:1001140001000100B2404101828041118146014643
:100124008145114506C64129B7270040114723835D
:10013400E780B717004003C7E70283C6E70483D705
:10014400870311661377F70F93E6360063E5C7005C
:10015400719B13671700B717004093057005238040
:10016400B704130680FA2380C70423820702238777
:10017400E7022387D70403C7B70413670702A385DD
:10018400E7042380070437F700E0832607D193E6CA
:1001940046002328D7D0832607D1DD9A2328D7D039
:1001A40073005010010001002380B7042380C704AA
:1001B40003C7B7041377F70DA385E7042380070467
:1001C400B24041018280411122C4814681452A8482
:1001D4000146114506C6C526B727004011472383AB
:1001E400E780B717004003C7E70283C5E70483D756
:1001F400870391661377F70F93E5350063E5D7001E
:10020400719B13671700B71700401306700523800E
:10021400C704930680FA2380D70423820702238726
:10022400E7022387B7042380070437F700E0832518
:1002340007D193E545002328B7D02380C704238042
:10024400D70483C5F70093E50504A387B70083C5E6
:10025400B70493E50502A385B704E57591054D8CB4
:100264004204418023908702832507D1DD99232806
:10027400B7D073005010010001002380C70423800D
:10028400D70403C7B704130560041377F70DA385D8
:10029400E704238007042244B240410125A401114C
:1002A40026CA81460146AA848145114506CE22CC40
:1002B4004AC84EC60926B727004011472383E78062
:1002C400B716004083C7E60203C7E60483D6860355
:1002D400116693F7F70F1367370063E5C600F19BC8
:1002E40093E7170037140040930970052300340581
:1002F400130980FA23002405230204022307F402CD
:100304002307E4042300040413055002B920B7F7BB
:1003140000E003A707D11367470023A8E7D0230011
:100324003405230024050347F40013670704A307D7
:10033400E4002567D98C2310940203A707D15D9BA1
:1003440023A8E7D07300501001000100F24062447A
:10035400D2444249B24905618280B71700409306EE
:1003640070052380D704130780FA2380E70403C6AB
:10037400B7041376F60DA385C70423800704137608
:1003840005022DC603C6A700118A0DE22380D704F7
:100394002380E70403C7A700136747002385E7000A
:1003A4009307004B01000100FD17EDFFB717004054
:1003B400930670052380D704130780FA2380E7048B
:1003C4007D892394A700010001000100010023801E
:1003D40007042380D7042380E704930610053727F6
:1003E4000040A303D780238007048280137605048A
:1003F4006DDE03C6A700418A0DE22380D704238063
:10040400E70403C7A700136707012385E7009307E1
:10041400007D01000100FD17EDFFB71700409306B2
:1004240070052380D704130780FA7D892380E704AD
:10043400136505042394A7000100010001000100D5
:10044400238007042380D7042380E7049306300520
:100454003727004079B7411181460146814511454E
:1004640006C6912AB7170040130770052380E704D6
:10047400130780FA2380E70403C767041367170090
:100484002383E70423800704B2404101828081462C
:100494000146814511450522B71700401307700531
:1004A4002380E704130780FA2380E7047D5723960B
:1004B400E70203C76704136717002383E704238055
:1004C400070401A0BD473305F50201007D1575FD44
:1004D4008280411122C426C206C6AA84014463173D
:1004E4009400B240224492444101828005041305E1
:1004F400803E4204C13F4180DDB723030480154799
:100504002303E48001002302A480828083076480A3
:10051400E3CE07FE23030480828083076480E3CE56
:1005240007FE03454480828083076480E3CE07FE90
:100534002302A4808280411126C44AC24EC006C64A
:100544001377F50BAD47AA892E8995446306F70006
:1005540019456537653F8D444E854537FD59FD1472
:1005640063983401B240A244124982494101828015
:10057400135509011375F50F453F2209CDB7011134
:1005840026CC06CEB704080051371545BD37713760
:1005940069372AC6A53F32459377150089EB136561
:1005A40015001375F50FF240E24405618280FD14D5
:1005B400E9FC0145CDBF397126DC4ADA4ED852D662
:1005C40056D45AD25ED006DE62CE66CCB7E700E0DF
:1005D4007D5783AA070022C603AA470023A0E71871
:1005E40023A2E718B7170040130770052380E70418
:1005F400130780FA2380E70483C74704930B75FF2E
:10060400B684E20793FBFB0F8546AA892E8B3289B9
:1006140037240040E187015763FA76016308D50067
:100624008946130700026313D5000157D98F93F746
:10063400F70FB71C00402382FC0411472303E48016
:100644001305F00F5D3D094CD13563697C11B70783
:1006540007003E9B378707007955637EEB02B3079B
:100664009B00636AF702A9476399F90689E4814408
:10067400713D26850DA0DA850945753D05090345BB
:10068400F9FFFD14050B4D3581C49377FB0FFDF77E
:10069400FD3569FD7D55B7170040130770052380AC
:1006A400E704130780FA2380E70403C74704418B58
:1006B4002382E704F250B7E700E023A0571123A2F6
:1006C4004711E25432445259C259325AA25A125B67
:1006D400825B724CE24C21618280A5476395F906E6
:1006E40085691309F00FB3069900B3742B01B6940E
:1006F4001349F9FFB3749900856B33796901416B30
:100704009387F9FFB3F7270199E363FC340193D985
:100714004900C147E3E637FF99BF0569C1697D19FF
:10072400D9B71305800D638869011305000263843A
:10073400790113051008CA85FD3B913521DD4E99D9
:10074400B3843441D9B7DA852D45F533CA94E3002F
:1007540099F20509D933A30FA9FED5BF9387F9FFF1
:1007640093F7F70F636CFC0803C75C04B707080032
:100774001377070219E3B78707007955E37DFBF088
:1007840033079B00E3E9E7F089476390F904898024
:10079400D549E38E04ECDA850945713B1109032739
:1007A400C9FF91472320E48003076480E34E07FEDA
:1007B40023033481FD17EDFBFD14110B81C49377E2
:1007C400FB0FE9FF6D3B71F5F1B58547E387F9F45C
:1007D400DA852D458D339389F4FFE38A04E8353BAC
:1007E40093F7390091EB83260480032709009307CC
:1007F4004900E39FE6E63E89CE84F1BFB5476396A0
:10080400F9001305900BD5399DB5B1471305B00A0E
:10081400E38BF9FE9947639EF902DA852D45213B66
:1008240081448D4BA149D539639674018327048093
:100834002320F9008504E39834FF832704801317E9
:100844002B01635507002312F90015B52322F90083
:1008540039BD9D476399F90281451305B004E13917
:10086400BD442320090023220900FD597D3193F75B
:100874007400CA9703C70700FD14398D2380A700AD
:10088400E39634FFEDB3A1476392F904CD39814473
:10089400630D0B008D479304C0036308FB009304AE
:1008A400000563048B01930440041375C507E3003A
:1008B40095DC194599319939054581312685AD3144
:1008C40009459D316D39E31405DAE9B3914763991C
:1008D400F90013056006153115391305900925B77C
:1008E400E38709D8F15469B309CDB717004013075A
:1008F40070052380E704130780FA2380E704239616
:10090400A702828019C1814799E982803387F50063
:10091400834607003307F50085072300D700E397D4
:10092400C7FEE5B719C1FD5781E98280910503A788
:10093400C5FF1105232EE5FE7D16E319F6FEF5B776
:10094400797122D417240000130444591C4006D69C
:1009540026D24AD04ECE91C782979727000023AF64
:1009640007565C4089CB03D5C186BD3F5C40829766
:1009740003D5E186953F1C4063990718972700002B
:1009840083C7D766858B95C797270000A380076622
:10099400172700000347B765914763FCE700BD29AB
:1009A4009727000083C7B764F9178A07A2979C4367
:1009B40082979727000083C72768918B89C797A0E0
:1009C40000E0E780C0151C4491C382979387818619
:1009D4009843172600000346364E3E8997240000AC
:1009E4009384844D9727000083C7074D939617007F
:1009F400BA9683D60600638006109727000083C743
:100A0400A74B63F2C70886073E9783550700231058
:100A1400070003D5C1862EC6239A0186F135938734
:100A240001889C4317250000034505491317250039
:100A3400BA979C43B2458297AA8903D5E1866D355E
:100A44009727000083C74747139717008327090098
:100A540003D541871345F5FFBA9703D707003375CC
:100A64003501598D2390A70083C70400850793F7A8
:100A7400F70F172700002301F74417270000034747
:100A8400B74363E6E70097270000238707421C402B
:100A9400ADEF9387818798433E8425CB9727000049
:100AA40083C7375591CB9727000083C7575489E7ED
:100AB40097A000E0E78060B71C4082972A8431C584
:100AC4009C48AA97172700002320F7409387C187E3
:100AD4009C4385CF03D5C186013D228597E0FFDF86
:100AE400E780C05D2254B25092540259F24903D5B2
:100AF400E1864561D5BB850793F7F70F972600007C
:100B0400238CF63AE3E0C7EECDBDB25022549254A2
:100B14000259F249456182809167B7C600409387C4
:100B2400373023A6F6200F10000097270000938784
:100B3400A738884F938701959C4331671307373053
:100B4400F053B7071000FD17918F99833A0523A638
:100B5400E6205D8D82804111B7170040985F3AC648
:100B6400945F3247E39CE6FE3245410182804111A5
:100B740006C6D5379726000083C68631858AB1C656
:100B8400930730333307F502B337F5023983CA07C5
:100B9400D98F1727000013072732584B01456303E9
:100BA400F7023385E740636BF70037653D0889C674
:100BB40037856F0813050590198D3E95172700009A
:100BC4002326F730B24041018280E5473307F5021E
:100BD400B337F5022583DE0765BF5D7122DE13841A
:100BE40001943AD218403ED04ACA1C5F86C696C4C5
:100BF40099839AC29EC026DC2ADA2ED832D636D4FD
:100C040042CE46CC72C876C67AC47EC2858B13891E
:100C1400C193C1C31C5F972400009384E43C93F701
:100C2400F7F91CDF9727000083C7073C93F70704F5
:100C34008DC3938741889C4382979727000023ADF7
:100C4400A73A83C7040093F7F70B17270000230D77
:100C5400F738854717270000A30AF73883C74400ED
:100C640093F7070481EF938701959C43D844B8D345
:100C7400930700FC17270000230AF73683876400D4
:100C840063D90700832709009C431727000023002A
:100C9400F73618401C5F8583858BC9CBF5571CDF5D
:100CA4000100010001000100010001000100010038
:100CB4000100010001000100010001000100010028
:100CC4000100010001000100010001000100010018
:100CD4000100010001000100010001000100010008
:100CE40001000100010001000100010001000100F8
:100CF40001000100010001000100010001000100E8
:100D040001000100010001000100010001000100D7
:100D140001000100010001000100010001000100C7
:100D2400938701959C4313075004B8CB18401C5F6C
:100D34009183858B89CFBD571CDF938701959C4395
:100D440023A807048547172700002301F72A8327D0
:100D54000900D8430583058B19C7D843759BD8C3AD
:100D6400D843799BD8C37254B640A64216438643EF
:100D7400E2545255C2553256A256125782577248FF
:100D8400E2485249424EB24E224F924F6161730083
:100D94002030938701959443172700001307C72435
:100DA400BC5289CF83472700858B89EB8347370063
:100DB400858BFDD797270000238A0722828093879B
:100DC400C1949C4399CB944BD04B9842518F98C279
:100DD40094439C479842D98F9CC2938701959C4326
:100DE40037C700401306C003A8CB930620039725FA
:100DF40000009385651F83278720C18393F7F7033A
:100E04006369F60083278720C18393F7F70363E6BA
:100E1400F60083C74500858BF9DF828093870195AF
:100E24009443172700001307271CBC5289CB834720
:100E34000700858B91CB972700002389071A9727F2
:100E44000000A385071A828083471700858BF1DF92
:100E5400DDB79387C1949C4399CB944BD04B984274
:100E6400518F98C294439C479842D98F9CC29387D0
:100E74000195944337C70040C145A8CA65468327F6
:100E84008720C18393F7F70363FBF500832787204B
:100E9400C18393F7F7036364F600BC52EDF38280D9
:100EA400138701941843AA87185F1583058B25EFD0
:100EB4000345150015051377C51F19C6B386E7004A
:100EC40083C626002300D60095C59726000083C656
:100ED400061293F606040945A1CAB386E70083C641
:100EE4003600054693F5F6066390C504E206E186EE
:100EF40063CC06023385E7008347150003470500EA
:100F0400A20793F70770D98F13970701418393764C
:100F1400074099C6136707802394E19401458280B2
:100F24002394F194E5BF05458280011136C8938668
:100F340001952ECC8C423AC63EC498452ACE32CA7C
:100F44009317070142C2C1831378172036853E8662
:100F54009726000093864609630408041377072044
:100F640061CF03C726001367170017280000230E5C
:100F7400E80613070019B8D1130700F897250000F5
:100F84002386E506138701940C4337080010D855CF
:100F9400719B13672700D8D598413367070198C11F
:100FA4001377261005C31376061045CA03C7060037
:100FB40013671700172600002308E602172700000E
:100FC4002318070283C6460093C7F7FFC207E20649
:100FD400E186C183184163D106029396170163D752
:100FE400060830538D4663E9C6008546172600007F
:100FF400230ED6FE3453FDFE97260000938606E8A2
:101004008386460163DD060093960701C18663D596
:1010140006067053894663E4C6007453FDFE144704
:101024007245E245F58F1CC75246C2463247A24775
:10103400124805617300203003C7160013671700B8
:1010440097250000A382E5FA17270000230007FA7A
:1010540017270000231E07F8A1B703C7360013673C
:10106400170017260000A302E6F889BF8546172655
:101074000000230DD6F649B7544713960601635171
:101084000602B7061000FD1674D397260000938657
:10109400A6E2944E850617260000232BD6E241B71C
:1010A400A166D58FADBF172700001307A7F58346A8
:1010B400B7019727000083C737F8B69793F7F70F60
:1010C400FD4663EAF6044C4B97260000A38CF6F227
:1010D4009727000083C717F305473317F7009726B0
:1010E4000000A38BF6F46D8F1DEF9726000083C6D6
:1010F400F6F4B3F6D70213050002814733D6F500A0
:10110400058A13F8F70F09CE6399E60097270000C4
:10111400A38A07EF828081177DB705071377F70F3E
:101124008507E39DA7FC8280938781959843B757F1
:1011340002009387279F8326070913965600635856
:101144000600832607091396660063440600FD170C
:10115400FDF3828051C9AA870145C9C98D07C20719
:10116400C183F19BC207C18313074003636BF7027A
:101174001387419E08431387C19D14436396A602B7
:1011840017270000130787CF185B014525C34111BA
:10119400C20706C60545DD8D0297B24001454101EF
:1011A40082801387019EF9B70357650005EF035743
:1011B40045006369F702B306F74021466370D6021F
:1011C4001041938687001D8FAA96611790C22392BF
:1011D400E6002393060014C12312F5002313B5007F
:1011E40021058280084159BF01458280828001CD5A
:1011F4009387419E03A807009387C19D8C430147B1
:10120400C28763E3B70082809443636FF50663ED9E
:10121400A60613868700E368C5FE03D5670021662A
:1012240005066317C50003C6019005062380C19017
:1012340023930700638407031386019E1042630F00
:10124400F6000356670019EA83D7470014C3835690
:101254004700B697A1072312F700BA879843E3041F
:10126400B7FA9386019E9442E30FD7F8835667003A
:10127400D9FA83D64700035647001843A106B2960D
:101284002392D70098C382803E87B6879DBF000013
:10129400974100209381C11917710020130141D691
:1012A40013054000972500209385855517360020A7
:1012B4001306067E63FAC5008322050023A05500A9
:1012C40011059105E3EAC5FE175501001305456BA9
:1012D400973500209385C57B1386018563FAC50085
:1012E4008322050023A0550011059105E3EAC5FEFC
:1012F40013850185975500209385C5646377B500F0
:10130400232005001105E36DB5FE9302800873A048
:101314000230972200209382A24E93E2120073902F
:101324005230970200009382E20D739012347300DE
:1013340020303D432A876373C3029377F700BDEFE0
:10134400ADE5937606FF3D8ABA960CC34CC30CC731
:101354004CC74107E36BD7FE11E28280B306C3405A
:101364008A069702000096966780A6002307B700B6
:10137400A306B7002306B700A305B7002305B700EB
:10138400A304B7002304B700A303B7002303B700E3
:10139400A302B7002302B700A301B7002301B700DB
:1013A400A300B7002300B700828093F5F50F93964E
:1013B4008500D58D93960501D58D61B79396270049
:1013C4009702000096968682E78086FA9680C11777
:1013D4001D8F3E96E374C3F8A5B705890DC141116D
:1013E400175501001305050606C6EF30116CB2400F
:1013F4009306803E794689450545410131AC82809A
:1014040041111305800406C697200020E780E0748C
:1014140085457D55EF00505A85457D55EF00306474
:10142400371700408327870A8D451305002093E76B
:1014340007202324F70AEF003058EF00F0791755FE
:1014440001001305A521EF30516681238525170579
:1014540000001305C5F83D28EF100133EF00F01428
:1014640097200020E78080452388018423AA0184F3
:10147400B717004003A7070CB706C0FFFD16758F0A
:1014840023A0E70C03A7070DB7064000558F23A838
:10149400E70C828023AAA18413064006894503C56C
:1014A400A1856F10E050B717004083A7470C37079A
:1014B400400083C60185F98F13B71700638DE600DA
:1014C4002388E18489EB9387418503A307006304A0
:1014D4000300054502838280797122D426D24AD042
:1014E4004ECE52CC56CA06D61379F50017540020B6
:1014F40013044415854493899185138A8185914AFF
:10150400631009022254B25092540259F249624AB9
:10151400D24A03C5A1850146854545616F104049FE
:10152400B3779900A9C783470A0003C709002300BA
:101534000400E58FD98FA38CF1842312D4002301F6
:10154400C400A300B40099E12300540136C632C498
:101554002EC2EF10C03283470400B24622469245A1
:1015640093E7270008C42300F40033499900860454
:1015740093F4F40F310469B79377150013878185C9
:1015840085CB8547B7160040639EF50083A7860A7E
:1015940093F7F7EF23A4F60A834707005D8D238CA6
:1015A400A184828083A7860A93E7071023A4F60AFE
:1015B400E5F5834707001345F5FF7D8DCDB7011190
:1015C40022CC26CA4AC84EC652C406CEAE899374EB
:1015D400F500175900201309E9060544214A89E852
:1015E400F2406244D2444249B249224A05618280AF
:1015F400B3F7840089CFCE856396490183450900FA
:1016040093C5150022852300B900A18CB5370604C3
:101614001374F40F3109E1B7AA8711C909CA81CA41
:101624009307300663E3C70045BD854549BF81453F
:101634003E85EDBFA14763EFB7029756010093863D
:1016440066E11397250036971C43411106C6B697E9
:1016540082879306803E154685457D3FB24001450D
:10166400410182809306803E154693052003F5B719
:10167400B937EDB701458280371700408327070A41
:10168400411106C693E707102320F70A81453D451B
:101694003D378566938606FA7946A94505452D3D6D
:1016A400B24097570020238707FC41018280975757
:1016B400002083C727FC6395071679714ECEC16954
:1016C40022D426D24AD052CC56CA5AC85EC662C464
:1016D40006D666C26AC0175400201304A4F6014C4F
:1016E4003D498544138A9185930A4006FD19130BDD
:1016F4004006930BF00FB3F72401E1C783470400BE
:10170400898BD5CFEF10A0171C442A8D6366F50E84
:1017140083460400834C240093F71600BDCB3307A3
:101724009B41F99A81452685937CF70F2300D400C9
:10173400A135034604009377460099EF83461400CD
:10174400638C7601FD1693F6F60FA300D40089E6A8
:10175400134626002300C40083470400898BB1C3C9
:10176400035744003307970333575703931707016D
:10177400337737016A97C18318C463030C08A1C384
:101784003E876373FC006287131C0701135C0C0122
:101794003DA093E61600854526852300D400E93B49
:1017A40065BF83450A002685E58DB335B0005935FC
:1017B40003470A0093C7F4FFF98FA38CF18433C95C
:1017C4002401860493F4F40F3104E31609F2630B45
:1017D4000C022254B25092540259F249624AD24A3B
:1017E400424BB24B924C024D6286224C03C5A185FA
:1017F400854545616F10C01B898FC207C183B5BF82
:101804003E8C75BFB250225492540259F249624A36
:10181400D24A424BB24B224C924C024D45618280DB
:101824008280411193962500AA852D4506C69720EE
:101834000020E7804058B2400145410182804111B7
:1018440026C29394250022C44AC02A843289A686DB
:10185400AA850146254506C697200020E780A055A5
:10186400A6864A86A285294597200020E780A054B1
:10187400B24022449244024901454101828001114F
:1018840022CC06CE3714004026CA4AC84EC652C4DB
:1018940083447405034AB4058349840503499405C4
:1018A40055238347A40593F4F40F137AFA0F93E7AF
:1018B4001700230DF40493F9F90F1379F90FB717EF
:1018C400004003C7A705058B6DFF03D5C705A38D8E
:1018D4004705238C3705A38C2705A38B9704F24077
:1018E4006244D2444249B249224A0561828041118C
:1018F4009397050122C406C6C1872E8463DA0700C4
:10190400EF00303919C1EF0030322165218D39A043
:1019140093F7150081CB613B13451400B240224478
:101924004101828093F7250081CFB53E1306000A5A
:10193400894503C5A185EF10A00713452400F9BF0D
:101944009397250163DF0700EFC0007037F60200AC
:10195400130606E0896503C5A185EF1060050965D6
:1019640075B7939715010145E3DA07FA1755010096
:10197400130505B5EF30711313060064916503C5B3
:10198400A185EF10E002116551B71D7149469755C5
:101994000100938565AE17550100130525CC86CE4D
:1019A400EF00106801E917550100130525AEEF306B
:1019B400D10F01A037F700E0F9575CC7FD571CCBE6
:1019C4008566B7E700E023A0D7101306701010C394
:1019D400B8434146B0C323A0D718B8C301000100DF
:1019E4001306C00381454808EF00705D9737002057
:1019F400938747453ECA896793870780231CF10074
:101A0400A167938707E03ECE970700009387A7E17D
:101A1400BEC4970700009387C7E2BEC6B547230834
:101A2400F10297170000938747953EDA9707000065
:101A3400938727E53EDEED47A301F102B707142D96
:101A44009387A710B7F507003ED281469707000099
:101A54009387C7147000E10519453EDC97200020E8
:101A6400E780603558088147994670003E960346E2
:101A7400060085070507A30AC700E398D7FED247E7
:101A840091C70357810185676373F70001A0480874
:101A9400EF10202CAA8501C917550100130545A094
:101AA400EF30016F01A0F6402561828041111705D6
:101AB4000000130505E406C622C4EF1000261384B3
:101AC400A1852300A4003528B92A7D36713A03453F
:101AD40004002244B24037F60200130606E089658A
:101AE40041016F00F06CB7170040130770052380A5
:101AF400E704130780FA2380E704C8DB23AE0184DC
:101B040082804111054506C622C426C24AC0D92E88
:101B140037140040130970050D454526930480FAD7
:101B240023002405230094048347F4021305800C46
:101B340093F7D70FA307F4028347F40293E7170040
:101B4400A307F4022300040497200020E780601810
:101B54000545A52623002405230094048347F402A5
:101B64001305000293E74700A307F40223000404CB
:101B740097200020E78000151305407E8147014728
:101B840081460546854569262244B240924402496D
:101B9400014541016F10C048011122CC2A8468001C
:101BA40006CE26CAEF00207AE52B6367A40033052E
:101BB400A440F54763EBA7003245EF00807A09455E
:101BC400F2406244D244056182802285293F324535
:101BD400EF002079373700408347574093F70704D5
:101BE400A9C39384C1859C400D45F9FB69459720A1
:101BF4000020E78040DD9C408DC31305D402B70765
:101C0400C0A863F7A700370540571305D5022295EE
:101C1400D93D97200020E78060CC0545952C0145EF
:101C240045B7010055BFB71700401307700523805F
:101C3400E704130780FA2380E70403C7E700136768
:101C440087002387E70003C7170313670702A388E6
:101C5400E7022380070437070010B7E700E023A05A
:101C6400E710828089476305F50263E6A70085478C
:101C7400630AF50082808D476301F5029947630387
:101C8400F5028280175501001305C5856F30E161A7
:101C94001755010013050586D5BF17550100130517
:101CA4006586EDB71755010013058587C5B7011182
:101CB4009397050122CC06CE26CAC1872E8463DF02
:101CC400070003C50186EF00C07C11C1B12F216557
:101CD400218DF2406244D2440561828093F715005D
:101CE40091CB173500201305A5F4EFE0505B1345A5
:101CF4001400C5B793F785000145E1DF4936BD22DD
:101D0400930425DBA685174501001305A57BEF3059
:101D140021489307E10078009306A1003000930561
:101D24006100480005260357A1000358E1008357CA
:101D3400C100835681000356610083554100174555
:101D440001001305E578EF30A14493D78440173799
:101D54000020A30DF7D497370020238A97D4835704
:101D6400A10097360020938626D4614617370020B9
:101D7400A30FF7D28357C100854503C501861737E2
:101D840000202307F7D28357E10017370020A3016F
:101D9400F7D2EF30906613060064A14503C50186AF
:101DA400EF001041134584002DB701111705000001
:101DB400130525F006CE22CCEF003076138401867D
:101DC40085472300A4002307F1001306E1008D4793
:101DD400854513055030A307F100EF002175130664
:101DE400F100854513058030EF004174173600205B
:101DF400130606CDC14513057030EF002173173665
:101E040000201306E6C8D54513056030EF000172C3
:101E14009305000A0D45EF2050169305000A11455D
:101E2400EF20B015034504008545EF001026034557
:101E3400040013060064A145EF009037F2406244A9
:101E440005618280B717004003C777051377E70F52
:101E5400A38BE704130700F8A38DE7043D47238C05
:101E6400E70413075003A38CE7048280B7F7070045
:101E7400DC4B13D7070111E36547C207C1831D8DEE
:101E8400A9473305F502ED473345F5023A958280BB
:101E9400B717004003C7E704930670052380D704EF
:101EA4001377C70F0D89930680FA2380D704498FCF
:101EB4002387E704238007048280B717004003C701
:101EC400E702930670052380D7041377C70F0D89A3
:101ED400930680FA2380D704498F2387E70223805F
:101EE40007048280371700408347E7029306700592
:101EF4001205BD8B2300D704C98F930680FA2300F3
:101F0400D70493F7F70F2307F7022300070482800F
:101F140041112A83014E930E407E130F0019930F33
:101F2400400663EB6E0A9308001913034006B37866
:101F34001503854E0D4FA14F337365020D8913357B
:101F4400150063E5BE0C1308F6FF79467298420843
:101F5400135808013307C70213D61700BE07329778
:101F64006146B3F6C60213068070B386C60236977E
:101F7400A166F58F42075D8FB717004083C6F7024D
:101F840093F60608A307D1000346F10083C6F702BF
:101F940093F60608E394C6FE8346F10093F6F60F23
:101FA400F1DE930670052380D704930680FA23801C
:101FB400D70423AA070383C6170393E60608A38856
:101FC400D702D8DB03C7170313670704A388E70204
:101FD40023800704410182807D133368E30393085F
:101FE400E016630E08003368F3039308D016630801
:101FF40008009378330093B818009388D8163308F0
:102004001E01131E0801135E0E0121BF6393E50335
:102014000548638608000148630303002A887108A1
:102024007298FD15131E0801C205135E0E01C181CD
:1020340009BF13F8150063F4BF007908D5B7133846
:102044001800E5BFB718004003A8C80303D3A803CA
:1020540083D888034111060393D8F8004A08B30EC5
:1020640013019308407E22C626C44AC2135828018D
:1020740023101501930F00199302D0169303400601
:10208400130FC01603530500B378F30363800810DD
:10209400B3787302638108109378330013BE180079
:1020A400130EDE166350C8092390050005449944B5
:1020B400F94FF542130900199303400683D805002C
:1020C400138F18006394880A03530500337E230397
:1020D400630C0E08B37873026386080093783300A8
:1020E40063840808F148635C18052390E50105083A
:1020F400231006010566130606E1B3D5CE02324469
:10210400A244124933F6CE022390B6009306C003CC
:102114003356D602B3F6DE022310C7002390D7004D
:102124004101828093B818009388D8163308184167
:10213400420805031358080123106500A1B7854818
:10214400630B0E00337E7302814863060E0093789E
:10215400330093B81800F1083308184142081358A3
:1021640008012390E50199BFF548B5BF13F31800A2
:1021740063F8140163180300E3D902F7F948E9BFCF
:10218400E31C03FEE3D30FF7FD48F9B7E3DE02F1E6
:102194009308E01661BFE3590FF19308D01679B79D
:1021A4004111B7170040985F3AC6945F3247E39CE9
:1021B400E6FE324541018280914763EEB70217473C
:1021C40001001307A7368A05BA959C41BA978287FE
:1021D400B717004003A7470B1345F5FF698F23AAE0
:1021E400E70A03A7070B698F23A8E70A03A7070ACF
:1021F400798D23A0A70A8280B717004083A6470BD6
:102204001347F5FFF98E23AAD70A83A6070B558D2A
:1022140023A8A70A83A6070A758F23A0E70A82804A
:10222400B717004003A7470B498F23AAE70A03A760
:10223400070B1345F5FF45BFB717004083A6470BAF
:102244001347F5FF758F23AAE70A03A7070A598DD9
:102254004DB7B717004003A7470B498FEDB7914718
:1022640063EEB702174701001307872D8A05BA9555
:102274009C41BA978287B717004003A7470D1345BF
:10228400F5FF698F23AAE70C03A7070D698F23A81D
:10229400E70C03A7070C798D23A0A70C8280B7173E
:1022A400004083A6470D1347F5FFF98E23AAD70CE8
:1022B40083A6070D558D23A8A70C83A6070C758F3D
:1022C40023A0E70C8280B717004003A7470D498F6E
:1022D40023AAE70C03A7070D1345F5FF45BFB7175E
:1022E400004083A6470D1347F5FF758F23AAE70C1B
:1022F40003A7070C598D4DB7B717004003A7470D27
:10230400498FEDB7B717004003D5870042054181D7
:102314009377050491EB9377F5013755E80113059D
:1023240005803345F50282809377050C130700047A
:102334006397E7009377F50137459C1CCDB721657A
:10234400130505D0828037E700E01C435443A18382
:10235400E206D58F1CC1FD572320F7182322F71856
:10236400828013178500B7E700E023A0E71061819E
:1023740023A2A7108280B7F700E0C8439C4782805D
:10238400814737370040A14663C4C7003285828045
:102394000345B740E38EA6FE3385F50003450500EB
:1023A40085072304A740CDB7411122C406C62A8459
:1023B400913F2947B307E502B2408D83B3D7870223
:1023C40022449507B3D7E70237370040C207C183D9
:1023D4002316F740410182807165411113050520E0
:1023E40006C6D937B7370040130770F82381E74092
:1023F4000D47A381E74013070004A380E740054786
:102404002387E740B2404101828023AC05FE1C4192
:1024140091E7010001000CC18280BA8703A787FFFE
:102424006DFF23ACB7FE82801DC18346E5FF130711
:10243400F00F9147639EE600411106C697200020E5
:10244400E780E05AB24081473E854101828095474A
:102454003E85828001E9014582800145B2402244E3
:1024640041018280411122C42A8421054205930539
:10247400D004418106C697200020E780A04D71DD7D
:10248400FD5723200500231285002303F5002105B1
:10249400F1B7138741861C43411122C426C24AC0A6
:1024A40006C601440149BA8489E7A165B5250DC46E
:1024B40001A803C7E7FF6318A7021DC8A165F12699
:1024C4009840832784FF6317E40223A2F186FD5713
:1024D400232C04FE230FF4FE2285B24022449244AE
:1024E40002494101828011E03E8983A787FF6DBFC5
:1024F4003E84E5BF232CF9FED9BFA9C9411122C4EA
:1025040006C62A849747002083C7D71A2E85636896
:10251400F400193F0D45B24022444101828083A753
:1025240085FF99E703C7E5FF9307F00F6305F700FD
:10253400E53D1545CDB7238F85FE13854186F135DD
:1025440022852244B240A165410181A615458280BD
:1025540023A2018682809387C1879C4399E33E85A9
:10256400828003D727006316B70003C70700E30878
:10257400A7FEDC47E5B74111939705014AC006C69B
:1025840022C426C2C1872E8963DE0700193711C110
:10259400613D21653345A900B24022449244024979
:1025A40041018280AA860145E5D901443D47B357DC
:1025B4008940858B95CB938701878443BD4791E2FE
:1025C4008147A2978E070545BE94331585001314E1
:1025D40005019C40C8404180829723A0040023A2A7
:1025E4000400334524014DBF0504E312E4FC014417
:1025F400CDBF97470020938727089C53411122C4DD
:1026040006C61384818095C7829723A4A1800840BD
:10261400B74703009387D73F3305F502B7A72600D2
:10262400938737ECB24022443E9523A4A180410114
:102634008280974700209387E70718409C4BBA97FE
:1026440023A4F180E9B793878186904397460020BD
:1026540083C65606814713F7F70F6360D70A1747F7
:10266400002003479718914763E0E70A9747002043
:1026740083C7471C918BC9EB0111680006CE22CC9D
:1026840026CAEFA0407BFD56630FD50C324797470F
:10269400002083C797FF63F3E70C17470020130755
:1026A4006701404717470020034747FE6305D406E8
:1026B400058B21CF51473304E40263F1870A972045
:1026C4000020E78040C9B2476373F400A28717472C
:1026D4000020034797FB998F3E95974700209387E7
:1026E400A7F98387470163CD0702B707C0A86369C9
:1026F400F502B70740573E9525A0850713971700A5
:1027040032970357E7FF21DB8280130790023304DB
:10271400E40205805DB762076187635707001D8D7A
:1027240019E93705C0A801A8E37BF5FE3707C0A85F
:10273400B307F7403E95974700209387E7F3DC53B0
:10274400829709ED974700209387C7099C4F99C743
:10275400EFB0E04CEFB03023EFB0C040F240624441
:10276400D24405618280974700209387A7F4DC4711
:10277400E386A7FE17470020130707F083464701A7
:10278400BA84858A9DC651443384870297470020C2
:1027940083C7B7EFE3F487FC97200020E780A0BB52
:1027A4009747002083C777EE1D8C229583874401C9
:1027B4001DBF13049002338487020580C1BF2A968B
:1027C40009E582800505A30FB5FEE31DC5FED5BF4F
:1027D40081473307F5000307070019E33E8582802C
:1027E4008507C5BF01112E8626CAAA8413150601C2
:1027F4009305F004418122CC06CE32C697200020F6
:10280400E78040152A8419C53246A6859720002002
:10281400E780408F2285F2406244D2440561828081
:1028240081476314F600054582803307F500850768
:10283400B386F5000347070083C6F6FFE383E6FE8D
:10284400014582809307F6FFBE952A966313C5005F
:102854008280FD1583C715000505A30FF5FEFDB79E
:10286400814711E9014582803307F50003470700DA
:10287400E31AB7FE8507E319F6FE054582809747FC
:102884000020938727E3884B82809747002083C7E3
:1028940077E2637FF5001387818693171500084359
:1028A4003E9583570500DD8D2310B50001458280D8
:1028B4000D458280FD570111174700202322F7E0C0
:1028C4009387C18722CC80434EC6974900209389C1
:1028D400A9DA26CA4AC852C456C206CE5AC02A89A0
:1028E40081444E8A974A0020938ACADC184481475F
:1028F4006374E900B307274103A749021CC409CB49
:1029040003A7CA0063F6E70017470020232AF7DA73
:10291400A1E7835524009DE95C44A1E823AEF18638
:10292400032BC400228597200020E780400C5A84A2
:1029340055FC83274A0285CF6244F240D24442497F
:10294400B249224A924A024B0561F5B90345040093
:102954002D3F5C4081CB1CC483572400D5DFA28467
:102964004044F9B71C44CDDBC5BFDCC455BFF240BD
:102974006244D2444249B249224A924A024B056116
:1029840082809747002083C7F7D26371F5021387CB
:10299400818693171500084393C5F5FF3E95835729
:1029A4000500FD8D2310B500014582800D45828010
:1029B4009747002083C717D06364F50001458280E0
:1029C400411122C426C24AC006C62A842E89B28472
:1029D400593601C504C505452DA0936504F0C2050B
:1029E400C181414597200020E780C0F60DE197475B
:1029F4000020938767C89C5B81C7A2851145829795
:102A04000145B240224492440249410182809387A5
:102A1400C1879C438DE323AEA18685472326050009
:102A240004C52311250123008500A300F5002322FA
:102A3400050055B7BA87D84775FFC8C7F9BF45C55C
:102A440039715AD0138B018722DC26DA4AD84ED644
:102A540052D45ECE66CA6AC86EC606DE56D262CC50
:102A64003689328AAE89AA8401445A8DB94D854B80
:102A7400F94C03270B00131C3400937AF40F62976C
:102A84001C43A9EF13B5FA0013451500B3978B0047
:102A940063F65D01930714FFB397FB009395070159
:102AA400C181528631371DC983270D000145E29744
:102AB40084C323A237016304090023005901F2509F
:102AC4006254D2544259B259225A925A025BF24B7E
:102AD400624CD24C424DB24D216182800504E31A0E
:102AE40094F92145E9BF09458280411122C426C2D7
:102AF4004AC006C6AA842E8932845D3DCA852685CD
:102B0400993C09C940C10145B2402244924402495A
:102B1400410182802145CDBF411122C426C24AC051
:102B240006C6AA842E89053C2A8419C123110500EE
:102B34009747002083C707B863949700239A218797
:102B4400CA8526853D3D014511E01945B240224420
:102B540092440249410182807547636BA70413873D
:102B640001871443411126C293143500A69694425A
:102B740022C406C6AA873A84094595C613B5F70048
:102B84003947134515006373F700C5178545B39599
:102B9400F500C205C18149371C400145A69723A011
:102BA400070023A20700B2402244924441018280DC
:102BB40009458280411106C6EFF0FF9909C5084511
:102BC400B240410182800145E5BFF54763EDA704AA
:102BD400938701879C4313173500BA979843894715
:102BE40021C7011126CA06CE9334F50022CCB94779
:102BF40093C4140063F3A700451505443314A400DB
:102C0400420441802EC62685A2856D378947324607
:102C140009C5A2852685693B8147F2406244D244B6
:102C24003E850561828089473E858280411106C6C2
:102C340023ACA1860295B2409747002023A6A7A8FB
:102C4400014541018280994763E9B7008A059747A6
:102C54000020938767A8BE9588C18280411106C66B
:102C640022C426C2EFF05039714681451745002031
:102C7400130585A6A936174400201304A4A313063C
:102C8400400222858145253E23AE018623AC018680
:102C94009747002083C707A013D527008D8B3E9547
:102CA4008D473305F50299479305101093840188E5
:102CB40035051375F50F2301A4003305F50213053B
:102CC400050F97200020E780E0C823A8A18683474A
:102CD40024001305050F88C08A073E9523A4A18606
:102CE400EFF01F87612E83471400984017060000F9
:102CF4001306A68893962700BA9690C29386270057
:102D0400850793F7F70FA300D400B24022448A0743
:102D1400BA9790C39244410182809747002083C7A9
:102D24007799174700200347079963F1E702138750
:102D3400018818439386170017460020A30CD696E3
:102D440093962700369708C33E8582809307F00F39
:102D5400E5BF1C41638F071841777D8FB7060020BC
:102D640089476319D71803574500630507184111AC
:102D740026C21946AA849305F00F590506C622C433
:102D8400C53405478D476300E51617440020130436
:102D9400A48E1C4481CB5858994763160714185CB9
:102DA400631307141306C003814517450020130558
:102DB400A58CEFF0DFA01306C003A68517450020FD
:102DC4001305858B97100020E780C03397470020B8
:102DD40083D7478B99E793070010174700202313E5
:102DE400F78A9747002083C7078A91E785471747E3
:102DF4000020230AF7889747002083C7D78891E7E4
:102E0400ED4717470020A300F7889747002083C7A2
:102E1400A78791E79547174700202307F786974729
:102E2400002083C7778691E7854717470020A30DC5
:102E3400F7849747002083C7778599E78347040180
:102E440017470020A304F7849747002083C7E7832C
:102E540091E7D147174700202309F78297470020BD
:102E640083C7678395E71747002003472782931694
:102E74008701E1869307C00263C8060093771700B1
:102E840093B717009387D702174700202305F780CD
:102E94009737002083C7777F95E7173700200347CC
:102EA400E77E93168701E1869307C00263C8060094
:102EB4009377170093B717009387D702173700202B
:102EC400A305F77C83C7D40191E78947173700200E
:102ED400A302F77C1C5491C7829797370020239E46
:102EE400A77CAD3B8147B240224492443E854101D8
:102EF400828089473E858280011122CC06CE2A84B5
:102F04002EC6EFF00FEFB245F240818D33A5A50236
:102F1400229562441375F50F05618280011122CC5C
:102F240006CE2A842EC6EFF0CFECB245F240818D56
:102F340033A5A50222956244420541810561828040
:102F4400011122CC06CE2A842EC6EFF08FEAB245B8
:102F5400F240818D33B5A5022295624405618280D9
:102F64009737002093874771985725C3411122C48E
:102F740026C206C6BE840297173700200357E7739C
:102F84002A8441C7BA876373A700AA87C207C1838B
:102F9400BA866373E400A286C206C182958F514744
:102FA4006355F706DC5491C3829785471747002081
:102FB400230EF782EFB0400997370020239F876ED6
:102FC400B24022449244410182809747002083C743
:102FD400E7819DE7974700209387C78083C79700C1
:102FE400850793F7F70F17470020A301F780A18BFC
:102FF4009DC7854717370020231AF77E6FB0A00AB4
:1030040097370020A384077ED5BF9737002083C756
:10301400E77DDDD72244B24092444101C5B78280A6
:103024009737002093874765D857011122CC06CEE5
:103034003E8401C72AC60297324509CD23A2A1883E
:10304400171500201305A532D536F2406244014518
:10305400056182808307440163DD07009737002000
:1030640023A60766971700209387072B23A2F188CE
:10307400C1BF971700209387072ECDBF011122CC23
:10308400173400201304445F084406CE26CA4AC8F5
:1030940001E90545F2406244D24442490561828017
:1030A4005C58E5DB185C75D7700085458297184439
:1030B400B247E300F7FE9305E004173500200355FB
:1030C400655C97200020E780E088173700202321E3
:1030D400A76061D1173600200356C65A9305F00F36
:1030E400EFF0EFED8144173900201309A95C9737FD
:1030F400002083C747590326C90163C1F4023285FE
:1031040097200020E780A08E01459737002023A157
:10311400075C9737002023AF075AADBF97350020CF
:1031240083D54556B38795020844185C8981850484
:103134003E9508C2029765BF411122C4173400208E
:10314400130484531C4426C206C64AC09734002084
:103154009384445691EBC84C35E9B24022449244DE
:1031640002490145410182801C5CF5D7DC4C99EF92
:103174009305E004173500200355C550971000202F
:10318400E780407D9737002023A4A754C84C61D51D
:10319400173600200356064F9305F00FEFF02FE289
:1031A40001499737002083C7074ED04CE355F9FAFD
:1031B4009735002083D5054D338525031C4489812B
:1031C40005093E951C5C08C28297E1BF9720002048
:1031D400E780E0819737002023AC074E9737002023
:1031E40023AA074E9DBF011156C2973A0020938A25
:1031F400AA4883A78A0022CC4AC84EC606CE26CA4D
:1032040052C45AC0AA892E8432896385072203A72F
:103214004A03630707147D476366A71497340020A5
:103224009384444903AAC40163170A0A95659385E4
:1032340015E0173500200355E54497100020E7807A
:1032440060719737002023A5A7482A86630A0510D2
:1032540083A74A0303A58A009735002083D58542B6
:103264008981829783A78A0003AAC40117370020A3
:103274002322F7468947639CF908C1476312F40E79
:103284009735002083D50540938505FC9147B3C548
:10329400F5028A05D29503C705009307A005631DAF
:1032A400F70A83C715006399370B4A85228691056F
:1032B40097100020E78000E5DC4C528563934715A6
:1032C4000145F2406244D2444249B249224A924AF8
:1032D400024B056182809850E38EE7F895659385EB
:1032E40025E0173500200355E53997100020E780C5
:1032F40060662A8A35C52A8683A74A0303A58A00FD
:103304009735002083D5053889818297A5B78D47E5
:10331400639DF900C1476315F4049735002083D5F4
:103324006536938545FDF199B5B79147639AF900E0
:10333400631834039735002083D5C534A115E5B748
:10334400C147639FF900A14763EC870097350020CC
:1033540083D54533C115C1BFDC4C52856397470DF6
:10336400294585B71307F006568B6361A70A130A2C
:1033740005FE1947334AEA021737002003578730FE
:10338400973A0020938A0A33330AEA023E9A83A7C3
:103394000A026395470183A4CA019DE49305E004EE
:1033A400173500200355052E97100020E780805A1A
:1033B400AA845DD583274B039735002083D5852CBC
:1033C4002A8689815285829791451307A0058981B0
:1033D40093972500A69783C607006393E60483C6E4
:1033E4001700639C360385058A052286A6954A85BF
:1033F40097100020E78000D183A7CA01E38297ECED
:10340400268597100020E780805E5DBD1307E007E6
:10341400E368A7F4130A05F985B783D5270045BFE8
:1034240083A7CA01E38E97F2268597100020E780D0
:10343400005C3DB7973700209387C727CC4F8DD1C9
:1034440091479306A0058983139727002E97034677
:103454000700E317D6F003461700631C36018507FF
:103464008A072286BE954A8597100020E78080C986
:1034740081BD83572700C1BF973700209387C71F9B
:10348400984739C79C5FA9C705476313E5044111F1
:1034940022C4173400201304E421504C06C60DC680
:1034A40008509735002083D5E51D89818297484CC3
:1034B40097100020E780A0539737002023AA072005
:1034C4009737002023A80720B2402244410182807C
:1034D40082800111173700201307071A4EC683296B
:1034E400870022CC26CA4AC806CE52C456C2AA8431
:1034F4002E843289638A09201C5FBA8A99EB294594
:10350400F2406244D2444249B249224A924A056195
:1035140082805C5BEDD7FD4763E9A70E97390020F5
:103524009389491983A7C901B1CB03A58A0083A74D
:1035340009026395A70689476393F408C147E3101A
:10354400F4FC173500200355E5139147130505FCDA
:103554003345F5029317250003A5C9012286CA85C0
:103564003E959307A0052300F500A30095001105DF
:1035740097100020E78000B9014559B79305E0048E
:10358400173500200355051097100020E780803C74
:103594009737002023AEA71249F995B783A74A03AA
:1035A40003A6C9019735002083D5C50D898182976B
:1035B40083A78A0017370020232EF710ADBF8D474D
:1035C400639EF400C147E31CF4F217350020035551
:1035D400650B130545FD9377C5FFBDBF9147639AFE
:1035E400F400E31E94F0173500200355A5092115B6
:1035F400DDB7C147E395F4F0A147E3E287F017355F
:103604000020035525084115F9B79307F00663EA2E
:10361400A706930705FE1947B3C7E702173700202B
:1036240003574706173A0020130ACA08B387E7026C
:10363400BE998327CA01A9CF83270A02639A370751
:103644000325CA0191461308A005FD5593D726000A
:10365400C207C183139727002A9703460700631DF7
:103664000607834817000356270063959806B30698
:10367400D64063CF860485078A072286CA853E958D
:10368400C5BD9307E007E3ECA7E6930705F979B70F
:103694009305E004173500200355C5FE971000205C
:1036A400E780402B9737002023A4A70251F581BD62
:1036B40083A74A030326CA019735002083D585FCD6
:1036C40089814E8582979737002023A537018DBFC6
:1036D400A300B700B2869DBFB385860017360020CD
:1036E400035646FA9105130606FCE3FAC5E01306F1
:1036F40034001376C60F1106B29623000701A30007
:1037040097002311D70085BF97370020938787FA46
:10371400D44FBE89A1C203A5C90191461308A005CF
:10372400FD5593D72600C207C183139727002A9714
:10373400034607006316060583481700035627004F
:1037440063989800B306D640E3D786F2A300B70087
:10375400B286C1BF8357C700173500200345A5F2C1
:103764009305E0043305F5024205418197100020DA
:10377400E780401E9737002023ACA7F449FD41B3EE
:1037840017360020035606F09735002083C5A5EFB1
:10379400B385C502338686001106E3E2C5D681BF30
:1037A40001458280011106CE2EC6EF60402E01C96C
:1037B400B245F2400355250005616F90804EF240FA
:1037C400494505618280A388018A2388018A23AC44
:1037D400018823AE018823A0018A23A2018A23AA97
:1037E400018823A80188973700209387A7F037071B
:1037F400B40098C33747A000D8C337071000930616
:10380400070A94C7B7065000C106D4C79306070534
:103814004107D8CB3707D007410798CF3707840330
:1038240098D337C70700130707B8D8D3416794CB99
:1038340093060701130717F8D8D7417723AE07007B
:1038440094D798DB8280011126CAAA84214522CC10
:1038540006CE2E8432C636C43AC2EFE0BFBF1DC9BD
:10386400A24612473246930700FD2300F50099470C
:10387400A30095002301F5002303D500A303E5006D
:103884002312C500AA8522856244F240D244056110
:103894006FE0BFC6F2406244D2440561828023AC2B
:1038A400A188828023AEA188828023A0A18A8280FD
:1038B40023A2A18A8280011122CC4AC806CE26CA3C
:1038C4002A890144B30489006368B400F240624465
:1038D400D2444249056182802EC6EFE09FD19317FE
:1038E4000501C183A183B2452380F400930714002A
:1038F40093F7F70F850463F9B700CA970904238087
:10390400A7001374F40F7DBF3E847DBFC1671735D4
:1039140000200355C5E1FD176302F502411103C6FA
:1039240081929385818A06C6EF50D078B240FD57C4
:1039340017370020231DF7DE41018280828009C9E8
:1039440025151375F50F1335850E13451500828063
:103954000145828023800500F94763E2C708797135
:1039640022D426D24ECE56CA5AC806D64AD052CCF3
:103974005EC63684B289AE8A2A8B814463FF3405DD
:10398400B307940003CA0700138914001379F90FCD
:1039940063050A04B3072A0163C1F904B3072401C8
:1039A40083CB07005E85613F0DC99307FAFF23802F
:1039B400FA0063906B03130519002295B250225448
:1039C40092540259F249624AD24A424BB24B45617F
:1039D4008280D29493F4F40F55B70145C5B70145DD
:1039E4008280411126C2AE8422C49737002023A7C7
:1039F400C7D49737002023A1B7D49737002023AB2F
:103A0400A7D22A8441469305F00F26854AC006C6EC
:103A14000549EFE0FFE4631E2503973700209387F1
:103A2400A7D0884BC145413D41469305F00F2285FF
:103A3400EFE01FE385446316950222449737002084
:103A4400938787CEB24092440249C847C145410199
:103A54009DB5414681452685EFE09FE0E31625FDAF
:103A64006DBF414681452285EFE09FDFE30795FC6A
:103A7400B24022449244024941018280411122C44D
:103A840026C22E84AA84130600028145173500201D
:103A9400130585C906C6EFE09FD297370020A38699
:103AA40097C8A3858192EF904021854719C181472A
:103AB4004945B2402244173700202307F7C69244F1
:103AC40041018280814781CD19C98547631BF50077
:103AD40083C7550093E707FCA382F50085473E851D
:103AE400828089476317F50083C7550093F7F7036E
:103AF400E5B70D478547E314E5FE03C75500137783
:103B0400F70313670704A382E500D1BF81478DC182
:103B140005C103C755009306000C85471377070CAE
:103B24006308D700930600048D476303D7008947D1
:103B34003E858280411122C4005D06C626C21DC88E
:103B4400AA84085009C597100020E78040EA48502D
:103B540009C597100020E78080E9085409C597102B
:103B64000020E780C0E8228597100020E78020E845
:103B740023AC0402B240224492444101828009ED04
:103B84009737002083C767BA17350020130545BB54
:103B940081CB13858188828017350020130545BAAF
:103BA400828017350020034545B88280973700206E
:103BB400938787B7C8478280973700209387C7B613
:103BC400884B828097370020938707B6DC4B884365
:103BD400828097370020938727B5D84B1C438507ED
:103BE4001CC317350020034555B49307F00F630534
:103BF400F50091656FE07FC98280011122CC06CE69
:103C04002E8432C6EF50F0779147B245631FF5001A
:103C14009387418A9C438DC303A30700630E03006B
:103C240022856244F240056102839387C1899C43E3
:103C340081C703A34700DDB7F2406244054505612F
:103C44008280011122CC2A840355450006CE26CA5F
:103C54004AC84EC6EF50D0532DC52A898344050067
:103C64008349C500C13D4A85EF6050470355440070
:103C7400EF50B06C83C7018BA9CB6398970483C5BD
:103C8400118B2685053619E12388018A03554400E2
:103C9400EF50306F9147631FF50003574400973787
:103CA400002083D7C7A86317F700FD5717370020F4
:103CB400231FF7A6F2406244D2444249B249056147
:103CC400828081499304F00F75B79307F00FE38F57
:103CD400F4FA8346640003564400034524004E87E7
:103CE400A685953665B779715EC6AA8B2E8552CCAA
:103CF40056CA5AC806D622D426D24AD04ECEAE8A46
:103D0400328B368AEF50D0486DC1045D2A89F1CCDC
:103D14009C50614599C3130540039C5481C75105C8
:103D24004205418163050A00710542054181DC5069
:103D340081C7590542054181EFE0CFF12A8455C579
:103D440061468145EFE0BFA79739002083C9899D6B
:103D54006394090083490900930700FD2300F400DC
:103D6400A947A30074012301F400230364018C50C8
:103D7400231254011305840191C908C47146930A9E
:103D8400440397000020E780E03756858C5491C99E
:103D940048C45146930A450197000020E7808036C5
:103DA4005685630C0A0008C87146D285930AC5017A
:103DB40097000020E78000355685CC5099C548C847
:103DC400594697000020E780E033A2854E85EFE056
:103DD400CFF22254B2509254F249624AD24A424B30
:103DE400B24B4A8502594561B1B3B2502254925440
:103DF4000259F249624AD24A424BB24B456182802F
:103E040001114EC6AA892E854AC806CE22CC26CADE
:103E14002E89EF50F03731C59734002083C4849045
:103E240099E0834405001945EFE0CFE22A8415C9DF
:103E340081451946EFE0BF98930700FD2300F40085
:103E4400B947A30034012301F40023122401A285FD
:103E54006244F2404249B2492685D24405616FE08A
:103E6400CFE9F2406244D2444249B24905618280BA
:103E740039715ECEAA8B2E8526DA4ED652D456D20E
:103E84005AD006DE22DC4AD8AE84328BB68A3A8A0D
:103E9400BE8942C6EF50D02F31C92A894145EFE08F
:103EA4006FDB2A8421C541468145EFE05F911735D8
:103EB40000200345258719E103450900930700FD08
:103EC4002300F400BD472301F400B247A3007401AA
:103ED4002312940023046401A30454012305440120
:103EE400A30534015CC4A285EFE02FE1F2506254D3
:103EF400D2544259B259225A925A025BF24B21616E
:103F04008280797126D2AA8439454AD04ECE06D60B
:103F140022D42EC6B2893689EFE0CFD321C1B2456F
:103F24009307000D2310F500B1472A842312B5002E
:103F34002301F500CE851905194697000020E78076
:103F4400601C23062401A2852254B2500259F2496E
:103F540013F5F40F925445616FE02FDAB2502254F6
:103F640092540259F2494561828017270020034781
:103F7400D77B9307F00F630DF706411126C2AA847D
:103F8400394522C406C64AC0EFE0CFCC2A8439C9D9
:103F9400930700FD2300F500A3009500230105000D
:103FA400972500209385C5790D05194697000020B3
:103FB400E7804015172900201309097783578900E2
:103FC400A28517250020034555762315F400834761
:103FD40019002306F4002244B240924402494101EC
:103FE4006FE0AFD1B2402244924402494101828041
:103FF4008280011156C2AA8A314526CA4AC84EC6D1
:1040040052C406CE22CCAE84328AB6893A89EFE015
:104014006FC429C92A842685EF5090171DCD034506
:104024000500930700FD2300F4009D47A3005401FD
:104034002301F400231294002313440123143401B4
:1040440023152401A2856244F240D2444249B24974
:10405400224A924A05616FE04FCA172500200345A2
:10406400D56CC1B7F2406244D2444249B249224AB3
:10407400924A05618280397162CC2A8C594526DACC
:104084004AD84ED652D456D25AD05ECE06DE22DC60
:10409400AE8432C636C4BA8B3E8BC28A468A8359F2
:1040A400010403494104EFE0EFBA35C532469307F2
:1040B40000FDA2462300F5009547A301C500A30017
:1040C40085012301F5002A8419461105A9C2B68584
:1040D40097000020E780000323066401230A2401DB
:1040E400231574012317540123184401231934019F
:1040F400A2856254F2504259B259225A925A025B32
:10410400F24B624C2685D25421616FE00FBF81458A
:10411400EFE0EFEAD1B7F2506254D2544259B259A7
:10412400225A925A025BF24B624C21618280972799
:10413400002083C7875F8DCB4111AA85194613855B
:10414400818806C697000020E780C0FB938581889C
:10415400172500200345655DEFF0DF96B240138517
:10416400818841016F80F035014582801727002046
:104174000347B75B9307F00F6305F708411126C2A5
:10418400AA84294522C406C6EFE0CFAC2A8429C1FB
:10419400930700FD2300F500A1472301F500A300C8
:1041A4009500972700209387275883C72700938576
:1041B40081881105A30FF5FE194697000020E780BA
:1041C40060F4A2851725002003453556EFE0EFB2D1
:1041D40017270020034767558D47631FF700938710
:1041E400018A9C4391CB03A3870063070300224405
:1041F400B240924441010283B240224492444101BC
:10420400828017270020034747528D47631AF7001F
:104214009387018A9C4389C703A38700E31D03FC9A
:104224008280797122D406D626D24AD04ECE52CC80
:10423400094445C92A89035505002E8A5144EF5083
:104244002075AA8459CD83C7B192FD1793F7F70F50
:10425400054749446377F7080347C500A14763143A
:10426400F70063100A089C5C4544A5EF91659385AB
:1042740045711305C00297000020E780A06D88DC1B
:10428400AA894D4439CD1306C0028145EFE02FD3EE
:10429400835709009386490036852391F9007146B6
:1042A4009305490036C697000020E780A0E58947BA
:1042B4002380F90003C5C400B24603560900611502
:1042C40083C5819213351500EF70707D2A846306CF
:1042D4000A00D2852685EF60900B01C42685EFF095
:1042E4007F852285B250225492540259F249624A7F
:1042F4004561828083C7B192FD1793F7F70F054795
:104304006378F708894751C6011122CC26CA4AC8E6
:104314004EC652C406CEAA89368AB2842E89EF507C
:1043240020672A84D14729C9485509C59700002028
:10433400E780E06BF1452685EFE0CFCA48D4CD474E
:1043440005CD8346C40021478147639FE600630D82
:104354000A000347A5010356050193062501AA8512
:104364004E85EF50B07AAA8703474400630F0900D3
:10437400136767002302E400F2406244D2444249D6
:10438400B249224A3E850561828013674700DDB742
:10439400C9473E858280E14763EBA7009727002049
:1043A4009387473506053E95035505008280416590
:1043B4007D158280011122CC2A842E8526CA06CE40
:1043C400AE84EF50E05C0DCDB7470F009387F72321
:1043D400094563E2870281450A854146EFE02FBE25
:1043E400A685231081000A85418023018100A30151
:1043F4000100EF70304DF2406244D2440561828086
:104404004945D5BFA384A19282806F7010627971EF
:1044140052CC2A8A328522D426D24AD04ECE56CACB
:104424005AC85EC606D662C4AE8BB28A368BBA84CC
:104434003E89C2894684EF50A05515C92A8C63145D
:104444000A0213774B008347450015CF93E72701F2
:104454002302FC008DEC631C0902639A090205E83F
:10446400ED9B2302FC00832B8C03639F0B06B2504D
:10447400225492540259F249624AD24A424BB24BF4
:10448400224C45618280F59B93E70701D1B793E7FE
:1044940047002302FC0001CC1C484146A28523248A
:1044A400FC0213058C0197000020E780A0C56391EE
:1044B4000B02D5D80325CC0209C597000020E7805C
:1044C4000053F1452685EFE0EFB12326AC0261BF2E
:1044D400E30B09F80325CC0209C597000020E78007
:1044E4000051F1454A85C5B79DC483A70B0299EBDA
:1044F400916593853571714597000020E78080456B
:1045040023A0AB0203A50B0219C57146A68597002B
:104514000020E78020BF6388090283A74B0299EB40
:10452400916593852571594597000020E780804265
:1045340023A2AB0203A54B0219C55946CE859700A9
:104544000020E78020BC1DC483A78B0299EB9165F2
:1045540093851571514597000020E780A03F23A45F
:10456400AB0203A58B0219C55146A2859700002012
:10457400E78040B92254B2509254F249B24B224CD3
:10458400CA865A860259424BD6855285D24A624A15
:1045940045616FF04FF5011126CA52C406CE22CCF4
:1045A4004AC84EC62A8AAE84EF50803E25C5AA89E1
:1045B4003945EFD03FEA2A8431CD17290020034939
:1045C40069166314090003C909009307000D231039
:1045D400F400AD472301F40093856900130534000A
:1045E400194697000020E780E0B193F71400858016
:1045F40085882306F400A306940023154401A285AC
:104604006244F240D244B249224A4A854249056191
:104614006FD0BFEEF2406244D2444249B249224ACA
:104624000561828093870189884301CD411106C6C3
:1046340097000020E780A03BB24023A801884101F5
:1046440082808280011106CE22CC26CA4AC82EC698
:10465400EF50003439CDB245172900200349890CA5
:10466400AA840CD563140900034905004145EFD021
:104674007FDE2A841DCD9307000D2310F500A54786
:104684002301F50083C75400938564001105A30F2B
:10469400F5FE194697000020E780C0A69C54A28529
:1046A400F2405CC46244D2444A85424905616FD0F9
:1046B400DFE4F2406244D244424905618280797168
:1046C40022D406D62A842EC6EF50802C01CDB245C2
:1046D4002285230EB1006C08EF60E047B2502254EB
:1046E400456182805145DDBF6F50603FC1671387CC
:1046F400E7FF6394E5029387C1899C4391EB4945A5
:1047040082804945B2402244924402494101828058
:1047140003A30700E30503FE0283411122C426C25A
:104724004AC006C6FD172A892E84B2846395F50211
:104734009387C1899C4391CB9C4381CB829711E59C
:104744002388218BA388918A75BFA6854A85EFF0BB
:104754006F854DF9F5B72E85EF5080235DD18347E2
:1047640005000D45E39027FB22852244B24002490F
:10477400A685924441016F80C05261476362A704D9
:104784004111416722C406C626C27D172A84094501
:104794006383E502C547AE846315F4002E85EF807C
:1047A400C05793171400172400201304A4F4A297ED
:1047B400239097000145B2402244924441018280F3
:1047C40009458280011106CE2AC6EFE0DFFFEF1013
:1047D400A002EF00C074EFD0B03C32459727002010
:1047E400938787F4130700F02391E70023820700DF
:1047F4007D5793878192A380E7002380A700F2402E
:10480400954505616F30F03A5D7193970501CAC013
:1048140086C6A2C4A6C24EDE52DC56DA5AD85ED68A
:1048240062D466D26AD0C1872E8963DD074A03C584
:104834008192EFD01FC68964416A856A797B2A8494
:10484400938BD4007D1AA50A691B15E021653345B5
:10485400A900B640264496440649F259625AD25AEF
:10486400425BB25B225C925C025D61618280834741
:1048740004001307200A639DE70003552400172C46
:104884000020034C9CEA2286D285EFF00FB73DAAA4
:104894001307100903CC91926397E716834714001A
:1048A4001547639EE7002285EFF0AFB92285EFD06C
:1048B400BFB703C58192EFD0DFBD2A8479B73947EA
:1048C4006399E71603554400631B55050C4483C9DB
:1048D4000500639D0900850591C919461725002027
:1048E400130505E697000020E780C0811727002004
:1048F400034787E385476318F710638A09009727FE
:104904000020238307E24E85EFF02FE645B7894761
:1049140017270020230AF7E0EF80603A41BF93870E
:104924002400631AF50683298400638E090C83C767
:1049340009008DE383C7290003C71900A207D98F93
:10494400172700202316F7DE83C739001727002016
:10495400A30CF7DC17270020034707DD89476314FE
:10496400F70A83C7090081CB97270020238E07DA33
:1049740003C5090051BF8D479725002083C5D5DAAB
:10498400172500200355C5DA17270020230EF7D872
:10499400EF303025F1BF938754006318F5001C44B1
:1049A40003C50700EFF08FFC11B7B3076501C20719
:1049B400C1831147636FF7009387018A9C43E387A0
:1049C40007EE9C43E38407EE22858297E31005EE0D
:1049D4001DA89387B400631FF500938781899C43C6
:1049E400E38607EC9C43E38307ECA2851385B400BC
:1049F4008297E9BF9387C4006310F5021C4483C700
:104A04000700E38507EA9307F00FE301FCEAA285B8
:104A14006285EFD09FAE71BD9387E400E315F5FE88
:104A24009387C1899C43E38307E8DC43A285E9F3C8
:104A3400B5BD3D476397E70403554400E30275FFA2
:104A440093879401E30EF5FC93873401E31DF5FA93
:104A54009727002083D7A7CD639E47019387C189F9
:104A64009C43E38507E4DC43E38207E4A2851385E2
:104A74003401BDBF9387418A9C43E38907E29C4389
:104A8400E5B71307E003E390E7F8834724000547FD
:104A94006396E70E83476400138D0189F1E383274E
:104AA4000D00D5CB03CC0700A14903457400930C3A
:104AB4008400E685EFF08F8583474401A303A400B7
:104AC400835804010358E400035744002A8603452D
:104AD40034003EC283572401E686E2853EC0CE8779
:104AE400EFF06FD98347340095E7DD47835804011D
:104AF4000358E40083467400835544003EC2835740
:104B04002401668705463EC06285CE87EF500019B2
:104B1400A301A40083270D0081C71145EFF09FB0C6
:104B240003C5018BE30405D883C5118BEFE09FC750
:104B3400E30E05D68346340093071003638AF60018
:104B4400035644004E8783C5018B3685EFE0BFCF03
:104B54002388018AA1BB172C0020034C1CBDA9B7D4
:104B64009387018A9C43172C0020034C1CBC914959
:104B74008DDFDC439DDB0145829705BF2947639D9B
:104B8400E70A83476400938C0189C9EB83A70C006F
:104B9400C9C303CC0700A14903457400130D840065
:104BA400937725001376150089E7EA85EFE01FF671
:104BB4002A8683470402A303C4008358C40103580C
:104BC400A40103574400034534003EC28357E40163
:104BD400EA86E2853EC0CE87EFF0EFC98347340012
:104BE40095E7DD478358C4010358A4018346740044
:104BF400835544003EC28357E4016A8705463EC09C
:104C04006285CE87EF508009A301A40083A70C001E
:104C140021B7172C0020034C5CB1B5BF9387018AE0
:104C24009C43172C0020034C5CB09149B5D7DC435E
:104C3400A5D7014582978DB70947639DE700938700
:104C440081899C43E38407C6DC43E38107C622854C
:104C54008297A9B92D476399E700938781899C437B
:104C6400E38607C49C47D5B70D476397E7002286C0
:104C74008D450355440011B91947E396E7D89305C8
:104C8400610113051031EFD0A07C2C0813052031ED
:104C9400EFD0007C03566400835781010355440020
:104CA40063E8C700835684000357610163F7E60095
:104CB40093050002EF806005D5BE6374E6002313FC
:104CC400E40063F4D7002314F4000357C4008356AC
:104CD400A400035684008355640001488147EF8093
:104CE4008002E9B693F7150081CF938781899C43AD
:104CF40089C7DC4399C3014582971345190091BEC6
:104D040093F7250081CF9387018A9C4389C7DC43AD
:104D140099C3054582971345290025BE93F745009D
:104D24000145E38807B2938741899C4391CF854726
:104D340017270020230CF79E9387018A9C4389C779
:104D4400DC4399C305458297972700209387C79D25
:104D5400C8472C08EF7020202808EFF04FBD972794
:104D6400002083D7479B91CB130600643386C70288
:104D7400914503C58192EFD0BFC313454900D1BC0F
:104D8400411122C42A84554506C6EFF0CFE0B3355D
:104D9400A00022852244B24041016F70D073797122
:104DA40022D406D68D472E84631FF50003D7A500B1
:104DB40083D6850003D665000345340083D54500BA
:104DC400EFF02FA309A889671387D7006310E504C0
:104DD40003C5250019E58547B25022543E85456137
:104DE4008280938701899443FDD603C6360083C528
:104DF4000600814802C202C001488147014791066A
:104E0400EFF06FA70545EFF0FF81F1B71387E700D7
:104E1400E303E5FC13873701631AE50003C52500A6
:104E24005DD9014781460146814559BFE507E30441
:104E3400F5FA41677D178147E310E5FA03C755008A
:104E4400C947E31AF7F883D6E50003D6C50003552E
:104E5400840083D5A500EF70D06C51C15D45EFF09F
:104E64008FD33335A000231CA10083454400035590
:104E740024003008EF40702583578101A9FF6C0896
:104E840013051031EFD0C05C9305E1011305203107
:104E9400EFD0005C8357C101035784006374F700AB
:104EA4002314F4008357E1010357A40063F4E700DB
:104EB4002315F400835584008357A40063F4B700DA
:104EC4002315B4000357E4008356C4000356A4001A
:104ED4000355240001488147EF70F060EDBD85471C
:104EE400231CF10059B7C1671387E7FF639DE500F1
:104EF400938701899C4395C383C707000D47639C2F
:104F0400A7006F70905DFD1749476396F50093877E
:104F140001899C43FDF73A8582804947EDBF238E82
:104F2400018A23A2018C23A0018C97270020938758
:104F3400A781170700001307E74798C31707000066
:104F44001307074BD8C3170700001307475B98C71D
:104F54009387418B17070000130727F998C3170796
:104F64000000130707E4D8C3828079714AD01389FB
:104F7400418C8327090006D622D426D24ECE52CCA9
:104F840056CA5AC881EF0545B25022549254025968
:104F9400F249624AD24A424B456182800347050086
:104FA40085472A846301F704034685009306950028
:104FB4009305F1000545EFE0FF99814719C1834747
:104FC40005008346040011476387E6021387018CBA
:104FD40018438D4603471700630FD70089CF01CFCD
:104FE40011E5014555B781470145E1BF8546631D7C
:104FF400D7048D8BFDD703451400130B2400DA85E9
:10500400EFE0DFB0A300A400832709002A8A8149C6
:105014009304F00FB1E3834604009147E383F6FC65
:1050240083270900DDDF03C6C18B01479305F00F19
:10503400E309E6FABE84C10703C507FF6301B5109F
:1050440005071377F70FEDB78946E31CD7F8858B6F
:1050540055B7850993F9F90F83C7C18BE3FDF9FAB5
:1050640003250900939A4900569583470500E38276
:1050740097FE83471500E39E47FD1946DA85090527
:10508400EFD00FFA79D58324090003470400D6949E
:10509400D9D09147631CF706C84405C583478400EB
:1050A400034605006306F606034704009147631DA3
:1050B400F706C84419C597000020E780409323A64B
:1050C40004000345840091659385E5710505970007
:1050D4000020E780208805C5034704009147631E2C
:1050E400F704C8C483478400930594000505A30FFF
:1050F400F5FE0346840097F0FF1FE780A0000345F8
:1051040084003335A00049B588C48DA8884471B79C
:10511400930594000505EFD0AFF08547E316F5F845
:105124005545EFF04FA7BDA8884441DD9700002006
:10513400E780E08B23A4040069B788C465B72380A3
:10514400D40083471400DA8513852400A380F40077
:10515400194697F0FF1FE780E0FA03458400916544
:105164009385F571050597F0FF1FE780A07E05C5BF
:10517400034704009147E319F7F8C8C48347840040
:10518400930594000505A30FF5FE0346840097F0EC
:10519400FF1FE78020F783478400E39607DE03457B
:1051A40004007D1513351500C5B3011122CC1384F9
:1051B400418C1C4006CE26CA4AC84EC652C499CF5A
:1051C4002E8AAA840149084063129902630C0A04D6
:1051D40097000020E780A08123A2018CF240624462
:1051E400D2444249B249224A056182809319490056
:1051F400B3073501884709C997F0FF1FE780207F6F
:105204001C40CE9723A407001C40CE97C84709C969
:1052140097F0FF1FE780A07D1C40BE9923A60900DC
:10522400050955B745DD139644008145EFD02FD9C4
:10523400144081477D5613F7F70FE37197FA1397DC
:10524400470036972300C7008507F5B7011152C4FC
:10525400138A018C83270A0006CE22CC26CA4AC8A8
:105264004EC656C25AC0C9CF2A89014419ED938744
:10527400418C944399CA03C6C18B2A848147930500
:10528400F00F13F7F70F6367C708131534002105F0
:10529400EFD04F9CAA8401E92145EFD0AF9BAA84AB
:1052A40021C501444D49930700FD2380F40085473F
:1052B400A38024012381F400A38184005DC41389A5
:1052C400840023A224018149938A418C130BF00F9B
:1052D40083C7C18B63F3F90031E883270A00A685ED
:1052E40003C50700EFD06FA1814503C5C18B753D90
:1052F40003250A0097F0FF1FE780606F23A0018C4D
:10530400F2406244D2444249B249224A924A024B90
:1053140005618280139747003697034707006305AA
:10532400B70005041374F40F8507A1BF83A70A000F
:1053340093954900BE9583C70500638467032300E2
:10534400F90083C71500130529007D14A300F90093
:10535400194689051374F40F97F0FF1FE78080DA6C
:105364002109850993F9F90FA5B723A20400B5B75C
:10537400411122C406C62A8405E10945EFF0AF8134
:105384002A8611C5854503C58192EFD06FE2054594
:10539400EFF01F9F2A8401C9854503C58192EFD090
:1053A400AFF722856535B24022440545410182802C
:1053B40089671387B700631AE5009387018C9C43C0
:1053C4009DC39C4503C5070065B71387C700814784
:1053D400631CE5009C4503C50700854711C59387F9
:1053E400018C9C43F5F381473E858280797106D612
:1053F40022D426D24AD04ECE52CC56CA5AC85EC601
:1054040079C983473500AA8985C7404115C05945E4
:10541400EFE07FF8931A850193DA8A410149138AF0
:10542400018C130B000DB54B83C73900636DF90074
:10543400B250225492540259F249624AD24A424B1F
:10544400B24B456182808307840263CD570783276B
:105454000A00ADCB2285EFF05FB12DC50345840072
:105464005105EFC03FFFAA8431CD2310650123010C
:10547400750183470400194693052400A301F50030
:105484008307840215052303F50083471400A30F43
:10549400F5FE97F0FF1FE780E0C6034684002386ED
:1054A400C4001DC61385440188C89305940097F071
:1054B400FF1FE78020C583270A00A68503C50700D0
:1054C400EFD0AF830509130494021379F90FA9BF30
:1054D40023A80400CDB79387018C9C43B1DBBD3373
:1054E4002254B25092540259F249624AD24A424B6F
:1054F400B24B014545616FF0BF88797106D622D45D
:1055040026D24AD04ECE52CC56CA5AC85EC671C1B3
:1055140083473500AA8985C7444195C05945EFE0C2
:105524009FE7931A850193DA8A410149138A018C12
:10553400130B00FDC14B83C73900636DF900B250F2
:10554400225492540259F249624AD24A424BB24B13
:10555400456182808387F40063C8570783270A0064
:10556400A5C75145EFC01FEF2A8439CD230065013B
:10557400A30005002301750183C704001946938520
:105584002400A301F5008387F4001505A306F500A4
:1055940083C71400A30FF5FE97F0FF1FE78080B6C2
:1055A40083C78400938594001305C400A305F40005
:1055B400194697F0FF1FE780E0B483270A00A2850D
:1055C40003C50700EFC07FF30509C1041379F90F80
:1055D4009DB79387018C9C43BDD3EFF03FC7225402
:1055E400B25092540259F249624AD24A424BB24BE7
:1055F400014545616FF0CFF883C7B192A18B138544
:10560400418B91E301456FE0EFA9411122C4854527
:105614002A8403C5C18B06C6EFF03FB983C7B19294
:10562400A98BA5CB1715002013050512238E818A9B
:10563400EFE0EFA61384418C1C4091C74D45B24066
:1056440022444101828003C5C18B19E10145C5BFD4
:1056540091659385B571120597F0FF1FE780802F40
:1056640023A2A18C61DD03C6C18B12068145EFD054
:105674000F95104083C6C18B8147FD5513F7F70F73
:10568400E376D7FC1397470032972300B7008507CA
:10569400F5B70145238E018AEFE06FA045BF9387DC
:1056A4004189884301CD411106C697F0FF1FE78069
:1056B4000034B24023AA0188410182808280011112
:1056C40022CC06CE8D472E846316F50603C735001B
:1056D400E94703D545006318F7009717002083D7DF
:1056E40007056385A706EF40A02A09C58357640010
:1056F4002317F5000357A40083568400035664005F
:105704008355440003453400EFE0BF8E0357440043
:105714009717002083D7A7016308F7008547F24055
:1057240062443E8505618280FD57171700202310CF
:10573400F700EDB78967CD07631DF50083C7250022
:1057440031476385E7004547E39AE7FCEFE00F9CA8
:10575400F1B741677D178147E313E5FC83C6550024
:105764004947E39EE6FA83C545000355240030000B
:1057740023140100EF40401055B7797122D41384EB
:1057840041891C4006D626D24AD00545A5C30D45FD
:10579400EFE07FC0AA841145EFE0FFBF2A8993059B
:1057A400F1011305F041EFB030770347F10197178A
:1057B400002083C787F7B336F00011C389061C4065
:1057C40036C603C5370093854700EFE0AFAF1040FE
:1057D400B2462A878348B6000348A60093074600CA
:1057E40003462600CA852685EF70E04DB250225448
:1057F4009254025945618280FD572386F180239497
:10580400018C23A8018C23AA018C23AC018C97174B
:105814000020938727F4170700001307A70798C3EE
:10582400170700001307C734D8C31707000013076E
:1058340007F598C7970700009387A7E823A6F18C7C
:105844008280411126C2938441899C4006C622C4A9
:105854009DCB2A840D45EFC0FFBFAA8519CD9307C0
:1058640000FD2300F5008D47A30085002301F5000A
:105874009C4003C50700EFC05FC811C42244B24076
:105884009244410129BDB2402244924441018280A4
:10589400797126D283544500896706D622D44AD02A
:1058A4004ECE52CC13876700639DE40293874189EF
:1058B4009C43014481CF1845034507000DE105478A
:1058C400A380E7000545EF70C04005442285B2502F
:1058D400225492540259F249624A456182809537B2
:1058E400EDB7138797006365970403C7C1809307D7
:1058F400F00FE30CF7FC1C45114503C40700EFC08F
:105904007FB5AA8579D1930700FD2300F500894767
:105914002301F500F977E117BE9493B41400A300B2
:105924008500A301950003C5C180EFC01FBD71BFF1
:10593400A9070144E39CF4F81389418983270900EA
:105944004A8AC9D7184503C4170085478349070005
:10595400630EF4029717002083C747DDBDF70D459A
:10596400EFC05FAFAA8505C1930700FD2300F500D2
:105974009147A30035012301F5008327090003C5DE
:105984000700EFC09FB7EFF09FD181B79387018DD8
:105994009C4391EF0145EFE01FA02A8611C689457B
:1059A40003C58192EFD0CF8083270A00A9A003C644
:1059B4000700938617009305F1000545EFD09FF982
:1059C40071D983470500858BF1D70545EFE0BF9C6E
:1059D4009307B003AA8463FDA7025D6613060670ED
:1059E400894503C58192938444FCEFD00F9023949E
:1059F400918C832709000947A380E70097170020AB
:105A040083C7C7D299CB97170020238107D27DBDC6
:105A1400130600643306C50251B74E851D357DB5A6
:105A2400938741899C43011122CC06CE26CA4AC8D9
:105A3400454499E783C7B19213F7570009EB4944EA
:105A44002285F2406244D244424905618280138730
:105A5400018D184341446DD70347070075D3858BE7
:105A6400AE842A89D9C783C704000547F91793F779
:105A7400F70FE366F7FC916593857571314597F0EF
:105A8400FF1FE78020ED23AAA1884D4455D92300A8
:105A94002501A30005002946A685090597E0FF1FF7
:105AA400E7804066930571001305F041EFB0D046DE
:105AB40083477100B9E717170020034707C78D47CD
:105AC4006311F704EFE08F8E2C00EF60C0482800CC
:105AD400EFE0EFE54545EFE01F8C014435D11306B7
